:020000040800F2
:10000000C0070020890100084919000841190008AB
:100010004519000845020008811900080000000089
:10002000000000000000000000000000511900085E
:1000300049020008000000004D1900085519000889
:10004000A3010008A3010008A3010008A301000800
:10005000A3010008A3010008A3010008A3010008F0
:10006000A3010008A3010008A3010008A3010008E0
:10007000A3010008A3010008A3010008A3010008D0
:10008000A3010008A3010008A3010008A3010008C0
:10009000A3010008A3010008A3010008A3010008B0
:1000A000A3010008A3010008A3010008A3010008A0
:1000B0005D1900086919000875190008A3010008F6
:1000C000A3010008A3010008A3010008A301000880
:1000D000A3010008A3010008A3010008A301000870
:1000E000A3010008A3010008A301000800F002F822
:1000F00000F03AF80AA090E8000C82448344AAF188
:100100000107DA4501D100F02FF8AFF2090EBAE885
:100110000F0013F0010F18BFFB1A43F0010318473B
:100120001C2C00003C2C0000103A24BF78C878C179
:10013000FAD8520724BF30C830C144BF04680C60ED
:10014000704700000023002400250026103A28BF35
:1001500078C1FBD8520728BF30C148BF0B60704739
:100160001FB51FBD10B510BD00F031F81146FFF7E7
:10017000F7FF01F007FC00F04FF803B4FFF7F2FFC0
:1001800003BC00F057F800000948804709480047C1
:10019000FEE7FEE7FEE7FEE7FEE7FEE7FEE7FEE737
:1001A000FEE7FEE704480549054A064B7047000094
:1001B00059190008ED000008C0010020C007002008
:1001C000C0030020C0030020704770477047754689
:1001D00000F02CF8AE4605006946534620F00700B3
:1001E000854618B020B5FFF7DDFFBDE820404FF091
:1001F00000064FF000074FF000084FF0000BAC4630
:10020000ACE8C009ACE8C009ACE8C009ACE8C0097A
:1002100021F007018D46704710B50446AFF300800A
:100220002046BDE81040FFF7A8BF00000048704717
:100230001800002001491820ABBEFEE7260002008E
:1002400070470000FEE70000704700002DE9F04F06
:1002500082B041F20042C4F201020E6804239042CF
:1002600008BF0323002E009300F0F68040F2004CFC
:100270004FF6FF7E0022C4F2010C0124C1F2100EE1
:100280004FF0000A4FF0000947E000BF012502F0DF
:100290000C040F27A7402BEA070705FA04F43C4398
:1002A00043F82640D1F804B040F20C455FEACB2376
:1002B000DCF8083054BF23EA080343EA0803C4F219
:1002C0000105CCF808302B685FEA8B2454BF23EA81
:1002D000080343EA08032B605FEA8B34DCF8043040
:1002E00054BF23EA080343EA08035FEACB34CCF89F
:1002F0000430DCF800304FF0010454BF23EA080357
:1003000043EA0803CCF800300E680AF1010A36FA15
:100310000AF302F1040200F09F8004FA0AF816EAD8
:10032000080FF1D04B68734512DC122B56D8DFE86A
:1003300003F0350B454955555555555555555555AA
:100340005555554D510000BFD1F80C9046E000BF07
:100350004FF6FF75C1F22105AB420FDC0025C1F25B
:100360001105AB421AD00025C1F21205AB4215D0DF
:100370000025C1F22105AB4210D02FE00025C1F2CB
:100380002205AB420AD00025C1F23105AB4205D0AF
:100390000025C1F23205AB4220D100BF8B684BB1C2
:1003A000012B14BFC0F81480C0F810804FF008096A
:1003B00014E000BF4FF0040910E000BFCB6803F168
:1003C00008090BE04FF0000908E000BFCB6803F11B
:1003D000040903E0CB6803F10C0900BF134605468E
:1003E000BAF1080F24BF203B04352E680F279F4029
:1003F000BE4309FA03F333432B60CB79DB067FF569
:1004000083AF41F21804C4F2020423684FEA9A064B
:1004100043F001032360236840F6000403F0010366
:100420000193019BACF57E7353F826B0C4F201042E
:10043000A0420FD040F60044C4F20104A0423FF4B1
:1004400025AF41F20004C4F20104009DA04208BFA0
:1004500002251CE700251AE702B0BDE8F08F000076
:10046000002A08BF090401617047000040F2B8107B
:10047000C2F200000068704740F2000040F2B8117C
:10048000C2F20000C2F2000100780A68104408605D
:100490007047000080B542F20000C4F2020001681B
:1004A00041F010010160032000F08AF80F2000F0F5
:1004B00005F800F027F8002080BD000070B540F27C
:1004C0000006C2F2000640F20C013278C2F20001CE
:1004D0004FF47A730968B3FBF2F20446B1FBF2F110
:1004E000084600F037FB0F2C4FF0010508D838B94B
:1004F0004FF0FF3021460022002500F035F87460EF
:10050000284670BD82B041F21800C4F202000168B2
:10051000022241F001010160016801F00101019135
:100520000199416841F080514160406800F080507D
:10053000009000980420C4F20100016862F31A617F
:10054000016002B070470000002848BF704700F00B
:100550001F01012202FA01F14EF200124009CEF20F
:10056000000242F82010704710B54EF60C5CCEF237
:10057000000CDCF80030C3F3022E8EF00704042CCC
:1005800028BF0424BEF103034FF0FF3E0EFA04F42B
:1005900038BF0023A14399400EFA03F39A43114355
:1005A00000F00F02043A624409010C3200F160438A
:1005B000B0F1FF3FC8BF03F56442117010BD0000E9
:1005C0004EF60C51CEF200010A684FF6FF031A40B6
:1005D00060F30A2242F0806040F0FD7008607047CE
:1005E0002DE9F04381B0002800F0858042F2000838
:1005F000C4F202080446D8F800000D4600F00700D7
:1006000088420CD2D8F8000020F007002843C8F830
:100610000000D8F8000000F00700A8426BD1206865
:1006200041F204098107C4F2020917D5410705D533
:10063000D9F8001041F4E061C9F80010010705D5B0
:10064000D9F8001041F46051C9F80010D9F8001031
:10065000A26821F0F0011143C9F80010C00741D190
:10066000D8F8000000F00700A8420CD9D8F8000024
:1006700020F007002843C8F80000D8F8000000F078
:100680000700A84237D12068410707D5D9F80010E4
:10069000E26821F4E0611143C9F80010000708D5B1
:1006A000D9F80000216920F4605040EAC100C9F87F
:1006B0000000D9F8002002F00C00082841F20020C8
:1006C000C0F27A0050D142F62C53C2F38341C0F6F7
:1006D0000003595CD2033BD440F60010C0F23D0049
:1006E000484341E0606802280AD001282AD159F81D
:1006F000041C890308D4012001B0BDE8F08300BFC9
:1007000059F8041C8901F6D5D9F8001021F003012D
:100710000843C9F80000FFF7A9FE064641F28837F2
:10072000D9F80000616800F00C00B0EB810F97D0A1
:10073000FFF79CFE801BB842F2D9032001B0BDE850
:10074000F08300BF59F8041C8907D4D5DCE700BF4B
:10075000D9F8002042F62A53C2F34042C0F6000303
:100760009A5C4843B0FBF2F0D9F8001042F61A52F6
:10077000C1F30311C0F60002515C40F20C0220FAF2
:1007800001F140F20400C2F200000068C2F200026F
:100790001160FFF793FE002001B0BDE8F083000078
:1007A0002DE9F04182B0002868D00446007841F27B
:1007B0000006C007C4F2020625D0706800F00C00E5
:1007C00004281BD0706800F00C00082802D1706863
:1007D000C00313D46068002800F06881B0F5A02F32
:1007E00000F07C81B0F5803F00F07C81306820F41F
:1007F00080303060306820F4802076E130688003FB
:1008000001D56068D0B32078800718D5706810F0E3
:100810000C0F07D0706800F00C0008286ED17068CB
:10082000C0036BD43068800702D52069012825D128
:100830003068616920F0F80040EAC100306020783B
:1008400000071FD42078400732D4E56995B170685D
:1008500000F00C00082840F08F80012D0ED0706849
:10086000216A00F480328A4208D1616A00F4701073
:10087000884203D1002002B0BDE8F081012002B01F
:10088000BDE8F081A069002862D00020C4F24220B7
:100890000121C0F88014FFF7E9FD0546706A800762
:1008A00000F18C80FFF7E2FD401B0228F6D92AE117
:1008B000F06910F0805808D1F06940F08050F06184
:1008C000F06900F080500090009847F20007C4F2F1
:1008D00000073868C00529D4386840F48070386053
:1008E000FFF7C4FD054600BF3868C0051ED4FFF7FA
:1008F000BDFD401B6428F7D905E100BF2069002831
:1009000040F20000C4F2422000F082800121016028
:10091000FFF7ACFD054600BF306880073FF588AFA4
:10092000FFF7A4FD401B0228F6D9ECE0E0680028A0
:1009300000F08080052800F09780012800F0988062
:10094000306A20F001003062306A20F0040092E04A
:100950000020C4F242200021C0F88014FFF786FD79
:10096000054600BF706A80077FF56CAFFFF77EFD1C
:10097000401B0228F6D9C6E00027C4F24227002017
:100980003866FFF773FD022D05460BD130688001F4
:1009900040F1BE80FFF76AFD401B02284FF00300C4
:1009A000F4D968E7306880017FF564AFFFF75EFD3A
:1009B000401B02284FF00300F4D95CE740F20C0022
:1009C000C2F20000006844F6D351C1F26201A0FBFC
:1009D0000101480A019000BF00BF0198411E002894
:1009E00001913FF42FAF00BF0198411E00280191F3
:1009F0003FF428AF00BF0198411E002801913FF449
:100A000021AF00BF0198411E00280191E4D119E7F0
:100A100000210160FFF72AFD054600BF306880070E
:100A20007FF50DAFFFF722FD401B02284FF00300BA
:100A3000F4D920E7306A20F001003062306A20F0FB
:100A400004003062FFF712FD054641F2883700BF0F
:100A5000306A800720D5FFF709FD401BB8424FF0F0
:100A60000300F5D907E700BF306A40F004003062A8
:100A7000306A40F001003062FFF7F8FC054641F2B1
:100A8000883700BF306A800706D4FFF7EFFC401BB1
:100A9000B842F7D937E000BFB8F1000F7FF4D5AE08
:100AA000F06920F08050F061CFE600BF306820F49C
:100AB00080303060306820F480203060FFF7D6FC52
:100AC000054600BF306880037FF59DAEFFF7CEFC82
:100AD000401B64284FF00300F4D9CCE6306840F4A2
:100AE00080203060306840F480303060FFF7BEFC1A
:100AF000054600BF306880033FF585AEFFF7B6FCC2
:100B0000401B6428F6D9032002B0BDE8F08100BF85
:100B1000206AB0F5803F05D17168A26821F40031E8
:100B2000114371607168626A21F4741110430843C3
:100B3000706001203866FFF799FC04463068800138
:100B40003FF598AEFFF792FC001B02284FF0030020
:100B5000F4D990E6411E0020B0EB116F1CBF0120BC
:100B600070474EF21002CEF2000251604EF6235151
:100B7000CEF20001F0230B700721906011607047E6
:100B8000704700007047000010B590F83C20012A23
:100B90004FF0020233D080F83D200268D2F804E022
:100BA000D2F808C00C682EF07003234340F2FF74A3
:100BB000C4F20004A24253600ADCB2F1804F13D0A9
:100BC00040F20043C4F200039A420DD011E000BF8E
:100BD00042F60043C4F201039A4205D040F60003F6
:100BE000C4F200039A4204D149682CF080031943EF
:100BF00091600121002280F83D1080F83C201046D1
:100C000010BD0000002804BF0120704710B5044645
:100C100090F83D0028B9002084F83C00204600F000
:100C200067F8022084F83D00206840F2FF730268F4
:100C3000C4F2000342F6004C9842C4F2010C15DCE9
:100C4000B0F1804F1AD040F20041C4F20001884256
:100C500014D0984218DCB0F1804F1DD040F2004112
:100C6000C4F20001884217D01AE000BF604505D0E9
:100C700040F60001C4F200018842EAD1A16822F0E6
:100C800070020A439842E6DD604505D040F6000157
:100C9000C4F20001884203D1216922F440720A4360
:100CA000A36922F08001D4F804E0E26819436045AA
:100CB0000160C262C0F828E002D16169CCF830104E
:100CC00001214161002084F8461084F83E1084F828
:100CD0003F1084F8401084F8411084F8421084F8E2
:100CE000431084F8441084F8451084F83D1010BD7A
:100CF00010B582B0006840F60001C4F200018842DD
:100D000018D040F20041C4F2000188422CD141F2D7
:100D10001C00C4F202000168002241F002010160DF
:100D20000068022100F00200019001981D201D249E
:100D300011E000BF41F21C00C4F202000168002271
:100D400041F0040101600068002100F004000090FF
:100D500000981E201E24FFF707FC204602B0BDE8C5
:100D60001040FFF7F1BB00BF02B010BD90F83D107E
:100D700001291CBF01207047022180F83D10006846
:100D800040F2FF72C168C4F20002904241F00101DA
:100D9000C16009DCB0F1804F12D040F20041C4F2D2
:100DA000000188420CD012E042F60041C4F2010179
:100DB000884205D040F60001C4F20001884206D105
:100DC000816801F00701062904BF0020704701680F
:100DD00041F00101016000207047000080B590F8EB
:100DE0003C20012A4FF0020200F0C28080F83D2032
:100DF000D0F800C04FF67772DCF8083023EA020220
:100E0000CCF808200B684F2B28DC1F2B44DD202B4F
:100E100045D0302B43D0402B40F0AC80D1F804E0DB
:100E2000C968DCF82030DCF8202022F00102CCF880
:100E30002020DCF8182022F0F00242EA011123F011
:100E40000A0242EA0E02CCF81810CCF82020DCF896
:100E5000081041F0470121F0300180E06F2B27DDC1
:100E6000B3F5005F48D0B3F5805F7AD0702B40F0C7
:100E70008180D1E901E3C968DCF8082043EA0E0368
:100E800022F47F4243EA01211143CCF80810DCF838
:100E9000081041F0770162E00BB1102B6AD1DCF849
:100EA000081021F07001194341F0070157E000BF1D
:100EB000502B35D0602B5DD1D1F804E0C968DCF847
:100EC0002030DCF8202022F01002CCF82020DCF8C2
:100ED000182022F4704242EA013123F0A00242EAD3
:100EE0000E12CCF81810CCF82020DCF8081041F0D5
:100EF000670121F0100132E0D1E901E3C968DCF8B3
:100F0000082043EA0E0322F47F4243EA0121114301
:100F1000CCF80810DCF8081041F480411FE000BF55
:100F2000D1F804E0C968DCF82030DCF8202022F099
:100F30000102CCF82020DCF8182022F0F00242EA6E
:100F4000011123F00A0242EA0E02CCF81810CCF884
:100F50002020DCF8081041F0570121F02001CCF8E6
:100F600008100022012180F83D10002180F83C107B
:100F7000104680BD0122F5E7002804BF012070471C
:100F80002DE9F04F81B0044690F83D000D4628B998
:100F9000002084F83C00204600F094F8022084F8F9
:100FA0003D00206844F20702816840F2FF739143DC
:100FB00081600268C4F2000342F6004C9842C4F219
:100FC000010C15DCB0F1804F1AD040F20041C4F2A0
:100FD0000001884214D0984218DCB0F1804F1DD037
:100FE00040F20041C4F20001884217D01AE000BF6D
:100FF000604505D040F60001C4F200018842EAD104
:10100000A16822F070020A439842E6DD604505D0EF
:1010100040F60001C4F20001884203D1216922F4A4
:1010200040720A43A36922F08001D4F804E0E26828
:10103000194360450160C262C0F828E002D16169CD
:10104000CCF830104FF00109C0F814908268D0F845
:1010500018E0D0F820C0D5E90038D5E9027B43EA92
:10106000020AAB694FF6FF712EEA010E47EA03232D
:101070004FF6FC47BB43D5E907724BEA0E012E69D8
:10108000194341EA072141EA061141EA02312CF0F5
:1010900022026B6942EA080242EA0312C0F808A081
:1010A0008161026284F8469084F83E9084F83F9013
:1010B00084F8429084F8439084F83D90002001B079
:1010C000BDE8F08F80B586B001680020B1F1804F97
:1010D000059001D006B080BD41F21801C4F20201B2
:1010E0004A6842F001024A604A6802F00102019235
:1010F000019A0A6842F004020A60096801F00401DA
:10110000019101990321CDE902100120049040F6DC
:101110000000C4F2010002A9FFF798F81C20012189
:101120000022FFF721FA1C20FFF70EFA06B080BD5F
:1011300080B590F83E2090F83F3090F842E090F86B
:1011400043C004290AD0B9B9012A4FF0010208BFEF
:10115000BEF1010F34D0104680BD00BF012B4FF00F
:10116000010208BFBCF1010FF5D1022180F83F1048
:1011700080F8431000681EE0012A4FF0010208BF0A
:10118000012BE8D1BEF1010FE5D1BCF1010FE2D195
:10119000022280F83E2080F83F2080F8422080F82C
:1011A000432091B10068016A21F001010162016AE6
:1011B00041F00101016210216FF0100209E000BF4F
:1011C000022180F83E1080F84210006801216FF083
:1011D0000102036A1A400262026A11430162016855
:1011E000002241F001010160104680BD70470000FF
:1011F00010B5016804460869800744BFC8685FEA03
:10120000807039D40869400744BFC8685FEA4070FD
:101210003ED40869000744BFC8685FEA007045D43F
:101220000869C00644BFC8685FEAC0604AD408695C
:10123000C0071CBFC8685FEAC07051D108690006CA
:1012400044BFC8685FEA006052D40869400644BFE2
:10125000C8685FEA406053D40869800646BFC86822
:101260005FEA806010BD6FF0200220460A61BDE891
:101270001040FFF787BC00BF6FF00200086101203B
:1012800020778869800743D02046FFF7AFFF45E00D
:101290006FF00400086102202077886910F4407F15
:1012A00040D02046FFF7A2FF42E000BF6FF00800E9
:1012B000086104202077C86980073DD02046FFF7E9
:1012C00095FF3FE06FF01000086108202077C869A3
:1012D00010F4407F3AD02046FFF788FF3CE000BF83
:1012E0006FF001000861204600F050FA2168A5E780
:1012F0006FF0800008612046FFF742FC2168A4E7F8
:101300006FF040000861204600F018FB2168A3E759
:10131000204600F04DF8204600F0C6F92168002074
:1013200020776FE7204600F043F8204600F0BCF934
:101330002168002020776CE7204600F039F820462D
:1013400000F0B2F921680020207769E7204600F01C
:101350002FF8204600F0A8F921680020207766E7E2
:1013600080B586B040F600010068C4F2000100229A
:101370008842049202D006B080BD00BF41F218003E
:10138000C4F20200026842F008020260006800F045
:1013900008000190019840200290022003900590DF
:1013A00001F5823002A9FEF751FF06B080BD0000B2
:1013B000704700002DE9F04390F83C30012B04BF4A
:1013C0000220BDE8F0834FEAB202032A3CD8DFE8EE
:1013D00002F003437FB900BF036842F600461D6A6E
:1013E0001A6AC4F2010622F001021A621A465C6807
:1013F00052F818CFB3428E68D1F800E025F002050C
:1014000045EA06050CD1CE68D1E9057824F440748C
:1014100025F00C0526F004063C43354344EA080455
:101420002CF0730747EA0E075C609F614F680969FB
:101430005F631D629F6947F008079F619F6927F0FE
:1014400004079F61AEE000BF0121002280F83C202C
:101450000846BDE8F08300BF036842F600461D6AF7
:101460001A6AC4F2010622F010021A621A46D3F870
:1014700004C052F8184FB3428E68D1F800E025F04E
:10148000200545EA06150FD1CE68D1E905986FF021
:10149000400707EA06162CF4406725F0C00547EA26
:1014A0008907354347EA880C24F4E64444EA0E27CA
:1014B000C3F804C09F614F6809699F631D629F69FB
:1014C00047F400679F619F6927F480679F6168E028
:1014D000036842F600461D6A1A6AC4F2010622F445
:1014E00080721A621A46D3F804C052F81CEFB34255
:1014F0008E680C6825F4007545EA06250FD1CE6884
:10150000D1E90598360240F2FF47BE432CF440571C
:1015100025F4406547EA0917354347EA081C2EF0D1
:1015200073072743C3F804C0DF614F680969DF63AD
:101530001D62DF6947F00807DF61DF6927F00407F4
:10154000DF612FE0036842F60047D3F820C01A6A33
:10155000C4F2010722F480521A621A465C6852F8FB
:101560001C5FD1F800E08E68BB4204D14F6924F4BF
:10157000804444EA87142CF4005747EA063725F4E0
:10158000E64646EA0E265C60DE614E6809691E6426
:101590001F62DF6947F40067DF61DF6927F4806756
:1015A000DF6109021368194311600021002280F8ED
:1015B0003C200846BDE8F083002804BF01207047A6
:1015C00010B5044690F83D0028B9002084F83C008E
:1015D000204600F067F8022084F83D00206840F2C1
:1015E000FF730268C4F2000342F6004C9842C4F252
:1015F000010C15DCB0F1804F1AD040F20041C4F26A
:101600000001884214D0984218DCB0F1804F1DD000
:1016100040F20041C4F20001884217D01AE000BF36
:10162000604505D040F60001C4F200018842EAD1CD
:10163000A16822F070020A439842E6DD604505D0B9
:1016400040F60001C4F20001884203D1216922F46E
:1016500040720A43A36922F08001D4F804E0E268F2
:10166000194360450160C262C0F828E002D1616997
:10167000CCF8301001214161002084F8461084F834
:101680003E1084F83F1084F8401084F8411084F82C
:10169000421084F8431084F8441084F8451084F80C
:1016A0003D1010BD704700007047000041B108298F
:1016B00010D0042914BF00F1410200F13F020BE0F9
:1016C00090F83E20012A1CBF01207047022280F8BA
:1016D0003E2013E000F140021278012A1CBF0120D5
:1016E00070470222082907D0042914BF80F841203E
:1016F00080F83F2002E000BF80F84020006801F041
:101700001F010122036A8A4023EA02010162036A7F
:1017100042F64441C4F201011A43A1F14403984244
:1017200002620FD040F2FF71C4F20001884213DC64
:10173000B0F1804F1CD040F20041C4F20001884259
:1017400016D01CE00A6842F400420A6040F2FF71C1
:10175000C4F200018842EBDD42F60041C4F201010F
:10176000884205D040F60001C4F20001884206D14B
:10177000816801F00701062904BF00207047016855
:1017800041F0010101600020704700002DE9F04F99
:1017900081B0006840F20041C4F20001884203D0E9
:1017A00001B0BDE8F08F00BF40F2E000C2F20000DF
:1017B000026840F278091068C2F2000910F01001C6
:1017C0004FF0FF3008BF0120C9F82C00506AA9F87B
:1017D00000001369DB0705D140F21001C2F20001DD
:1017E00009680CE06FF00103136140F21002C2F2CD
:1017F00000021368002914BF591E591C116080B2E1
:10180000C1EB01410C18D9F80800D9F82810201AAA
:10181000C9F80440009101F0BFF80021C4F21C3166
:1018200000F0C4FF4DF20A71C3F6234100F0BEFF81
:101830000021C4F2702101F02FF90646C9F80C000E
:1018400000F0F0FE49F69A1A49F6991BC9F6991A62
:10185000C3F6D97B52465B4600F0F8FC48F26E6551
:1018600042F2F917CFF21B05C4F209072A463B469C
:1018700000F0ECFC0023C4F24E03002200F05CFBFD
:1018800000F080FAC9F81000204601F085F84FF604
:101890003521C3F68E41804601F0FEF80021C9F8DB
:1018A00014004046C4F21C3100F080FF00F0BAFE84
:1018B00052465B4600F0CAFC2A463B4600F0C6FC96
:1018C00000F060FAC9F8180000983146C9F80840DD
:1018D00000F0AAF90025C4F2C82529460446C9F833
:1018E000240000F03BFF28B920460021002500F02D
:1018F0003CFF10B92C46C9F82450204600F092FE57
:1019000041F27B4247F6E123C4F2AE72C3F6847320
:1019100000F09CFC4FF6E073C4F2EF03002200F0ED
:1019200095FC00F063FC40F27011C2F200010968FE
:10193000A9F80200486301B0BDE8F08F70470000CD
:10194000FEE70000FEE70000FEE700007047000031
:1019500070470000FEF790BD7047000040F2E000C5
:10196000C2F20000FFF744BC40F22810C2F20000AF
:10197000FFF73EBC40F27010C2F20000FFF738BC27
:10198000FEE7000092B0FEF785FD00240120CDE9BE
:101990000B44CDE9094406900A904FF4E0104FF44F
:1019A000803102250F9006A8CDE90714CDE90D512D
:1019B000FEF7F6FE20B1EFF3108072B6FEE700BF2F
:1019C0000F20CDE900054FF48060CDE9030468469F
:1019D00002210294FEF704FE20B1EFF3108072B6EC
:1019E000FEE700BF41F21800C4F20200016841F2B4
:1019F000000441F0100101600168C4F2010401F02B
:101A00001001069106990168002241F02001016051
:101A100001684FF4005601F0200106910699016813
:101A2000002541F004010160016801F00401069104
:101A30000699016841F00801016000684FF4005107
:101A400000F00800069006982046FEF709FD0220E7
:101A500006960126099006A92046CDE90766FEF7FD
:101A6000F5FB40F2E000C2F200004FF080414FF67B
:101A7000FF72C0E90015C0E90252032106AA62C242
:101A800006A9CDE9005505618561CDE90955CDE986
:101A90000B56CDE90D55FFF76FFA28B1EFF3108023
:101AA00072B600BFFEE700BF40F2E000C2F20000E5
:101AB0006946FFF769F828B1EFF3108072B600BFEE
:101AC000FEE700BF40F228100021A4F58632C2F2E2
:101AD000000040F28F1340F283360991CDE90711DF
:101AE000CDE90011C0E90023C0E90216016181615E
:101AF000FFF788F820B1EFF3108072B6FEE700BF61
:101B00004FF48050069040F22810C2F2000006A95F
:101B1000FFF764F920B1EFF3108072B6FEE700BF63
:101B200040F22810C2F200006946FFF72DF828B1F4
:101B3000EFF3108072B600BFFEE700BF40F27010F6
:101B40000021A4F58432C2F200004FF6FF73039126
:101B5000CDE90111CDE91011CDE90B11CDE9091144
:101B6000C0E90021C0E9021301618161FFF74AF871
:101B700020B1EFF3108072B6FEE700BF4FF4805043
:101B8000009040F27010C2F200006946FFF726F99B
:101B900020B1EFF3108072B6FEE700BF40F2701084
:101BA000C2F20000FFF708FD20B1EFF3108072B61B
:101BB000FEE700BF40F27010C2F2000010A9FEF76D
:101BC000E3FF18B1EFF3108072B6FEE760200690D5
:101BD0000020CDE907000A9040F27010C2F2000028
:101BE00006A90022FFF7E6FB20B1EFF3108072B6E2
:101BF000FEE700BF40F27014C2F200042046FFF777
:101C0000AFFB40F2E000C2F200003C21FFF790FA87
:101C100040F22810C2F20000FFF7A8F82046002189
:101C2000FFF744FDFEE700002DE9F04F85B000F01E
:101C3000FFFF029040F2080040F2780BC2F2000071
:101C4000C2F2000B0568DBE90768DBE912104DF210
:101C50000A74C3F62344CDE903103046214600F050
:101C60001BFF214600F018FF4DF20A710446C3F62F
:101C7000A341284600F010FF214600F0FFFC044677
:101C80004046414600F0FAFC2146074600F0F6FCCB
:101C900000F0C8FC8A4600210190CBE90C0ACCF286
:101CA0008001404600F0F8FE4BF217710446C3F67F
:101CB000D101304600F0F0FE214600F0DFFC4DF28D
:101CC0000A710446CBF6A341284600F0E5FE214602
:101CD00000F0D4FC00F0A6FC04460D463846CBE9E3
:101CE0000E4500F09FFC064602980F46CBE91067B0
:101CF00000F098FC81468846DDE9030122462B4628
:101D000000F0A4FA044601980D4651464A4643465F
:101D100000F09CFA22462B4600F066F8DBE914231B
:101D200004460D463046394600F090FA22462B46CE
:101D300000F05AF80446DBE9160247F6E126C3F63E
:101D400094760D4611464FF08042334600F07EFAFD
:101D500022462B4600F048F84FF08042334600F010
:101D6000EBF8039ACBE91298CBF85020049ACBE910
:101D70001710CBE91520CBF8641000F003F805B07C
:101D8000BDE8F08F21F0004201F00043A2F1605263
:101D9000B2F5801F28BFD2F17F6C0BD95FEA001C1F
:101DA00043EAC20242EB507018BF704728BF20F0D0
:101DB00001007047B2F5801FBCBF184670474FEA5C
:101DC000410C1CF5001F02D2084600F02CBF70B574
:101DD00000F0E6FA00000089FFF7F6BF4FF0004080
:101DE000A0F580007047000010B591EA030F48BFCE
:101DF00083F0004300F13083841A71EB030C05D2A9
:101E0000121943EB0C03001B61EB0C014FEA115458
:101E1000A4EB135CDFF81CE11EEA430F18BF9EEA37
:101E2000445F00F0748021EA045123EA0E0343F476
:101E30008013DCF1200E32D322FA0CFE10EB0E00E0
:101E400023FA0CFE41EB0E01CCF1200E03FA0EFE3C
:101E500010EB0E00CCF1200E51F10001B1F5801F06
:101E600032D201EB045112FA0EF2BDE8104058BF15
:101E70007047401C38BF5FEA420218BF7047002815
:101E800014BF20F0010041F100014FEA410313F5B6
:101E9000001F38BF7047A1F1C04100F0CFBA012A3E
:101EA00043EB0302ACF1200CDCF11F0E32BF4FF00C
:101EB000000E23FA0CF310EB030041EB0451B4EBDA
:101EC000115FD0D0A1EB045101F58011490801EB5D
:101ED00004515FEA30000ED350F1000038BF12FA0F
:101EE0000EFE08D1BDE81040C9E7401C38BF5FEACC
:101EF0004202CAD1C3E7BDE810404FEA410313F5DF
:101F0000001F38BF7047A1F1C04100F097BA9EEAA8
:101F1000445F08D011EA5E0FBDE8104004BF01F035
:101F2000004100207047BDE8104070B500F038FA5D
:101F300064FBBE3E0000E0FF2DE9C04130B4DFF895
:101F4000A4C23CEA111418BF3CEA131400F0ED805F
:101F50001CEA111481EA030544EAD57418BF1CEA8F
:101F6000131500F0C880A4EB050404F17F7404F598
:101F700000344FF0004545EAC12145EAC32341EA58
:101F8000505143EA52534FEAC0204FEAC2229942CD
:101F900008BF904200F09D804FEA13650FF244168F
:101FA000765D4FEA134506FB05F7C7F1807706FB20
:101FB00007F74FEAD737A7FB03687642A7FB06CEA1
:101FC000C8F5803838BFA8F1010807FB08E6A6FB72
:101FD000028C4FF0000EE6FB03CEDCF1000CCEF1DC
:101FE000004E38BFAEF1010EA6FB0C584FF00007B3
:101FF000E6FB0E87A1FB08C6A0FB07CE16EB0E067C
:102000004FF0000545F10005E1FB076515F1E04ED5
:102010007EBFA4F580345FEA46066D4116F1800765
:1020200045F100054FEA172747EA05674FEA1525EE
:102030004FEA0666A6F1DE46B6F1805F20D9384643
:1020400005EBC47124F0010C01EB0C11BCF1FE6F27
:1020500002D8F0BCBDE8008124425CBF01F5801EBF
:102060009EEAC47F02D4F0BCBDE80081244200F1A6
:102070003980A1F1C041F0BCBDE8004100F0DEB9FB
:102080004FEAD02040EA41504FEAD1214FEAD22214
:1020900042EA43524FEAD323A7FB028607FB0366BB
:1020A00005FB02661EEA0E0F58BFA6EB0056B6EB04
:1020B00000564FEA520E4EEAC37E18EB0E0E56EB58
:1020C000530EBCD518EB02085E417F1C55F100058C
:1020D000B5E74FF480154FF000074FF000064FF0C2
:1020E0000008ACE701F1C04101F000414FF00000F1
:1020F000F0BCBDE800810CEA131511EA0C1F00D0FA
:102100000CE013EA0C1F00F026804FF0000081EA7B
:10211000030101F00041F0BCBDE80081F0BCBDE866
:10212000004181EA030100F089B9F0BCBDE800413B
:1021300070B500F035F900BF097EFC3E00F007B82D
:102140004FF0000081EA030101F00041704781EA8D
:10215000030100F073B9F0BCBDE8004122494FF023
:1021600000007047FFFDFBF9F7F5F4F2F0EEEDEB40
:10217000E9E8E6E4E3E1E0DEDDDBDAD8D7D5D4D385
:10218000D1D0CFCDCCCBCAC8C7C6C5C4C2C1C0BFD1
:10219000BEBDBCBBBAB9B8B7B6B5B4B3B2B1B0AFD7
:1021A000AEADACABAAA9A8A8A7A6A5A4A3A3A2A1BB
:1021B000A09F9F9E9D9C9C9B9A9999989797969576
:1021C00095949393929191908F8F8E8E8D8C8C8B12
:1021D0008B8A89898888878786858584848383829A
:1021E000828181800000FF070000F87F4FEA4103F1
:1021F0004FEA5353A3F58063D3F11E03C8BFD3F155
:10220000210C0CDD4FF0004242EAC12242EA50525A
:1022100032FA03FC8CEAE17CACEBE1707047102BE6
:10222000C4BF0020704703F5787CBCF1FF3F04D0A9
:102230006FF0004282EA2100704770B500F0B0F8FC
:102240004992248000207047F2E7000070B5DFF863
:1022500048C11CEA111E1EBF1CEA13159EEA0C0F92
:1022600095EA0C0F00F06F8081EA03044EEAD47EF9
:10227000AE4421EA4C1123EA4C1341F4801143F49B
:102280008013AEF17F7EA1FB024CA0FB03653619E3
:1022900055EB0C05A1FB034C4CF10003A0FB021C09
:1022A00016EB0C06654153F10003094218BF46F0D6
:1022B000010613F4007F0BD14FEA03314FEA0530DA
:1022C00041EA155140EA165034036FF003020AE068
:1022D0004FEAC3214FEAC52041EA555140EA565022
:1022E000F4026FF0020202EB2E4201EB025585EA86
:1022F000CE710AD05FEA440C18BF24F0004450F1BC
:10230000000041F1000120EAD47040F2FE7C6245F9
:1023100000D270BDA84214BF4FF080444FF040443B
:10232000002E08BF0024BEF1806FA8BFA1F1C041FC
:10233000BDE8704080F2828001F1C04101F00041AF
:102340004FF0000070470CEA13159EEA0C0F18BFFF
:1023500095EA0C0F06D081EA030E4FF000000EF054
:10236000004170BD00F01CF88900013E00F007B884
:1023700000F009B84FEA430C5FEA5C5C08D081EAE0
:10238000030100F05BB84FEA410C5FEA5C5CF6D1F8
:1023900002494FF0000070470000FF070000F87F7F
:1023A0000EF1020E2EF0030E5EF8046B364205D4D9
:1023B000012A43EB030515F5001F12D8012841EB54
:1023C000010C1CF5001F0CD80ED14FEAD17C0CEB90
:1023D0004C0C0CF1020C15F5001F08BF4CEBD37C24
:1023E00004E04FF0080C01E04FEAD37C0CEB4C0505
:1023F00026FA05F606F00706B6F1040C06D20EEB37
:10240000860CBDE870404CF0010C6047DFE80CF032
:10241000090B02024FF00041A1F500214FF000002E
:1024200070BD19461046012851EB010418BFD4F5C0
:10243000001484BF002001F0004170BD0808A0F521
:1024400000114FEA3101704710B591EA030F48BF00
:1024500083F000433FF5D0AC841A71EB030C07D234
:102460008CF0004C121943EB0C03001B61EB0C01C8
:102470004FEA1154A4EB135CDFF8A4E11EEA430F0A
:1024800018BF9EEA445F00F0B48021EA045123EAB9
:102490006E035242C3EB6E0338BF5B1EDCF1200EAD
:1024A00025D322FA0CFE10EB0E0043FA0CFE41EB92
:1024B0000E01CCF1200E03FA0EFE10EB0E00CCF153
:1024C000200E51F1000129D401EB045112FA0EF251
:1024D000BDE8104058BF7047401C1CBFB2F1004F10
:1024E000704700280CBF491C20F00100704712EB18
:1024F000020E43EB030218BF4FF0010E4EEA4202F8
:10250000ACF1200CDCF11E0E56D943FA0CFE10EB98
:102510000E00CCF11E0E51F1FF31D5D50EF1010E9A
:1025200012FA0EFE404141EB010101EB445C5FEA0F
:102530005C5C10D901EB045110EBDE7038BFBEF1CA
:10254000004FBDE8104018BF704700280CBF491C61
:1025500020F00100704734D24FEAD42C24F40064F8
:1025600011F500111BD0B1FA81F20B3AA41AA41E86
:10257000D2F12003914030FA03F31943904001EB6C
:10258000CC7101EB0451002CBDE81040A8BF70478E
:1025900001F1C04101F000414FF000007047B0FA76
:1025A00080F310FA03F102D1BDE810407047E41A3D
:1025B000173C4805C90AE2E701EB0451BDE81040A9
:1025C000704749104FEA300001EB0451BDE810405C
:1025D00002E04FF0000170474A0008BF0042F8D007
:1025E000B2F5001F28BF704701F000414FF0000016
:1025F00070479EEA445F07D011EA5E0FBDE81040C5
:1026000004BF002100207047BDE8104070B5FFF7FF
:10261000C7FE00BF40DFF63E104683F00041704722
:102620000000E0FF43004FEAD30C4FEA3C0C43406C
:102630001FBF40070CF1605113F0FE4F70471CF0B4
:10264000006F03D10CF00041002070470CF00043F4
:1026500043EA507040EACC0010B500F09EFA00BF8B
:10266000000000924FEA0001FFF7E8BE4FF0004182
:10267000A1F500214FF000007047000090EA010F23
:1026800048BF81F0004100F1DA82421A3CBF801A53
:1026900089184FEAD052A2EBD1534FF07F4C1CEA7D
:1026A000410F18BF9CEA026F00F03B804FF0004CD6
:1026B0004CEA00204CEA012121FA03FC10EB0C0C3F
:1026C0001ED202F1FF325FEA1C2040EBC25038BF3D
:1026D00070471CF07F0F4FEA400C18BFBCF17F4FD2
:1026E00038BF7047C3F12003994008BF20F00100B4
:1026F000BCF17F4F38BF7047A0F1C04000F093BAE3
:102700004FEA3C00000A40EBC25028BF1CF0FF0F0C
:102710004FEA400CE6D018BFBCF17F4F38BF70477E
:10272000EAE79CEA026F05D010EA5C0F08BF00F0F0
:102730000040704710B500F030FA00BF64FBBE3EA9
:1027400010B500F0F5F80CBF0120002010BD10B549
:1027500000F0EEF814BF0120002010BD10B500F00D
:1027600033F98CBF0120002010BD10B500F02CF90A
:102770002CBF0120002010BD10B500F059F994BF06
:102780000120002010BD10B500F052F934BF012027
:10279000002010BD401058BFC0F14040491058BF44
:1027A000C1F140418142EFF3008070474FF47F0C4C
:1027B0001CEAD0121EBF1CEAD11392EA0C0F93EA56
:1027C0000C0F00F0858090EA010F48BF42F4807240
:1027D00040F4000C41F400002CF07F4120F07F40D9
:1027E00000B5A2EB030281420FF2081CACEB504E85
:1027F0009EF800E0C0F100004FEA4E0E00FB0EFC18
:1028000038BF49004FEA2C1C0CFB0EF34FEACE1EDA
:102810000EEB635E4FEA112C0EFB0CFC4FEAC1215C
:102820004FEA1C5300FB031102F5FA024FEA112C88
:102830000EFB0CFC4FEA01314FEADC4C00FB0C11A3
:1028400042EB2242C14228BF09184CEB03335DF82A
:1028500004EB10EB410143EBC250B2F57C0F38BFE3
:10286000704729D512F0F00F1CBF00F1C04000F0F6
:1028700000407047008182838485868788898B8C9D
:102880008D8E8F919293959697999A9C9D9FA0A2D9
:10289000A3A5A7A8AAACAEB0B2B3B5B7B9BCBEC029
:1028A000C2C5C7C9CCCED1D4D7D9DCDFE2E6E9ECCA
:1028B000F0F3F7FAFE0000004FEA400C0CF1807CC8
:1028C000BCF17E4F28BF7047B0F1C04000F0ABB9FB
:1028D0000CEAD11390EA010F48BF42F480726245BE
:1028E00038BF634507D213F47F0F16D080EA01008A
:1028F00000F00040704710B500F04FF9097EFC3E33
:1029000000F005B880EA010000F00040704780EA5E
:10291000010000F0004000F086B912F47F0F04BF00
:102920000248704780EA010000F07DB90000C07FD6
:1029300050EA010C00F113801CF5000F58BFBCF5E4
:10294000000F01D48842704707D710F5000F58BF19
:1029500011F5000F15D488427047894270471CF565
:10296000000F04D5BCF5000FF7D5814270474FF03A
:10297000807C1CEB400F38BF1CEB410F01D2814221
:10298000704710B500F009F9922449004FF000504B
:102990004FF08051FFF7FEBE10F0004148BF4042AB
:1029A000B0FA80F310FA03F2C3F19D030BD051EAA1
:1029B000C35101EB1220530638BF704700F10100EC
:1029C00008BF20F00100704750EA010C00F11380AD
:1029D0001CF5000F58BFBCF5000F01D488427047AA
:1029E00007D710F5000F58BF11F5000F15D4884216
:1029F0007047894270471CF5000F04D5BCF5000FE5
:102A0000F7D5814270474FF0807C1CEB400F38BFF8
:102A10001CEB410F01D28142704710B500F0BDF8A8
:102A2000922449004FF080504FF00051FFF7B2BEA2
:102A300050EA010C00F113801CF5000F58BFBCF5E3
:102A4000000F01D48842704707D710F5000F58BF18
:102A500011F5000F15D488427047894270471CF564
:102A6000000F04D5BCF5000FF7D5814270474FF039
:102A7000807C1CEB400F38BF1CEB410F01D2814220
:102A8000704710B500F089F8922449004FF00050CB
:102A90004FF08051FFF77EBE4FF47F0C1CEAD0123E
:102AA0001EBF1CEAD11392EA0C0F93EA0C0F00F040
:102AB000478090EA010F48BF42F480724FF0004C0B
:102AC0004CEA00204CEA012102EB0302A0FB0113B7
:102AD000A2F50002002918BF43F001035B0028BFE4
:102AE0004FEA330342EB22425FEA132C4CEBC25015
:102AF0002EBFBCEB436FB2F57C0F70474FEA036CFF
:102B0000BCF1004F08BF20F00100B2F57C0F38BFC8
:102B100070470BD582F0FF0212F5803FC8BF7047A7
:102B200000F1C040D8BF00F00040704700F5000C35
:102B30005FEA4C0C48BF7047B0F1C04000F073B87A
:102B40000CEAD11390EA010F48BF42F4807262454B
:102B500038BF634504D280EA010000F000407047AE
:102B600010B500F01AF800BF8900013E00F007B868
:102B700000F009B85FEA410C5FEA1C6C08D080EAFB
:102B8000010000F050B85FEA400C5FEA1C6CF6D11F
:102B90004FF00040A0F5800070470EF1020E2EF0BD
:102BA000030E5EF8044B244204D44FEA4102B2F112
:102BB0007F4F11D84FEA4003B3F17F4F0CD80ED1AD
:102BC0004FEAD07C0CEB4C0C0CF1020CB2F17F4FB5
:102BD00008BF4CEBD17C04E04FF0080C01E04FEA59
:102BE000D17C0CEB4C0324FA03F404F00704B4F199
:102BF000040C06D20EEB840CBDE810404CF0010C26
:102C00006047DFE80CF0070802024FF00040A0F533
:102C1000800010BD0846420018BFD2F1807288BF04
:102C200000F0004010BDFF2141EAD050C0057047C0
:102C300090EA010F48BF81F000413FF526AD421AEE
:102C400004D882F00042A0EB020011444FEAD052B7
:102C5000A2EBD1534FF07F4C1CEA410F18BF9CEA06
:102C6000026F4AD04FF0004C4CEA00204CEA0121A0
:102C700021FA03FCB0EB0C0C0FD412F0FE0F36D08F
:102C80005FEA4C001DD5001240EBC25038BF7047C0
:102C90001CF03F0F18BF70470BE05FEA1C20A2F149
:102CA000010240EBC25038BF70471CF07F0F18BFC5
:102CB0007047C3F12003994014BF401E20F001006B
:102CC00070474FEA1223800808BF7047B0FA80FCB3
:102CD000A2EB0C02CCF1280C60FA0CF093EA122F54
:102CE00004BF00EBC25070474FEAC3707047130A2D
:102CF0005FEADC1008BF7047F6E79CEA026F04D079
:102D000010EA5C0F08BF0020704710B5FFF745FFC1
:102D100040DFF63E81F000407047000000000000F8
:102D2000000001020304060708090102020304056A
:102D3000060708090A0B0C0D0E0F1010602D000875
:102D4000000000201800000028010008782D00086D
:102D500018000020A807000044010008000000003F
:102D60000100000010000000000000400024F400FA
:082D7000FFFFFFFF000000005F
:04000005080000ED02
:00000001FF
