:020000040800F2
:10000000B8080020A1010008494A00082D3F000857
:10001000454A0008250B00088D4A00080000000032
:10002000000000000000000000000000514A00082D
:100030005D0F0008000000004D4A0008554A000806
:10004000BB010008BB010008BB010008BB010008A0
:10005000BB010008BB010008BB010008610F0008DC
:10006000690F0008BB010008BB010008BB010008C4
:10007000BB010008BB010008BB010008BB01000870
:10008000BB010008BB010008610A0008BB010008B1
:10009000814A0008290B0008BB010008BB010008C9
:1000A000BB0100085D4A0008BB010008BB01000855
:1000B000694A0008754A0008BB010008313F000882
:1000C000BB010008BB010008BB010008BB01000820
:1000D000BB010008BB010008BB010008BB01000810
:1000E000BB010008BB010008BB01000800F002F8DA
:1000F00000F047F80AA090E8000C82448344AAF17B
:100100000107DA4501D100F03CF8AFF2090EBAE878
:100110000F0013F0010F18BFFB1A43F0010318473B
:100120000C6700002C670000103A24BF78C878C123
:10013000FAD8520724BF30C830C144BF04680C60ED
:10014000704700000023002400250026103A28BF35
:1001500078C1FBD8520728BF30C148BF0B60704739
:10016000662906F00083002070471FB500F002FBEF
:1001700004000020002105F069FCE0601FBD10B5FF
:1001800010BD00F0F7FB1146FFF7EFFF04F02EFD66
:1001900000F015FC03B4FFF7F2FF03BC00F058FCBD
:1001A0000948804709480047FEE7FEE7FEE7FEE70B
:1001B000FEE7FEE7FEE7FEE7FEE7FEE70448054947
:1001C000054A064B70470000594A0008ED00000838
:1001D000B8020020B8080020B8040020B8040020AD
:1001E0000FB41CB5074B06AA7B44694600900598DE
:1001F00000F0A7FA0020694600F0B6FA1CBC5DF8D2
:1002000014FB00007D0500002DE9F0474FF0000AC7
:1002100089460446C0F820A02046E16888470028A7
:1002200076D0252806D0D4E901219047206A401CC9
:100230002062F1E7E168204600258847C4F81CA049
:1002400006460027C4F818A02A2E09D0304605F02B
:10025000F5FB38B304EB8708303EC8F8186019E0A6
:1002600059F8041B204604EB87029161E168884736
:10027000012F064618D1E069002820DA25F0200574
:100280001DE0D8F8180000EB800006EB4000303885
:10029000C8F818002046E1688847064605F0CEFBFE
:1002A0000028EED1012F0AD02E2E08D12046E16879
:1002B00088477F1C0646022F45F02005C4DBA06955
:1002C000002803DA404245F00105A061E80701D0AB
:1002D00025F01005B6B1A6F14100192802D8203644
:1002E00045F400654A463146204625604D46FFF7F5
:1002F00037FF58B1012806D0ED1D25F0070000F1A9
:10030000080989E704E005F1040985E730468AE732
:10031000206ABDE8F0877047704770472DE9FF4FAE
:100320000C461E464FF0FF378BB0D2E90001DDF8D6
:1003300060800A908A46C1F30A5505B93D460021FE
:1003400008464FF00000BAF1000F00F4400005DA53
:1003500000EB80004FF4400101EA50004FEA905951
:10036000B9F1010F00DDB9460A9850EA4A000ED0F3
:1003700044F61050A5F2FF3545432F14B8F1000F95
:100380001ED07542291E1EDDC9F100021CE0B8F125
:10039000010F4FF0000001D0302103E0F24305E0EF
:1003A0002154401CB042FBDB304600220021215486
:1003B0000B99C1F80880C1E900200FB0BDE8F08FAB
:1003C000BD1B6D1CDEE74A4600DA694206A800F054
:1003D0005BFA06AB93E8070003AB83E807005046DF
:1003E0000A9904F04FFF8DE80700A0F500501F3870
:1003F00000900398002D0ADD42F21F014A4608448E
:10040000002303A90390684605F0B8F909E0A0F5B8
:1004100000504A461F38002303A90390684605F0A0
:10042000C2F98DE807000004000C03D04FF0FF3044
:10043000410800E01046B8F1000F03D000220092FE
:1004400015461EE0751E05D400F098F9303262554D
:100450006D1EF9D5B3460122084302D000227F1C4D
:1004600004E02078302801D100227F1E002A09975D
:1004700084D01DE0112D07DA00F080F9303262558A
:100480006D1C50EA0102F5D1084302D00098C8B1B2
:100490000EE00021681E05E0235C625C6354225478
:1004A000401E491C8142F7DBAB46A81B401E099049
:1004B000002004F80B000B98099AC0F80880C0E9E6
:1004C000002B7AE711264FF0000857E72DE9F04F8F
:1004D00088460446D21D22F0070191B0D1E90001FF
:1004E000CDE90A0105F096FA02460B98C00F01D03B
:1004F0002D2007E02068810701D52B2002E0202174
:1005000001EAC000032A099001D0072A05DB03464F
:100510004146204600F078F90BE12078800601D5AD
:10052000E06900E00620B8F1650F814606D0B8F119
:10053000660F18D0B8F1670F70D131E00020B9F123
:10054000110F009001DB112301E009F101030AAA58
:1005500001A90CA8FFF7E2FEDDE90C70002609F105
:100560000105834647E001204B4600904FF00047CD
:100570000AAA01A90CA8FFF7D1FEDDE90DB00C997C
:100580005D46002610B909F101000D18B9EB050010
:1005900003D4C0F1FF3609F10105A5EB09002BE0FA
:1005A000B9F1010F01DA4FF001090020B9F1110F83
:1005B0000090484601DD112300E003460AAA01A984
:1005C0000CA8FFF7ABFEDDE90C704D460026834614
:1005D000207800070AD4AB4500DA5D4601A8012D5A
:1005E00004DD411911F8011C302907D04F4502DA0A
:1005F00017F1040F04DA012082460FE06D1EEEE7CA
:10060000002F02DCED1B3E4403E0781CA84200DD15
:100610007D1CB81B00F1010A4FF00047207800074D
:1006200003D4AA4501DB4FF0FF3A0021B7F1004F98
:100630000DF143088DF8431024D002202B23002F06
:1006400001DA7F422D230A21021EA0F1010000DC05
:100650005FB197FBF1FC97FBF1F201FB1C7C1746A5
:100660000CF1300C08F801CDEEE7A8F101000370A1
:100670002188090501D5452100E06521A0F1010887
:1006800000F8011C09980FA9A1EB0807FF1D00B194
:100690000120411901EBEA70A1693844081A401E93
:1006A000A0612078C00602D42046AFF300800998EC
:1006B00028B1D4E901219047206A401C20622078AB
:1006C000C00622D52046AFF300801EE0002E04DBDA
:1006D000B34502DD01A8805D00E03020D4E90121AE
:1006E0009047206A401C2062761CAAF101005FEA54
:1006F000000A0AD100F03EF8C0680168405CD4E905
:1007000001219047206A401C2062281EA5F10105A6
:10071000DCDC07E0D4E9012118F8010B9047206ADE
:10072000401C2062381EA7F10107F3DC2046AFF31E
:100730000080032011B041E601694A1C026108787B
:10074000704700B58FB0CDE9013100210591054911
:100750007944CDE9031011466846FFF755FD0FB007
:1007600000BD0000E5FFFFFF0A6802F8010B0A6008
:1007700070470000004870473800002030B5B0F1E5
:100780000A0271F100034FEA900E4EEA817EB0EB4F
:100790000E0061EB91014FEA101E4EEA017E10EB54
:1007A0000E0041EB11114FEA102E4EEA016E10EBD4
:1007B0000E0041EB11214FEA104E4EEA014E10EBB4
:1007C0000E0041EB1141401841F100014FEAD00009
:1007D00040EA41704FEAD1014FEA810444EA907443
:1007E00010EB800544EB01046D1944EB0404521B2B
:1007F000A3414FF0000348BF0A3200D530BD401C72
:1008000041F1000130BD00002DE9F0411F460446D2
:1008100003260168072A01F4006004DB08B116A56D
:1008200005E016A503E008B115A500E015A521F027
:1008300010002060A069C01EA0610FB1401EA06121
:100840002046AFF300804FB1D4E9012138469047EC
:10085000206A401C2062C01C206206E0206AFAE781
:10086000D4E9012115F8010B9047761EF8D22046F5
:10087000AFF30080BDE8F0814E414E006E616E0026
:10088000494E4600696E66002DE9F04781461646DE
:100890008AB0354878440DC88DE80D003248784458
:1008A000801C03AC0DC884E80D0041F69B30084461
:1008B000372190FBF1F290FBF1F5A5F1800501FBEA
:1008C00012041B3C02D56442012000E00020DFF846
:1008D00098A080460027FA44AAF1BE0A0EE0E0077D
:1008E0000AD03246684607EB470101230AEB810133
:1008F00004F059FF8DE8070064107F1C002CEED136
:10090000194F7F44AE3F19E0E80715D007EB0410FC
:100910000DF1180A90E80E008AE80E00C068F04257
:1009200001D1981908903246012306A903A804F0C2
:100930003AFF03AB83E807006D10641C002DE3D180
:100940004FF0010332466946B8F1000F03A802D008
:1009500004F014FF01E004F026FFC9E90001C9F822
:1009600008200AB0BDE8F087505F000000487047DB
:10097000180000207546FFF7F9FFAE4605006946EE
:10098000534620F00700854618B020B5FFF716FC47
:10099000BDE820404FF000064FF000074FF0000880
:1009A0004FF0000BAC46ACE8C009ACE8C009ACE8BD
:1009B000C009ACE8C00921F007018D46704710B5A9
:1009C0000446AFF300802046BDE81040FFF7E2BBCD
:1009D0004FF0013C50F8042B51F8043B9A4221D1CE
:1009E000A2EB0C03934313EACC1317D150F8042B5A
:1009F00051F8043B9A4215D1A2EB0C03934313EA3E
:100A0000CC130BD150F8042B51F8043B9A4209D176
:100A1000A2EB0C03934313EACC13DBD04FF000009E
:100A2000704700BFD01A01BAB1FA81F101F0180184
:100A300022FA01F0CB40DBB2C0B2C01AC1F12001F2
:100A40002CFA01F3D11A914311EAC311E6D1704790
:100A500001491820ABBEFEE72600020070470000E7
:100A600040F25810C2F2000000F054BBB0B582B0A2
:100A700004460020019021688A68D2074FD1886817
:100A800040F00100886040F21000C2F200000068EF
:100A90004DF68361C4F21B31A0FB0101880C01906B
:100AA0000198A0B1019801380190019878B101989E
:100AB00001380190019850B10198013801900198D6
:100AC00028B101980138019001980028EAD101F07D
:100AD0001DFA21688968C9071CD1054603E000BFDB
:100AE0008068C0071AD101F011FA411B2068032960
:100AF000F6D38168C907F3D1A06A40F01000A06264
:100B0000E06A40F00100E062002084F82400012047
:100B100002B0B0BD002002B0B0BD00BF002002B0E6
:100B2000B0BD0000FEE7000040F23010C2F200004D
:100B300000F0E2BD70B582B00446C07A18260028E5
:100B400018BF01204FEAC00505F1040008BF1026B8
:100B50008DF80400012001F08DF8301D8DF806009D
:100B600001208DF8055001F085F8206821798DF875
:100B700007604FF47A7601AA0423009601F0C4FDC1
:100B8000052001F077F802B070BD00002DE9F041BA
:100B900082B0044608982160A07140F60640C2F673
:100BA0001400C4F807000820E0723220227163713B
:100BB00001F060F8E07A3825002808BF30252E1DA6
:100BC000012038278DF8046001F054F801208DF8D9
:100BD00005508DF8066001F04DF8206821794FF43A
:100BE0007A7801AA04238DF80750CDF8008001F02F
:100BF0008BFDE07A3826002808BF3026351D0120FD
:100C00008DF8045001F036F801208DF805608DF85C
:100C1000065001F02FF82068217901AA04238DF8ED
:100C20000760CDF8008001F06FFD052001F022F88B
:100C3000E07A2825002808BF302707F1040008BF04
:100C400020258DF804000120282601F013F8281D26
:100C50008DF8060001208DF8057001F00BF8206872
:100C6000217901AA04238DF80750CDF8008001F006
:100C70004BFD052000F0FEFFE07A2825002818BF74
:100C8000012008BF2025C700281D8DF80400012081
:100C900000F0F0FF381D8DF8060001208DF805509A
:100CA00000F0E8FF2068217901AA04238DF807707D
:100CB000CDF8008001F028FD052000F0DBFFE07991
:100CC000E27A010120F00F0501F10807002A14BFA4
:100CD00008350701281D8DF80400012000F0CAFF27
:100CE000381D8DF8060001208DF8055000F0C2FF78
:100CF0002068217901AA04238DF80770CDF80080BF
:100D000001F002FD207AE27A010120F00F0501F1E5
:100D10000807002A14BF08350701281D8DF80400B4
:100D2000012000F0A7FF381D8DF8060001208DF886
:100D3000055000F09FFF2068217901AA04238DF857
:100D40000770CDF8008001F0DFFC607AE27A0101E3
:100D500020F00F0501F10807002A14BF083507012C
:100D6000281D8DF80400012000F084FF381D8DF847
:100D7000060001208DF8055000F07CFF20682179E5
:100D800001AA04238DF80770CDF8008001F0BCFCA7
:100D9000A07AE27A010120F00F0501F10807002A8C
:100DA00014BF08350701281D8DF80400012000F04C
:100DB00061FF381D8DF8060001208DF8055000F008
:100DC00059FF2068217901AA04238DF80770CDF816
:100DD000008001F099FCE07A1827002818BF012054
:100DE0004FEAC00505F1040008BF10278DF8040084
:100DF000012000F03FFF381D8DF8060001208DF81E
:100E0000055000F037FF2068217901AA04238DF8EE
:100E10000770CDF8008001F077FCE07A00280CBF65
:100E200020260120C500281D8DF80400012000F0B7
:100E300021FF301D8DF8060001208DF8055000F0CF
:100E400019FF2068217901AA04238DF80760CDF8E5
:100E5000008001F059FC02B0BDE8F08170B582B0AD
:100E600004464079A379884298BF411E934298BFB7
:100E70005A1ED0B2032805D8DFE800F009020608A0
:100E8000403104E0002102E0143100E054310A0155
:100E9000E37A01F0700002F108056FF07702002B91
:100EA00008BF6FF07F0202EB000606F1040008BFE6
:100EB0000D018DF80400012000F0DCFE281D8DF8E6
:100EC000060001208DF8056000F0D4FE206821792D
:100ED0004FF47A7601AA04238DF80750009601F0AA
:100EE00013FC02B070BD00002DE9F04782B00A7813
:100EF0008AB382464E1E4FF47A780DF1040900BF82
:100F000011019AF80B3022F00F0001F10807002BB5
:100F100014BF08301701451C05308DF8040001206E
:100F20007C1C00F0A7FE781D8DF8060001208DF8CE
:100F3000055000F09FFEDAF800009AF804104A46C7
:100F400004238DF80740CDF8008001F0DDFBB27876
:100F50000136002AD4D102B0BDE8F0877047000006
:100F6000022000F0AFBE0000042000F0ABBE000085
:100F70007047000010B581B00022009290F8242044
:100F8000012A03D10221084601B010BD4B6801229D
:100F9000062B80F8242015D8026803EB8303A3F105
:100FA000050E1F23D2F834C003FA0EF40B682CEAA6
:100FB000040C03FA0EF444EA0C045463092B17D909
:100FC00037E000BF02680C2B20D803EB8303A3F1AA
:100FD00023041F23D2F830C003FA04FE0B682CEA66
:100FE0000E0C03FA04F444EA0C041463092B20D811
:100FF000D2F810C003EB4303072489689C402CEA15
:101000000404994021431161002136E003EB83037E
:10101000A3F141041F23D2F82CC003FA04FE0B688D
:101020002CEA0E0C03FA04F444EA0C04D462092BF3
:10103000DED903EB4304D2F80CC0A4F11E0E072442
:10104000896804FA0EF42CEA040401FA0EF1214333
:1010500023F00104102CD1600ED142F20841C4F2F9
:101060000101A1F10804A2420ED0816A41F02001E1
:101070008162012101E000BF0021002280F82420CC
:10108000084601B010BD00BF0A68120230D40A68D9
:10109000102B42F400020A602CD140F21001C2F27F
:1010A000000109684DF68362C4F21B32A1FB0212F3
:1010B000910C01EB8101490000910099E1B1009987
:1010C000013900910099C9B1009901390091009945
:1010D000B1B1009901390091009999B10099013994
:1010E0000091009900294FF00001E8D1C5E700BF49
:1010F0000021C2E70021C0E70021BEE70021BCE7D4
:101100000021BAE70021B8E7704700000068C06C12
:101110007047000070B50446006805684668B1066F
:1011200027D515F0020124D0A16AC90603D4A16A0B
:1011300041F40071A162816801F46021B1F5602F72
:1011400010D1217B71B9416821F020014160A06A72
:1011500020F48070A062A06AC00403D4A06A40F0AA
:101160000100A0622046FFF7CFFF20686FF0120158
:101170000160310633D515F0040130D0A16AC906EB
:1011800003D4A16A41F40051A162816801F4E041F5
:10119000B1F5E04F10D1416821F080014160A06AB3
:1011A00020F48050A062A06AC00511D4A06A40F06B
:1011B0000100A0620CE000BF4168490508D48168C5
:1011C00001F46021B1F5602F02D1217B0029E2D02A
:1011D0002046FFF7CDFE20686FF00C01016070061D
:1011E0000ED515F0010008BF70BDA06A40F4803034
:1011F000A062204600F0B4F820686FF001010160A1
:1012000070BD0000B0B5002800F0A8800446806AD8
:1012100020B121688868C0070BD114E00020E0628B
:1012200084F82400204600F09DF821688868C007F3
:1012300009D0886820F00100886000F067FE21680E
:101240008A68D20726D1A06AC0063AD4A06A41F2C1
:10125000021290430230A062E069D4E9013240EA10
:10126000030C531EB3FA83F35D091346B2F5807F76
:1012700018BF2B02207D257B01284CEA450030D188
:1012800035B3A56A45F02005A562E56A45F001057C
:10129000E56226E0054602E08868C007D3D000F08A
:1012A00035FE401B21680328F6D38868C007F3D0B9
:1012B000A06A40F01000A062E06A40F00100E06225
:1012C000A06AA06A40F01000A0620120B0BD00BF7B
:1012D000D4F818C04EF60005CFF6FF7505EB4C3577
:1012E0002B434D68B2F5807F25F4694543EA050339
:1012F0004B608B684FF2FD75CFF6E17503EA05038D
:1013000043EA00038B6001D0012A07D12269002340
:10131000CFF6F07303EB025201E000BF0022CB6A6C
:1013200023F470031A43CA62896840F6FE62CFF65E
:101330001F721140814207D10020E062A16A0122A0
:1013400062F30101A162B0BDA06A40F0100020F07C
:101350000200A062E06A40F00100E0620120B0BD3E
:101360007047000080B586B0014640F60000C4F228
:101370000100096800F5E05291424FF00001CDE90B
:10138000041101D006B080BD41F21801C4F202017F
:101390000A6842F400720A600A6802F4007201925C
:1013A000019A0A6842F004020A60096801F0040127
:1013B00001910199012102910321039102A900F0F9
:1013C0008DFC12200421002201F042FB122001F0CA
:1013D0002FFB06B080BD000010B5044690F8240035
:1013E000012804BF022010BD012084F824002046FB
:1013F000FFF73CFB20B1002184F8241010BD00BF92
:1014000042F2044C2068A16AC4F2010C40F201329D
:1014100091430CF57F7201F580719042A16233D047
:10142000A16A21F48011A1624168490504D5A16A2D
:10143000012363F30D31A162A16A0023C9044FF0B7
:10144000000144BFE16A21F00601E1626FF0020190
:1014500084F824300160816801F46021B1F5602FC7
:1014600006D190420AD1DCF8001011F4702F05D09B
:10147000816841F480118160002010BD816841F4D1
:10148000A0018160002010BDDCF8001011F4702F65
:10149000C6D0A16A41F48011A162DCF800104905B0
:1014A000C5D4C9E790F82020013A012A08D800687D
:1014B00000F114020020136819431160704700BF47
:1014C00000F1240201204FF48021136819431160B8
:1014D00070470000B0B5026890F82030013B012B46
:1014E00028D8D2F80002012340F00100C2F800021F
:1014F000D1F814E0CC690EF01F0003FA00F0D2F826
:101500001C326FEA000C8343012CC2F81C3217D046
:101510006CBBD2F80C3203EA0C03C2F80C32CB6875
:101520008C8844EA034302EBCE04C4F840320B46F5
:1015300015E000BF416A41F4802141620120B0BD45
:10154000D2F80C320343C2F80C320B688C8844EAA0
:10155000034302EBCE04C4F8403201F10C038C6863
:101560001B8843EA044302EBCE04C4F84432D2F8A9
:1015700004328D6943EA0004D1F810E0096A002DB5
:1015800008BF03EA0C04C2F80442D2F81432BEF1D8
:10159000000F43EA000408BF03EA0C040129C2F863
:1015A000144204D1D2F81C120843C2F81C02D2F82B
:1015B000000220F00100C2F800020020B0BD0000CF
:1015C0007047000010B590F82040013C012C7BD8FA
:1015D000D0F800C0002900F08180DCF81040A4079A
:1015E00000F081800CEB011CDCF8B0410CF5D87EDA
:1015F00014F004049460DCF8B04119BFE4085460AE
:10160000640D1460DEF800400CF5DA7E04F002048C
:10161000D460DCF8B44124075ABFDEF8004004F07F
:101620000F0408241461DEF800400029C4F30724E5
:101630009461DEF800404FEA14445461DCF8B821AC
:101640001A70026802EB0112D2F8B8214FEA122296
:101650005A70026802EB0112D2F8B8214FEA124226
:101660009A70026802EB0112D2F8B8214FEA1262B6
:10167000DA70026802EB0112D2F8BC211A7102681A
:1016800002EB0112D2F8BC214FEA12225A71026811
:1016900002EB0112D2F8BC214FEA12429A710268A1
:1016A00002EB0112D2F8BC214FEA1262DA71006833
:1016B00014BF00F1100100F10C01002020220B6882
:1016C0001A430A6010BD00BF00F1240101204FF44D
:1016D00080220B681A430A6010BD00BFDCF80C4082
:1016E000A4077FF47FAF00F1240101204FF4001222
:1016F0000B681A430A6010BD2DE9F04F81B0044613
:1017000000684669D0F804908768D0F80CB0D0F82B
:1017100010A0D0F81880F10704D1002530071DD49F
:1017200024E000BFF90710D00121BA07816009D475
:10173000780700F1AF80380700F1B680204600F04E
:101740002DFA02E0204600F02BFA0025F80500F102
:101750008780F80300F1B180300707D51BF0100037
:1017600004D0206845F400751021C160700708D5C9
:101770001BF0080005D020680821C160204600F059
:10178000B3F9B00706D52068C068800702D02046AC
:1017900000F0ACF9700607D51AF0100004D02068EC
:1017A00045F4806510210161B00608D51AF00800E3
:1017B00005D0206808210161204600F0BBF9F00641
:1017C00006D520680069800702D0204600F0B4F9F1
:1017D000B00308D519F0100005D020681021416031
:1017E000204600F0ABF9F00308D519F0080005D049
:1017F000206808214160204600F0DCF9300440F107
:101800009B805FEA497040F1948006F4807008EA9A
:10181000102028435FEA8871014648BF41F0020169
:10182000B20558BF01465FEA48700D4648BF45F013
:101830000405700558BF0D46300540F17A8018F058
:10184000700000F076801038000905286CD8DFE8B9
:1018500000F003595D61656945F0080564E000BF6B
:1018600020684FF48071BA0581600BD4780515D4D7
:1018700038051DD4204600F095F9F8037FF56CAFCC
:101880001BE000BF204600F08FF9F8037FF564AF3E
:1018900013E000BF4FF4006558E700BF05F50055A1
:1018A000F8037FF559AF08E04FF480554EE700BFCD
:1018B00005F58045F8037FF54FAF20684FF4803180
:1018C000BA0381600AD4780310D4380314D42046B4
:1018D00000F06CF930073FF541AF47E7204600F0D4
:1018E00067F930073FF53AAF40E700BF05F500451F
:1018F00030073FF533AF39E705F5803530073FF561
:101900002DAF33E745F010050EE000BF45F0200590
:101910000AE000BF45F0400506E000BF45F0800545
:1019200002E000BF45F480752068816921F07001F4
:10193000816120680421416055B1606A40EA050177
:101940002046616201B0BDE8F04FFFF739BE00BF2D
:1019500001B0BDE8F08F0000B0B5C8B1044690F802
:10196000200010B9204600F071F82068016841F0AD
:101970000101016000F0CAFA054600BF2068416815
:10198000C90707D100F0C2FA401B0B28F6D312E0BA
:101990000120B0BD016821F00201016000F0B6FA3B
:1019A000054600BF2068416889070DD500F0AEFAF2
:1019B000401B0B28F6D3606A052140F400306062BA
:1019C000012084F82010B0BD217E0268012922F098
:1019D000800208BF80320260617E0268012922F025
:1019E000400208BF40320260A17E0268012922F055
:1019F000200208BF20320260E17E0268012922F045
:101A0000100218BF10320260217F0268012922F003
:101A1000080208BF08320260617F0268012922F0D3
:101A2000040208BF04320260D4E901C2D4E90335DC
:101A300061691A432A431143ACF101021143C161A8
:101A400000200121606284F82010B0BDB0B586B0DE
:101A500040F60004C4F201040068A4F52442002109
:101A60009042059102D006B0B0BD00BF41F218000F
:101A7000C4F20200426802AD42F000724260426865
:101A800002F000720192019A026842F004020260C0
:101A9000006800F00400019001984FF40060CDE967
:101AA000020104912046294600F018F94FF48050B5
:101AB000029002200390032005902046294600F062
:101AC0000DF914200021002200F0C2FF142000F0C4
:101AD000AFFF15200021002200F0BAFF152000F012
:101AE000A7FF06B0B0BD000070470000B0B540F2DF
:101AF000EC0540F27804C2F20005C2F2000405F1E0
:101B0000280204F150030021FFF75CFD80B9A86AA8
:101B1000B0F51D7F18BFB0BD41F20000C4F2010056
:101B20004FF4005100F0E4F994F8570084F84F00A6
:101B3000B0BD000070470000704700007047000013
:101B4000B0B5044690F8200001281DD1022084F889
:101B500020002068016821F00101016000F0D6F941
:101B6000054600BF20684068C00713D000F0CEF9DA
:101B7000401B0B28F6D3606A40F4003060620520F9
:101B800084F820000120B0BD606A40F4002060624B
:101B90000120B0BD00206062B0BD000070470000B1
:101BA0007047000070470000704700007047000059
:101BB000704700007047000080B590F8211002299E
:101BC00024D10268116821F00E0111602F211368E1
:101BD000C4F202018A4240F20401C4F2020123F07D
:101BE0000103136016DD3023C4F202039A421DD0B4
:101BF0004423C4F202039A421CD05823C4F20203C5
:101C00009A421DD14FF4803322E000BF042181634A
:101C1000012080BD0823C4F202039A420ED01C2387
:101C2000C4F202039A420BD1102311E04FF48073E7
:101C30000EE000BF4FF480530AE000BF012307E02D
:101C400001F1680C4FF08073624508BF4FF48013B8
:101C50000B60012180F82110426B002180F82010D8
:101C60000AB190470021084680BD000090F821008D
:101C700070470000B0B5044600F048F9054640F250
:101C80000800C2F200000078611C18BF044400BFC5
:101C900000F03CF9401BA042FAD3B0BD022809D0A5
:101CA000042818BF7047022040F27801C2F20001F8
:101CB00008707047012040F27801C2F200010870FC
:101CC0007047000040F21441C4F201010A68024268
:101CD00014BF08607047FFF7E1BF00002DE9F04F27
:101CE00082B041F20042C4F201020E680423904225
:101CF00008BF0323002E009300F0F68040F2004C52
:101D00004FF6FF7E0022C4F2010C0124C1F2100E36
:101D10004FF0000A4FF0000947E000BF012502F034
:101D20000C040F27A7402BEA070705FA04F43C43ED
:101D300043F82640D1F804B040F20C455FEACB23CB
:101D4000DCF8083054BF23EA080343EA0803C4F26E
:101D50000105CCF808302B685FEA8B2454BF23EAD6
:101D6000080343EA08032B605FEA8B34DCF8043095
:101D700054BF23EA080343EA08035FEACB34CCF8F4
:101D80000430DCF800304FF0010454BF23EA0803AC
:101D900043EA0803CCF800300E680AF1010A36FA6B
:101DA0000AF302F1040200F09F8004FA0AF816EA2E
:101DB000080FF1D04B68734512DC122B56D8DFE8C0
:101DC00003F0350B45495555555555555555555500
:101DD0005555554D510000BFD1F80C9046E000BF5D
:101DE0004FF6FF75C1F22105AB420FDC0025C1F2B1
:101DF0001105AB421AD00025C1F21205AB4215D035
:101E00000025C1F22105AB4210D02FE00025C1F220
:101E10002205AB420AD00025C1F23105AB4205D004
:101E20000025C1F23205AB4220D100BF8B684BB117
:101E3000012B14BFC0F81480C0F810804FF00809BF
:101E400014E000BF4FF0040910E000BFCB6803F1BD
:101E500008090BE04FF0000908E000BFCB6803F170
:101E6000040903E0CB6803F10C0900BF13460546E3
:101E7000BAF1080F24BF203B04352E680F279F407E
:101E8000BE4309FA03F333432B60CB79DB067FF5BE
:101E900083AF41F21804C4F2020423684FEA9A06A1
:101EA00043F001032360236840F6000403F00103BC
:101EB0000193019BACF57E7353F826B0C4F2010484
:101EC000A0420FD040F60044C4F20104A0423FF407
:101ED00025AF41F20004C4F20104009DA04208BFF6
:101EE00002251CE700251AE702B0BDE8F08F0000CC
:101EF000C26802EA0103914341EA0341016170476C
:101F0000002A08BF090401617047000040F2B420B4
:101F1000C2F2000000687047704700007047000080
:101F2000F0B581B0076804467868E26A94F83E30FC
:101F300094F83DE0402B01D0102B27D1BE697D697C
:101F4000E90751D1B2F12A4F00F0C082B2F52A0F51
:101F500000F0BC8200F400724FF0010C29078CEAFB
:101F6000522C45D5002A43D0606B616CC9B23961EF
:101F700018B1806A002840F02281A06B002800F090
:101F8000A582806A002840F01A819FE2216C00F44B
:101F9000007300290CBFBE6900267D69A90753D5CF
:101FA000002B51D0206C002818BFBE6994F83D006A
:101FB00000F02800282840F093807868002320F45F
:101FC00080607860012020EA960130064FF018000A
:101FD00058BF0C20225A204684F83C3001B0BDE89E
:101FE000F040FFF79BBF00BF810557D44FF0010CB5
:101FF000A90759D5BCF1000F56D194F83E30E06ADC
:10200000226B94F83D10222940F0E080216D0029D8
:1020100008BF402B00F0DA80216D002940F03481A8
:102020002169B1F5404F40F02F8100200090786980
:102030000090B86900900098386840F4807038606B
:10204000206D013095E200BFE90655D5002B53D035
:1020500094F83D50786820F4E060786000200090AB
:1020600078690090386840F001003860009838685E
:1020700020F4806038607868000540F1428105F006
:10208000F7002646222840F01B8156F8380F0168D9
:10209000496826F80E1C36F80E1C19E1E06AB0F506
:1020A0002A0F5DD1012060E07968720701F40061B8
:1020B00000F19680002940F00982690605F00401CC
:1020C00040F1B08110F4806000F0AC81002940F054
:1020D000A981204601B0BDE8F04002F0FBB800BF86
:1020E0000020009079690091B9690091009984F805
:1020F0003C0001B0F0BD00BF0EF0F701212940F017
:102100008580290605F0040240F14C8110F48060BE
:1021100000F04881002A40F0458194F83D00618D2F
:10212000002900F0D381616A11F8012B3A616162E4
:10213000618D01396185618D002908BF292840F032
:10214000C5817868282120F4806078602120206390
:10215000204684F83D1001B0BDE8F04000F0FEBB21
:10216000E06AB0F12A4F01D10820E06294F83E0005
:1021700040280BD1206D616C002801F0FE0018BFD3
:1021800040F00100386101B0F0BD00BF2069B0F53A
:10219000804F69D194F83D00616C212801F0FE0167
:1021A00018BF01313961606B08B1806A38B9A06B22
:1021B000002800F08B81806A002800F08781786811
:1021C00040F40060786001B0F0BD00BF00200090D6
:1021D00078690090B8690090009801B0F0BD00BF28
:1021E000002940F07381290605F0040140F12681A1
:1021F00010F4806000F02281002940F01F81204609
:1022000001B0BDE8F04002F049B900BF690605F031
:10221000040240F1DB8010F4806000F0D780002AD7
:1022200040F0D48094F83D00618D002900F04E818B
:102230003969626A1170616A01316162618D0139C7
:102240006185618D002908BF2A2840F03F81206800
:10225000416821F4806141602220282120632046CA
:1022600084F83D10D9E000BF206D002800F0C08048
:10227000206D012840F02A81606C062101EAD0100F
:10228000F130386101B0F0BD618D61B1618D01291E
:1022900040F0E480202818BF082840F019813868F1
:1022A00020F4806038600020009078690090B86960
:1022B00000900098386840F40070386058E100BF22
:1022C00056F8340F0168496826F80A1C36F80A1CCB
:1022D00019B1216C41F004012164796821F4006195
:1022E0007960FFF7C3FC01280BD0306843F63D71DD
:1022F000C0F600014163FFF75FFC10B13068416B2D
:102300008847608D60B120684169490730D44169D0
:1023100049063AD4608D18B1206C40F00400206466
:10232000206C28B1204601B0BDE8F04001F098BE15
:102330002A2D07D100202063282084F83D00204664
:1023400000F00AFB94F83D00282859D10020CFF670
:10235000FF70E06200212020216384F83D002046C8
:1023600084F83E1001B0BDE8F04000F0C7B900BFEE
:102370000069616A0870616A206801316162618D7B
:102380000139618541694906C4D50069616A0870EF
:10239000606A01306062608D01386085608D002860
:1023A000BAD1BDE7002A18BF002B00F08F80608DE6
:1023B000002800F08B80606A10F8011B39616062B0
:1023C000608D0138608501B0F0BD00BF002A18BFE4
:1023D000002B00F07B80608D002877D03869616A1F
:1023E0000870606A01306062608D013860856DE060
:1023F000606C062101EAD010F030386101B0F0BD08
:10240000206B222818BF222D60D1002120202163BB
:1024100084F83D00204684F83E1001B0BDE8F0404D
:1024200000F09ABAB1FA81F0400950EA0C004DD19F
:10243000204601B0BDE8F04001F0D8BEB1FA81F00D
:10244000400950EA0C0041D1BEF1210F36D120469F
:1024500001B0BDE8F04001F0DFBF00BF618D02298F
:1024600014D1102858D8012114228140C0F2010251
:10247000114251D0396841F48061396000210091E6
:1024800079690091B9690091009954E0396841F483
:10249000806139607968090563D5421E1F2A5DD8BD
:1024A0000121914048F28102C8F20002114255D048
:1024B000786840F48050786053E000BF402B05D12D
:1024C000204601B0BDE8F04002F042B801B0F0BDD6
:1024D00010F5803F0CD1386820F48060386078684F
:1024E00000057FF5E0AE386820F48060386038E0A1
:1024F000122A02D101287FF4D2AE1028F3D801218C
:1025000001FA00F01421C0F201010842EBD0386852
:1025100040F48060386024E0396841F4006139603B
:102520000021009179690091B96900910099396899
:1025300021F4806139607968090519D5421E1F2A86
:102540001AD80121914048F28102C8F200021142DA
:1025500012D0786840F48050786009E010F5803F30
:10256000A6D00020009078690090B869009000988B
:102570000020206501B0F0BD10F5803FE9D0F7E7FD
:102580007047000070B5B8B3044690F83D0028B914
:10259000002084F83C00204600F0A4F9242084F8B0
:1025A0003D002068016821F001010160016841F4EB
:1025B00000410160016821F40041016000F0EAFB84
:1025C00048F28041C0F21E0140F60013D4F804E046
:1025D00088424FF00001C0F23D0348F2A16C4FF079
:1025E000000238BF01219842C0F2010C38BF01221D
:1025F000E64538BF0A460AB1012070BD4DF6836139
:10260000C4F21B31A0FB01122168950C4B684FF4FA
:10261000967623F03F0343EA9243754344F6D3563C
:102620004B60C1F262060B6AA5FB0656B50923F0A2
:102630003F03E64538BF950C6A1C1A430A62CA6913
:1026400048F2A0664CF6FF73C0F20106B64522EAD6
:1026500003020BD801384FEA4E03B0FBF3F0013010
:102660006FF31F30042898BF04201EE0A3680138D0
:1026700063B119230EFB03F3B0FBF3F001306FF3EA
:102680001F3078B100F5804008E000BF0EEB4E032C
:10269000B0FBF3F001306FF31F3028B100F50040BC
:1026A00003E000BF012000E001201043C86108687A
:1026B000D4E9072320F0C00010431843086088685D
:1026C00048F2FF3204F10C0690434CCE18431043FD
:1026D000A5698860C86820F0FF0030432843C860BF
:1026E000086840F00100086000202021206484F880
:1026F0003D10206384F83E0070BD0000704700006C
:1027000070470000704700002DE9F04383B01E467B
:10271000174689460446FFF7F9FB94F83D10202937
:1027200020D10546206800BF8169890716D5FFF7CB
:10273000EDFB411B20681A29F6D381698907F3D57F
:1027400000202021206384F83D1084F83E00216C95
:1027500041F02001216484F83C0003E094F83C102F
:10276000012903D1022003B0BDE8F083012184F8E0
:102770003C100168C90703D1016841F00101016003
:10278000016840F2020821F400610160212184F80F
:102790003D10102184F83E10002121646762668597
:1027A000618DC0F201082185A8F10211E162E16AA0
:1027B0000A9E11F5803F18BF01291DD1016841F41F
:1027C0008071016020464FF00111002233460095D0
:1027D00001F07EFF50B120680068C00544BF4FF48F
:1027E00000702064012003B0BDE8F0832069B0F5DB
:1027F000804F07D1FE2015E00829DFD0216B122978
:10280000DCD0DFE7062000EAD9102168F03008614B
:1028100008F10601204632462B4602F043F8002814
:10282000E0D1FF20216800EA090008612046414606
:1028300032462B4602F036F80028D3D10020029011
:1028400020684169029180690290029806E000BF09
:10285000204631462A4601F0DBFE18BB208D68B3C6
:10286000204631462A4602F08DF8D8B9606A2168C0
:10287000024612F8013B0B616262628D013A628589
:10288000228D531E23854F697F07E1D51B04DFD0BE
:10289000437802300B616062608D01386085901E64
:1028A0002085D5E7206C04289CD12068016841F47C
:1028B00000710160012003B0BDE8F0832068016869
:1028C00041F400710160202084F83D00002084F86C
:1028D0003E0084F83C0003B0BDE8F0837047000080
:1028E0007047000010B586B045F200410068C4F2A0
:1028F000000100228842049202D006B010BD00BF41
:1029000041F21804C4F20204206840F0080020607C
:10291000206800F0080001900198C0200290122069
:1029200003900320059001F5384002A9FFF7D6F97E
:102930006068042140F4001060606068002200F4C8
:102940000010019001981F2000F082F81F2000F075
:102950006FF806B010BD000070470000704700001F
:1029600040F2080040F2B421C2F20000C2F20001BD
:1029700000780A68104408607047000080B542F291
:102980000000C4F20200016841F010010160032060
:1029900000F08AF80F2000F005F800F027F800207A
:1029A00080BD000070B540F20806C2F2000640F299
:1029B00010013278C2F200014FF47A730968B3FB58
:1029C000F2F20446B1FBF2F1084600F0D1FB0F2C05
:1029D0004FF0010508D838B94FF0FF3021460022EA
:1029E000002500F035F87460284670BD82B041F2D1
:1029F0001800C4F202000168022241F001010160E6
:102A0000016801F0010101910199416841F0805193
:102A10004160406800F08050009000980420C4F2AB
:102A20000100016862F31A61016002B070470000A2
:102A3000002848BF704700F01F01012202FA01F18F
:102A40004EF200124009CEF2000242F82010704708
:102A500010B54EF60C5CCEF2000CDCF80030C3F37F
:102A6000022E8EF00704042C28BF0424BEF10303B9
:102A70004FF0FF3E0EFA04F438BF0023A143994003
:102A80000EFA03F39A43114300F00F02043A624432
:102A900009010C3200F16043B0F1FF3FC8BF03F5FC
:102AA0006442117010BD00004EF60C51CEF20001D0
:102AB0000A684FF6FF031A4060F30A2242F0806072
:102AC00040F0FD70086070472DE9F04182B0044687
:102AD000007841F21C06C007C4F202064AD03068F2
:102AE00010F0805808D1306840F080503060306875
:102AF00000F080500190019847F20007C4F20007EF
:102B00003868C00512D4386840F480703860FFF728
:102B1000FDF905463868C00508D4FFF7F7F9401BF2
:102B20006428F7D9032002B0BDE8F081706810F482
:102B3000407012D0616801F4407188420DD0706815
:102B400040F24042C4F24222012320F4407113605B
:102B50000023C007136071602AD17068616820F497
:102B600040700843B8F1000F706003D1306820F066
:102B7000805030602068810707D556F8181CA2687D
:102B800021F44041114346F8181CC00604D400202B
:102B900002B0BDE8F08100BF56F8180CE16820F4DF
:102BA0008000084346F8180C002002B0BDE8F08110
:102BB000FFF7ACF9054641F2883700BF706880071F
:102BC000CBD4FFF7A3F9401BB8424FF00300F5D96F
:102BD000EBE700002DE9F04381B0002800F085808C
:102BE00042F20008C4F202080446D8F800000D467C
:102BF00000F0070088420CD2D8F8000020F007004F
:102C00002843C8F80000D8F8000000F00700A842E8
:102C10006BD1206841F204098107C4F2020917D57B
:102C2000410705D5D9F8001041F4E061C9F800105A
:102C3000010705D5D9F8001041F46051C9F800101A
:102C4000D9F80010A26821F0F0011143C9F8001072
:102C5000C00741D1D8F8000000F00700A8420CD905
:102C6000D8F8000020F007002843C8F80000D8F882
:102C7000000000F00700A84237D12068410707D5BF
:102C8000D9F80010E26821F4E0611143C9F800109E
:102C9000000708D5D9F80000216920F4605040EA07
:102CA000C100C9F80000D9F8002002F00C00082883
:102CB00041F20020C0F27A0050D146F61A03C2F366
:102CC0008341C0F60003595CD2033BD440F60010A8
:102CD000C0F23D00484341E0606802280AD0012864
:102CE0002AD159F8041C890308D4012001B0BDE899
:102CF000F08300BF59F8041C8901F6D5D9F80010FB
:102D000021F003010843C9F80000FFF7FFF8064669
:102D100041F28837D9F80000616800F00C00B0EB90
:102D2000810F97D0FFF7F2F8801BB842F2D9032049
:102D300001B0BDE8F08300BF59F8041C8907D4D561
:102D4000DCE700BFD9F8002046F61803C2F3404282
:102D5000C0F600039A5C4843B0FBF2F0D9F80010CB
:102D600046F60002C1F30311C0F60002515C40F2C6
:102D7000100220FA01F140F20C00C2F200000068DB
:102D8000C2F200021160FFF70DFE002001B0BDE8A5
:102D9000F083000040F2100041F20401C2F2000092
:102DA000C4F202010068096846F61002C1F302216C
:102DB000C0F60002515CC840704700002DE9F041A8
:102DC00082B0002868D00446007841F20006C007AF
:102DD000C4F2020625D0706800F00C0004281BD055
:102DE000706800F00C00082802D17068C00313D48A
:102DF0006068002800F06881B0F5A02F00F07C81A9
:102E0000B0F5803F00F07C81306820F48030306085
:102E1000306820F4802076E13068800301D5606856
:102E2000D0B32078800718D5706810F00C0F07D049
:102E3000706800F00C0008286ED17068C0036BD475
:102E40003068800702D52069012825D13068616982
:102E500020F0F80040EAC1003060207800071FD45D
:102E60002078400732D4E56995B1706800F00C0015
:102E7000082840F08F80012D0ED07068216A00F480
:102E800080328A4208D1616A00F47010884203D10E
:102E9000002002B0BDE8F081012002B0BDE8F08161
:102EA000A069002862D00020C4F242200121C0F8AD
:102EB0008014FFF72BF80546706A800700F18C80BC
:102EC000FFF724F8401B0228F6D92AE1F06910F038
:102ED000805808D1F06940F08050F061F06900F04E
:102EE00080500090009847F20007C4F2000738684D
:102EF000C00529D4386840F480703860FFF706F8C0
:102F0000054600BF3868C0051ED4FEF7FFFF401B12
:102F10006428F7D905E100BF2069002840F20000CD
:102F2000C4F2422000F0828001210160FEF7EEFF32
:102F3000054600BF306880073FF588AFFEF7E6FF23
:102F4000401B0228F6D9ECE0E068002800F0808001
:102F5000052800F09780012800F09880306A20F062
:102F600001003062306A20F0040092E00020C4F2D8
:102F700042200021C0F88014FEF7C8FF054600BFBC
:102F8000706A80077FF56CAFFEF7C0FF401B022818
:102F9000F6D9C6E00027C4F2422700203866FEF7C3
:102FA000B5FF022D05460BD13068800140F1BE808F
:102FB000FEF7ACFF401B02284FF00300F4D968E78E
:102FC000306880017FF564AFFEF7A0FF401B022848
:102FD0004FF00300F4D95CE740F21000C2F20000A9
:102FE000006844F6D351C1F26201A0FB0101480A16
:102FF000019000BF00BF0198411E002801913FF4DD
:103000002FAF00BF0198411E002801913FF428AF67
:1030100000BF0198411E002801913FF421AF00BF7D
:103020000198411E00280191E4D119E700210160B7
:10303000FEF76CFF054600BF306880077FF50DAFD7
:10304000FEF764FF401B02284FF00300F4D920E78D
:10305000306A20F001003062306A20F004003062F3
:10306000FEF754FF054641F2883700BF306A8007FB
:1030700020D5FEF74BFF401BB8424FF00300F5D9B7
:1030800007E700BF306A40F004003062306A40F069
:1030900001003062FEF73AFF054641F2883700BF73
:1030A000306A800706D4FEF731FF401BB842F7D9DB
:1030B00037E000BFB8F1000F7FF4D5AEF06920F023
:1030C0008050F061CFE600BF306820F4803030607F
:1030D000306820F480203060FEF718FF054600BFFE
:1030E000306880037FF59DAEFEF710FF401B64281B
:1030F0004FF00300F4D9CCE6306840F48020306013
:10310000306840F480303060FEF700FF054600BFB5
:10311000306880033FF585AEFEF7F8FE401B64285B
:10312000F6D9032002B0BDE8F08100BF206AB0F5F7
:10313000803F05D17168A26821F4003111437160AC
:103140007168626A21F474111043084370600120B1
:103150003866FEF7DBFE0446306880013FF598AE26
:10316000FEF7D4FE001B02284FF00300F4D990E6CE
:10317000411E0020B0EB116F1CBF012070474EF2C2
:103180001002CEF2000251604EF62351CEF2000141
:10319000F0230B70072190601160704770470000AA
:1031A0007047000010B590F83C20012A4FF0020251
:1031B00033D080F83D200268D2F804E0D2F808C08D
:1031C0000C682EF07003234340F2FF74C4F2000435
:1031D000A24253600ADCB2F1804F13D040F20043A8
:1031E000C4F200039A420DD011E000BF42F6004342
:1031F000C4F201039A4205D040F60003C4F2000372
:103200009A4204D149682CF080031943916001214E
:10321000002280F83D1080F83C20104610BD0000D0
:10322000002804BF0120704710B5044690F83D0007
:1032300028B9002084F83C00204600F067F80220FE
:1032400084F83D00206840F2FF730268C4F2000376
:1032500042F6004C9842C4F2010C15DCB0F1804FEC
:103260001AD040F20041C4F20001884214D09842C2
:1032700018DCB0F1804F1DD040F20041C4F20001D3
:10328000884217D01AE000BF604505D040F6000123
:10329000C4F200018842EAD1A16822F070020A4318
:1032A0009842E6DD604505D040F60001C4F2000119
:1032B000884203D1216922F440720A43A36922F0B3
:1032C0008001D4F804E0E268194360450160C262FD
:1032D000C0F828E002D16169CCF8301001214161C9
:1032E000002084F8461084F83E1084F83F1084F8DB
:1032F000401084F8411084F8421084F8431084F898
:10330000441084F8451084F83D1010BD10B582B00B
:10331000006840F20041C4F20001884218D042F631
:103320000041C4F2010188422CD141F21800C4F2DC
:1033300002000168002241F400610160006803217D
:1033400000F40060019001981920192411E000BFD9
:1033500041F21800C4F202004168002241F002016B
:1033600041604068012100F00200009000981D209B
:103370001D24FFF76DFB204602B0BDE81040FFF7AB
:1033800057BB00BF02B010BD90F83D1001291CBF13
:1033900001207047022180F83D10006840F2FF7262
:1033A000C168C4F20002904241F00101C16009DC31
:1033B000B0F1804F12D040F20041C4F200018842C7
:1033C0000CD012E042F60041C4F20101884205D05F
:1033D00040F60001C4F20001884206D1816801F084
:1033E0000701062904BF00207047016841F0010170
:1033F000016000207047000080B590F83C20012A51
:103400004FF0020200F0C28080F83D20D0F800C0EA
:103410004FF67772DCF8083023EA0202CCF8082075
:103420000B684F2B28DC1F2B44DD202B45D0302B85
:1034300043D0402B40F0AC80D1F804E0C968DCF800
:103440002030DCF8202022F00102CCF82020DCF82B
:10345000182022F0F00242EA011123F00A0242EAA7
:103460000E02CCF81810CCF82020DCF8081041F03F
:10347000470121F0300180E06F2B27DDB3F5005FBD
:1034800048D0B3F5805F7AD0702B40F08180D1E9CD
:1034900001E3C968DCF8082043EA0E0322F47F4206
:1034A00043EA01211143CCF80810DCF8081041F080
:1034B000770162E00BB1102B6AD1DCF8081021F023
:1034C0007001194341F0070157E000BF502B35D080
:1034D000602B5DD1D1F804E0C968DCF82030DCF85D
:1034E000202022F01002CCF82020DCF8182022F452
:1034F000704242EA013123F0A00242EA0E12CCF8F7
:103500001810CCF82020DCF8081041F0670121F0F9
:10351000100132E0D1E901E3C968DCF8082043EA90
:103520000E0322F47F4243EA01211143CCF8081034
:10353000DCF8081041F480411FE000BFD1F804E03E
:10354000C968DCF82030DCF8202022F00102CCF839
:103550002020DCF8182022F0F00242EA011123F0CA
:103560000A0242EA0E02CCF81810CCF82020DCF84F
:10357000081041F0570121F02001CCF8081000227A
:10358000012180F83D10002180F83C10104680BDDC
:103590000122F5E7002804BF012070472DE9F04F14
:1035A00081B0044690F83D000D4628B9002084F80B
:1035B0003C00204600F094F8022084F83D0020688A
:1035C00044F20702816840F2FF7391438160026810
:1035D000C4F2000342F6004C9842C4F2010C15DC20
:1035E000B0F1804F1AD040F20041C4F2000188428D
:1035F00014D0984218DCB0F1804F1DD040F2004149
:10360000C4F20001884217D01AE000BF604505D01F
:1036100040F60001C4F200018842EAD1A16822F01C
:1036200070020A439842E6DD604505D040F600018D
:10363000C4F20001884203D1216922F440720A4396
:10364000A36922F08001D4F804E0E26819436045E0
:103650000160C262C0F828E002D16169CCF8301084
:103660004FF00109C0F814908268D0F818E0D0F843
:1036700020C0D5E90038D5E9027B43EA020AAB69EC
:103680004FF6FF712EEA010E47EA03234FF6FC477F
:10369000BB43D5E907724BEA0E012E69194341EA93
:1036A000072141EA061141EA02312CF022026B693E
:1036B00042EA080242EA0312C0F808A081610262ED
:1036C00084F8469084F83E9084F83F9084F84290C5
:1036D00084F8439084F83D90002001B0BDE8F08F5D
:1036E00070B586B000680026B0F1804F059601D015
:1036F00006B070BD41F21800C4F20200416840F605
:10370000000441F0010141604168C4F2010401F08C
:10371000010101910199016802AD41F004010160CC
:10372000016801F0040101910199016841F008016B
:1037300001600068294600F00800019001984FF4EC
:103740000040CDE9020620460496FEF7C7FA08209D
:10375000CDE9020604F5806029460496FEF7BEFA1C
:103760000420C4F2010001684FF6FF42CFF6FF02C9
:10377000114041F0E06141F4807101601C200221A0
:103780000022FFF765F91C20FFF752F906B070BD63
:1037900080B590F83E2090F83F3090F842E090F8E5
:1037A00043C004290AD0B9B9012A4FF0010208BF69
:1037B000BEF1010F34D0104680BD00BF012B4FF089
:1037C000010208BFBCF1010FF5D1022180F83F10C2
:1037D00080F8431000681EE0012A4FF0010208BF84
:1037E000012BE8D1BEF1010FE5D1BCF1010FE2D10F
:1037F000022280F83E2080F83F2080F8422080F8A6
:10380000432091B10068016A21F001010162016A5F
:1038100041F00101016210216FF0100209E000BFC8
:10382000022180F83E1080F84210006801216FF0FC
:103830000102036A1A400262026A114301620168CE
:10384000002241F001010160104680BD7047000078
:1038500010B5016804460869800744BFC8685FEA7C
:10386000807039D40869400744BFC8685FEA407077
:103870003ED40869000744BFC8685FEA007045D4B9
:103880000869C00644BFC8685FEAC0604AD40869D6
:10389000C0071CBFC8685FEAC07051D10869000644
:1038A00044BFC8685FEA006052D40869400644BF5C
:1038B000C8685FEA406053D40869800646BFC8689C
:1038C0005FEA806010BD6FF0200220460A61BDE80B
:1038D0001040FFF765BC00BF6FF0020008610120D7
:1038E00020778869800743D02046FFF7AFFF45E087
:1038F0006FF00400086102202077886910F4407F8F
:1039000040D02046FFF7A2FF42E000BF6FF0080062
:10391000086104202077C86980073DD02046FFF762
:1039200095FF3FE06FF01000086108202077C8691C
:1039300010F4407F3AD02046FFF788FF3CE000BFFC
:103940006FF001000861204600F050FA2168A5E7F9
:103950006FF0800008612046FFF720FC2168A4E793
:103960006FF040000861204600F0DEFA2168A3E70E
:10397000204600F04DF8204600F0C6F921680020EE
:1039800020776FE7204600F043F8204600F0BCF9AE
:103990002168002020776CE7204600F039F82046A7
:1039A00000F0B2F921680020207769E7204600F096
:1039B0002FF8204600F0A8F921680020207766E75C
:1039C00080B586B040F200410068C4F200010022D8
:1039D0008842049202D006B080BD00BF41F21800B8
:1039E000C4F20200026842F004020260006800F0C3
:1039F000040001900198C0200290022003900590DD
:103A000001F5823002A9FEF769F906B080BD000019
:103A1000704700002DE9F04390F83C30012B04BFC3
:103A20000220BDE8F0834FEAB202032A3CD8DFE867
:103A300002F003437FB900BF036842F600461D6AE7
:103A40001A6AC4F2010622F001021A621A465C6880
:103A500052F818CFB3428E68D1F800E025F0020585
:103A600045EA06050CD1CE68D1E9057824F4407406
:103A700025F00C0526F004063C43354344EA0804CF
:103A80002CF0730747EA0E075C609F614F68096975
:103A90005F631D629F6947F008079F619F6927F078
:103AA00004079F61AEE000BF0121002280F83C20A6
:103AB0000846BDE8F08300BF036842F600461D6A71
:103AC0001A6AC4F2010622F010021A621A46D3F8EA
:103AD00004C052F8184FB3428E68D1F800E025F0C8
:103AE000200545EA06150FD1CE68D1E905986FF09B
:103AF000400707EA06162CF4406725F0C00547EAA0
:103B00008907354347EA880C24F4E64444EA0E2743
:103B1000C3F804C09F614F6809699F631D629F6974
:103B200047F400679F619F6927F480679F6168E0A1
:103B3000036842F600461D6A1A6AC4F2010622F4BE
:103B400080721A621A46D3F804C052F81CEFB342CE
:103B50008E680C6825F4007545EA06250FD1CE68FD
:103B6000D1E90598360240F2FF47BE432CF4405796
:103B700025F4406547EA0917354347EA081C2EF04B
:103B800073072743C3F804C0DF614F680969DF6327
:103B90001D62DF6947F00807DF61DF6927F004076E
:103BA000DF612FE0036842F60047D3F820C01A6AAD
:103BB000C4F2010722F480521A621A465C6852F875
:103BC0001C5FD1F800E08E68BB4204D14F6924F439
:103BD000804444EA87142CF4005747EA063725F45A
:103BE000E64646EA0E265C60DE614E6809691E64A0
:103BF0001F62DF6947F40067DF61DF6927F48067D0
:103C0000DF6109021368194311600021002280F866
:103C10003C200846BDE8F083002804BF012070471F
:103C200010B5044690F83D0028B9002084F83C0007
:103C3000204600F067F8022084F83D00206840F23A
:103C4000FF730268C4F2000342F6004C9842C4F2CB
:103C5000010C15DCB0F1804F1AD040F20041C4F2E3
:103C60000001884214D0984218DCB0F1804F1DD07A
:103C700040F20041C4F20001884217D01AE000BFB0
:103C8000604505D040F60001C4F200018842EAD147
:103C9000A16822F070020A439842E6DD604505D033
:103CA00040F60001C4F20001884203D1216922F4E8
:103CB00040720A43A36922F08001D4F804E0E2686C
:103CC000194360450160C262C0F828E002D1616911
:103CD000CCF8301001214161002084F8461084F8AE
:103CE0003E1084F83F1084F8401084F8411084F8A6
:103CF000421084F8431084F8441084F8451084F886
:103D00003D1010BD704700007047000041B1082908
:103D100010D0042914BF00F1410200F13F020BE072
:103D200090F83E20012A1CBF01207047022280F833
:103D30003E2013E000F140021278012A1CBF01204E
:103D400070470222082907D0042914BF80F84120B7
:103D500080F83F2002E000BF80F84020006801F0BA
:103D60001F010122036A8A4023EA02010162036AF9
:103D700042F64441C4F201011A43A1F144039842BE
:103D800002620FD040F2FF71C4F20001884213DCDE
:103D9000B0F1804F1CD040F20041C4F200018842D3
:103DA00016D01CE00A6842F400420A6040F2FF713B
:103DB000C4F200018842EBDD42F60041C4F2010189
:103DC000884205D040F60001C4F20001884206D1C5
:103DD000816801F00701062904BF002070470168CF
:103DE00041F0010101600020704700002DE9F04F13
:103DF00081B0006842F60041C4F2010188421CBF54
:103E000001B0BDE8F08F40F22420C2F20000026849
:103E100040F278071068C2F2000710F010014FF06E
:103E2000FF3008BF0120F863506A78801369DB0710
:103E300006D140F21401C2F2000109680DE000BF92
:103E40006FF00103136140F21402C2F20002136822
:103E5000002914BF591E591C116080B2C1EB0141E9
:103E60000E18F868D7F83080301ABE6002F0A6FA53
:103E700040F20009C4F24839494602F08DF94DF28A
:103E80000A71C3F62341FE6002F086F90021C4F2F4
:103E9000702102F027FB386102F0BAF849F69A1B4C
:103EA00049F6991AC9F6991BC3F6D97A5A46534668
:103EB00001F0B0FF48F26E6542F2F914CFF21B0533
:103EC000C4F209042A46234601F0A4FF0023C4F2E9
:103ED0004E03002201F002FE01F0CEFD7861304673
:103EE00002F06CFA4FF63521C3F68E41064602F019
:103EF000F9FAB8613046494602F04EF902F088F806
:103F00005A46534601F086FF2A46234601F082FFB7
:103F100001F0B2FD024640463146FA6101B0BDE80B
:103F2000F04F00F0B5BD000070470000FEE7000054
:103F300040F2D010C2F20000FDF7F2BF10B581B020
:103F400000210091406A40F21001C2F2000190F895
:103F50003DC009684BF28952C908C1F2F842A1FB81
:103F60000212110A232251430091009911B30099C2
:103F7000013900910168096889051FD50099C9B107
:103F800000990139009101680968890516D50099E1
:103F900081B10099013900910168096889050DD541
:103FA000009939B1009901390091016809688905C2
:103FB000DBD403E0016C41F020010164446B4FF05D
:103FC000000E002C1CBF0021A162816B00291CBFC8
:103FD00000228A620268002C136823F48063136055
:103FE000A0F82AE018BFC4F834E000291CBF002361
:103FF0004B63116821F00101116090F83D106029B8
:104000000CD1202180F83D10002180F83E10016481
:1040100001B0BDE81040FDF77FBF00BF0CF02801E4
:10402000282911D1116841F001011160116841F492
:104030008061116000210163282180F83D1001B0EA
:10404000BDE81040FEF79CBA202180F83D10002109
:1040500080F83E1001B0BDE81040FEF791BA0000B4
:1040600010B5044690F83D1090F83E00B0F11002F3
:1040700018BF0122403818BF0120024208BF222980
:1040800034D001F0280028283AD1002020632820CD
:1040900084F83D0020684168090542D5416821F453
:1040A00000614160606B90F82110012958D1A06B2C
:1040B00043F63D71C0F600014163FDF77DFD002828
:1040C00061D020684169490606D50069616A0870B7
:1040D000616A206801316162016821F001010160BB
:1040E000202084F83D00A06B4BE000BF20680268F0
:1040F00022F4006202604268120505D50CE000BFA0
:1041000020684268120507D4602905D0202184F870
:104110003D10002184F83E1000212163416809050B
:10412000BCD494F83D10602950D1202184F83D1072
:10413000002121644169490606D50069616A087059
:10414000616A206801316162016821F0010101604A
:104150002046FDF7E1FE206C000717D11BE000BFF1
:1041600043F63D71C0F600014163FDF725FD50B1F6
:104170002168606B0A6822F001020A60202184F83D
:104180003D10416B8847206C000704D020684168CF
:1041900021F4E061416094F83D00216C490758BF6B
:1041A00010BD282810D10020CFF6FF70E06200215A
:1041B0002020216384F83D00204684F83E10BDE8AD
:1041C0001040FEF79BBA00BF10BD00BF4169490611
:1041D00005D50069616A0870606A01306062204636
:1041E000FEF7CEF9206C0007D0D1D4E7C16A428D2A
:1041F000042A07D10168426A4B6823F480634B604C
:10420000096911E0428D032A16D102680229536818
:1042100023F48063536005D0042903D0116821F48E
:10422000806111601169426A1170416A0131416215
:10423000418D013941857047428D022A12D10139E1
:104240000F2919D8DFE801F00812181218181818E9
:10425000181818181818180801680A6822F48062DB
:104260000EE000BF0168426ACAE700BF01680A6841
:1042700042F4806204E000BF01680A6842F4007200
:104280000A600969426A1170416A02684B1C436204
:10429000438D013B438512694A70416A02680131CE
:1042A0004162418D01394185516821F4407151606D
:1042B000202180F83D1090F83E200021402A80F80F
:1042C0003E1003D10163FEF709BB00BF1221016359
:1042D000FEF716BA81B090F83D10222977D1418DB2
:1042E000042913D30168426A09691170416A0131D6
:1042F0004162418D01394185418D032967D10068B3
:10430000416821F48061416001B07047C26A022AAD
:1043100058D0012956D80021009140F21001C2F274
:10432000000109684BF28952C908C1F2F842A1FBA9
:104330000212110A01EB81010091009901390091EB
:104340000099002946D001680A6892051AD500999B
:10435000013900910099E9B301680A68920511D505
:104360000099013900910099A1B301680A6892058A
:1043700008D5009901390091009959B301680A687C
:104380009205DAD40A6822F480620A604A6822F44C
:10439000E0624A600969426A1170416A0131416212
:1043A000418D01394185202180F83D1090F83E2053
:1043B0000021402A80F83E1028D1016301B0FEF7A9
:1043C0008DBA00BF0068416821F48061416001B08E
:1043D000704700BF016C41F0200101640168426A2E
:1043E0004B6823F4E0634B6009691170416A013145
:1043F0004162418D01394185202180F83D10002125
:1044000080F83E1001B0FEF7BBB800BF1221016377
:1044100001B0FEF775B90000C16A90F83D20212A6D
:1044200018BF7047428D4AB1416A026811F8013BDA
:1044300013614162418D01394185704711F5803F1B
:1044400018BF082918D101684A6822F4E0624A605E
:104450000A6842F400720A6000212022016380F899
:104460003D2090F83E2080F83E10402A08BFFEF71D
:1044700037BAFEF747B900BF2029E4D001684A687F
:1044800022F4E0624A6011210163002180F83E10AD
:10449000202180F83D10FEF735B9000090F83D105E
:1044A00090F83EC0C26A038D002B08BF212919D0A5
:1044B000212905D0BCF1400F08BF222900D0704748
:1044C000418D69B390F83E10402908BF00F040B814
:1044D000416A026811F8013B13614162418D013963
:1044E0004185704712F5803F18BF082A1ED1016828
:1044F0004A6822F4E0624A600A6842F400720A6084
:1045000000212022016380F83D2090F83E2080F8B1
:104510003E10402A08BFFEF7E3B9FEF7F3B800BF2C
:104520000068416821F4806141607047202ADED034
:1045300001684A6822F4E0624A60112101630021A7
:1045400080F83E10202180F83D10FEF7DBB8000017
:1045500090F83D10026D5AB1026D012A14D1016824
:10456000826CD2B20A61016D01310165704700BFF2
:10457000C26C816C012A15D10268C9B21161016D4A
:1045800002310165704700BF026D022A12D1222953
:1045900018D101680A6842F480720A60016D013125
:1045A000016570470268C1F307211161016D013196
:1045B0000165704700684169090644BF0021016137
:1045C000704700BF428D5AB1212909D1416A026862
:1045D00011F8013B13614162418D013941857047FA
:1045E000428D002A08BF2129EAD101684A6822F4D5
:1045F000E0624A600A6842F400720A6000212022E8
:10460000016380F83D2080F83E10FEF769B9000094
:1046100070B50368044653F8140F400711D40E46D2
:10462000481C29D086BB00BF1868400527D4FDF779
:104630006DFC236853F8140F400739D518684007FC
:10464000F2D5002070BD00BF18684007F9D4186883
:10465000400514D418684007F3D4186840050ED4F8
:1046600018684007EDD41868400508D4186840075A
:104670004FF0000048BF70BD18684005E4D56FF4E6
:1046800080601860042014E0154603E053F8140F0E
:104690004007D6D418684005F1D4FDF737FC401B1D
:1046A0002368B042F2D958694007EFD4202000E0D7
:1046B000202000212022216384F83D2084F83E1030
:1046C000226C10432064012084F83C1070BD00006F
:1046D0002DE9F041054600681E46144601F47F02AC
:1046E00001338FB242D0DDF81880B2F5803F40F040
:1046F000878040693840C01BB0FA80F04009A04272
:1047000040F0C8804EB924E040693840C01BB0FA80
:1047100080F04009A04240F0BD80FDF7F7FBA0EB20
:1047200008012868B142EFD941693940C91BB1FA83
:1047300081F14909A142E7D19BE000BF40693840BF
:10474000C01BB0FA80F04009A0424FF0000040F0DA
:10475000A680FDF7DBFB286841693940C91BB1FA27
:1047600081F14909A142E9D183E000BFB2F5803F60
:1047700024D100BF41693940C91BB1FA81F149090F
:10478000A14240F0878041693940C91BB1FA81F1EB
:104790004909A14240F07E8041693940C91BB1FA04
:1047A00081F14909A14275D141693940C91BB1FA6A
:1047B00081F14909A142DDD06CE000BF8169394037
:1047C000C91BB1FA81F14909A14263D1816939401C
:1047D000C91BB1FA81F14909A1425BD18169394014
:1047E000C91BB1FA81F14909A14253D1816939400C
:1047F000C91BB1FA81F14909A142DFD04AE000BFEB
:1048000080693840C01BB0FA80F04009A04241D115
:1048100046B923E080693840C01BB0FA80F04009F7
:10482000A0423BD1FDF772FBA0EB08012868B14222
:10483000F0D981693940C91BB1FA81F14909A14216
:10484000E8D116E080693840C01BB0FA80F040091A
:10485000A0424FF0000018BFBDE8F081FDF756FB05
:10486000286881693940C91BB1FA81F14909A1421F
:10487000E8D100202021286385F83D1085F83E000E
:10488000296C41F02001296485F83C000120BDE835
:10489000F08100BF0020BDE8F08100BF0020BDE82E
:1048A000F0810000F0B581B0044600681D46436900
:1048B0008FB203EA0701B94202D1002001B0F0BD76
:1048C00041691646013201F4806125D0002940D1AA
:1048D000CEB100BFFDF71AFB411B2068B14203D9DE
:1048E00041693940B9424BD141693940B942E4D0BC
:1048F00041694905EED52CE041693940B942DCD027
:104900004169490525D4FDF701FB2068416939401B
:10491000B942F1D0202024E0D9B941693940B942E7
:10492000CBD04169490514D441693940B942C4D05A
:10493000416949050DD441693940B942BDD0416949
:10494000490506D441693940B942B6D041694905A3
:10495000E3D5016841F4007101606FF48061416149
:10496000042000212022216384F83D2084F83E1099
:10497000226C1043206484F83C10012001B0F0BD8B
:104980002020EEE770B50368044653F8140F0006C4
:1049900011D40E46481C29D086BB00BF18684005BC
:1049A00027D4FDF7B3FA236853F8140F000639D55E
:1049B00018680006F2D5002070BD00BF1868000618
:1049C000F9D41868400514D418680006F3D41868A0
:1049D00040050ED418680006EDD41868400508D4C8
:1049E000186800064FF0000048BF70BD1868400509
:1049F000E4D56FF480601860042014E0154603E0ED
:104A000053F8140F0006D6D418684005F1D4FDF70A
:104A10007DFA401B2368B042F2D958690006EFD4F2
:104A2000202000E0202000212022216384F83D2066
:104A300084F83E10226C10432064012084F83C105E
:104A400070BD0000FEE70000FEE7000070470000B8
:104A500070470000FDF784BF7047000040F28810E7
:104A6000C2F20000FEF7F4BE40F22420C2F20000C1
:104A7000FEF7EEBE40F26C20C2F20000FEF7E8BE88
:104A800040F23010C2F20000FCF736BEFEE7000034
:104A90002DE9F04F81B040F2780BC2F2000B9BF889
:104AA0000020012A40F0928001F0E8FDDBE90A19BC
:104AB000DBE90848064601F0E1FD40F20001C2F2E0
:104AC0000001D1E90057394601F066FB82462046D5
:104AD000494601F007FD04462846314601F002FD33
:104AE000214601F0C1FA04464046514601F0FAFC65
:104AF000214601F0B9FA044630463946CBF8286021
:104B000001F0F0FC494601F0AFFA0025C4F2C825D7
:104B1000CBF82C002046294601F024FB00BBCBF843
:104B200040502C46204601F073FA49F69A1249F695
:104B30009913C9F69912C3F6B97301F06BF949F6E6
:104B40000023C4F2C0030022002401F063F901F045
:104B50001FF90546ABF80400ABF806402FE000BF94
:104B60000025CCF2C8252046294601F0F4FA18B9F0
:104B7000CBF840502C4606E020460021CBF84040C0
:104B800001F0E9FA30BB204601F042FA49F69A12E8
:104B900049F69913C9F69912C3F6B97301F03AF9B7
:104BA00049F60023CCF2C0030022002501F032F9BF
:104BB00001F0EEF80446ABF80600ABF8045040F202
:104BC0006C20C2F2000000684463856301B0BDE858
:104BD000F08F00BF20460021002501F0C3FA002815
:104BE000A0D00024CBF80450E9E7000096B0FDF710
:104BF000C5FE00240120CDE91144CDE90F440C90FD
:104C000010904FF4E0104FF48031022515900CA85D
:104C10000594CDE90344CDE90D14CDE91351FEF718
:104C2000CDF828B1EFF3108072B600BFFEE700BFE9
:104C30000F20CDE906054FF48060CDE9090406A8F0
:104C400002210894FDF7C6FF20B1EFF3108072B681
:104C5000FEE700BF4FF400400226049002A802962F
:104C6000FDF732FF20B1EFF3108072B6FEE700BF10
:104C700041F21800C4F20200016840F6004B41F016
:104C8000100101600168C4F2010B01F010010C91E8
:104C90000C9901680BF5806941F020010160016801
:104CA000002201F020010C910C9901684FF400548E
:104CB00041F0040101600168002701F004010C913A
:104CC0000C99016841F00801016000684FF400513F
:104CD00000F008000C900C984846FDF711F9584672
:104CE000032100224FF0030AFDF70AF90C940CACE3
:104CF0004FF0010848462146CDE90D870F96FCF795
:104D0000EDFF06200C900020C1F22100ABF580657C
:104D1000CDE90D0728462146FCF7E0FF1820CDE934
:104D20000C07284621460E97FCF7D8FF5846214627
:104D3000CDE90CA8CDE90E86FCF7D0FF07200021B5
:104D40000022FDF785FE0720FDF772FE08200021F6
:104D50000022FDF77DFE0820FDF76AFE40F25810A4
:104D60000BF5C051C2F200004FF4602280F80C80B5
:104D70000775C261C0E900178760C0F81080FCF7B2
:104D800041FA28B1EFF3108072B600BFFEE700BF12
:104D900040F25814C2F200040CA92046CDE90C7868
:104DA0000E97FCF7E7F828B1EFF3108072B600BF5A
:104DB000FEE700BF40F2D010ABF53841C2F2000070
:104DC00048F2A06200254FF48043C0F2010280E85F
:104DD0002600C0E90353C0E90555C0E90755FDF7B2
:104DE000D1FB28B1EFF3108072B600BFFEE700BF21
:104DF00040F22420C2F200004FF08041C0E90015CB
:104E000001214FF6FF72CDE90C15CDE90E15CDE964
:104E100012150CA9CDE90655C0E90252056185615C
:104E2000CDE910551495FEF7B5FB28B1EFF31080CE
:104E300072B600BFFEE700BF40F22420C2F20000BD
:104E400006A9FEF7AFF928B1EFF3108072B600BFE4
:104E5000FEE700BF40F26C200021ABF58432C2F2C5
:104E600000004FF6FF730991CDE90711CDE902115A
:104E7000CDE91111CDE90F11C0E90021C0E90213FC
:104E800001618161FEF7CCF920B1EFF3108072B6B9
:104E9000FEE700BF4FF48050069040F26C20C2F253
:104EA000000006A9FEF7A8FA20B1EFF3108072B651
:104EB000FEE700BF40F26C20C2F20000FEF7ACFE3D
:104EC00020B1EFF3108072B6FEE700BF40F26C2015
:104ED000C2F2000002A9FEF765F918B1EFF31080E5
:104EE00072B6FEE760200C900020CDE90D00109016
:104EF00040F26C20C2F200000CA90022FEF78AFDED
:104F000020B1EFF3108072B6FEE700BF40F26C20D4
:104F1000C2F200000CA90422FEF77CFD20B1EFF3E1
:104F2000108072B6FEE700BF40F26C20C2F20000B3
:104F3000FEF746FD0BF500522046002140F8302FC9
:104F400040F28F1240F283330F91CDE90D11CDE97C
:104F50000611C0E90121C0E90331C0E90511FEF7DE
:104F60005FF918B1EFF3108072B6FEE74FF480508E
:104F700004F130080C900CA94046FEF73DFA18B138
:104F8000EFF3108072B6FEE706A94046FEF70AF975
:104F900020B1EFF3108072B6FEE700BF40F2EC05DF
:104FA000C2F20005ABF52841284640F8441F122103
:104FB0004FF0000A4FF48032C0E9011AC0E903A2A1
:104FC000C0E905AAA0F81CA0FCF7C6FC20B1EFF3CD
:104FD000108072B6FEE700BF012014900A21CDE9CF
:104FE00012A00D2005F14407CDE910A115900CA9E0
:104FF0003846CDE90CAACDE90EAAFCF76BFA20469B
:10500000FCF7EAF948464FF400510122FCF778FF1B
:105010004046FEF7B9F940F22420C2F200003C21DC
:10502000FEF7B6FB40F26C26C2F2000630460021C5
:10503000FEF76CFE30460421FEF768FE584601215B
:105040000122FCF75DFF5846022101224FF00209C0
:10505000FCF756FF40F27808C2F2000844F2000064
:10506000CCF29C5008F1580640F2D011C8F830003C
:10507000C2F2000130464E221023CDF80090FBF71B
:1050800085FD3846FCF75CFD38460221FCF70AFA3C
:10509000082040F20009C5E905AAC5E907A085F87E
:1050A00024A008F16407C4F296290FF2C41A16E08E
:1050B000D8F838004FF60071C4F27F7101F012FA8F
:1050C00001F060F90146A8F80400002040F26C22CB
:1050D000C2F200021268A8F806005163906398F8C3
:1050E000000002280ED0012800F08A800028F6D1A6
:1050F000304600210022FBF7B1FE30465146FBF757
:10510000F3FEECE798F80100022813D03046FBF7D5
:1051100011FD304600210022FBF7A0FE304643A1DE
:10512000FBF7E2FE98F8000088F801004FF4FA60FF
:10513000FCF7A0FD3046FBF7FDFC98F84F0001F0AE
:1051400055F9C8F834002046FBF7E0FF00F04FFEA9
:105150004FF600630022C4F2AF0300F0BFFC00F082
:105160008BFC0021C4F2C821C8F8380001F0BAF95C
:1051700000F04EFF02460B46384631A1FBF730F8EF
:10518000D8F8340000F044FF02460B4628462FA111
:10519000FBF726F8304600210022FBF75FFE304681
:1051A0002946FBF7A1FE304600210122FBF756FEFF
:1051B00030463946FBF798FED8F834B04946584691
:1051C00000F0D0FF00283FF473AF00215846C4F22E
:1051D000701100F0C0FF0146002000294FF00001CF
:1051E000A8F804007FF472AFD8F838004FF60071C9
:1051F000C4F27F7101F076F901F0C4F8002165E78F
:1052000098F8010001283FF46AAF3046FBF792FCA2
:10521000304600210022FBF721FE30460FA1FBF7AC
:1052200063FE98F8000088F8010058E72020204D20
:10523000414E55414C204D4F444520200000000078
:105240004144433A252E326600000000636F6E74BD
:10525000726F6C6C3A252E316600000020202020F1
:105260004155544F204D4F44452020200000000060
:1052700020204155544F202F204D414E55414C2068
:10528000000000005FEA400C08BF91F0000F4FEAF9
:105290008C234FEAC12243EA51514FEA1C5018BFF8
:1052A00000F5F0404FEA300018BF41F000415FEADE
:1052B0006C5C00F02980BCF1FF3F08BF40F08040EB
:1052C0007047130C06BF12044FF0100C4FF0000C87
:1052D000130E04BF12020CF1080C130F04BF1201CD
:1052E0000CF1040C930F04BF92000CF1020CD30FCD
:1052F00004BF52000CF1010C11464FF00002A0F166
:105300001F00A0EB0C00704711F0004F08BF704762
:1053100031F000413FF4D5AF0B0C06BF09044FF04C
:10532000100C4FF0000C0B0E04BF09020CF1080C1E
:105330000B0F04BF09010CF1040C8B0F04BF890093
:105340000CF1020CCB0F04BF49000CF1010CCCF1A5
:10535000200322FA03F341EA030102FA0CF2A0EB64
:105360000C0000F10100704723F07F4720F07F4CD4
:1053700080EA030000F00040ACEB070303F57C5328
:1053800003F1FF032DE9804909B44FEA144324EAED
:1053900003484FEA154B25EA0B4E0FF2042606EBA5
:1053A00013273E7803FB0667C7F5000707FB06F6E1
:1053B0004FEAD64606F102064FEA543707FB066C61
:1053C000CCF1005C4FEA1C472CEA074C0CFB06F5BD
:1053D00007FB06F404EB15464FEA961649085FEA08
:1053E000320234BF00204FF000404FEAD13706FBB5
:1053F00007FC4FEA1C4C0CFB0BF7D21B03FB0CF712
:1054000061EB07010CFB0EF7B0EB074072EB1742A4
:105410000CFB08F734BFA2EB0742B2EB074261EB8B
:1054200017414FEA0C444FEA910706FB07FC4FEA8D
:105430001C4C0CFB0BF7B0EBC74072EB573203FB75
:105440000CF734BFA2EBC742B2EBC74261EB573156
:105450000CFB0EF7B0EBC70072EB57720CFB08F7B2
:1054600034BFA2EBC702B2EBC70261EB57714FEA40
:10547000816141EA92114FEA826242EA90124FEA58
:10548000806004EBCC04039F4FEAD13706FB07FC96
:105490004FEA1C4C0CFB0BF7D21B03FB0CF761EB28
:1054A00007010CFB0EF7B0EB074072EB17420CFB49
:1054B00008F734BFA2EB0742B2EB074261EB17419A
:1054C0004FEA8C5504EB9C244FEA910706FB07FC3E
:1054D0004FEA1C4C0CFB0BF7B0EBC74072EB57329A
:1054E00003FB0CF734BFA2EBC742B2EBC74261EB40
:1054F00057310CFB0EF7B0EBC70072EB57720CFB89
:1055000008F734BFA2EBC702B2EBC70261EB5771D9
:105510004FEA816141EA92114FEA826242EA9012B7
:105520004FEA806015EB4C2544F100044FEAD13777
:1055300006FB07FC4FEA1C4C0CFB0BF7D21B03FBD2
:105540000CF761EB07010CFB0EF7B0EB074072EBB9
:1055500017420CFB08F734BFA2EB0742B2EB07423D
:1055600061EB17414FEA813141EA92414FEA8232C1
:1055700042EA90424FEA80304FEA0C7615EB1C1558
:1055800044F1000448EA03434EEA0B484FF0000E92
:10559000B2EB080C71EB030724BF624639464EEBB1
:1055A0000E0E4FF0000B0018524149414BEB0B0B14
:1055B000B2EB080C71EB03077BF1000B24BF6246D2
:1055C00039464EEB0E0E4FF0000B00185241494188
:1055D0004BEB0B0BB2EB080C71EB03077BF1000BF1
:1055E00024BF624639464EEB0E0E51EA020718BF41
:1055F00046F0010616EB0E7655F1000254F100015B
:1056000003D5BDE88901BDE80088BDE88901BDE892
:105610000048B619524141EB0101A3F10103704763
:1056200080807F7E7D7C7B7A7978777676757473DF
:10563000727171706F6E6E6D6C6C6B6A6A6968689E
:10564000676666656464636362616160605F5F5E34
:105650005E5D5D5C5C5B5B5A5A59595858575756AA
:10566000565555555454535352525251515050500F
:105670004F4F4F4E4E4D4D4D4C4C4C4B4B4B4A4A61
:105680004A494949484848474747474646464545A5
:1056900045444444444343434342424242414141DE
:1056A0009C46002B30D477002BD04FEA37071CB52F
:1056B00003B44FF010004FF01001BAF1000F06D004
:1056C000BCF1000FDCBF40F0080040F008014FF0D3
:1056D00000000FBCBDE810400BF1010BBBF1010F46
:1056E00008BF5FEA170722BF12F1010211F10101A1
:1056F0004FF0004143F1000300F0004043EA000096
:105700007047F9D35708D0E746EA06464FEA1646EF
:1057100013F1400F1FDD13F1200FDFBF16430A46C0
:10572000002120335B42BED0C3F1200746EA064683
:105730004FEA164602FA07F746EA070622FA03F28C
:10574000C3F1200701FA07F742EA070221FA03F141
:105750004FF00003A7E746EA020646EA06464FEA8C
:10576000164646EA0106BCBF46EA0646360C4FF02E
:1057700000034FF000024FF0000194E72DE9804C48
:1057800070B49A46934691E8380007C831EA400C55
:1057900048BF34EA430C03D5FFF7E6FDFFF780FF6F
:1057A000F0BCBDE8008C2DE9804C70B49A4693465D
:1057B00091E8380007C810F0804F08BF13F0804F01
:1057C00003D100F005F8FFF76BFFF0BCBDE8008CDB
:1057D00020F07F4723F07F4C80EA030000F0004078
:1057E00007EB0C03A3F57C53A3F1FE0392F0000F2B
:1057F00000F0B38095F0000F00F077802DE90149AB
:105800004FEA114021EA00484FEA144624EA0647CD
:1058100000FB06FC08FB06F607FB08F818EB064839
:105820004CEB164C00FB07F718EB07484CEB174006
:105830004FEA124B22EA0B4E4FEA154625EA06477D
:105840000BFB06FC0EFB06F607FB0EFE1EEB064EE0
:105850004CEB164C0BFB07F71EEB074E4CEB174BB4
:1058600018EB0B0840F1000018EB0E0B58EB00088A
:1058700040F100008F1A4FF000014FF000063CBFCE
:10588000C943661B14BFB5EB040C00213CBFC943E0
:10589000F61B4FEA174427EA04454FEA1C472CEA57
:1058A000074C04FB076205FB07F70CFB05F616EB3C
:1058B000074642EB174204FB0CFC16EB0C4642EB8E
:1058C0001C421BEB060658EB020241414EEA8E0ECB
:1058D00046EA9E0601D5BDE80189B619524141EB61
:1058E0000101A3F10103BDE801894FEA144524EA4F
:1058F00005464FEA114721EA074C05FB07F406FB72
:1059000007F70CFB06F111EB074144EB174405FBCD
:105910000CFC11EB0C4144EB1C444FEA124722EA09
:10592000074C05FB07F206FB07F70CFB06F616EB28
:10593000074642EB174205FB0CFC16EB0C4642EB0C
:105940001C456A1854F1000148BF7047B61952410E
:1059500041EB0101A3F10103704795F0000F37D02F
:105960004FEA114221EA02464FEA144724EA074C63
:1059700002FB07F106FB07F70CFB06F414EB0744E8
:1059800041EB174102FB0CFC14EB0C4441EB1C41B6
:105990004FEA154725EA074C02FB07F506FB07F718
:1059A0000CFB06F616EB074645EB174502FB0CFC15
:1059B00016EB0C4645EB1C42121951F1000148BF91
:1059C0007047B619524141EB0101A3F10103704741
:1059D0004FEA144524EA05464FEA114721EA074CED
:1059E00005FB07F106FB07F70CFB06F212EB07427B
:1059F00041EB174105FB0CFC12EB0C4251EB1C4137
:105A00004FF0000648BF7047921841EB0101A3F127
:105A100001037047490050EAC12018BF04204A0D15
:105A200018BF40F0010040F2FF72B2EB515F08BFB7
:105A300040F00200012808BF0520704730380A28CE
:105A400001D20120704700207047000010B50029E6
:105A50000AD00878002807D005487844FAF7B8FF3C
:105A6000002801D0002010BD0248784410BD00007D
:105A7000F20D0000EA0D000021F0004201F00043A9
:105A8000A2F16052B2F5801F28BFD2F17F6C0BD912
:105A90005FEA001C43EAC20242EB507018BF704735
:105AA00028BF20F001007047B2F5801FBCBF184628
:105AB00070474FEA410C1CF5001F02D2084600F067
:105AC000D8BD70B500F050FA00000089FFF7F6BFAE
:105AD0004FF00040A0F58000704700002DE9C04164
