:020000040800F2
:10000000A0080020A9010008E13C0008A53800086C
:10001000DD3C0008590C0008253D000800000000E8
:10002000000000000000000000000000E93C0008A3
:100030009110000800000000E53C0008ED3C0008BD
:10004000C3010008C3010008C3010008C301000880
:10005000C3010008C3010008C3010008951000088F
:100060009D100008C3010008C3010008C301000877
:10007000C3010008C3010008C3010008C301000850
:10008000C3010008C3010008950B0008C301000864
:10009000193D00085D0C0008C3010008C3010008F9
:1000A000C3010008F53C0008C3010008C3010008B3
:1000B000013D00080D3D0008C3010008C301000810
:1000C000C3010008C3010008C3010008C301000800
:1000D000C3010008C3010008C3010008C3010008F0
:1000E000C3010008C3010008C301000800F002F8C2
:1000F00000F04AF80AA090E8000C82448344AAF178
:100100000107DA4501D100F03FF8AFF2090EBAE875
:100110000F0013F0010F18BFFB1A43F0010318473B
:10012000FC5E00001C5F0000103A24BF78C878C154
:10013000FAD8520724BF30C830C144BF04680C60ED
:10014000704700000023002400250026103A28BF35
:1001500078C1FBD8520728BF30C148BF0B60704739
:10016000662905F0EA86642900F052800020704775
:100170001FB500F099FB04000020002104F0A2FE4E
:10018000E0601FBD10B510BD00F08EFC1146FFF7FA
:10019000EFFF03F093FE00F0ACFC03B4FFF7F2FFB7
:1001A00003BC00F0EFFC0000094880470948004705
:1001B000FEE7FEE7FEE7FEE7FEE7FEE7FEE7FEE717
:1001C000FEE7FEE704480549054A064B7047000074
:1001D000F13C0008ED000008A0020020A00800206B
:1001E000A0040020A00400200FB41CB5074B06AAF1
:1001F0007B4469460090059800F03DFB002069466D
:1002000000F04CFB1CBC5DF814FB0000A9060000CC
:100210002DE9F0410646002410687529314616A5DF
:1002200010D0AFF30080002802DA404213A507E0A7
:1002300031688A0701D512A502E0490704D511A546
:10024000012401E0AFF3008000210A2206F1240717
:1002500009E0B0FBF2FCB0FBF2F302FB1C00303013
:1002600078541846491C0028F3D123462A463046C4
:10027000BDE8F04100F092B8000000002D00000041
:100280002B000000200000002DE9F0474FF0000A8D
:1002900089460446C0F820A02046E1688847002827
:1002A00076D0252806D0D4E901219047206A401C49
:1002B0002062F1E7E168204600258847C4F81CA0C9
:1002C00006460027C4F818A02A2E09D0304604F0AC
:1002D000F1FD38B304EB8708303EC8F8186019E028
:1002E00059F8041B204604EB87029161E1688847B6
:1002F000012F064618D1E069002820DA25F02005F4
:100300001DE0D8F8180000EB800006EB4000303804
:10031000C8F818002046E1688847064604F0CAFD80
:100320000028EED1012F0AD02E2E08D12046E168F8
:1003300088477F1C0646022F45F02005C4DBA069D4
:10034000002803DA404245F00105A061E80701D02A
:1003500025F01005B6B1A6F14100192802D82036C3
:1003600045F400654A463146204625604D46FFF774
:10037000F7FE58B1012806D0ED1D25F0070000F169
:10038000080989E704E005F1040985E730468AE7B2
:10039000206ABDE8F0877047704770472DE9F04745
:1003A0000D4699469246044600F1240801688806E5
:1003B00004D5E06921F01001216000E00120A8428D
:1003C00001DD471B00E00027A1697A1902EB090053
:1003D000081AA0612078C00602D42046AFF300803E
:1003E000002608E0D4E901211AF806009047206AA7
:1003F000401C761C20624E45F4DB2078C0060AD5EE
:100400002046AFF3008006E0D4E901213020904778
:10041000206A401C2062381EA7F10107F4DC07E0C7
:10042000D4E9012118F805009047206A401C206299
:10043000281EA5F10105F3DC2046AFF300802078EB
:10044000000602D50220BDE8F0870120FBE72DE978
:10045000FF4F0C461E464FF0FF378BB0D2E900012C
:10046000DDF860800A908A46C1F30A5505B93D4619
:10047000002108464FF00000BAF1000F00F44000E0
:1004800005DA00EB80004FF4400101EA50004FEA2A
:100490009059B9F1010F00DDB9460A9850EA4A00B7
:1004A0000ED044F61050A5F2FF3545432F14B8F195
:1004B000000F1ED07542291E1EDDC9F100021CE08E
:1004C000B8F1010F4FF0000001D0302103E0F243FA
:1004D00005E02154401CB042FBDB304600220021E5
:1004E00021540B99C1F80880C1E900200FB0BDE884
:1004F000F08FBD1B6D1CDEE74A4600DA694206A894
:1005000000F05CFA06AB93E8070003AB83E8070052
:1005100050460A9904F0F2F88DE80700A0F5005063
:100520001F3800900398002D0ADD42F21F014A4651
:100530000844002303A90390684604F05BFB09E02C
:10054000A0F500504A461F38002303A903906846CF
:1005500004F065FB8DE807000004000C03D04FF0A9
:10056000FF30410800E01046B8F1000F03D0002230
:10057000009215461EE0751E05D400F099F9303240
:1005800062556D1EF9D5B3460122084302D0002200
:100590007F1C04E02078302801D100227F1E002A31
:1005A000099784D01DE0112D07DA00F081F930326F
:1005B00062556D1C50EA0102F5D1084302D0009843
:1005C000C8B10EE00021681E05E0235C625C635444
:1005D0002254401E491C8142F7DBAB46A81B401E3B
:1005E0000990002004F80B000B98099AC0F80880C5
:1005F000C0E9002B7AE711264FF0000857E72DE9F4
:10060000F04F88460446D21D22F0070191B0D1E98F
:100610000001CDE90A0104F039FC02460B98C00F35
:1006200001D02D2007E02068810701D52B2002E0B2
:10063000202101EAC000032A099001D0072A05DB26
:1006400003464146204600F079F90BE12078800608
:1006500001D5E06900E00620B8F1650F814606D0BB
:10066000B8F1660F18D0B8F1670F70D131E00020F3
:10067000B9F1110F009001DB112301E009F1010331
:100680000AAA01A90CA8FFF7E2FEDDE90C7000261A
:1006900009F10105834647E001204B4600904FF0E9
:1006A00000470AAA01A90CA8FFF7D1FEDDE90DB0A9
:1006B0000C995D46002610B909F101000D18B9EB3F
:1006C000050003D4C0F1FF3609F10105A5EB0900CF
:1006D0002BE0B9F1010F01DA4FF001090020B9F167
:1006E000110F0090484601DD112300E003460AAADD
:1006F00001A90CA8FFF7ABFEDDE90C704D46002602
:100700008346207800070AD4AB4500DA5D4601A88D
:10071000012D04DD411911F8011C302907D04F4586
:1007200002DA17F1040F04DA012082460FE06D1E91
:10073000EEE7002F02DCED1B3E4403E0781CA842EC
:1007400000DD7D1CB81B00F1010A4FF00047207846
:10075000000703D4AA4501DB4FF0FF3A0021B7F1AF
:10076000004F0DF143088DF8431024D002202B23B5
:10077000002F01DA7F422D230A21021EA0F1010081
:1007800000DC5FB197FBF1FC97FBF1F201FB1C7CF5
:1007900017460CF1300C08F801CDEEE7A8F1010086
:1007A00003702188090501D5452100E06521A0F1EC
:1007B000010800F8011C09980FA9A1EB0807FF1D0B
:1007C00000B10120411901EBEA70A1693844081A0F
:1007D000401EA0612078C00602D42046AFF30080FE
:1007E000099828B1D4E901219047206A401C206271
:1007F0002078C00622D52046AFF300801EE0002EF0
:1008000004DBB34502DD01A8805D00E03020D4E9BF
:1008100001219047206A401C2062761CAAF1010049
:100820005FEA000A0AD100F03FF8C0680168405C46
:10083000D4E901219047206A401C2062281EA5F1BE
:100840000105DCDC07E0D4E9012118F8010B904731
:10085000206A401C2062381EA7F10107F3DC204605
:10086000AFF30080032011B041E6000001694A1C8B
:1008700002610878704700B58FB0CDE901310021E1
:10088000059105497944CDE9031011466846FFF703
:10089000FBFC0FB000BD0000E5FFFFFF0A6802F897
:1008A000010B0A60704700000048704740000020BC
:1008B00030B5B0F10A0271F100034FEA900E4EEA32
:1008C000817EB0EB0E0061EB91014FEA101E4EEA03
:1008D000017E10EB0E0041EB11114FEA102E4EEA93
:1008E000016E10EB0E0041EB11214FEA104E4EEA63
:1008F000014E10EB0E0041EB1141401841F1000197
:100900004FEAD00040EA41704FEAD1014FEA81043A
:1009100044EA907410EB800544EB01046D1944EB3C
:100920000404521BA3414FF0000348BF0A3200D514
:1009300030BD401C41F1000130BD00002DE9F04107
:100940001F46044603260168072A01F4006004DB01
:1009500008B116A505E016A503E008B115A500E04D
:1009600015A521F010002060A069C01EA0610FB184
:10097000401EA0612046AFF300804FB1D4E90121B1
:1009800038469047206A401C2062C01C206206E066
:10099000206AFAE7D4E9012115F8010B9047761E89
:1009A000F8D22046AFF30080BDE8F0814E414E0002
:1009B0006E616E00494E4600696E66002DE9F04793
:1009C000814616468AB0354878440DC88DE80D003A
:1009D00032487844801C03AC0DC884E80D0041F611
:1009E0009B300844372190FBF1F290FBF1F5A5F123
:1009F000800501FB12041B3C02D56442012000E08B
:100A00000020DFF898A080460027FA44AAF1BE0A29
:100A10000EE0E0070AD03246684607EB47010123A3
:100A20000AEB810104F0FBF88DE8070064107F1CDD
:100A3000002CEED1194F7F44AE3F19E0E80715D0E6
:100A400007EB04100DF1180A90E80E008AE80E007A
:100A5000C068F04201D1981908903246012306A9D6
:100A600003A804F0DCF803AB83E807006D10641CF6
:100A7000002DE3D14FF0010332466946B8F1000F73
:100A800003A802D004F0B6F801E004F0C8F8C9E900
:100A90000001C9F808200AB0BDE8F087F055000051
:100AA00000487047200000207546FFF7F9FFAE466A
:100AB00005006946534620F00700854618B020B56A
:100AC000FFF780FBBDE820404FF000064FF0000725
:100AD0004FF000084FF0000BAC46ACE8C009ACE8A2
:100AE000C009ACE8C009ACE8C00921F007018D4697
:100AF000704710B50446AFF300802046BDE81040B3
:100B0000FFF74BBB4FF0013C50F8042B51F8043B6E
:100B10009A4221D1A2EB0C03934313EACC1317D1D1
:100B200050F8042B51F8043B9A4215D1A2EB0C0368
:100B3000934313EACC130BD150F8042B51F8043B28
:100B40009A4209D1A2EB0C03934313EACC13DBD0F6
:100B50004FF00000704700BFD01A01BAB1FA81F11E
:100B600001F0180122FA01F0CB40DBB2C0B2C01A8A
:100B7000C1F120012CFA01F3D11A914311EAC311FA
:100B8000E6D1704701491820ABBEFEE726000200FF
:100B90007047000040F24010C2F2000000F054BB69
:100BA000B0B582B004460020019021688A68D2075F
:100BB0004FD1886840F00100886040F21C00C2F20A
:100BC000000000684DF68361C4F21B31A0FB0101F7
:100BD000880C01900198A0B101980138019001980A
:100BE00078B1019801380190019850B1019801380D
:100BF0000190019828B101980138019001980028CE
:100C0000EAD101F0CFF921688968C9071CD10546EE
:100C100003E000BF8068C0071AD101F0C3F9411B8F
:100C200020680329F6D38168C907F3D1A06A40F090
:100C30001000A062E06A40F00100E062002084F849
:100C40002400012002B0B0BD002002B0B0BD00BF42
:100C5000002002B0B0BD0000FEE7000040F2181016
:100C6000C2F2000000F0E2BD70B582B00446C07A66
:100C70001826002818BF01204FEAC00505F104001E
:100C800008BF10268DF80400012001F033F8301D54
:100C90008DF8060001208DF8055001F02BF8206832
:100CA00021798DF807604FF47A7601AA0423009623
:100CB00001F03AFA052001F01DF802B070BD000005
:100CC0002DE9F04182B0044608982160A07140F6F9
:100CD0000640C2F61400C4F807000820E072322073
:100CE0002271637101F006F8E07A3825002808BF08
:100CF00030252E1D012038278DF8046000F0FAFF02
:100D000001208DF805508DF8066000F0F3FF206893
:100D100021794FF47A7801AA04238DF80750CDF891
:100D2000008001F001FAE07A3826002808BF30265A
:100D3000351D01208DF8045000F0DCFF01208DF8F6
:100D400005608DF8065000F0D5FF2068217901AAD2
:100D500004238DF80760CDF8008001F0E5F9052047
:100D600000F0C8FFE07A2825002808BF302707F1E7
:100D7000040008BF20258DF804000120282600F07B
:100D8000B9FF281D8DF8060001208DF8057000F0D0
:100D9000B1FF2068217901AA04238DF80750CDF80E
:100DA000008001F0C1F9052000F0A4FFE07A2825B9
:100DB000002818BF012008BF2025C700281D8DF876
:100DC0000400012000F096FF381D8DF80600012078
:100DD0008DF8055000F08EFF2068217901AA0423C8
:100DE0008DF80770CDF8008001F09EF9052000F025
:100DF00081FFE079E27A010120F00F0501F1080797
:100E0000002A14BF08350701281D8DF804000120B1
:100E100000F070FF381D8DF8060001208DF8055098
:100E200000F068FF2068217901AA04238DF807707B
:100E3000CDF8008001F078F9207AE27A010120F003
:100E40000F0501F10807002A14BF08350701281D06
:100E50008DF80400012000F04DFF381D8DF80600CC
:100E600001208DF8055000F045FF2068217901AA86
:100E700004238DF80770CDF8008001F055F9607AF1
:100E8000E27A010120F00F0501F10807002A14BFE2
:100E900008350701281D8DF80400012000F02AFF05
:100EA000381D8DF8060001208DF8055000F022FF56
:100EB0002068217901AA04238DF80770CDF80080FD
:100EC00001F032F9A07AE27A010120F00F0501F178
:100ED0000807002A14BF08350701281D8DF80400F3
:100EE000012000F007FF381D8DF8060001208DF865
:100EF000055000F0FFFE2068217901AA04238DF837
:100F00000770CDF8008001F00FF9E07A182700286B
:100F100018BF01204FEAC00505F1040008BF1027E3
:100F20008DF80400012000F0E5FE381D8DF8060064
:100F300001208DF8055000F0DDFE2068217901AA1E
:100F400004238DF80770CDF8008001F0EDF8E07A09
:100F500000280CBF20260120C500281D8DF80400A4
:100F6000012000F0C7FE301D8DF8060001208DF82D
:100F7000055000F0BFFE2068217901AA04238DF8F6
:100F80000760CDF8008001F0CFF802B0BDE8F08135
:100F900070B582B004464079A379884298BF411E5B
:100FA000934298BF5A1ED0B2032805D8DFE800F05C
:100FB00009020608403104E0002102E0143100E09B
:100FC00054310A01E37A01F0700002F108056FF074
:100FD0007702002B08BF6FF07F0202EB000606F1DC
:100FE000040008BF0D018DF80400012000F082FE0E
:100FF000281D8DF8060001208DF8056000F07AFEAE
:10100000206821794FF47A7601AA04238DF80750DD
:10101000009601F089F802B070BD00002DE9F0479C
:1010200082B00A788AB382464E1E4FF47A780DF168
:10103000040900BF11019AF80B3022F00F0001F1F2
:101040000807002B14BF08301701451C05308DF828
:10105000040001207C1C00F04DFE781D8DF8060078
:1010600001208DF8055000F045FEDAF800009AF8EE
:1010700004104A4604238DF80740CDF8008001F0A3
:1010800053F8B2780136002AD4D102B0BDE8F08717
:1010900070470000022000F05BBE0000042000F05A
:1010A00057BE00007047000010B581B000220092CA
:1010B00090F82420012A03D10221084601B010BD76
:1010C0004B680122062B80F8242015D8026803EB18
:1010D0008303A3F1050E1F23D2F834C003FA0EF4E4
:1010E0000B682CEA040C03FA0EF444EA0C04546373
:1010F000092B17D937E000BF02680C2B20D803EB6F
:101100008303A3F123041F23D2F830C003FA04FEA3
:101110000B682CEA0E0C03FA04F444EA0C04146382
:10112000092B20D8D2F810C003EB430307248968A9
:101130009C402CEA0404994021431161002136E0CF
:1011400003EB8303A3F141041F23D2F82CC003FA5D
:1011500004FE0B682CEA0E0C03FA04F444EA0C04B7
:10116000D462092BDED903EB4304D2F80CC0A4F1FE
:101170001E0E0724896804FA0EF42CEA040401FA0E
:101180000EF1214323F00104102CD1600ED142F264
:101190000841C4F20101A1F10804A2420ED0816A03
:1011A00041F020018162012101E000BF0021002205
:1011B00080F82420084601B010BD00BF0A68120262
:1011C00030D40A68102B42F400020A602CD140F29D
:1011D0001C01C2F2000109684DF68362C4F21B32A1
:1011E000A1FB0212910C01EB8101490000910099D1
:1011F000E1B10099013900910099C9B10099013913
:1012000000910099B1B1009901390091009999B10B
:10121000009901390091009900294FF00001E8D1AF
:10122000C5E700BF0021C2E70021C0E70021BEE7FB
:101230000021BCE70021BAE70021B8E770470000B1
:101240000068C06C7047000070B50446006805680F
:101250004668B10627D515F0020124D0A16AC90657
:1012600003D4A16A41F40071A162816801F4602194
:10127000B1F5602F10D1217B71B9416821F02001B7
:101280004160A06A20F48070A062A06AC00403D408
:10129000A06A40F00100A0622046FFF7CFFF20685F
:1012A0006FF012010160310633D515F0040130D022
:1012B000A16AC90603D4A16A41F40051A162816800
:1012C00001F4E041B1F5E04F10D1416821F0800117
:1012D0004160A06A20F48050A062A06AC00511D4C9
:1012E000A06A40F00100A0620CE000BF416849051F
:1012F00008D4816801F46021B1F5602F02D1217B0F
:101300000029E2D02046FFF7CDFE20686FF00C01E7
:10131000016070060ED515F0010008BF70BDA06A0F
:1013200040F48030A062204600F0B4F820686FF0EE
:101330000101016070BD0000B0B5002800F0A88078
:101340000446806A20B121688868C0070BD114E088
:101350000020E06284F82400204600F09DF8216817
:101360008868C00709D0886820F00100886000F014
:1013700019FE21688A68D20726D1A06AC0063AD42D
:10138000A06A41F2021290430230A062E069D4E9FF
:10139000013240EA030C531EB3FA83F35D0913468E
:1013A000B2F5807F18BF2B02207D257B01284CEAF7
:1013B000450030D135B3A56A45F02005A562E56A40
:1013C00045F00105E56226E0054602E08868C007B1
:1013D000D3D000F0E7FD401B21680328F6D38868CE
:1013E000C007F3D0A06A40F01000A062E06A40F0AD
:1013F0000100E062A06AA06A40F01000A062012033
:10140000B0BD00BFD4F818C04EF60005CFF6FF758A
:1014100005EB4C352B434D68B2F5807F25F46945CB
:1014200043EA05034B608B684FF2FD75CFF6E1751B
:1014300003EA050343EA00038B6001D0012A07D1C8
:1014400022690023CFF6F07303EB025201E000BFE4
:101450000022CB6A23F470031A43CA62896840F6FB
:10146000FE62CFF61F721140814207D10020E06278
:10147000A16A012262F30101A162B0BDA06A40F03D
:10148000100020F00200A062E06A40F00100E0627B
:101490000120B0BD7047000080B586B0014640F61F
:1014A0000000C4F20100096800F5E05291424FF0DB
:1014B0000001CDE9041101D006B080BD41F2180150
:1014C000C4F202010A6842F400720A600A6802F477
:1014D00000720192019A0A6842F004020A600968E7
:1014E00001F004010191019901210291032103916D
:1014F00002A900F039FC12200421002200F0A8FF0C
:10150000122000F095FF06B080BD000010B5044623
:1015100090F82400012804BF022010BD012084F8A7
:1015200024002046FFF73CFB20B1002184F8241062
:1015300010BD00BF42F2044C2068A16AC4F2010C45
:1015400040F2013291430CF57F7201F580719042B7
:10155000A16233D0A16A21F48011A16241684905DA
:1015600004D5A16A012363F30D31A162A16A0023AE
:10157000C9044FF0000144BFE16A21F00601E162B5
:101580006FF0020184F824300160816801F4602169
:10159000B1F5602F06D190420AD1DCF8001011F4A9
:1015A000702F05D0816841F480118160002010BD4A
:1015B000816841F4A0018160002010BDDCF80010BA
:1015C00011F4702FC6D0A16A41F48011A162DCF839
:1015D00000104905C5D4C9E790F82020013A012A36
:1015E00008D8006800F11402002013681943116044
:1015F000704700BF00F1240201204FF480211368DE
:101600001943116070470000B0B5026890F82030AF
:10161000013B012B28D8D2F80002012340F0010041
:10162000C2F80002D1F814E0CC690EF01F0003FAF2
:1016300000F0D2F81C326FEA000C8343012CC2F890
:101640001C3217D06CBBD2F80C3203EA0C03C2F880
:101650000C32CB688C8844EA034302EBCE04C4F816
:1016600040320B4615E000BF416A41F480214162DF
:101670000120B0BDD2F80C320343C2F80C320B6823
:101680008C8844EA034302EBCE04C4F8403201F1F3
:101690000C038C681B8843EA044302EBCE04C4F8B5
:1016A0004432D2F804328D6943EA0004D1F810E0E4
:1016B000096A002D08BF03EA0C04C2F80442D2F8FC
:1016C0001432BEF1000F43EA000408BF03EA0C0421
:1016D0000129C2F8144204D1D2F81C120843C2F8FE
:1016E0001C02D2F8000220F00100C2F80002002023
:1016F000B0BD00007047000010B590F82040013CDC
:10170000012C7BD8D0F800C0002900F08180DCF8E3
:101710001040A40700F081800CEB011CDCF8B04104
:101720000CF5D87E14F004049460DCF8B04119BFC5
:10173000E4085460640D1460DEF800400CF5DA7EB5
:1017400004F00204D460DCF8B44124075ABFDEF888
:10175000004004F00F0408241461DEF80040002962
:10176000C4F307249461DEF800404FEA1444546146
:10177000DCF8B8211A70026802EB0112D2F8B82125
:101780004FEA12225A70026802EB0112D2F8B82115
:101790004FEA12429A70026802EB0112D2F8B821A5
:1017A0004FEA1262DA70026802EB0112D2F8BC2131
:1017B0001A71026802EB0112D2F8BC214FEA122220
:1017C0005A71026802EB0112D2F8BC214FEA1242B0
:1017D0009A71026802EB0112D2F8BC214FEA126240
:1017E000DA71006814BF00F1100100F10C01002053
:1017F00020220B681A430A6010BD00BF00F12401CB
:1018000001204FF480220B681A430A6010BD00BF0C
:10181000DCF80C40A4077FF47FAF00F12401012025
:101820004FF400120B681A430A6010BD2DE9F04F07
:1018300081B0044600684669D0F804908768D0F803
:101840000CB0D0F810A0D0F81880F10704D1002512
:1018500030071DD424E000BFF90710D00121BA07DA
:10186000816009D4780700F1AF80380700F1B680B5
:10187000204600F031FA02E0204600F02FFA002561
:10188000F80500F18780F80300F1B180300707D533
:101890001BF0100004D0206845F400751021C160D1
:1018A000700708D51BF0080005D020680821C1602A
:1018B000204600F0B3F9B00706D52068C06880075D
:1018C00002D0204600F0ACF9700607D51AF01000DF
:1018D00004D0206845F4806510210161B00608D568
:1018E0001AF0080005D0206808210161204600F0A8
:1018F000BFF9F00606D520680069800702D02046AF
:1019000000F0B8F9B00308D519F0100005D0206830
:1019100010214160204600F0AFF9F00308D519F01E
:10192000080005D0206808214160204600F0E0F959
:10193000300440F19B805FEA497040F1948006F4E6
:10194000807008EA102028435FEA8871014648BF8A
:1019500041F00201B20558BF01465FEA48700D46EA
:1019600048BF45F00405700558BF0D46300540F1ED
:101970007A8018F0700000F0768010380009052891
:101980006CD8DFE800F003595D61656945F0080532
:1019900064E000BF20684FF48071BA0581600BD409
:1019A000780515D438051DD4204600F099F9F803C0
:1019B0007FF56CAF1BE000BF204600F093F9F80301
:1019C0007FF564AF13E000BF4FF4006558E700BF38
:1019D00005F50055F8037FF559AF08E04FF4805541
:1019E0004EE700BF05F58045F8037FF54FAF20684F
:1019F0004FF48031BA0381600AD4780310D43803DD
:101A000014D4204600F070F930073FF541AF47E7A6
:101A1000204600F06BF930073FF53AAF40E700BFD2
:101A200005F5004530073FF533AF39E705F580355B
:101A300030073FF52DAF33E745F010050EE000BF4E
:101A400045F020050AE000BF45F0400506E000BF74
:101A500045F0800502E000BF45F48075206881698B
:101A600021F07001816120680421416055B1606AF4
:101A700040EA05012046616201B0BDE8F04FFFF782
:101A800039BE00BF01B0BDE8F08F0000B0B5C8B1ED
:101A9000044690F8200010B9204600F071F8206844
:101AA000016841F00101016000F07CFA054600BFC9
:101AB00020684168C90707D100F074FA401B0B2861
:101AC000F6D312E00120B0BD016821F002010160EF
:101AD00000F068FA054600BF2068416889070DD507
:101AE00000F060FA401B0B28F6D3606A052140F431
:101AF00000306062012084F82010B0BD217E0268B1
:101B0000012922F0800208BF80320260617E0268F3
:101B1000012922F0400208BF40320260A17E026823
:101B2000012922F0200208BF20320260E17E026813
:101B3000012922F0100218BF10320260217F0268D2
:101B4000012922F0080208BF08320260617F0268A2
:101B5000012922F0040208BF04320260D4E901C264
:101B6000D4E9033561691A432A431143ACF10102F8
:101B70001143C16100200121606284F82010B0BDD2
:101B8000B0B586B040F60004C4F201040068A4F5C4
:101B9000244200219042059102D006B0B0BD00BFA2
:101BA00041F21800C4F20200426802AD42F0007235
:101BB0004260426802F000720192019A026842F0AB
:101BC00004020260006800F00400019001984FF4E4
:101BD0000060CDE9020104912046294600F0C4F8D6
:101BE0004FF480500290022003900320059020467D
:101BF000294600F0B9F814200021002200F028FC4A
:101C0000142000F015FC15200021002200F020FC1B
:101C1000152000F00DFC06B0B0BD000070470000BC
:101C200070B540F28006C2F2000640F2FC0506F1F3
:101C30003004C2F2000500212A462346FFF75CFD6E
:101C4000A8B92868B0F51D7F18BF70BD41F200002B
:101C5000C4F201004FF4005100F096F996F83300F9
:101C6000042130702046072202F05EF8306170BD1A
:101C7000704700007047000070470000B0B5044690
:101C800090F8200001281DD1022084F8200020684F
:101C9000016821F00101016000F084F9054600BFF0
:101CA00020684068C00713D000F07CF9401B0B2867
:101CB000F6D3606A40F400306062052084F82000AA
:101CC0000120B0BD606A40F4002060620120B0BD18
:101CD00000206062B0BD0000704700007047000047
:101CE0007047000070470000704700007047000018
:101CF00070470000B0B5044600F054F9054640F2C4
:101D00001400C2F200000078611C18BF044400BF38
:101D100000F048F9401BA042FAD3B0BD04280FD010
:101D2000022818BF704740F20000C2F200000121F3
:101D3000017040F28000C2F2000000218162704711
:101D400040F20000C2F20000022101707047000062
:101D500040F21441C4F201010A68024214BF086053
:101D60007047FFF7DBBF00002DE9F04F82B041F272
:101D70000042C4F201020E680423904208BF03230C
:101D8000002E009300F0F68040F2004C4FF6FF7EEC
:101D90000022C4F2010C0124C1F2100E4FF0000A1F
:101DA0004FF0000947E000BF012502F00C040F27A7
:101DB000A7402BEA070705FA04F43C4343F8264002
:101DC000D1F804B040F20C455FEACB23DCF80830D0
:101DD00054BF23EA080343EA0803C4F20105CCF820
:101DE00008302B685FEA8B2454BF23EA080343EAD8
:101DF00008032B605FEA8B34DCF8043054BF23EA1D
:101E0000080343EA08035FEACB34CCF80430DCF87B
:101E100000304FF0010454BF23EA080343EA0803EB
:101E2000CCF800300E680AF1010A36FA0AF302F122
:101E3000040200F09F8004FA0AF816EA080FF1D0B5
:101E40004B68734512DC122B56D8DFE803F0350BD4
:101E50004549555555555555555555555555554D56
:101E6000510000BFD1F80C9046E000BF4FF6FF755F
:101E7000C1F22105AB420FDC0025C1F21105AB42D6
:101E80001AD00025C1F21205AB4215D00025C1F2CF
:101E90002105AB4210D02FE00025C1F22205AB4254
:101EA0000AD00025C1F23105AB4205D00025C1F2B0
:101EB0003205AB4220D100BF8B684BB1012B14BF60
:101EC000C0F81480C0F810804FF0080914E000BF7B
:101ED0004FF0040910E000BFCB6803F108090BE0E4
:101EE0004FF0000908E000BFCB6803F1040903E0EC
:101EF000CB6803F10C0900BF13460546BAF1080F81
:101F000024BF203B04352E680F279F40BE4309FAAB
:101F100003F333432B60CB79DB067FF583AF41F2CC
:101F20001804C4F2020423684FEA9A0643F001033E
:101F30002360236840F6000403F001030193019B32
:101F4000ACF57E7353F826B0C4F20104A0420FD062
:101F500040F60044C4F20104A0423FF425AF41F230
:101F60000004C4F20104009DA04208BF02251CE742
:101F700000251AE702B0BDE8F08F00008068084035
:101F800018BF012070470000C26802EA01039143B4
:101F900041EA034101617047002A08BF0904016159
:101FA0007047000040F29C20C2F2000000687047B9
:101FB00070B5B8B3044690F83D0028B9002084F805
:101FC0003C00204600F09AF9242084F83D00206867
:101FD000016821F001010160016841F400410160E4
:101FE000016821F40041016000F0D4FB48F2804117
:101FF000C0F21E0140F60013D4F804E088424FF00E
:102000000001C0F23D0348F2A16C4FF0000238BF5E
:1020100001219842C0F2010C38BF0122E64538BFC9
:102020000A460AB1012070BD4DF68361C4F21B312E
:10203000A0FB01122168950C4B684FF4967623F0B3
:102040003F0343EA9243754344F6D3564B60C1F2D3
:1020500062060B6AA5FB0656B50923F03F03E64569
:1020600038BF950C6A1C1A430A62CA6948F2A06616
:102070004CF6FF73C0F20106B64522EA03020BD804
:1020800001384FEA4E03B0FBF3F001306FF31F301D
:10209000042898BF04201EE0A368013863B1192307
:1020A0000EFB03F3B0FBF3F001306FF31F3078B198
:1020B00000F5804008E000BF0EEB4E03B0FBF3F0EC
:1020C00001306FF31F3028B100F5004003E000BF7E
:1020D000012000E001201043C8610868D4E907230B
:1020E00020F0C000104318430860886848F2FF32AF
:1020F00004F10C0690434CCE18431043A569886048
:10210000C86820F0FF0030432843C860086840F0EA
:102110000100086000202021206484F83D10206325
:1021200084F83E0070BD00002DE9F04383B01E46E8
:10213000174689460446FFF735FF94F83D102029DD
:1021400020D10546206800BF8169890716D5FFF7B1
:1021500029FF411B20681A29F6D381698907F3D525
:1021600000202021206384F83D1084F83E00216C7B
:1021700041F02001216484F83C0003E094F83C1015
:10218000012903D1022003B0BDE8F083012184F8C6
:102190003C100168C90703D1016841F001010160E9
:1021A000016840F2020821F400610160212184F8F5
:1021B0003D10102184F83E1000212164676266857D
:1021C000618DC0F201082185A8F10211E162E16A86
:1021D0000A9E11F5803F18BF01291DD1016841F405
:1021E0008071016020464FF00111002233460095B6
:1021F00001F0BAFB50B120680068C00544BF4FF43D
:1022000000702064012003B0BDE8F0832069B0F5C0
:10221000804F07D1FE2015E00829DFD0216B12295D
:10222000DCD0DFE7062000EAD9102168F030086131
:1022300008F10601204632462B4601F07FFC0028BB
:10224000E0D1FF20216800EA0900086120464146EC
:1022500032462B4601F072FC0028D3D100200290B8
:1022600020684169029180690290029806E000BFEF
:10227000204631462A4601F017FB18BB208D68B373
:10228000204631462A4601F0C9FCD8B9606A216867
:10229000024612F8013B0B616262628D013A62856F
:1022A000228D531E23854F697F07E1D51B04DFD0A4
:1022B000437802300B616062608D01386085901E4A
:1022C0002085D5E7206C04289CD12068016841F462
:1022D00000710160012003B0BDE8F083206801684F
:1022E00041F400710160202084F83D00002084F852
:1022F0003E0084F83C0003B0BDE8F08310B586B022
:1023000045F200410068C4F20001002288420492B4
:1023100002D006B010BD00BF41F21804C4F202049E
:10232000206840F008002060206800F0080001905C
:102330000198C0200290122003900320059001F51F
:10234000384002A9FFF710FD606840F4001060609B
:10235000606800F400100190019806B010BD000004
:1023600040F2140040F29C21C2F20000C2F20001CF
:1023700000780A68104408607047000080B542F297
:102380000000C4F20200016841F010010160032066
:1023900000F08AF80F2000F005F800F027F8002080
:1023A00080BD000070B540F21406C2F2000640F293
:1023B0001C013278C2F200014FF47A730968B3FB52
:1023C000F2F20446B1FBF2F1084600F0D1FB0F2C0B
:1023D0004FF0010508D838B94FF0FF3021460022F0
:1023E000002500F035F87460284670BD82B041F2D7
:1023F0001800C4F202000168022241F001010160EC
:10240000016801F0010101910199416841F0805199
:102410004160406800F08050009000980420C4F2B1
:102420000100016862F31A61016002B070470000A8
:10243000002848BF704700F01F01012202FA01F195
:102440004EF200124009CEF2000242F8201070470E
:1024500010B54EF60C5CCEF2000CDCF80030C3F385
:10246000022E8EF00704042C28BF0424BEF10303BF
:102470004FF0FF3E0EFA04F438BF0023A143994009
:102480000EFA03F39A43114300F00F02043A624438
:1024900009010C3200F16043B0F1FF3FC8BF03F502
:1024A0006442117010BD00004EF60C51CEF20001D6
:1024B0000A684FF6FF031A4060F30A2242F0806078
:1024C00040F0FD70086070472DE9F04182B004468D
:1024D000007841F21C06C007C4F202064AD03068F8
:1024E00010F0805808D1306840F08050306030687B
:1024F00000F080500190019847F20007C4F20007F5
:102500003868C00512D4386840F480703860FFF72E
:1025100049FD05463868C00508D4FFF743FD401B58
:102520006428F7D9032002B0BDE8F081706810F488
:10253000407012D0616801F4407188420DD070681B
:1025400040F24042C4F24222012320F44071136061
:102550000023C007136071602AD17068616820F49D
:1025600040700843B8F1000F706003D1306820F06C
:10257000805030602068810707D556F8181CA26883
:1025800021F44041114346F8181CC00604D4002031
:1025900002B0BDE8F08100BF56F8180CE16820F4E5
:1025A0008000084346F8180C002002B0BDE8F08116
:1025B000FFF7F8FC054641F2883700BF70688007D6
:1025C000CBD4FFF7EFFC401BB8424FF00300F5D926
:1025D000EBE700002DE9F04381B0002800F0858092
:1025E00042F20008C4F202080446D8F800000D4682
:1025F00000F0070088420CD2D8F8000020F0070055
:102600002843C8F80000D8F8000000F00700A842EE
:102610006BD1206841F204098107C4F2020917D581
:10262000410705D5D9F8001041F4E061C9F8001060
:10263000010705D5D9F8001041F46051C9F8001020
:10264000D9F80010A26821F0F0011143C9F8001078
:10265000C00741D1D8F8000000F00700A8420CD90B
:10266000D8F8000020F007002843C8F80000D8F888
:10267000000000F00700A84237D12068410707D5C5
:10268000D9F80010E26821F4E0611143C9F80010A4
:10269000000708D5D9F80000216920F4605040EA0D
:1026A000C100C9F80000D9F8002002F00C00082889
:1026B00041F20020C0F27A0050D145F6EE73C2F329
:1026C0008341C0F60003595CD2033BD440F60010AE
:1026D000C0F23D00484341E0606802280AD001286A
:1026E0002AD159F8041C890308D4012001B0BDE89F
:1026F000F08300BF59F8041C8901F6D5D9F8001001
:1027000021F003010843C9F80000FFF74BFC06461F
:1027100041F28837D9F80000616800F00C00B0EB96
:10272000810F97D0FFF73EFC801BB842F2D90320FF
:1027300001B0BDE8F08300BF59F8041C8907D4D567
:10274000DCE700BFD9F8002045F6EC73C2F3404245
:10275000C0F600039A5C4843B0FBF2F0D9F80010D1
:1027600045F6D472C1F30311C0F60002515C40F289
:102770001C0220FA01F140F21800C2F200000068C9
:10278000C2F200021160FFF70DFE002001B0BDE8AB
:10279000F083000040F21C0041F20401C2F200008C
:1027A000C4F202010068096845F6E472C1F302212F
:1027B000C0F60002515CC840704700002DE9F041AE
:1027C00082B0002868D00446007841F20006C007B5
:1027D000C4F2020625D0706800F00C0004281BD05B
:1027E000706800F00C00082802D17068C00313D490
:1027F0006068002800F06881B0F5A02F00F07C81AF
:10280000B0F5803F00F07C81306820F4803030608B
:10281000306820F4802076E13068800301D560685C
:10282000D0B32078800718D5706810F00C0F07D04F
:10283000706800F00C0008286ED17068C0036BD47B
:102840003068800702D52069012825D13068616988
:1028500020F0F80040EAC1003060207800071FD463
:102860002078400732D4E56995B1706800F00C001B
:10287000082840F08F80012D0ED07068216A00F486
:1028800080328A4208D1616A00F47010884203D114
:10289000002002B0BDE8F081012002B0BDE8F08167
:1028A000A069002862D00020C4F242200121C0F8B3
:1028B0008014FFF777FB0546706A800700F18C8073
:1028C000FFF770FB401B0228F6D92AE1F06910F0EF
:1028D000805808D1F06940F08050F061F06900F054
:1028E00080500090009847F20007C4F20007386853
:1028F000C00529D4386840F480703860FFF752FB77
:10290000054600BF3868C0051ED4FFF74BFB401BCF
:102910006428F7D905E100BF2069002840F20000D3
:10292000C4F2422000F0828001210160FFF73AFBEF
:10293000054600BF306880073FF588AFFFF732FBE0
:10294000401B0228F6D9ECE0E068002800F0808007
:10295000052800F09780012800F09880306A20F068
:1029600001003062306A20F0040092E00020C4F2DE
:1029700042200021C0F88014FFF714FB054600BF79
:10298000706A80077FF56CAFFFF70CFB401B0228D5
:10299000F6D9C6E00027C4F2422700203866FFF7C8
:1029A00001FB022D05460BD13068800140F1BE804D
:1029B000FFF7F8FA401B02284FF00300F4D968E74C
:1029C000306880017FF564AFFFF7ECFA401B022806
:1029D0004FF00300F4D95CE740F21C00C2F20000A3
:1029E000006844F6D351C1F26201A0FB0101480A1C
:1029F000019000BF00BF0198411E002801913FF4E3
:102A00002FAF00BF0198411E002801913FF428AF6D
:102A100000BF0198411E002801913FF421AF00BF83
:102A20000198411E00280191E4D119E700210160BD
:102A3000FFF7B8FA054600BF306880077FF50DAF95
:102A4000FFF7B0FA401B02284FF00300F4D920E74B
:102A5000306A20F001003062306A20F004003062F9
:102A6000FFF7A0FA054641F2883700BF306A8007B9
:102A700020D5FFF797FA401BB8424FF00300F5D975
:102A800007E700BF306A40F004003062306A40F06F
:102A900001003062FFF786FA054641F2883700BF31
:102AA000306A800706D4FFF77DFA401BB842F7D999
:102AB00037E000BFB8F1000F7FF4D5AEF06920F029
:102AC0008050F061CFE600BF306820F48030306085
:102AD000306820F480203060FFF764FA054600BFBC
:102AE000306880037FF59DAEFFF75CFA401B6428D9
:102AF0004FF00300F4D9CCE6306840F48020306019
:102B0000306840F480303060FFF74CFA054600BF73
:102B1000306880033FF585AEFFF744FA401B642818
:102B2000F6D9032002B0BDE8F08100BF206AB0F5FD
:102B3000803F05D17168A26821F4003111437160B2
:102B40007168626A21F474111043084370600120B7
:102B50003866FFF727FA0446306880013FF598AEE3
:102B6000FFF720FA001B02284FF00300F4D990E68B
:102B7000411E0020B0EB116F1CBF012070474EF2C8
:102B80001002CEF2000251604EF62351CEF2000147
:102B9000F0230B70072190601160704770470000B0
:102BA0007047000010B590F83C20012A4FF0020257
:102BB00033D080F83D200268D2F804E0D2F808C093
:102BC0000C682EF07003234340F2FF74C4F200043B
:102BD000A24253600ADCB2F1804F13D040F20043AE
:102BE000C4F200039A420DD011E000BF42F6004348
:102BF000C4F201039A4205D040F60003C4F2000378
:102C00009A4204D149682CF0800319439160012154
:102C1000002280F83D1080F83C20104610BD0000D6
:102C2000002804BF0120704710B5044690F83D000D
:102C300028B9002084F83C00204600F067F8022004
:102C400084F83D00206840F2FF730268C4F200037C
:102C500042F6004C9842C4F2010C15DCB0F1804FF2
:102C60001AD040F20041C4F20001884214D09842C8
:102C700018DCB0F1804F1DD040F20041C4F20001D9
:102C8000884217D01AE000BF604505D040F6000129
:102C9000C4F200018842EAD1A16822F070020A431E
:102CA0009842E6DD604505D040F60001C4F200011F
:102CB000884203D1216922F440720A43A36922F0B9
:102CC0008001D4F804E0E268194360450160C26203
:102CD000C0F828E002D16169CCF8301001214161CF
:102CE000002084F8461084F83E1084F83F1084F8E1
:102CF000401084F8411084F8421084F8431084F89E
:102D0000441084F8451084F83D1010BD10B582B011
:102D1000006840F20041C4F20001884218D042F637
:102D20000041C4F2010188422CD141F21800C4F2E2
:102D300002000168002241F4006101600068032183
:102D400000F40060019001981920192411E000BFDF
:102D500041F21800C4F202004168002241F0020171
:102D600041604068012100F00200009000981D20A1
:102D70001D24FFF76DFB204602B0BDE81040FFF7B1
:102D800057BB00BF02B010BD90F83D1001291CBF19
:102D900001207047022180F83D10006840F2FF7268
:102DA000C168C4F20002904241F00101C16009DC37
:102DB000B0F1804F12D040F20041C4F200018842CD
:102DC0000CD012E042F60041C4F20101884205D065
:102DD00040F60001C4F20001884206D1816801F08A
:102DE0000701062904BF00207047016841F0010176
:102DF000016000207047000080B590F83C20012A57
:102E00004FF0020200F0C28080F83D20D0F800C0F0
:102E10004FF67772DCF8083023EA0202CCF808207B
:102E20000B684F2B28DC1F2B44DD202B45D0302B8B
:102E300043D0402B40F0AC80D1F804E0C968DCF806
:102E40002030DCF8202022F00102CCF82020DCF831
:102E5000182022F0F00242EA011123F00A0242EAAD
:102E60000E02CCF81810CCF82020DCF8081041F045
:102E7000470121F0300180E06F2B27DDB3F5005FC3
:102E800048D0B3F5805F7AD0702B40F08180D1E9D3
:102E900001E3C968DCF8082043EA0E0322F47F420C
:102EA00043EA01211143CCF80810DCF8081041F086
:102EB000770162E00BB1102B6AD1DCF8081021F029
:102EC0007001194341F0070157E000BF502B35D086
:102ED000602B5DD1D1F804E0C968DCF82030DCF863
:102EE000202022F01002CCF82020DCF8182022F458
:102EF000704242EA013123F0A00242EA0E12CCF8FD
:102F00001810CCF82020DCF8081041F0670121F0FF
:102F1000100132E0D1E901E3C968DCF8082043EA96
:102F20000E0322F47F4243EA01211143CCF808103A
:102F3000DCF8081041F480411FE000BFD1F804E044
:102F4000C968DCF82030DCF8202022F00102CCF83F
:102F50002020DCF8182022F0F00242EA011123F0D0
:102F60000A0242EA0E02CCF81810CCF82020DCF855
:102F7000081041F0570121F02001CCF80810002280
:102F8000012180F83D10002180F83C10104680BDE2
:102F90000122F5E7002804BF012070472DE9F04F1A
:102FA00081B0044690F83D000D4628B9002084F811
:102FB0003C00204600F094F8022084F83D00206890
:102FC00044F20702816840F2FF7391438160026816
:102FD000C4F2000342F6004C9842C4F2010C15DC26
:102FE000B0F1804F1AD040F20041C4F20001884293
:102FF00014D0984218DCB0F1804F1DD040F200414F
:10300000C4F20001884217D01AE000BF604505D025
:1030100040F60001C4F200018842EAD1A16822F022
:1030200070020A439842E6DD604505D040F6000193
:10303000C4F20001884203D1216922F440720A439C
:10304000A36922F08001D4F804E0E26819436045E6
:103050000160C262C0F828E002D16169CCF830108A
:103060004FF00109C0F814908268D0F818E0D0F849
:1030700020C0D5E90038D5E9027B43EA020AAB69F2
:103080004FF6FF712EEA010E47EA03234FF6FC4785
:10309000BB43D5E907724BEA0E012E69194341EA99
:1030A000072141EA061141EA02312CF022026B6944
:1030B00042EA080242EA0312C0F808A081610262F3
:1030C00084F8469084F83E9084F83F9084F84290CB
:1030D00084F8439084F83D90002001B0BDE8F08F63
:1030E000F0B585B000680026B0F1804F049601D09D
:1030F00005B0F0BD41F21800C4F20200416840F68C
:10310000000441F0010141604168C4F2010401F092
:10311000010100910099016801AD41F004010160D5
:103120000168012701F0040100910099016841F054
:10313000080101600068294600F00800009000982E
:103140004FF40040CDE9010620460397FEF70CFE40
:10315000082001A9C1C104F580602946FEF704FEDC
:103160000420C4F2010001684FF6FF42CFF6FF02CF
:10317000114041F0E06141F4807101601C200221A6
:103180000022FFF765F91C20FFF752F905B0F0BDEA
:1031900080B590F83E2090F83F3090F842E090F8EB
:1031A00043C004290AD0B9B9012A4FF0010208BF6F
:1031B000BEF1010F34D0104680BD00BF012B4FF08F
:1031C000010208BFBCF1010FF5D1022180F83F10C8
:1031D00080F8431000681EE0012A4FF0010208BF8A
:1031E000012BE8D1BEF1010FE5D1BCF1010FE2D115
:1031F000022280F83E2080F83F2080F8422080F8AC
:10320000432091B10068016A21F001010162016A65
:1032100041F00101016210216FF0100209E000BFCE
:10322000022180F83E1080F84210006801216FF002
:103230000102036A1A400262026A114301620168D4
:10324000002241F001010160104680BD704700007E
:1032500010B5016804460869800744BFC8685FEA82
:10326000807039D40869400744BFC8685FEA40707D
:103270003ED40869000744BFC8685FEA007045D4BF
:103280000869C00644BFC8685FEAC0604AD40869DC
:10329000C0071CBFC8685FEAC07051D1086900064A
:1032A00044BFC8685FEA006052D40869400644BF62
:1032B000C8685FEA406053D40869800646BFC868A2
:1032C0005FEA806010BD6FF0200220460A61BDE811
:1032D0001040FFF765BC00BF6FF0020008610120DD
:1032E00020778869800743D02046FFF7AFFF45E08D
:1032F0006FF00400086102202077886910F4407F95
:1033000040D02046FFF7A2FF42E000BF6FF0080068
:10331000086104202077C86980073DD02046FFF768
:1033200095FF3FE06FF01000086108202077C86922
:1033300010F4407F3AD02046FFF788FF3CE000BF02
:103340006FF001000861204600F050FA2168A5E7FF
:103350006FF0800008612046FFF720FC2168A4E799
:103360006FF040000861204600F09AFA2168A3E758
:10337000204600F04DF8204600F0C6F921680020F4
:1033800020776FE7204600F043F8204600F0BCF9B4
:103390002168002020776CE7204600F039F82046AD
:1033A00000F0B2F921680020207769E7204600F09C
:1033B0002FF8204600F0A8F921680020207766E762
:1033C00080B586B040F200410068C4F200010022DE
:1033D0008842049202D006B080BD00BF41F21800BE
:1033E000C4F20200026842F004020260006800F0C9
:1033F000040001900198C0200290022003900590E3
:1034000001F5823002A9FEF7AFFC06B080BD0000D6
:10341000704700002DE9F04390F83C30012B04BFC9
:103420000220BDE8F0834FEAB202032A3CD8DFE86D
:1034300002F003437FB900BF036842F600461D6AED
:103440001A6AC4F2010622F001021A621A465C6886
:1034500052F818CFB3428E68D1F800E025F002058B
:1034600045EA06050CD1CE68D1E9057824F440740C
:1034700025F00C0526F004063C43354344EA0804D5
:103480002CF0730747EA0E075C609F614F6809697B
:103490005F631D629F6947F008079F619F6927F07E
:1034A00004079F61AEE000BF0121002280F83C20AC
:1034B0000846BDE8F08300BF036842F600461D6A77
:1034C0001A6AC4F2010622F010021A621A46D3F8F0
:1034D00004C052F8184FB3428E68D1F800E025F0CE
:1034E000200545EA06150FD1CE68D1E905986FF0A1
:1034F000400707EA06162CF4406725F0C00547EAA6
:103500008907354347EA880C24F4E64444EA0E2749
:10351000C3F804C09F614F6809699F631D629F697A
:1035200047F400679F619F6927F480679F6168E0A7
:10353000036842F600461D6A1A6AC4F2010622F4C4
:1035400080721A621A46D3F804C052F81CEFB342D4
:103550008E680C6825F4007545EA06250FD1CE6803
:10356000D1E90598360240F2FF47BE432CF440579C
:1035700025F4406547EA0917354347EA081C2EF051
:1035800073072743C3F804C0DF614F680969DF632D
:103590001D62DF6947F00807DF61DF6927F0040774
:1035A000DF612FE0036842F60047D3F820C01A6AB3
:1035B000C4F2010722F480521A621A465C6852F87B
:1035C0001C5FD1F800E08E68BB4204D14F6924F43F
:1035D000804444EA87142CF4005747EA063725F460
:1035E000E64646EA0E265C60DE614E6809691E64A6
:1035F0001F62DF6947F40067DF61DF6927F48067D6
:10360000DF6109021368194311600021002280F86C
:103610003C200846BDE8F083002804BF0120704725
:1036200010B5044690F83D0028B9002084F83C000D
:10363000204600F067F8022084F83D00206840F240
:10364000FF730268C4F2000342F6004C9842C4F2D1
:10365000010C15DCB0F1804F1AD040F20041C4F2E9
:103660000001884214D0984218DCB0F1804F1DD080
:1036700040F20041C4F20001884217D01AE000BFB6
:10368000604505D040F60001C4F200018842EAD14D
:10369000A16822F070020A439842E6DD604505D039
:1036A00040F60001C4F20001884203D1216922F4EE
:1036B00040720A43A36922F08001D4F804E0E26872
:1036C000194360450160C262C0F828E002D1616917
:1036D000CCF8301001214161002084F8461084F8B4
:1036E0003E1084F83F1084F8401084F8411084F8AC
:1036F000421084F8431084F8441084F8451084F88C
:103700003D1010BD704700007047000041B108290E
:1037100010D0042914BF00F1410200F13F020BE078
:1037200090F83E20012A1CBF01207047022280F839
:103730003E2013E000F140021278012A1CBF012054
:1037400070470222082907D0042914BF80F84120BD
:1037500080F83F2002E000BF80F84020006801F0C0
:103760001F010122036A8A4023EA02010162036AFF
:1037700042F64441C4F201011A43A1F144039842C4
:1037800002620FD040F2FF71C4F20001884213DCE4
:10379000B0F1804F1CD040F20041C4F200018842D9
:1037A00016D01CE00A6842F400420A6040F2FF7141
:1037B000C4F200018842EBDD42F60041C4F201018F
:1037C000884205D040F60001C4F20001884206D1CB
:1037D000816801F00701062904BF002070470168D5
:1037E00041F00101016000207047000010B5014662
:1037F00041F20000C4F20100096800F5E052914274
:1038000000D010BD4FF40051FEF7BEFB40F20C207B
:10381000C2F20000036840F280011868C2F20001A1
:1038200010F010044FF0FF3008BF0120C861586A43
:1038300040F2000C88801A69C2F2000CD20703D152
:10384000DCF804300BE000BF6FF001021A61DCF815
:103850000430002C14BF013B0133CCF804309CF839
:10386000002080B2C3EB03431844012AC86009D08A
:10387000002AC6D1642244F200040A70C4F29C6497
:1038800005E000BF4A78012A18BF10BD4C6902F05C
:103890007FF901462046BDE8104000F0ABBA0000B9
:1038A00070470000FEE7000070B50368044653F857
:1038B000140F400711D40E46481C29D086BB00BF08
:1038C0001868400527D4FEF76DFB236853F8140FE2
:1038D000400739D518684007F2D5002070BD00BFF9
:1038E00018684007F9D41868400514D418684007D0
:1038F000F3D4186840050ED418684007EDD4186852
:10390000400508D4186840074FF0000048BF70BD5C
:1039100018684005E4D56FF480601860042014E056
:10392000154603E053F8140F4007D6D41868400535
:10393000F1D4FEF737FB401B2368B042F2D9586937
:103940004007EFD4202000E0202000212022216326
:1039500084F83D2084F83E10226C1043206401203E
:1039600084F83C1070BD00002DE9F0410546006868
:103970001E46144601F47F0201338FB242D0DDF8B7
:103980001880B2F5803F40F0878040693840C01B06
:10399000B0FA80F04009A04240F0C8804EB924E05F
:1039A00040693840C01BB0FA80F04009A04240F0A6
:1039B000BD80FEF7F7FAA0EB08012868B142EFD905
:1039C00041693940C91BB1FA81F14909A142E7D1E6
:1039D0009BE000BF40693840C01BB0FA80F040094E
:1039E000A0424FF0000040F0A680FEF7DBFA286806
:1039F00041693940C91BB1FA81F14909A142E9D1B4
:103A000083E000BFB2F5803F24D100BF4169394057
:103A1000C91BB1FA81F14909A14240F0878041698F
:103A20003940C91BB1FA81F14909A14240F07E80B9
:103A300041693940C91BB1FA81F14909A14275D1E7
:103A400041693940C91BB1FA81F14909A142DDD070
:103A50006CE000BF81693940C91BB1FA81F14909A5
:103A6000A14263D181693940C91BB1FA81F1490989
:103A7000A1425BD181693940C91BB1FA81F1490981
:103A8000A14253D181693940C91BB1FA81F1490979
:103A9000A142DFD04AE000BF80693840C01BB0FAC5
:103AA00080F04009A04241D146B923E08069384006
:103AB000C01BB0FA80F04009A0423BD1FEF772FA79
:103AC000A0EB08012868B142F0D981693940C91BCF
:103AD000B1FA81F14909A142E8D116E08069384084
:103AE000C01BB0FA80F04009A0424FF0000018BFA0
:103AF000BDE8F081FEF756FA286881693940C91B94
:103B0000B1FA81F14909A142E8D1002020212863BE
:103B100085F83D1085F83E00296C41F020012964AC
:103B200085F83C000120BDE8F08100BF0020BDE821
:103B3000F08100BF0020BDE8F0810000F0B581B049
:103B4000044600681D4643698FB203EA0701B94283
:103B500002D1002001B0F0BD41691646013201F4E6
:103B6000806125D0002940D1CEB100BFFEF71AFAFE
:103B7000411B2068B14203D941693940B9424BD158
:103B800041693940B942E4D041694905EED52CE09C
:103B900041693940B942DCD04169490525D4FEF775
:103BA00001FA206841693940B942F1D0202024E06F
:103BB000D9B941693940B942CBD04169490514D4DA
:103BC00041693940B942C4D0416949050DD44169C0
:103BD0003940B942BDD04169490506D441693940EF
:103BE000B942B6D041694905E3D5016841F4007195
:103BF00001606FF480614161042000212022216373
:103C000084F83D2084F83E10226C1043206484F830
:103C10003C10012001B0F0BD2020EEE770B5036834
:103C2000044653F8140F000611D40E46481C29D040
:103C300086BB00BF1868400527D4FEF7B3F9236898
:103C400053F8140F000639D518680006F2D5002085
:103C500070BD00BF18680006F9D41868400514D478
:103C600018680006F3D4186840050ED418680006DA
:103C7000EDD41868400508D4186800064FF000001D
:103C800048BF70BD18684005E4D56FF480601860C7
:103C9000042014E0154603E053F8140F0006D6D4B0
:103CA00018684005F1D4FEF77DF9401B2368B04247
:103CB000F2D958690006EFD4202000E0202000212E
:103CC0002022216384F83D2084F83E10226C1043AA
:103CD0002064012084F83C1070BD0000FEE7000065
:103CE000FEE700007047000070470000FEF738BB99
:103CF0007047000040F2C410C2F20000FFF7A8BAFB
:103D000040F20C20C2F20000FFF7A2BA40F25420A9
:103D1000C2F20000FFF79CBA40F21810C2F2000095
:103D2000FDF784BDFEE700002DE9F043914284BF1A
:103D30000020BDE8F083531A5A1C032B02F0030C39
:103D400008D24FF0000E0323BCF1000F33D17046B0
:103D5000BDE8F0834C42014422F0030203394FF0E6
:103D6000000E032311F8046FDDB211F8017CED00A1
:103D700007FA05F545EA0E075D1EEDB2ED00AE400F
:103D800037439E1E91F80180F6B2F60008FA06F657
:103D90003743DE1E91F80290F6B2F60009FA06F6F5
:103DA00046EA070E043B043AA4F10404DAD1614266
:103DB000BCF1000FCBD0425CDCB2E400A240BCF10D
:103DC000010F4EEA020EC2D00844591E4278C9B211
:103DD000C90002FA01F1BCF1020F4EEA010EB6D0A1
:103DE000991E8078C9B2C90088404EEA000E70461C
:103DF000BDE8F083F0B581B000F01CFC40F2800714
:103E0000C2F2000700210646B862002501F08DFDD0
:103E100000BB304601F0E6FC41F27B4247F6E1236D
:103E2000C4F2AE72CBF6847301F0F0FA044638782F
:103E30000E464FF4AF71484301F0BDFA02460B46FF
:103E40002046314601F0E2FA01F086FA0446388154
:103E5000FD802AE030460021002401F06DFD08BB02
:103E6000304601F0BFFC41F27B4247F6E123C4F249
:103E7000AE72C3F6847301F0C9FA054638780E466F
:103E80004FF4AF71484301F096FA02460B462846BC
:103E9000314601F0BBFA01F05FFA0546F8803C813B
:103EA00003E000BF0025C7F8064040F25420C2F2EC
:103EB000000000684563846301B0F0BD98B0FEF770
:103EC0005DFA00240120CDE91344CDE911440E90A0
:103ED00012904FF4E0104FF48031022517900EA895
:103EE0000794CDE90544CDE90F14CDE91551FEF74E
:103EF00065FC28B1EFF3108072B600BFFEE700BF8B
:103F00000F20CDE908054FF48060CDE90B0408A827
:103F100002210A94FEF75EFB20B1EFF3108072B627
:103F2000FEE700BF4FF400400224069004A804946A
:103F3000FEF7CAFA20B1EFF3108072B6FEE700BFB9
:103F400041F21800C4F20200016840F6000B41F093
:103F5000100101600168C4F2010B01F010010E9123
:103F60000E9901680BF5006941F0200101600168BC
:103F7000002201F020010E910E9901684FF40055C6
:103F800041F0040101600168002701F004010E9175
:103F90000E99016841F00801016000684FF400517A
:103FA00000F008000E900E984846FDF7F5FF0BF55F
:103FB000806A5046032100224FF00308FDF7ECFF12
:103FC0000E950EAD012648462946CDE90F6711949E
:103FD000FDF7CAFE06200E900020C1F22100CDE9B7
:103FE0000F0758462946FDF7BFFE1820CDE90E07FA
:103FF000584629461097FDF7B7FE50462946CDE9A9
:104000000E86CDE91064FDF7AFFE072000210022E7
:10401000FEF71EFA0720FEF70BFA08200021002207
:10402000FEF716FA0820FEF703FA40F2FC05C2F28A
:1040300000050BF5E051284640F8441F4FF460217D
:1040400006730775C161C0E901770661FDF774F970
:1040500020B1EFF3108072B6FEE700BF05F144080F
:104060000EA94046CDE90E761097FDF71DF828B150
:10407000EFF3108072B600BFFEE700BF40F2701091
:10408000ABF53441C2F2000048F2A06200244FF4C4
:104090008043C0F2010280E81600C0E90343C0E992
:1040A0000544C0E90744FDF783FF28B1EFF3108012
:1040B00072B600BFFEE700BF40F20C20C2F2000063
:1040C0004FF08041C0E900140321CDE90E14012115
:1040D0004FF6FF72CDE91014CDE914140EA9CDE905
:1040E0000844C0E9024204618461CDE91244169497
:1040F000FEF750FF20B1EFF3108072B6FEE700BF6D
:1041000040F20C24C2F2000408A92046FEF74AFD42
:1041100020B1EFF3108072B6FEE700BF40F25420EA
:104120000021ABF58232C2F200004FF6FF730B9113
:10413000CDE90911CDE90411CDE91311CDE9111132
:10414000C0E90021C0E9021301618161FEF768FD49
:1041500020B1EFF3108072B6FEE700BF4FF480503D
:10416000089040F25420C2F2000008A9FEF744FE75
:1041700020B1EFF3108072B6FEE700BF40F254208A
:10418000C2F20000FFF748FA20B1EFF3108072B6D8
:10419000FEE700BF40F25420C2F2000004A9FEF77F
:1041A00001FD18B1EFF3108072B6FEE760200E90AB
:1041B0000020CDE90F00129040F25420C2F200001E
:1041C0000EA90022FFF726F920B1EFF3108072B696
:1041D000FEE700BF40F25420C2F200000EA9042204
:1041E000FFF718F920B1EFF3108072B6FEE700BFB9
:1041F00040F25420C2F20000FFF7E2F840F2C4108F
:1042000000210BF51052C2F2000040F28F1340F271
:1042100083371191CDE90F11CDE90811C0E90023D1
:10422000C0E90217C0E904118161FEF7F9FC18B179
:10423000EFF3108072B6FEE74FF480500E9040F21C
:10424000C410C2F200000EA9FEF7D6FD20B1EFF3B4
:10425000108072B6FEE700BF40F2C410C2F2000048
:1042600008A9FEF79FFC18B1EFF3108072B6FEE7C5
:10427000ABF52441284640F81C1F122100234FF4BF
:104280008032C0E90113C0E90332C0E905338383FA
:10429000FDF7FCFB20B1EFF3108072B6FEE700BF24
:1042A0000A200121139000270D201691CDE91471E9
:1042B000179005F11C000EA9CDE90E77CDE9107716
:1042C00012970390FDF7A0F94046FDF71FF9484605
:1042D0004FF400510122FDF75FFE44F62060FDF728
:1042E00009FD40F25425C2F2000528460021FFF7DF
:1042F0000DFA28460421FFF709FA50460121012250
:10430000FDF74AFE5046022101220225FDF744FE38
:1043100040F28009C2F2000909F1380640F270113A
:10432000C2F2000130464E2210230095FCF7C8FC73
:10433000039D2846FDF7A2FC28460221FDF74CF913
:104340000820C9E91C7009F14400039009F15400E8
:10435000C9E91A7789F8787002902DE0D9F810A091
:10436000504601F02DFC039D99F8003046F20C01F7
:10437000C9F814002846C0F600015246FBF734FF86
:10438000029FD9F80C2045F6FE713846C0F60001B0
:10439000FBF72AFF304600210022FCF7F9FD3046EA
:1043A0003946FCF73BFE304600210122FCF7F0FDC8
:1043B00030462946FCF732FE40F20000C2F200000F
:1043C00000780328F8D8DFE800F0033D5DCF00BF98
:1043D000039DD9F8102099F8003046F20C012846C8
:1043E000C0F60001FBF700FF029FD9F80C2045F64C
:1043F000FE713846C0F60001FBF7F6FE304600219C
:104400000022FCF7C5FD30463946FCF707FE304672
:1044100000210122FCF7BCFD30462946FCF7FEFDD9
:10442000D9F80C0044F251618842C5DB40F6B8303F
:10443000FDF760FC40F200010120C2F200010870AB
:10444000BAE700BF99F8010001283FF487AF0020C8
:1044500089F800003046FCF707FC304600210022B6
:10446000FCF796FD30466EA1FCF7D8FD4FF4FA60DC
:10447000FDF740FC40F20000C2F20000007889F82D
:1044800001006BE799F80100022816D03046FCF7CE
:10449000EBFB304600210022FCF77AFD304655A1A7
:1044A000FCF7BCFD40F20000C2F20000007889F881
:1044B00001004FF4FA60FDF71DFC58461021FDF78E
:1044C0005DFD074658460821FDF758FD40EA4700C4
:1044D00089F802004046FCF7B3FE00F083FF4FF678
:1044E00000630022C4F2AF0300F0DCFD00F000FD29
:1044F0000021C4F2C821C9F8180001F0DDFB01F069
:1045000071F9039D02460B4628463FA1FBF76CFE5E
:10451000029FD9F80C2038463EA1FBF765FE3046D5
:1045200000210022FCF734FD30463946FCF776FDC9
:10453000304600210122FCF72BFD30462946FCF7CE
:104540006DFD99F80210C80736D1D9F818004FF65A
:104550000071C4F27F7101F0AFFB01F0FDFA01467A
:10456000A9F8060000203AE040F25427C2F2000702
:10457000386849F64041816340F6B830FDF7BAFB30
:10458000386800278763206840F20005C2F2000502
:104590004FF0FF316960476240F2C410C2F2000080
:1045A000FEF7F2FB20463C21FEF7F2FD4FF4FA60E5
:1045B000FDF7A0FB2F70FFE689074FF000004FF0DA
:1045C0000001A9F806000AD4D9F818004FF60071C6
:1045D000C4F27F7101F070FB01F0BEFA002140F2DD
:1045E0005422C2F200021268A9F8080051639063D5
:1045F000E2E600BF2020204D414E55414C204D4F5A
:1046000044452020000000004144433A252E3266F4
:1046100020000000656E636F6465723A25642000B7
:10462000202020204155544F204D4F44452020202C
:10463000000000002DE9F04F81B001F009FC40F2CC
:10464000800BC2F2000BDBE9081640F20004814641
:10465000C2F2000401F0FCFB0146D4E902802769A4
:1046600001F02AFB394601F081F901F0BBF8074659
:1046700030460D4601F0B6F849F69A1AC9F6991A6D
:1046800049F69913C3F6E973524600F0BFFE49F6A6
:10469000991304460E46C3F6C97338462946524656
:1046A00000F0B4FE2246334600F054FC00F020FC3B
:1046B0000446CBF824004046494601F0FDFA214665
:1046C00001F0BCF80026C4F2C8263146054601F0C8
:1046D00025F968B90026CCF2C8262846314601F0F3
:1046E00032F928B9284601F037FA01F051FA0646A6
:1046F0003046CBF8209001B0BDE8F08F5FEA400C67
:1047000008BF91F0000F4FEA8C234FEAC12243EA21
:1047100051514FEA1C5018BF00F5F0404FEA3000ED
:1047200018BF41F000415FEA6C5C00F02980BCF1E9
:10473000FF3F08BF40F080407047130C06BF1204D3
:104740004FF0100C4FF0000C130E04BF12020CF1CE
:10475000080C130F04BF12010CF1040C930F04BFDB
:1047600092000CF1020CD30F04BF52000CF1010CAB
:1047700011464FF00002A0F11F00A0EB0C007047A3
:1047800011F0004F08BF704731F000413FF4D5AF42
:104790000B0C06BF09044FF0100C4FF0000C0B0E71
:1047A00004BF09020CF1080C0B0F04BF09010CF146
:1047B000040C8B0F04BF89000CF1020CCB0F04BF5B
:1047C00049000CF1010CCCF1200322FA03F341EA79
:1047D000030102FA0CF2A0EB0C0000F1010070479B
:1047E00023F07F4720F07F4C80EA030000F0004078
:1047F000ACEB070303F57C5303F1FF032DE980497C
:1048000009B44FEA144324EA03484FEA154B25EA5A
:104810000B4E0FF2042606EB13273E7803FB0667C8
:10482000C7F5000707FB06F64FEAD64606F1020673
:104830004FEA543707FB066CCCF1005C4FEA1C478B
:104840002CEA074C0CFB06F507FB06F404EB1546B7
:104850004FEA961649085FEA320234BF00204FF053
:1048600000404FEAD13706FB07FC4FEA1C4C0CFB1B
:104870000BF7D21B03FB0CF761EB07010CFB0EF7E8
:10488000B0EB074072EB17420CFB08F734BFA2EB0A
:104890000742B2EB074261EB17414FEA0C444FEA83
:1048A000910706FB07FC4FEA1C4C0CFB0BF7B0EB27
:1048B000C74072EB573203FB0CF734BFA2EBC74281
:1048C000B2EBC74261EB57310CFB0EF7B0EBC70000
:1048D00072EB57720CFB08F734BFA2EBC702B2EBC6
:1048E000C70261EB57714FEA816141EA92114FEAC9
:1048F000826242EA90124FEA806004EBCC04039F8C
:104900004FEAD13706FB07FC4FEA1C4C0CFB0BF7B8
:10491000D21B03FB0CF761EB07010CFB0EF7B0EBAE
:10492000074072EB17420CFB08F734BFA2EB0742BB
:10493000B2EB074261EB17414FEA8C5504EB9C2424
:104940004FEA910706FB07FC4FEA1C4C0CFB0BF7E8
:10495000B0EBC74072EB573203FB0CF734BFA2EB4E
:10496000C742B2EBC74261EB57310CFB0EF7B0EB1D
:10497000C70072EB57720CFB08F734BFA2EBC702FB
:10498000B2EBC70261EB57714FEA816141EA9211C4
:104990004FEA826242EA90124FEA806015EB4C25A2
:1049A00044F100044FEAD13706FB07FC4FEA1C4CE8
:1049B0000CFB0BF7D21B03FB0CF761EB07010CFBA5
:1049C0000EF7B0EB074072EB17420CFB08F734BF51
:1049D000A2EB0742B2EB074261EB17414FEA81318C
:1049E00041EA92414FEA823242EA90424FEA8030F5
:1049F0004FEA0C7615EB1C1544F1000448EA03431A
:104A00004EEA0B484FF0000EB2EB080C71EB0307B7
:104A100024BF624639464EEB0E0E4FF0000B0018D5
:104A2000524149414BEB0B0BB2EB080C71EB030706
:104A30007BF1000B24BF624639464EEB0E0E4FF061
:104A4000000B0018524149414BEB0B0BB2EB080C29
:104A500071EB03077BF1000B24BF624639464EEB36
:104A60000E0E51EA020718BF46F0010616EB0E764D
:104A700055F1000254F1000103D5BDE88901BDE8FC
:104A80000088BDE88901BDE80048B619524141EBF4
:104A90000101A3F10103704780807F7E7D7C7B7ADA
:104AA0007978777676757473727171706F6E6E6DDA
:104AB0006C6C6B6A6A696868676666656464636380
:104AC00062616160605F5F5E5E5D5D5C5C5B5B5A06
:104AD0005A59595858575756565555555454535373
:104AE00052525251515050504F4F4F4E4E4D4D4DCE
:104AF0004C4C4C4B4B4B4A4A4A4949494848484719
:104B00004747474646464545454444444443434356
:104B100043424242424141419C46002B30D47700FF
:104B20002BD04FEA37071CB503B44FF010004FF0FD
:104B30001001BAF1000F06D0BCF1000FDCBF40F04D
:104B4000080040F008014FF000000FBCBDE8104025
:104B50000BF1010BBBF1010F08BF5FEA170722BF82
:104B600012F1010211F101014FF0004143F1000384
:104B700000F0004043EA00007047F9D35708D0E73F
:104B800046EA06464FEA164613F1400F1FDD13F1C1
:104B9000200FDFBF16430A46002120335B42BED000
:104BA000C3F1200746EA06464FEA164602FA07F71F
:104BB00046EA070622FA03F2C3F1200701FA07F7D3
:104BC00042EA070221FA03F14FF00003A7E746EAA1
:104BD000020646EA06464FEA164646EA0106BCBF0A
:104BE00046EA0646360C4FF000034FF000024FF045
:104BF000000194E72DE9804C70B49A46934691E801
:104C0000380007C831EA400C48BF34EA430C03D5EA
:104C1000FFF7E6FDFFF780FFF0BCBDE8008C2DE953
:104C2000804C70B49A46934691E8380007C810F05B
:104C3000804F08BF13F0804F03D100F005F8FFF755
:104C40006BFFF0BCBDE8008C20F07F4723F07F4C69
:104C500080EA030000F0004007EB0C03A3F57C534F
:104C6000A3F1FE0392F0000F00F0B38095F0000F67
:104C700000F077802DE901494FEA114021EA004810
:104C80004FEA144624EA064700FB06FC08FB06F63A
:104C900007FB08F818EB06484CEB164C00FB07F72F
:104CA00018EB07484CEB17404FEA124B22EA0B4E29
:104CB0004FEA154625EA06470BFB06FC0EFB06F6F7
:104CC00007FB0EFE1EEB064E4CEB164C0BFB07F7DC
:104CD0001EEB074E4CEB174B18EB0B0840F1000096
:104CE00018EB0E0B58EB000840F100008F1A4FF044
:104CF00000014FF000063CBFC943661B14BFB5EB73
:104D0000040C00213CBFC943F61B4FEA174427EAB5
:104D100004454FEA1C472CEA074C04FB076205FBDD
:104D200007F70CFB05F616EB074642EB174204FBB0
:104D30000CFC16EB0C4642EB1C421BEB060658EB38
:104D4000020241414EEA8E0E46EA9E0601D5BDE8BA
:104D50000189B619524141EB0101A3F10103BDE8FC
:104D600001894FEA144524EA05464FEA114721EA32
:104D7000074C05FB07F406FB07F70CFB06F111EBEC
:104D8000074144EB174405FB0CFC11EB0C4144EBD1
:104D90001C444FEA124722EA074C05FB07F206FBC8
:104DA00007F70CFB06F616EB074642EB174205FB2E
:104DB0000CFC16EB0C4642EB1C456A1854F1000142
:104DC00048BF7047B619524141EB0101A3F10103FD
:104DD000704795F0000F37D04FEA114221EA0246A2
:104DE0004FEA144724EA074C02FB07F106FB07F7DA
:104DF0000CFB06F414EB074441EB174102FB0CFCDF
:104E000014EB0C4441EB1C414FEA154725EA074CD3
:104E100002FB07F506FB07F70CFB06F616EB074649
:104E200045EB174502FB0CFC16EB0C4645EB1C4210
:104E3000121951F1000148BF7047B619524141EBB8
:104E40000101A3F1010370474FEA144524EA054626
:104E50004FEA114721EA074C05FB07F106FB07F76C
:104E60000CFB06F212EB074241EB174105FB0CFC71
:104E700012EB0C4251EB1C414FF0000648BF70474B
:104E8000921841EB0101A3F101037047490050EA78
:104E9000C12018BF04204A0D18BF40F0010040F2A5
:104EA000FF72B2EB515F08BF40F00200012808BF5B
:104EB0000520704730380A2801D2012070470020B1
:104EC0007047000010B500290AD00878002807D0E4
:104ED00005487844FBF716FE002801D0002010BDDD
:104EE0000248784410BD00006A1100006211000001
:104EF00021F0004201F00043A2F16052B2F5801FA0
:104F000028BFD2F17F6C0BD95FEA001C43EAC202D2
:104F100042EB507018BF704728BF20F00100704767
:104F2000B2F5801FBCBF184670474FEA410C1CF514
:104F3000001F02D2084600F086BF70B500F010FBDB
:104F400000000089FFF7F6BF4FF00040A0F5800099
:104F50007047000010B591EA030F48BF83F000438B
:104F600000F15A83841A71EB030C05D2121943EB3A
:104F70000C03001B61EB0C014FEA1154A4EB135C12
:104F8000DFF81CE11EEA430F18BF9EEA445F00F001
:104F9000748021EA045123EA0E0343F48013DCF108
:104FA000200E32D322FA0CFE10EB0E0023FA0CFE78
:104FB00041EB0E01CCF1200E03FA0EFE10EB0E00B9
:104FC000CCF1200E51F10001B1F5801F32D201EB7E
:104FD000045112FA0EF2BDE8104058BF7047401C51
:104FE00038BF5FEA420218BF7047002814BF20F0A4
:104FF000010041F100014FEA410313F5001F38BFE2
:105000007047A1F1C04100F0F9BA012A43EB030255
:10501000ACF1200CDCF11F0E32BF4FF0000E23FA72
:105020000CF310EB030041EB0451B4EB115FD0D053
:10503000A1EB045101F58011490801EB04515FEA2D
:1050400030000ED350F1000038BF12FA0EFE08D126
:10505000BDE81040C9E7401C38BF5FEA4202CAD130
:10506000C3E7BDE810404FEA410313F5001F38BF06
:105070007047A1F1C04100F0C1BA9EEA445F08D078
:1050800011EA5E0FBDE8104004BF01F000410020AE
:105090007047BDE8104070B500F062FA64FBBE3E98
:1050A0000000E0FF2DE9C04130B4DFF8A4C23CEAC3
:1050B000111418BF3CEA131400F0ED801CEA11141F
:1050C00081EA030544EAD57418BF1CEA131500F001
:1050D000C880A4EB050404F17F7404F500344FF09C
:1050E000004545EAC12145EAC32341EA505143EA5C
:1050F00052534FEAC0204FEAC222994208BF904261
:1051000000F09D804FEA13650FF24416765D4FEA7A
:10511000134506FB05F7C7F1807706FB07F74FEA53
:10512000D737A7FB03687642A7FB06CEC8F58038C1
:1051300038BFA8F1010807FB08E6A6FB028C4FF078
:10514000000EE6FB03CEDCF1000CCEF1004E38BFC2
:10515000AEF1010EA6FB0C584FF00007E6FB0E87E0
:10516000A1FB08C6A0FB07CE16EB0E064FF000050C
:1051700045F10005E1FB076515F1E04E7EBFA4F5A2
:1051800080345FEA46066D4116F1800745F100055F
:105190004FEA172747EA05674FEA15254FEA0666E3
:1051A000A6F1DE46B6F1805F20D9384605EBC47122
:1051B00024F0010C01EB0C11BCF1FE6F02D8F0BC25
:1051C000BDE8008124425CBF01F5801E9EEAC47FD9
:1051D00002D4F0BCBDE80081244200F13980A1F185
:1051E000C041F0BCBDE8004100F008BA4FEAD02051
:1051F00040EA41504FEAD1214FEAD22242EA4352DB
:105200004FEAD323A7FB028607FB036605FB026672
:105210001EEA0E0F58BFA6EB0056B6EB00564FEA3B
:10522000520E4EEAC37E18EB0E0E56EB530EBCD553
:1052300018EB02085E417F1C55F10005B5E74FF4FD
:1052400080154FF000074FF000064FF00008ACE764
:1052500001F1C04101F000414FF00000F0BCBDE899
:1052600000810CEA131511EA0C1F00D00CE013EAC0
:105270000C1F00F026804FF0000081EA030101F0CE
:105280000041F0BCBDE80081F0BCBDE8004181EA0E
:10529000030100F0B3B9F0BCBDE8004170B500F007
:1052A0005FF900BF097EFC3E00F007B84FF0000038
:1052B00081EA030101F00041704781EA030100F037
:1052C0009DB9F0BCBDE8004122494FF00000704795
:1052D000FFFDFBF9F7F5F4F2F0EEEDEBE9E8E6E4BB
:1052E000E3E1E0DEDDDBDAD8D7D5D4D3D1D0CFCD42
:1052F000CCCBCAC8C7C6C5C4C2C1C0BFBEBDBCBB7B
:10530000BAB9B8B7B6B5B4B3B2B1B0AFAEADACAB75
:10531000AAA9A8A8A7A6A5A4A3A3A2A1A09F9F9E4F
:105320009D9C9C9B9A999998979796959594939301
:10533000929191908F8F8E8E8D8C8C8B8B8A898998
:10534000888887878685858484838382828181801B
:105350000000FF070000F87F4FEA41034FEA535374
:10536000A3F58063D3F11E03C8BFD3F1210C0CDD7C
:105370004FF0004242EAC12242EA505232FA03FCA4
:105380008CEAE17CACEBE1707047102BC4BF0020CD
:10539000704703F5787CBCF1FF3F04D06FF000420A
:1053A00082EA2100704770B500F0DAF84992248053
:1053B00000207047F2E710F0004248BF4042B0FAC8
:1053C00080F310FA03F10AD0C3F11D0303F58063E3
:1053D00002EB03524FEA415002EBD12170474FF0EC
:1053E00000007047B0FA80F310FA03F10AD0C3F15D
:1053F0001D0303F580634FEA03524FEA415002EB6D
:10540000D12170474FF000007047000070B5DFF801
:1054100048C11CEA111E1EBF1CEA13159EEA0C0FA0
:1054200095EA0C0F00F06F8081EA03044EEAD47E07
:10543000AE4421EA4C1123EA4C1341F4801143F4A9
:105440008013AEF17F7EA1FB024CA0FB03653619F1
:1054500055EB0C05A1FB034C4CF10003A0FB021C17
:1054600016EB0C06654153F10003094218BF46F0E4
:10547000010613F4007F0BD14FEA03314FEA0530E8
:1054800041EA155140EA165034036FF003020AE076
:105490004FEAC3214FEAC52041EA555140EA565030
:1054A000F4026FF0020202EB2E4201EB025585EA94
:1054B000CE710AD05FEA440C18BF24F0004450F1CA
:1054C000000041F1000120EAD47040F2FE7C624508
:1054D00000D270BDA84214BF4FF080444FF040444A
:1054E000002E08BF0024BEF1806FA8BFA1F1C0410B
:1054F000BDE8704080F2828001F1C04101F00041BE
:105500004FF0000070470CEA13159EEA0C0F18BF0D
:1055100095EA0C0F06D081EA030E4FF000000EF062
:10552000004170BD00F01CF88900013E00F007B892
:1055300000F009B84FEA430C5FEA5C5C08D081EAEE
:10554000030100F05BB84FEA410C5FEA5C5CF6D106
:1055500002494FF0000070470000FF070000F87F8D
:105560000EF1020E2EF0030E5EF8046B364205D4E7
:10557000012A43EB030515F5001F12D8012841EB62
:10558000010C1CF5001F0CD80ED14FEAD17C0CEB9E
:105590004C0C0CF1020C15F5001F08BF4CEBD37C32
:1055A00004E04FF0080C01E04FEAD37C0CEB4C0513
:1055B00026FA05F606F00706B6F1040C06D20EEB45
:1055C000860CBDE870404CF0010C6047DFE80CF041
:1055D000090B02024FF00041A1F500214FF000003D
:1055E00070BD19461046012851EB010418BFD4F5CF
:1055F000001484BF002001F0004170BD0808A0F530
:1056000000114FEA3101704710B591EA030F48BF0E
:1056100083F000433FF5A6AC841A71EB030C07D26C
:105620008CF0004C121943EB0C03001B61EB0C01D6
:105630004FEA1154A4EB135CDFF8A4E11EEA430F18
:1056400018BF9EEA445F00F0B48021EA045123EAC7
:105650006E035242C3EB6E0338BF5B1EDCF1200EBB
:1056600025D322FA0CFE10EB0E0043FA0CFE41EBA0
:105670000E01CCF1200E03FA0EFE10EB0E00CCF161
:10568000200E51F1000129D401EB045112FA0EF25F
:10569000BDE8104058BF7047401C1CBFB2F1004F1E
:1056A000704700280CBF491C20F00100704712EB26
:1056B000020E43EB030218BF4FF0010E4EEA420206
:1056C000ACF1200CDCF11E0E56D943FA0CFE10EBA7
:1056D0000E00CCF11E0E51F1FF31D5D50EF1010EA9
:1056E00012FA0EFE404141EB010101EB445C5FEA1E
:1056F0005C5C10D901EB045110EBDE7038BFBEF1D9
:10570000004FBDE8104018BF704700280CBF491C6F
:1057100020F00100704734D24FEAD42C24F4006406
:1057200011F500111BD0B1FA81F20B3AA41AA41E94
:10573000D2F12003914030FA03F31943904001EB7A
:10574000CC7101EB0451002CBDE81040A8BF70479C
:1057500001F1C04101F000414FF000007047B0FA84
:1057600080F310FA03F102D1BDE810407047E41A4B
:10577000173C4805C90AE2E701EB0451BDE81040B7
:10578000704749104FEA300001EB0451BDE810406A
:1057900002E04FF0000170474A0008BF0042F8D015
:1057A000B2F5001F28BF704701F000414FF0000024
:1057B00070479EEA445F07D011EA5E0FBDE81040D3
:1057C00004BF002100207047BDE8104070B5FFF70E
:1057D000C7FE00BF40DFF63E104683F00041704731
:1057E0000000E0FF43004FEAD30C4FEA3C0C43407B
:1057F0001FBF40070CF1605113F0FE4F70471CF0C3
:10580000006F03D10CF00041002070470CF0004302
:1058100043EA507040EACC0010B500F0CEFA00BF69
:10582000000000924FEA0001FFF7E8BE4FF0004190
:10583000A1F500214FF000007047000090EA010F31
:1058400048BF81F0004100F10A83421A3CBF801A30
:1058500089184FEAD052A2EBD1534FF07F4C1CEA8B
:10586000410F18BF9CEA026F00F03B804FF0004CE4
:105870004CEA00204CEA012121FA03FC10EB0C0C4D
:105880001ED202F1FF325FEA1C2040EBC25038BF4B
:1058900070471CF07F0F4FEA400C18BFBCF17F4FE0
:1058A00038BF7047C3F12003994008BF20F00100C2
:1058B000BCF17F4F38BF7047A0F1C04000F0C3BAC1
:1058C0004FEA3C00000A40EBC25028BF1CF0FF0F1B
:1058D0004FEA400CE6D018BFBCF17F4F38BF70478D
:1058E000EAE79CEA026F05D010EA5C0F08BF00F0FF
:1058F0000040704710B500F060FA00BF64FBBE3E88
:1059000010B500F0F5F80CBF0120002010BD10B557
:1059100000F0EEF814BF0120002010BD10B500F01B
:1059200063F98CBF0120002010BD10B500F05CF9B8
:105930002CBF0120002010BD10B500F089F994BFE4
:105940000120002010BD10B500F082F934BF012005
:10595000002010BD401058BFC0F14040491058BF52
:10596000C1F140418142EFF3008070474FF47F0C5A
:105970001CEAD0121EBF1CEAD11392EA0C0F93EA64
:105980000C0F00F0858090EA010F48BF42F480724E
:1059900040F4000C41F400002CF07F4120F07F40E7
:1059A00000B5A2EB030281420FF2081CACEB504E93
:1059B0009EF800E0C0F100004FEA4E0E00FB0EFC26
:1059C00038BF49004FEA2C1C0CFB0EF34FEACE1EE9
:1059D0000EEB635E4FEA112C0EFB0CFC4FEAC1216B
:1059E0004FEA1C5300FB031102F5FA024FEA112C97
:1059F0000EFB0CFC4FEA01314FEADC4C00FB0C11B2
:105A000042EB2242C14228BF09184CEB03335DF838
:105A100004EB10EB410143EBC250B2F57C0F38BFF1
:105A2000704729D512F0F00F1CBF00F1C04000F004
:105A300000407047008182838485868788898B8CAB
:105A40008D8E8F919293959697999A9C9D9FA0A2E7
:105A5000A3A5A7A8AAACAEB0B2B3B5B7B9BCBEC037
:105A6000C2C5C7C9CCCED1D4D7D9DCDFE2E6E9ECD8
:105A7000F0F3F7FAFE0000004FEA400C0CF1807CD6
:105A8000BCF17E4F28BF7047B0F1C04000F0DBB9D9
:105A90000CEAD11390EA010F48BF42F480726245CC
:105AA00038BF634507D213F47F0F16D080EA010098
:105AB00000F00040704710B500F07FF9097EFC3E11
:105AC00000F005B880EA010000F00040704780EA6D
:105AD000010000F0004000F0B6B912F47F0F04BFDF
