:020000040800F2
:10000000B80700208901000829170008F916000820
:1000100025170008450200084917000800000000E5
:100020000000000000000000000000003117000880
:1000300055020008000000002D17000835170008C1
:10004000A3010008A3010008A3010008A301000800
:10005000A3010008A3010008A3010008A3010008F0
:10006000A3010008A3010008A3010008A3010008E0
:10007000A3010008A3010008A3010008A3010008D0
:10008000A3010008A3010008A3010008A3010008C0
:100090003D17000849020008A3010008A301000859
:1000A000A3010008A3010008A3010008A3010008A0
:1000B000A3010008A3010008A3010008A301000890
:1000C000A3010008A3010008A3010008A301000880
:1000D000A3010008A3010008A3010008A301000870
:1000E000A3010008A3010008A301000800F002F822
:1000F00000F03AF80AA090E8000C82448344AAF188
:100100000107DA4501D100F02FF8AFF2090EBAE885
:100110000F0013F0010F18BFFB1A43F0010318473B
:10012000541D0000741D0000103A24BF78C878C127
:10013000FAD8520724BF30C830C144BF04680C60ED
:10014000704700000023002400250026103A28BF35
:1001500078C1FBD8520728BF30C148BF0B60704739
:100160001FB51FBD10B510BD00F031F81146FFF7E7
:10017000F7FF01F03BFB00F04FF803B4FFF7F2FF8D
:1001800003BC00F057F800000948804709480047C1
:10019000FEE7FEE7FEE7FEE7FEE7FEE7FEE7FEE737
:1001A000FEE7FEE704480549054A064B7047000094
:1001B00039170008ED000008B8010020B80700203A
:1001C000B8030020B8030020704770477047754699
:1001D00000F02CF8AE4605006946534620F00700B3
:1001E000854618B020B5FFF7DDFFBDE820404FF091
:1001F00000064FF000074FF000084FF0000BAC4630
:10020000ACE8C009ACE8C009ACE8C009ACE8C0097A
:1002100021F007018D46704710B50446AFF300800A
:100220002046BDE81040FFF7A8BF00000048704717
:100230001800002001491820ABBEFEE7260002008E
:1002400070470000FEE7000040F24010C2F20000DC
:1002500000F07EB97047000090F82020013A012A92
:1002600008D8006800F114020020136819431160D7
:10027000704700BF00F1240201204FF48021136871
:10028000194311607047000010B590F820E0D0F8D5
:1002900000C0AEF1010EBEF1010FDCF808E00FD88E
:1002A0001EF0E05F16D0CEF3016E012000FA0EF0D2
:1002B00018608B68C3B1486843EAC00316E000BF0A
:1002C00000F1240101204FF480220B681A430A60D8
:1002D00010BD00BF00F1240101204FF400120B6893
:1002E0001A430A6010BD00BF08684305D1E9030442
:1002F00003430CEB0E10C0F88031C0F88441097D37
:10030000012905D100F5C2710B6843F480730B60BD
:100310005168C0F88C11126800F5C071C0F88821CE
:10032000002001220B681A430A6010BDB0B50268B4
:1003300090F82030013B012B28D8D2F8000201238D
:1003400040F00100C2F80002D1F814E0CC690EF0D0
:100350001F0003FA00F0D2F81C326FEA000C83434E
:10036000012CC2F81C3217D06CBBD2F80C3203EA55
:100370000C03C2F80C32CB688C8844EA034302EBCE
:10038000CE04C4F840320B4615E000BF416A41F488
:10039000802141620120B0BDD2F80C320343C2F883
:1003A0000C320B688C8844EA034302EBCE04C4F899
:1003B000403201F10C038C681B8843EA044302EBD2
:1003C000CE04C4F84432D2F804328D6943EA000402
:1003D000D1F810E0096A002D08BF03EA0C04C2F846
:1003E0000442D2F81432BEF1000F43EA000408BF01
:1003F00003EA0C040129C2F8144204D1D2F81C12F9
:100400000843C2F81C02D2F8000220F00100C2F832
:1004100000020020B0BD00007047000010B590F849
:100420002040013C012C7BD8D0F800C0002900F00E
:100430008180DCF81040A40700F081800CEB011CE7
:10044000DCF8B0410CF5D87E14F004049460DCF8BC
:10045000B04119BFE4085460640D1460DEF8004038
:100460000CF5DA7E04F00204D460DCF8B441240711
:100470005ABFDEF8004004F00F0408241461DEF8CF
:1004800000400029C4F307249461DEF800404FEADD
:1004900014445461DCF8B8211A70026802EB0112AE
:1004A000D2F8B8214FEA12225A70026802EB011208
:1004B000D2F8B8214FEA12429A70026802EB011298
:1004C000D2F8B8214FEA1262DA70026802EB011228
:1004D000D2F8BC211A71026802EB0112D2F8BC21D9
:1004E0004FEA12225A71026802EB0112D2F8BC21C3
:1004F0004FEA12429A71026802EB0112D2F8BC2153
:100500004FEA1262DA71006814BF00F1100100F1C5
:100510000C01002020220B681A430A6010BD00BFA6
:1005200000F1240101204FF480220B681A430A6075
:1005300010BD00BFDCF80C40A4077FF47FAF00F1D2
:10054000240101204FF400120B681A430A6010BD09
:100550002DE9F04F81B0044600684669D0F8049058
:100560008768D0F80CB0D0F810A0D0F81880F10748
:1005700004D1002530071DD424E000BFF90710D0B6
:100580000121BA07816009D4780700F1AF803807EC
:1005900000F1B680204600F029FA02E0204600F083
:1005A00027FA0025F80500F18780F80300F1B180F3
:1005B000300707D51BF0100004D0206845F4007503
:1005C0001021C160700708D51BF0080005D0206815
:1005D0000821C160204600F0B3F9B00706D52068B5
:1005E000C068800702D0204600F0ACF9700607D53D
:1005F0001AF0100004D0206845F4806510210161D4
:10060000B00608D51AF0080005D02068082101615D
:10061000204600F0B7F9F00606D52068006980078B
:1006200002D0204600F0B0F9B00308D519F0100050
:1006300005D0206810214160204600F0A7F9F003A2
:1006400008D519F0080005D020680821416020462F
:1006500000F0D8F9300440F19B805FEA497040F126
:10066000948006F4807008EA102028435FEA8871BD
:10067000014648BF41F00201B20558BF01465FEA9A
:1006800048700D4648BF45F00405700558BF0D463B
:10069000300540F17A8018F0700000F07680103854
:1006A000000905286CD8DFE800F003595D61656931
:1006B00045F0080564E000BF20684FF48071BA057A
:1006C00081600BD4780515D438051DD4204600F080
:1006D00091F9F8037FF56CAF1BE000BF204600F0F6
:1006E0008BF9F8037FF564AF13E000BF4FF40065AA
:1006F00058E700BF05F50055F8037FF559AF08E04E
:100700004FF480554EE700BF05F58045F8037FF5AF
:100710004FAF20684FF48031BA0381600AD4780368
:1007200010D4380314D4204600F068F930073FF5A0
:1007300041AF47E7204600F063F930073FF53AAF95
:1007400040E700BF05F5004530073FF533AF39E717
:1007500005F5803530073FF52DAF33E745F010053F
:100760000EE000BF45F020050AE000BF45F040055F
:1007700006E000BF45F0800502E000BF45F480754B
:100780002068816921F07001816120680421416045
:1007900055B1606A40EA05012046616201B0BDE8DA
:1007A000F04FFFF739BE00BF01B0BDE8F08F000089
:1007B000B0B5C8B1044690F8200010B9204600F04A
:1007C00071F82068016841F00101016000F03AFA17
:1007D000054600BF20684168C90707D100F032FA1A
:1007E000401B0B28F6D312E00120B0BD016821F0B8
:1007F0000201016000F026FA054600BF206841684A
:1008000089070DD500F01EFA401B0B28F6D3606A4D
:10081000052140F400306062012084F82010B0BD52
:10082000217E0268012922F0800208BF8032026026
:10083000617E0268012922F0400208BF4032026056
:10084000A17E0268012922F0200208BF2032026046
:10085000E17E0268012922F0100218BF1032026006
:10086000217F0268012922F0080208BF08320260D5
:10087000617F0268012922F0040208BF043202608D
:10088000D4E901C2D4E9033561691A432A4311430B
:10089000ACF101021143C16100200121606284F8C2
:1008A0002010B0BDB0B586B040F60004C4F201041B
:1008B0000068A4F5244200219042059102D006B0C0
:1008C000B0BD00BF41F21800C4F20200426802ADA0
:1008D00042F000724260426802F000720192019A96
:1008E000026842F004020260006800F00400019017
:1008F00001984FF40060CDE9020104912046294699
:1009000000F082F84FF48050029002200390032000
:1009100005902046294600F077F814200021002297
:1009200000F00EFA142000F0FBF91520002100223F
:1009300000F006FA152000F0F3F906B0B0BD000093
:100940007047000010B540F27804C2F2000404F1D0
:100950002C0204F10C030021FFF760FD002818BFF2
:1009600010BDE06A40F28121884209D141F20000C5
:10097000C4F201004FF40051BDE8104000F054B93A
:1009800010BD000070470000704700007047000075
:10099000B0B5044690F8200001281DD1022084F84B
:1009A00020002068016821F00101016000F04AF98F
:1009B000054600BF20684068C00713D000F042F928
:1009C000401B0B28F6D3606A40F4003060620520BB
:1009D00084F820000120B0BD606A40F4002060620D
:1009E0000120B0BD00206062B0BD00007047000073
:1009F000704700007047000070470000704700001B
:100A000070470000704700002DE9F04F82B041F2BE
:100A10000042C4F201020E680423904208BF03237F
:100A2000002E009300F0F68040F2004C4FF6FF7E5F
:100A30000022C4F2010C0124C1F2100E4FF0000A92
:100A40004FF0000947E000BF012502F00C040F271A
:100A5000A7402BEA070705FA04F43C4343F8264075
:100A6000D1F804B040F20C455FEACB23DCF8083043
:100A700054BF23EA080343EA0803C4F20105CCF893
:100A800008302B685FEA8B2454BF23EA080343EA4B
:100A900008032B605FEA8B34DCF8043054BF23EA90
:100AA000080343EA08035FEACB34CCF80430DCF8EF
:100AB00000304FF0010454BF23EA080343EA08035F
:100AC000CCF800300E680AF1010A36FA0AF302F196
:100AD000040200F09F8004FA0AF816EA080FF1D029
:100AE0004B68734512DC122B56D8DFE803F0350B48
:100AF0004549555555555555555555555555554DCA
:100B0000510000BFD1F80C9046E000BF4FF6FF75D2
:100B1000C1F22105AB420FDC0025C1F21105AB4249
:100B20001AD00025C1F21205AB4215D00025C1F242
:100B30002105AB4210D02FE00025C1F22205AB42C7
:100B40000AD00025C1F23105AB4205D00025C1F223
:100B50003205AB4220D100BF8B684BB1012B14BFD3
:100B6000C0F81480C0F810804FF0080914E000BFEE
:100B70004FF0040910E000BFCB6803F108090BE057
:100B80004FF0000908E000BFCB6803F1040903E05F
:100B9000CB6803F10C0900BF13460546BAF1080FF4
:100BA00024BF203B04352E680F279F40BE4309FA1F
:100BB00003F333432B60CB79DB067FF583AF41F240
:100BC0001804C4F2020423684FEA9A0643F00103B2
:100BD0002360236840F6000403F001030193019BA6
:100BE000ACF57E7353F826B0C4F20104A0420FD0D6
:100BF00040F60044C4F20104A0423FF425AF41F2A4
:100C00000004C4F20104009DA04208BF02251CE7B5
:100C100000251AE702B0BDE8F08F000080680840A8
:100C200018BF012070470000C26802EA0103914327
:100C300041EA034101617047002A08BF09040161CC
:100C40007047000040F2B010C2F200000068704728
:100C500040F2080040F2B011C2F20000C2F20001FE
:100C600000780A68104408607047000080B542F2BE
:100C70000000C4F20200016841F01001016003208D
:100C800000F08AF80F2000F005F800F027F80020A7
:100C900080BD000070B540F20806C2F2000640F2C6
:100CA00010013278C2F200014FF47A730968B3FB85
:100CB000F2F20446B1FBF2F1084600F037FB0F2CCC
:100CC0004FF0010508D838B94FF0FF302146002217
:100CD000002500F035F87460284670BD82B041F2FE
:100CE0001800C4F202000168022241F00101016013
:100CF000016801F0010101910199416841F08051C1
:100D00004160406800F08050009000980420C4F2D8
:100D10000100016862F31A61016002B070470000CF
:100D2000002848BF704700F01F01012202FA01F1BC
:100D30004EF200124009CEF2000242F82010704735
:100D400010B54EF60C5CCEF2000CDCF80030C3F3AC
:100D5000022E8EF00704042C28BF0424BEF10303E6
:100D60004FF0FF3E0EFA04F438BF0023A143994030
:100D70000EFA03F39A43114300F00F02043A62445F
:100D800009010C3200F16043B0F1FF3FC8BF03F529
:100D90006442117010BD00004EF60C51CEF20001FD
:100DA0000A684FF6FF031A4060F30A2242F080609F
:100DB00040F0FD70086070472DE9F04381B00028D5
:100DC00000F0858042F20008C4F202080446D8F818
:100DD00000000D4600F0070088420CD2D8F8000051
:100DE00020F007002843C8F80000D8F8000000F001
:100DF0000700A8426BD1206841F204098107C4F2C0
:100E0000020917D5410705D5D9F8001041F4E06172
:100E1000C9F80010010705D5D9F8001041F4605158
:100E2000C9F80010D9F80010A26821F0F0011143B0
:100E3000C9F80010C00741D1D8F8000000F0070041
:100E4000A8420CD9D8F8000020F007002843C8F8C1
:100E50000000D8F8000000F00700A84237D1206851
:100E6000410707D5D9F80010E26821F4E061114389
:100E7000C9F80010000708D5D9F80000216920F44E
:100E8000605040EAC100C9F80000D9F8002002F023
:100E90000C00082841F20020C0F27A0050D141F63F
:100EA0006263C2F38341C0F60003595CD2033BD4B2
:100EB00040F60010C0F23D00484341E0606802285F
:100EC0000AD001282AD159F8041C890308D401202A
:100ED00001B0BDE8F08300BF59F8041C8901F6D5C4
:100EE000D9F8001021F003010843C9F80000FFF70A
:100EF000A9FE064641F28837D9F80000616800F083
:100F00000C00B0EB810F97D0FFF79CFE801BB8421E
:100F1000F2D9032001B0BDE8F08300BF59F8041CEA
:100F20008907D4D5DCE700BFD9F8002041F660631B
:100F3000C2F34042C0F600039A5C4843B0FBF2F0B3
:100F4000D9F8001041F65062C1F30311C0F6000257
:100F5000515C40F2100220FA01F140F20C00C2F2A2
:100F600000000068C2F200021160FFF793FE00204B
:100F700001B0BDE8F08300002DE9F04182B0002807
:100F800068D00446007841F20006C007C4F20206A9
:100F900025D0706800F00C0004281BD0706800F0A9
:100FA0000C00082802D17068C00313D460680028C0
:100FB00000F06881B0F5A02F00F07C81B0F5803F93
:100FC00000F07C81306820F480303060306820F49C
:100FD000802076E13068800301D56068D0B3207846
:100FE000800718D5706810F00C0F07D0706800F0FB
:100FF0000C0008286ED17068C0036BD4306880077D
:1010000002D52069012825D13068616920F0F800F7
:1010100040EAC1003060207800071FD420784007E4
:1010200032D4E56995B1706800F00C00082840F0F2
:101030008F80012D0ED07068216A00F480328A42C0
:1010400008D1616A00F47010884203D1002002B018
:10105000BDE8F081012002B0BDE8F081A069002860
:1010600062D00020C4F242200121C0F88014FFF7B2
:10107000E9FD0546706A800700F18C80FFF7E2FD0C
:10108000401B0228F6D92AE1F06910F0805808D1F7
:10109000F06940F08050F061F06900F080500090FD
:1010A000009847F20007C4F200073868C00529D449
:1010B000386840F480703860FFF7C4FD054600BF13
:1010C0003868C0051ED4FFF7BDFD401B6428F7D962
:1010D00005E100BF2069002840F20000C4F2422070
:1010E00000F0828001210160FFF7ACFD054600BFE2
:1010F000306880073FF588AFFFF7A4FD401B02284A
:10110000F6D9ECE0E068002800F08080052800F0C7
:101110009780012800F09880306A20F0010030624A
:10112000306A20F0040092E00020C4F24220002146
:10113000C0F88014FFF786FD054600BF706A80077F
:101140007FF56CAFFFF77EFD401B0228F6D9C6E0A5
:101150000027C4F2422700203866FFF773FD022DF6
:1011600005460BD13068800140F1BE80FFF76AFD73
:10117000401B02284FF00300F4D968E73068800173
:101180007FF564AFFFF75EFD401B02284FF00300C0
:10119000F4D95CE740F21000C2F20000006844F6A7
:1011A000D351C1F26201A0FB0101480A019000BFC6
:1011B00000BF0198411E002801913FF42FAF00BFEE
:1011C0000198411E002801913FF428AF00BF01980B
:1011D000411E002801913FF421AF00BF0198411E3C
:1011E00000280191E4D119E700210160FFF72AFDF1
:1011F000054600BF306880077FF50DAFFFF722FD81
:10120000401B02284FF00300F4D920E7306A20F099
:1012100001003062306A20F004003062FFF712FDF6
:10122000054641F2883700BF306A800720D5FFF7B6
:1012300009FD401BB8424FF00300F5D907E700BF96
:10124000306A40F004003062306A40F001003062E1
:10125000FFF7F8FC054641F2883700BF306A800787
:1012600006D4FFF7EFFC401BB842F7D937E000BFC8
:10127000B8F1000F7FF4D5AEF06920F08050F06136
:10128000CFE600BF306820F480303060306820F452
:1012900080203060FFF7D6FC054600BF3068800331
:1012A0007FF59DAEFFF7CEFC401B64284FF0030096
:1012B000F4D9CCE6306840F480203060306840F4E7
:1012C00080303060FFF7BEFC054600BF3068800309
:1012D0003FF585AEFFF7B6FC401B6428F6D9032026
:1012E00002B0BDE8F08100BF206AB0F5803F05D1B3
:1012F0007168A26821F40031114371607168626AFB
:1013000021F4741110430843706001203866FFF720
:1013100099FC0446306880013FF598AEFFF792FCD7
:10132000001B02284FF00300F4D990E6411E002074
:10133000B0EB116F1CBF012070474EF21002CEF2CD
:10134000000251604EF62351CEF20001F0230B70E3
:10135000072190601160704710B590F83C20012A79
:101360004FF0020233D080F83D200268D2F804E04A
:10137000D2F808C00C682EF07003234340F2FF74CB
:10138000C4F20004A24253600ADCB2F1804F13D0D1
:1013900040F20043C4F200039A420DD011E000BFB6
:1013A00042F60043C4F201039A4205D040F600031E
:1013B000C4F200039A4204D149682CF08003194317
:1013C00091600121002280F83D1080F83C201046F9
:1013D00010BD0000002804BF0120704710B504466E
:1013E00090F83D0028B9002084F83C00204600F029
:1013F00067F8022084F83D00206840F2FF7302681D
:10140000C4F2000342F6004C9842C4F2010C15DC11
:10141000B0F1804F1AD040F20041C4F2000188427E
:1014200014D0984218DCB0F1804F1DD040F200413A
:10143000C4F20001884217D01AE000BF604505D011
:1014400040F60001C4F200018842EAD1A16822F00E
:1014500070020A439842E6DD604505D040F600017F
:10146000C4F20001884203D1216922F440720A4388
:10147000A36922F08001D4F804E0E26819436045D2
:101480000160C262C0F828E002D16169CCF8301076
:1014900001214161002084F8461084F83E1084F850
:1014A0003F1084F8401084F8411084F8421084F80A
:1014B000431084F8441084F8451084F83D1010BDA2
:1014C00081B0006842F60041C4F20101884201D0B7
:1014D00001B0704741F21800C4F20200016841F403
:1014E00000610160006800F400600090009801B0A5
:1014F0007047000090F83D1001291CBF0120704783
:10150000022180F83D10006840F2FF71C4F2000132
:10151000884209DCB0F1804F12D040F20041C4F2A1
:10152000000188420CD012E042F60041C4F20101F1
:10153000884205D040F60001C4F20001884206D17D
:10154000816801F00701062904BF00207047016887
:1015500041F00101016000207047000080B590F863
:101560003C20012A4FF0020200F0C28080F83D20AA
:10157000D0F800C04FF67772DCF8083023EA020298
:10158000CCF808200B684F2B28DC1F2B44DD202BC8
:1015900045D0302B43D0402B40F0AC80D1F804E054
:1015A000C968DCF82030DCF8202022F00102CCF8F9
:1015B0002020DCF8182022F0F00242EA011123F08A
:1015C0000A0242EA0E02CCF81810CCF82020DCF80F
:1015D000081041F0470121F0300180E06F2B27DD3A
:1015E000B3F5005F48D0B3F5805F7AD0702B40F040
:1015F0008180D1E901E3C968DCF8082043EA0E03E1
:1016000022F47F4243EA01211143CCF80810DCF8B0
:10161000081041F0770162E00BB1102B6AD1DCF8C1
:10162000081021F07001194341F0070157E000BF95
:10163000502B35D0602B5DD1D1F804E0C968DCF8BF
:101640002030DCF8202022F01002CCF82020DCF83A
:10165000182022F4704242EA013123F0A00242EA4B
:101660000E12CCF81810CCF82020DCF8081041F04D
:10167000670121F0100132E0D1E901E3C968DCF82B
:10168000082043EA0E0322F47F4243EA012111437A
:10169000CCF80810DCF8081041F480411FE000BFCE
:1016A000D1F804E0C968DCF82030DCF8202022F012
:1016B0000102CCF82020DCF8182022F0F00242EAE7
:1016C000011123F00A0242EA0E02CCF81810CCF8FD
:1016D0002020DCF8081041F0570121F02001CCF85F
:1016E00008100022012180F83D10002180F83C10F4
:1016F000104680BD0122F5E7FEE7000010B50DF1B0
:10170000080E8C4601469EE81140C1E900C28B607C
:101710000C6188816046A1F814E0BDE81040FFF735
:10172000E9BE0000FEE70000FEE700007047000091
:1017300070470000FFF78CBA7047000040F240107D
:10174000C2F20000FEF704BFFEE7000070B59A4247
:1017500009D89C1A631C032C03F0030C04D2012348
:10176000BCF1000F29D170BD54420A4423F0030E8E
:10177000033A01235E1EF6B2DDB2F600ED0020FA58
:1017800006F620FA05F502F8046F02F8015C9D1ECA
:10179000EDB2ED0020FA05F55570DD1EEDB2ED005D
:1017A00020FA05F5043BBEF1040EA4F10404957083
:1017B000E0D16242BCF1000FD5D0DCB2E40020FAE7
:1017C00004F4BCF1010F8C54CDD011445A1ED2B296
:1017D000D20020FA02F2BCF1020F4A7008BF70BDBD
:1017E0009A1ED2B2D200D040887070BD96B0FFF77A
:1017F0003DFA00240120CDE91144CDE90F440C90BD
:1018000010904FF4E0104FF48031022515900CA891
:10181000CDE90D14CDE91351FFF7AEFB20B1EFF385
:10182000108072B6FEE700BF0F20CDE906054FF429
:101830008060CDE9090006A802210894FFF7BCFAF0
:1018400020B1EFF3108072B6FEE700BF41F218003E
:10185000C4F20200016840F6000841F01001016086
:101860000168C4F2010801F010010C910C990168A3
:1018700008F5006441F0200101600168002201F0D8
:1018800020010C910C9901684FF4005541F00401BE
:10189000016000684FF4005100F004000C900C98B7
:1018A00020460027FFF7C8F94046552100224FF097
:1018B0005509FFF7C1F90C9502200CAD0126CDE9C1
:1018C0000E00204629460D96FFF79EF803200F9044
:1018D00040462946CDE90C960E97FFF795F8AA20C9
:1018E000CDE90C07404629460E97FFF78DF840F2E8
:1018F000401AC2F2000A08F51055504640F8285F19
:1019000047214FF6FF720F97CDE90D77CDE90677A6
:10191000C0E90117C0E90327C0E90577FFF75AFDC1
:1019200020B1EFF3108072B6FEE700BF4FF4805095
:101930000AF128070C900CA93846FFF70FFE28B1D2
:10194000EFF3108072B600BFFEE700BF06A938466D
:10195000FFF702FD20B1EFF3108072B6FEE700BF83
:10196000A8F52440122100244FF480328AE81300A5
:101970005046CAE90342CAE90544AAF81C40FEF7EA
:1019800017FF28B1EFF3108072B600BFFEE700BF6B
:101990000A20CDE910400D20012615900CA95046D3
:1019A0001496CDE90C44CDE90E44CDE91246FEF77C
:1019B000BDFC40F278090220C2F20009029009F150
:1019C000480039462A46434600960590CDF80480E3
:1019D000FFF794FE40F2E0060420C2F200064FF04A
:1019E000080BCDE90008304639462A464346CDF873
:1019F00008B0FFF783FE202010210091029006F12D
:101A0000200039462A4643460490CDF80480FFF76B
:101A100075FE402039468027CDE9000806F14000D8
:101A20002A46434603900297FFF768FE5046FEF7AA
:101A3000AFFF50460221FEF70FFC40F28128C9E9B2
:101A40000644C9E9084B89F8284000BF05980521DC
:101A500000F06CF800F000F9074640F2E000C2F236
:101A60000000052100F062F800F0F6F809F1040624
:101A7000544682463846314606220723FFF766FE63
:101A80005046314604220523A246FFF75FFE99F82F
:101A900004004F468DF83000B9F805004C21ADF830
:101AA0003100D9F8080047F8148F0DF1300B89F890
:101AB00007108DF833100D90204639465A464B4694
:101AC000FEF7E2FB0498052100F030F800F0C4F8BE
:101AD00005460398052100F029F800F0BDF80446FA
:101AE0002846314606220723FFF730FE20463146BE
:101AF00004220523FFF72AFE99F8040052218DF8ED
:101B00003000B9F8050089F80710ADF83100D9F8B0
:101B100008008DF833100D90504639465A464B4612
:101B2000C7F80080FEF7B0FB90E700002DE9F04118
:101B30000D460446FFF786F840F20008D4E901128A
:101B4000C2F200080023D8F804704B62A18906464F
:101B500010460022FFF770F8606800BF416A012953
:101B600008D8416A012905D8416A012902D8416A89
:101B70000229F3D3A068A18901223544FFF75CF85C
:101B8000606800BF416A152908D8416A152905D83F
:101B9000416A152902D8416A1629F3D3781EB0FA92
:101BA00080F2A068A18956090022FFF745F800BF1E
:101BB0002069A18AFFF732F8B04205D0FFF742F85A
:101BC000A842F5D9002700E00127606800214162A2
:101BD0002069A18AFFF722F8B04207D1FFF732F857
:101BE000A842F5D96068416A406A1BE0606848F61F
:101BF000B701426A87F001038A424FF0000288BFB2
:101C00000122406A1A434FF0000203D1E08222779A
:101C100011E000BF884288BF012253EA020001D1CF
:101C2000E08A08E00121217748F6AA01CFF6FF718A
:101C300048F6AA00E18280B200F02AF8D8F8001035
:101C400002460846114600F037F84FF07C5100F08C
:101C500033F8A061BDE8F08141000B0ED3F19E0284
:101C600008D950F400034FEA032323FA02F048BFD7
:101C70004042704710B500F0A0F800BF49922480A0
:101C8000002070476FF0004282EA20007047000099
:101C9000B0FA80F310FA03F2C3F19D030AD0D9051C
:101CA00001EB1220530638BF704700F1010008BF56
:101CB00020F00100704700004FF47F0C1CEAD012A6
:101CC0001EBF1CEAD11392EA0C0F93EA0C0F00F02E
:101CD000478090EA010F48BF42F480724FF0004CF9
:101CE0004CEA00204CEA012102EB0302A0FB0113A5
:101CF000A2F50002002918BF43F001035B0028BFD2
:101D00004FEA330342EB22425FEA132C4CEBC25002
:101D10002EBFBCEB436FB2F57C0F70474FEA036CEC
:101D2000BCF1004F08BF20F00100B2F57C0F38BFB6
:101D300070470BD582F0FF0212F5803FC8BF704795
:101D400000F1C040D8BF00F00040704700F5000C23
:101D50005FEA4C0C48BF7047B0F1C04000F073B868
:101D60000CEAD11390EA010F48BF42F48072624539
:101D700038BF634504D280EA010000F0004070479C
:101D800010B500F01AF800BF8900013E00F007B856
:101D900000F009B85FEA410C5FEA1C6C08D080EAE9
:101DA000010000F050B85FEA400C5FEA1C6CF6D10D
:101DB0004FF00040A0F5800070470EF1020E2EF0AB
:101DC000030E5EF8044B244204D44FEA4102B2F100
:101DD0007F4F11D84FEA4003B3F17F4F0CD80ED19B
:101DE0004FEAD07C0CEB4C0C0CF1020CB2F17F4FA3
:101DF00008BF4CEBD17C04E04FF0080C01E04FEA47
:101E0000D17C0CEB4C0324FA03F404F00704B4F186
:101E1000040C06D20EEB840CBDE810404CF0010C13
:101E20006047DFE80CF0070802024FF00040A0F521
:101E3000800010BD0846420018BFD2F1807288BFF2
:101E400000F0004010BDFF2141EAD050C0057047AE
:101E5000000000000000000001020304060708095A
:101E6000010202030405060708090A0B0C0D0E0FF8
:101E700010100000981E000800000020180000004C
:101E800028010008B01E000818000020A00700006C
:101E90004401000800000000B29DAF3E01000000B8
:101EA00001000000100000000024F4000000000009
:04000005080000ED02
:00000001FF
