:020000040800F2
:1000000010080020A9010008B12E0008A92E000840
:10001000AD2E0008950B0008F52F00080000000029
:10002000000000000000000000000000B92E0008E1
:10003000A50B000800000000B52E0008BD2E00082A
:10004000C3010008C3010008C3010008C301000880
:10005000C3010008C3010008C3010008C301000870
:10006000C3010008C3010008C3010008C301000860
:10007000C3010008C3010008C3010008C301000850
:10008000C3010008C3010008C3010008C301000840
:10009000E92F0008990B0008C3010008C3010008FC
:1000A000C3010008C3010008C3010008C301000820
:1000B000C3010008C52E0008C3010008C3010008E1
:1000C000C3010008C3010008C3010008C301000800
:1000D000C3010008C3010008C3010008DD2F0008A8
:1000E000C3010008C3010008C301000800F002F8C2
:1000F00000F04AF80AA090E8000C82448344AAF178
:100100000107DA4501D100F03FF8AFF2090EBAE875
:100110000F0013F0010F18BFFB1A43F0010318473B
:10012000E040000000410000103A24BF78C878C1C8
:10013000FAD8520724BF30C830C144BF04680C60ED
:10014000704700000023002400250026103A28BF35
:1001500078C1FBD8520728BF30C148BF0B60704739
:10016000662903F0EA87642900F052800020704776
:100170001FB500F099FB04000020002103F050FFA0
:10018000E0601FBD10B510BD00F08EFC1146FFF7FA
:10019000EFFF03F053F800F0ACFC03B4FFF7F2FFFD
:1001A00003BC00F0EFFC0000094880470948004705
:1001B000FEE7FEE7FEE7FEE7FEE7FEE7FEE7FEE717
:1001C000FEE7FEE704480549054A064B7047000074
:1001D000C12E0008ED0000081002002010080020C9
:1001E00010040020100400200FB41CB5074B06AA11
:1001F0007B4469460090059800F03DFB002069466D
:1002000000F04CFB1CBC5DF814FB0000A9060000CC
:100210002DE9F0410646002410687529314616A5DF
:1002200010D0AFF30080002802DA404213A507E0A7
:1002300031688A0701D512A502E0490704D511A546
:10024000012401E0AFF3008000210A2206F1240717
:1002500009E0B0FBF2FCB0FBF2F302FB1C00303013
:1002600078541846491C0028F3D123462A463046C4
:10027000BDE8F04100F092B8000000002D00000041
:100280002B000000200000002DE9F0474FF0000A8D
:1002900089460446C0F820A02046E1688847002827
:1002A00076D0252806D0D4E901219047206A401C49
:1002B0002062F1E7E168204600258847C4F81CA0C9
:1002C00006460027C4F818A02A2E09D0304603F0AD
:1002D0009FFE38B304EB8708303EC8F8186019E079
:1002E00059F8041B204604EB87029161E1688847B6
:1002F000012F064618D1E069002820DA25F02005F4
:100300001DE0D8F8180000EB800006EB4000303804
:10031000C8F818002046E1688847064603F078FED2
:100320000028EED1012F0AD02E2E08D12046E168F8
:1003300088477F1C0646022F45F02005C4DBA069D4
:10034000002803DA404245F00105A061E80701D02A
:1003500025F01005B6B1A6F14100192802D82036C3
:1003600045F400654A463146204625604D46FFF774
:10037000F7FE58B1012806D0ED1D25F0070000F169
:10038000080989E704E005F1040985E730468AE7B2
:10039000206ABDE8F0877047704770472DE9F04745
:1003A0000D4699469246044600F1240801688806E5
:1003B00004D5E06921F01001216000E00120A8428D
:1003C00001DD471B00E00027A1697A1902EB090053
:1003D000081AA0612078C00602D42046AFF300803E
:1003E000002608E0D4E901211AF806009047206AA7
:1003F000401C761C20624E45F4DB2078C0060AD5EE
:100400002046AFF3008006E0D4E901213020904778
:10041000206A401C2062381EA7F10107F4DC07E0C7
:10042000D4E9012118F805009047206A401C206299
:10043000281EA5F10105F3DC2046AFF300802078EB
:10044000000602D50220BDE8F0870120FBE72DE978
:10045000FF4F0C461E464FF0FF378BB0D2E900012C
:10046000DDF860800A908A46C1F30A5505B93D4619
:10047000002108464FF00000BAF1000F00F44000E0
:1004800005DA00EB80004FF4400101EA50004FEA2A
:100490009059B9F1010F00DDB9460A9850EA4A00B7
:1004A0000ED044F61050A5F2FF3545432F14B8F195
:1004B000000F1ED07542291E1EDDC9F100021CE08E
:1004C000B8F1010F4FF0000001D0302103E0F243FA
:1004D00005E02154401CB042FBDB304600220021E5
:1004E00021540B99C1F80880C1E900200FB0BDE884
:1004F000F08FBD1B6D1CDEE74A4600DA694206A894
:1005000000F05CFA06AB93E8070003AB83E8070052
:1005100050460A9903F0A0F98DE80700A0F50050B5
:100520001F3800900398002D0ADD42F21F014A4651
:100530000844002303A90390684603F009FC09E07E
:10054000A0F500504A461F38002303A903906846CF
:1005500003F013FC8DE807000004000C03D04FF0FB
:10056000FF30410800E01046B8F1000F03D0002230
:10057000009215461EE0751E05D400F099F9303240
:1005800062556D1EF9D5B3460122084302D0002200
:100590007F1C04E02078302801D100227F1E002A31
:1005A000099784D01DE0112D07DA00F081F930326F
:1005B00062556D1C50EA0102F5D1084302D0009843
:1005C000C8B10EE00021681E05E0235C625C635444
:1005D0002254401E491C8142F7DBAB46A81B401E3B
:1005E0000990002004F80B000B98099AC0F80880C5
:1005F000C0E9002B7AE711264FF0000857E72DE9F4
:10060000F04F88460446D21D22F0070191B0D1E98F
:100610000001CDE90A0103F0E7FC02460B98C00F88
:1006200001D02D2007E02068810701D52B2002E0B2
:10063000202101EAC000032A099001D0072A05DB26
:1006400003464146204600F079F90BE12078800608
:1006500001D5E06900E00620B8F1650F814606D0BB
:10066000B8F1660F18D0B8F1670F70D131E00020F3
:10067000B9F1110F009001DB112301E009F1010331
:100680000AAA01A90CA8FFF7E2FEDDE90C7000261A
:1006900009F10105834647E001204B4600904FF0E9
:1006A00000470AAA01A90CA8FFF7D1FEDDE90DB0A9
:1006B0000C995D46002610B909F101000D18B9EB3F
:1006C000050003D4C0F1FF3609F10105A5EB0900CF
:1006D0002BE0B9F1010F01DA4FF001090020B9F167
:1006E000110F0090484601DD112300E003460AAADD
:1006F00001A90CA8FFF7ABFEDDE90C704D46002602
:100700008346207800070AD4AB4500DA5D4601A88D
:10071000012D04DD411911F8011C302907D04F4586
:1007200002DA17F1040F04DA012082460FE06D1E91
:10073000EEE7002F02DCED1B3E4403E0781CA842EC
:1007400000DD7D1CB81B00F1010A4FF00047207846
:10075000000703D4AA4501DB4FF0FF3A0021B7F1AF
:10076000004F0DF143088DF8431024D002202B23B5
:10077000002F01DA7F422D230A21021EA0F1010081
:1007800000DC5FB197FBF1FC97FBF1F201FB1C7CF5
:1007900017460CF1300C08F801CDEEE7A8F1010086
:1007A00003702188090501D5452100E06521A0F1EC
:1007B000010800F8011C09980FA9A1EB0807FF1D0B
:1007C00000B10120411901EBEA70A1693844081A0F
:1007D000401EA0612078C00602D42046AFF30080FE
:1007E000099828B1D4E901219047206A401C206271
:1007F0002078C00622D52046AFF300801EE0002EF0
:1008000004DBB34502DD01A8805D00E03020D4E9BF
:1008100001219047206A401C2062761CAAF1010049
:100820005FEA000A0AD100F03FF8C0680168405C46
:10083000D4E901219047206A401C2062281EA5F1BE
:100840000105DCDC07E0D4E9012118F8010B904731
:10085000206A401C2062381EA7F10107F3DC204605
:10086000AFF30080032011B041E6000001694A1C8B
:1008700002610878704700B58FB0CDE901310021E1
:10088000059105497944CDE9031011466846FFF703
:10089000FBFC0FB000BD0000E5FFFFFF0A6802F897
:1008A000010B0A60704700000048704750000020AC
:1008B00030B5B0F10A0271F100034FEA900E4EEA32
:1008C000817EB0EB0E0061EB91014FEA101E4EEA03
:1008D000017E10EB0E0041EB11114FEA102E4EEA93
:1008E000016E10EB0E0041EB11214FEA104E4EEA63
:1008F000014E10EB0E0041EB1141401841F1000197
:100900004FEAD00040EA41704FEAD1014FEA81043A
:1009100044EA907410EB800544EB01046D1944EB3C
:100920000404521BA3414FF0000348BF0A3200D514
:1009300030BD401C41F1000130BD00002DE9F04107
:100940001F46044603260168072A01F4006004DB01
:1009500008B116A505E016A503E008B115A500E04D
:1009600015A521F010002060A069C01EA0610FB184
:10097000401EA0612046AFF300804FB1D4E90121B1
:1009800038469047206A401C2062C01C206206E066
:10099000206AFAE7D4E9012115F8010B9047761E89
:1009A000F8D22046AFF30080BDE8F0814E414E0002
:1009B0006E616E00494E4600696E66002DE9F04793
:1009C000814616468AB0354878440DC88DE80D003A
:1009D00032487844801C03AC0DC884E80D0041F611
:1009E0009B300844372190FBF1F290FBF1F5A5F123
:1009F000800501FB12041B3C02D56442012000E08B
:100A00000020DFF898A080460027FA44AAF1BE0A29
:100A10000EE0E0070AD03246684607EB47010123A3
:100A20000AEB810103F0A9F98DE8070064107F1C2F
:100A3000002CEED1194F7F44AE3F19E0E80715D0E6
:100A400007EB04100DF1180A90E80E008AE80E007A
:100A5000C068F04201D1981908903246012306A9D6
:100A600003A803F08AF903AB83E807006D10641C48
:100A7000002DE3D14FF0010332466946B8F1000F73
:100A800003A802D003F064F901E003F076F9C9E9A4
:100A90000001C9F808200AB0BDE8F087F03700006F
:100AA00000487047300000207546FFF7F9FFAE465A
:100AB00005006946534620F00700854618B020B56A
:100AC000FFF780FBBDE820404FF000064FF0000725
:100AD0004FF000084FF0000BAC46ACE8C009ACE8A2
:100AE000C009ACE8C009ACE8C00921F007018D4697
:100AF000704710B50446AFF300802046BDE81040B3
:100B0000FFF74BBB4FF0013C50F8042B51F8043B6E
:100B10009A4221D1A2EB0C03934313EACC1317D1D1
:100B200050F8042B51F8043B9A4215D1A2EB0C0368
:100B3000934313EACC130BD150F8042B51F8043B28
:100B40009A4209D1A2EB0C03934313EACC13DBD0F6
:100B50004FF00000704700BFD01A01BAB1FA81F11E
:100B600001F0180122FA01F0CB40DBB2C0B2C01A8A
:100B7000C1F120012CFA01F3D11A914311EAC311FA
:100B8000E6D1704701491820ABBEFEE726000200FF
:100B900070470000FEE7000040F25010C2F2000073
:100BA00000F07EB97047000090F82020013A012A39
:100BB00008D8006800F1140200201368194311607E
:100BC000704700BF00F1240201204FF48021136818
:100BD000194311607047000010B590F820E0D0F87C
:100BE00000C0AEF1010EBEF1010FDCF808E00FD835
:100BF0001EF0E05F16D0CEF3016E012000FA0EF079
:100C000018608B68C3B1486843EAC00316E000BFB0
:100C100000F1240101204FF480220B681A430A607E
:100C200010BD00BF00F1240101204FF400120B6839
:100C30001A430A6010BD00BF08684305D1E90304E8
:100C400003430CEB0E10C0F88031C0F88441097DDD
:100C5000012905D100F5C2710B6843F480730B6064
:100C60005168C0F88C11126800F5C071C0F8882175
:100C7000002001220B681A430A6010BDB0B502685B
:100C800090F82030013B012B28D8D2F80002012334
:100C900040F00100C2F80002D1F814E0CC690EF077
:100CA0001F0003FA00F0D2F81C326FEA000C8343F5
:100CB000012CC2F81C3217D06CBBD2F80C3203EAFC
:100CC0000C03C2F80C32CB688C8844EA034302EB75
:100CD000CE04C4F840320B4615E000BF416A41F42F
:100CE000802141620120B0BDD2F80C320343C2F82A
:100CF0000C320B688C8844EA034302EBCE04C4F840
:100D0000403201F10C038C681B8843EA044302EB78
:100D1000CE04C4F84432D2F804328D6943EA0004A8
:100D2000D1F810E0096A002D08BF03EA0C04C2F8EC
:100D30000442D2F81432BEF1000F43EA000408BFA7
:100D400003EA0C040129C2F8144204D1D2F81C129F
:100D50000843C2F81C02D2F8000220F00100C2F8D9
:100D600000020020B0BD00007047000010B590F8F0
:100D70002040013C012C7BD8D0F800C0002900F0B5
:100D80008180DCF81040A40700F081800CEB011C8E
:100D9000DCF8B0410CF5D87E14F004049460DCF863
:100DA000B04119BFE4085460640D1460DEF80040DF
:100DB0000CF5DA7E04F00204D460DCF8B4412407B8
:100DC0005ABFDEF8004004F00F0408241461DEF876
:100DD00000400029C4F307249461DEF800404FEA84
:100DE00014445461DCF8B8211A70026802EB011255
:100DF000D2F8B8214FEA12225A70026802EB0112AF
:100E0000D2F8B8214FEA12429A70026802EB01123E
:100E1000D2F8B8214FEA1262DA70026802EB0112CE
:100E2000D2F8BC211A71026802EB0112D2F8BC217F
:100E30004FEA12225A71026802EB0112D2F8BC2169
:100E40004FEA12429A71026802EB0112D2F8BC21F9
:100E50004FEA1262DA71006814BF00F1100100F16C
:100E60000C01002020220B681A430A6010BD00BF4D
:100E700000F1240101204FF480220B681A430A601C
:100E800010BD00BFDCF80C40A4077FF47FAF00F179
:100E9000240101204FF400120B681A430A6010BDB0
:100EA0002DE9F04F81B0044600684669D0F80490FF
:100EB0008768D0F80CB0D0F810A0D0F81880F107EF
:100EC00004D1002530071DD424E000BFF90710D05D
:100ED0000121BA07816009D4780700F1AF80380793
:100EE00000F1B680204600F077FA02E0204600F0DC
:100EF00075FA0025F80500F18780F80300F1B1804C
:100F0000300707D51BF0100004D0206845F40075A9
:100F10001021C160700708D51BF0080005D02068BB
:100F20000821C160204600F0B3F9B00706D520685B
:100F3000C068800702D0204600F0ACF9700607D5E3
:100F40001AF0100004D0206845F48065102101617A
:100F5000B00608D51AF0080005D020680821016104
:100F6000204600F005FAF00606D5206800698007E3
:100F700002D0204600F0FEF9B00308D519F01000A9
:100F800005D0206810214160204600F0F5F9F003FB
:100F900008D519F0080005D02068082141602046D6
:100FA00000F026FA300440F19B805FEA497040F17E
:100FB000948006F4807008EA102028435FEA887164
:100FC000014648BF41F00201B20558BF01465FEA41
:100FD00048700D4648BF45F00405700558BF0D46E2
:100FE000300540F17A8018F0700000F076801038FB
:100FF000000905286CD8DFE800F003595D616569D8
:1010000045F0080564E000BF20684FF48071BA0520
:1010100081600BD4780515D438051DD4204600F026
:10102000DFF9F8037FF56CAF1BE000BF204600F04E
:10103000D9F9F8037FF564AF13E000BF4FF4006502
:1010400058E700BF05F50055F8037FF559AF08E0F4
:101050004FF480554EE700BF05F58045F8037FF556
:101060004FAF20684FF48031BA0381600AD478030F
:1010700010D4380314D4204600F0B6F930073FF5F9
:1010800041AF47E7204600F0B1F930073FF53AAFEE
:1010900040E700BF05F5004530073FF533AF39E7BE
:1010A00005F5803530073FF52DAF33E745F01005E6
:1010B0000EE000BF45F020050AE000BF45F0400506
:1010C00006E000BF45F0800502E000BF45F48075F2
:1010D0002068816921F070018161206804214160EC
:1010E00055B1606A40EA05012046616201B0BDE881
:1010F000F04FFFF739BE00BF01B0BDE8F08F000030
:10110000B0B5C8B1044690F8200010B9204600F0F0
:1011100071F82068016841F00101016000F000FBF6
:10112000054600BF20684168C90707D100F0F8FAFA
:10113000401B0B28F6D312E00120B0BD016821F05E
:101140000201016000F0ECFA054600BF206841682A
:1011500089070DD500F0E4FA401B0B28F6D3606A2E
:10116000052140F400306062012084F82010B0BDF9
:10117000217E0268012922F0800208BF80320260CD
:10118000617E0268012922F0400208BF40320260FD
:10119000A17E0268012922F0200208BF20320260ED
:1011A000E17E0268012922F0100218BF10320260AD
:1011B000217F0268012922F0080208BF083202607C
:1011C000617F0268012922F0040208BF0432026034
:1011D000D4E901C2D4E9033561691A432A431143B2
:1011E000ACF101021143C16100200121606284F869
:1011F0002010B0BDB0B586B040F60004C4F20104C2
:101200000068A4F5244200219042059102D006B066
:10121000B0BD00BF41F21800C4F20200426802AD46
:1012200042F000724260426802F000720192019A3C
:10123000026842F004020260006800F004000190BD
:1012400001984FF40060CDE902010491204629463F
:1012500000F04EF94FF480500290022003900320DA
:1012600005902046294600F043F91420022100226F
:1012700000F0D4FA142000F0C1FA15200221002257
:1012800000F0CCFA152000F0B9FA06B0B0BD0000AD
:101290007047000070B540F2900540F20416C2F2AB
:1012A0000005C2F2000605F1140406F13002002127
:1012B0002346FFF75BFDA8B9306B40F281218842DD
:1012C00010D1E87D40F20005C2F20005297B88427A
:1012D0000AD1204604210722042401F08DFE286152
:1012E0003DE000BF70BD00BF297D884208D1204687
:1012F0000421072201F080FEA86102242FE000BF34
:10130000297F884208D120460421072201F074FE7B
:101310002862012423E000BF297888420ED12046AC
:101320000621072201F0CEFE688020460421052216
:1013300001F0C8FEA880082411E000BFA979884206
:1013400018BF70BD20460621072201F0BBFE288190
:1013500020460421052201F0B5FE0824688140F6EC
:101360000000C4F201002146BDE8704000F0CAB997
:10137000704700007047000070470000B0B5044699
:1013800090F8200001281DD1022084F82000206858
:10139000016821F00101016000F0C2F9054600BFBB
:1013A00020684068C00713D000F0BAF9401B0B2832
:1013B000F6D3606A40F400306062052084F82000B3
:1013C0000120B0BD606A40F4002060620120B0BD21
:1013D00000206062B0BD0000704700007047000050
:1013E0007047000070470000704700007047000021
:1013F00070470000014690F82100022816D10868C5
:10140000D1E90FC3026822F00E020260026822F0E6
:1014100001020260012000FA03F2CCF8042081F8F6
:1014200021000020002281F82020704704208863DA
:101430000120002281F820207047000080B590F83C
:101440002110022924D10268116821F00E011160D7
:101450002F211368C4F202018A4240F20401C4F24F
:10146000020123F00103136016DD3023C4F20203EE
:101470009A421DD04423C4F202039A421CD058233E
:10148000C4F202039A421DD14FF4803322E000BF20
:1014900004218163012080BD0823C4F202039A4223
:1014A0000ED01C23C4F202039A420BD1102311E088
:1014B0004FF480730EE000BF4FF480530AE000BF8A
:1014C000012307E001F1680C4FF08073624508BF0B
:1014D0004FF480130B60012180F82110426B002132
:1014E00080F820100AB190470021084680BD000016
:1014F0002DE9F04F82B041F20042C4F201020E68C1
:101500000423904208BF0323002E009300F0F680CE
:1015100040F2004C4FF6FF7E0022C4F2010C012481
:10152000C1F2100E4FF0000A4FF0000947E000BF73
:10153000012502F00C040F27A7402BEA070705FA44
:1015400004F43C4343F82640D1F804B040F20C4583
:101550005FEACB23DCF8083054BF23EA080343EAF0
:101560000803C4F20105CCF808302B685FEA8B242D
:1015700054BF23EA080343EA08032B605FEA8B3475
:10158000DCF8043054BF23EA080343EA08035FEAA7
:10159000CB34CCF80430DCF800304FF0010454BFF9
:1015A00023EA080343EA0803CCF800300E680AF186
:1015B000010A36FA0AF302F1040200F09F8004FAED
:1015C0000AF816EA080FF1D04B68734512DC122BAB
:1015D00056D8DFE803F0350B454955555555555557
:1015E000555555555555554D510000BFD1F80C90E6
:1015F00046E000BF4FF6FF75C1F22105AB420FDC9C
:101600000025C1F21105AB421AD00025C1F2120526
:10161000AB4215D00025C1F22105AB4210D02FE01E
:101620000025C1F22205AB420AD00025C1F23105E6
:10163000AB4205D00025C1F23205AB4220D100BF3C
:101640008B684BB1012B14BFC0F81480C0F8108018
:101650004FF0080914E000BF4FF0040910E000BF8C
:10166000CB6803F108090BE04FF0000908E000BF68
:10167000CB6803F1040903E0CB6803F10C0900BF58
:1016800013460546BAF1080F24BF203B04352E68E7
:101690000F279F40BE4309FA03F333432B60CB79F6
:1016A000DB067FF583AF41F21804C4F2020423681D
:1016B0004FEA9A0643F001032360236840F60004D2
:1016C00003F001030193019BACF57E7353F826B040
:1016D000C4F20104A0420FD040F60044C4F2010459
:1016E000A0423FF425AF41F20004C4F20104009D82
:1016F000A04208BF02251CE700251AE702B0BDE89A
:10170000F08F0000C26802EA0103914341EA0341FD
:1017100001617047002A08BF090401617047000099
:1017200040F20820C2F200000068704740F2240036
:1017300040F20821C2F20000C2F2000100780A68FB
:10174000104408607047000080B542F20000C4F207
:101750000200016841F010010160032000F08AF8E6
:101760000F2000F005F800F027F8002080BD0000F1
:1017700070B540F22406C2F2000640F22C01327825
:10178000C2F200014FF47A730968B3FBF2F2044627
:10179000B1FBF2F1084600F05FFB0F2C4FF00105A2
:1017A00008D838B94FF0FF3021460022002500F05C
:1017B00035F87460284670BD82B041F21800C4F25A
:1017C00002000168022241F001010160016801F09C
:1017D000010101910199416841F0805141604068E7
:1017E00000F08050009000980420C4F201000168CD
:1017F00062F31A61016002B070470000002848BF20
:10180000704700F01F01012202FA01F14EF20012AE
:101810004009CEF2000242F82010704710B54EF693
:101820000C5CCEF2000CDCF80030C3F3022E8EF01C
:101830000704042C28BF0424BEF103034FF0FF3E2D
:101840000EFA04F438BF0023A14399400EFA03F3C3
:101850009A43114300F00F02043A624409010C322A
:1018600000F16043B0F1FF3FC8BF03F5644211705F
:1018700010BD00004EF60C51CEF200010A684FF682
:10188000FF031A4060F30A2242F0806040F0FD70CE
:10189000086070472DE9F04381B0002800F0858092
:1018A00042F20008C4F202080446D8F800000D46CF
:1018B00000F0070088420CD2D8F8000020F00700A2
:1018C0002843C8F80000D8F8000000F00700A8423C
:1018D0006BD1206841F204098107C4F2020917D5CF
:1018E000410705D5D9F8001041F4E061C9F80010AE
:1018F000010705D5D9F8001041F46051C9F800106E
:10190000D9F80010A26821F0F0011143C9F80010C5
:10191000C00741D1D8F8000000F00700A8420CD958
:10192000D8F8000020F007002843C8F80000D8F8D5
:10193000000000F00700A84237D12068410707D512
:10194000D9F80010E26821F4E0611143C9F80010F1
:10195000000708D5D9F80000216920F4605040EA5A
:10196000C100C9F80000D9F8002002F00C000828D6
:1019700041F20020C0F27A0050D144F2EE13C2F3DB
:101980008341C0F60003595CD2033BD440F60010FB
:10199000C0F23D00484341E0606802280AD00128B7
:1019A0002AD159F8041C890308D4012001B0BDE8EC
:1019B000F08300BF59F8041C8901F6D5D9F800104E
:1019C00021F003010843C9F80000FFF7A9FE06460D
:1019D00041F28837D9F80000616800F00C00B0EBE4
:1019E000810F97D0FFF79CFE801BB842F2D90320ED
:1019F00001B0BDE8F08300BF59F8041C8907D4D5B5
:101A0000DCE700BFD9F8002044F2EC13C2F34042F7
:101A1000C0F600039A5C4843B0FBF2F0D9F800101E
:101A200044F2D412C1F30311C0F60002515C40F23B
:101A30002C0220FA01F140F22800C2F200000068F6
:101A4000C2F200021160FFF793FE002001B0BDE872
:101A5000F083000040F22C0041F20401C2F20000C9
:101A6000C4F202010068096844F2E412C1F30221E1
:101A7000C0F60002515CC8407047000040F22C00E4
:101A800041F20401C2F20000C4F2020100680968D8
:101A900044F2E412C1F3C221C0F60002515CC84016
:101AA000704700002DE9F04182B0002868D004465C
:101AB000007841F20006C007C4F2020625D0706823
:101AC00000F00C0004281BD0706800F00C000828FF
:101AD00002D17068C00313D46068002800F06881E8
:101AE000B0F5A02F00F07C81B0F5803F00F07C8144
:101AF000306820F480303060306820F4802076E157
:101B00003068800301D56068D0B32078800718D58D
:101B1000706810F00C0F07D0706800F00C000828F7
:101B20006ED17068C0036BD43068800702D520691D
:101B3000012825D13068616920F0F80040EAC10031
:101B40003060207800071FD42078400732D4E56940
:101B500095B1706800F00C00082840F08F80012DCE
:101B60000ED07068216A00F480328A4208D1616A1E
:101B700000F47010884203D1002002B0BDE8F0816B
:101B8000012002B0BDE8F081A069002862D00020E9
:101B9000C4F242200121C0F88014FFF7C1FD0546C0
:101BA000706A800700F18C80FFF7BAFD401B0228A5
:101BB000F6D92AE1F06910F0805808D1F06940F0B8
:101BC0008050F061F06900F080500090009847F27A
:101BD0000007C4F200073868C00529D4386840F40B
:101BE00080703860FFF79CFD054600BF3868C0056F
:101BF0001ED4FFF795FD401B6428F7D905E100BF0F
:101C00002069002840F20000C4F2422000F08280E7
:101C100001210160FFF784FD054600BF30688007A1
:101C20003FF588AFFFF77CFD401B0228F6D9ECE0BA
:101C3000E068002800F08080052800F097800128E7
:101C400000F09880306A20F001003062306A20F0A5
:101C5000040092E00020C4F242200021C0F8801469
:101C6000FFF75EFD054600BF706A80077FF56CAF29
:101C7000FFF756FD401B0228F6D9C6E00027C4F244
:101C8000422700203866FFF74BFD022D05460BD199
:101C90003068800140F1BE80FFF742FD401B022802
:101CA0004FF00300F4D968E7306880017FF564AF36
:101CB000FFF736FD401B02284FF00300F4D95CE724
:101CC00040F22C00C2F20000006844F6D351C1F289
:101CD0006201A0FB0101480A019000BF00BF01980A
:101CE000411E002801913FF42FAF00BF0198411E13
:101CF000002801913FF428AF00BF0198411E002841
:101D000001913FF421AF00BF0198411E00280191CD
:101D1000E4D119E700210160FFF702FD054600BF8D
:101D2000306880077FF50DAFFFF7FAFC401B0228F3
:101D30004FF00300F4D920E7306A20F00100306250
:101D4000306A20F004003062FFF7EAFC054641F2F9
:101D5000883700BF306A800720D5FFF7E1FC401BC1
:101D6000B8424FF00300F5D907E700BF306A40F0F2
:101D700004003062306A40F001003062FFF7D0FCAE
:101D8000054641F2883700BF306A800706D4FFF766
:101D9000C7FC401BB842F7D937E000BFB8F1000FCD
:101DA0007FF4D5AEF06920F08050F061CFE600BF3F
:101DB000306820F480303060306820F4802030605B
:101DC000FFF7AEFC054600BF306880037FF59DAE8F
:101DD000FFF7A6FC401B64284FF00300F4D9CCE6C3
:101DE000306840F480203060306840F480303060EB
:101DF000FFF796FC054600BF306880033FF585AECF
:101E0000FFF78EFC401B6428F6D9032002B0BDE822
:101E1000F08100BF206AB0F5803F05D17168A268EB
:101E200021F40031114371607168626A21F4741108
:101E300010430843706001203866FFF771FC0446C8
:101E4000306880013FF598AEFFF76AFC001B02285E
:101E50004FF00300F4D990E6411E0020B0EB116F63
:101E60001CBF012070474EF21002CEF200025160FA
:101E70004EF62351CEF20001F0230B700721906043
:101E800011607047704700007047000010B590F86F
:101E90003C20012A4FF0020233D080F83D20026836
:101EA000D2F804E0D2F808C00C682EF07003234387
:101EB00040F2FF74C4F20004A24253600ADCB2F1A3
:101EC000804F13D040F20043C4F200039A420DD079
:101ED00011E000BF42F60043C4F201039A4205D06C
:101EE00040F60003C4F200039A4204D149682CF082
:101EF0008003194391600121002280F83D1080F891
:101F00003C20104610BD0000002804BF012070478F
:101F100010B5044690F83D0028B9002084F83C0034
:101F2000204600F067F8022084F83D00206840F267
:101F3000FF730268C4F2000342F6004C9842C4F2F8
:101F4000010C15DCB0F1804F1AD040F20041C4F210
:101F50000001884214D0984218DCB0F1804F1DD0A7
:101F600040F20041C4F20001884217D01AE000BFDD
:101F7000604505D040F60001C4F200018842EAD174
:101F8000A16822F070020A439842E6DD604505D060
:101F900040F60001C4F20001884203D1216922F415
:101FA00040720A43A36922F08001D4F804E0E26899
:101FB000194360450160C262C0F828E002D161693E
:101FC000CCF8301001214161002084F8461084F8DB
:101FD0003E1084F83F1084F8401084F8411084F8D3
:101FE000421084F8431084F8441084F8451084F8B3
:101FF0003D1010BD80B582B0006840F20041C4F2CF
:10200000000188421CBF02B080BD41F21C00C4F236
:1020100002000168002241F0020101600068012114
:1020200000F00200019001981D20FFF7F7FB1D2032
:1020300002B0BDE88040FFF7E1BB000090F83D1022
:1020400001291CBF01207047022180F83D10006863
:1020500040F2FF72C168C4F20002904241F00101F7
:10206000C16009DCB0F1804F12D040F20041C4F2EF
:10207000000188420CD012E042F60041C4F2010196
:10208000884205D040F60001C4F20001884206D122
:10209000816801F00701062904BF0020704701682C
:1020A00041F00101016000207047000080B590F808
:1020B0003C20012A4FF0020200F0C28080F83D204F
:1020C000D0F800C04FF67772DCF8083023EA02023D
:1020D000CCF808200B684F2B28DC1F2B44DD202B6D
:1020E00045D0302B43D0402B40F0AC80D1F804E0F9
:1020F000C968DCF82030DCF8202022F00102CCF89E
:102100002020DCF8182022F0F00242EA011123F02E
:102110000A0242EA0E02CCF81810CCF82020DCF8B3
:10212000081041F0470121F0300180E06F2B27DDDE
:10213000B3F5005F48D0B3F5805F7AD0702B40F0E4
:102140008180D1E901E3C968DCF8082043EA0E0385
:1021500022F47F4243EA01211143CCF80810DCF855
:10216000081041F0770162E00BB1102B6AD1DCF866
:10217000081021F07001194341F0070157E000BF3A
:10218000502B35D0602B5DD1D1F804E0C968DCF864
:102190002030DCF8202022F01002CCF82020DCF8DF
:1021A000182022F4704242EA013123F0A00242EAF0
:1021B0000E12CCF81810CCF82020DCF8081041F0F2
:1021C000670121F0100132E0D1E901E3C968DCF8D0
:1021D000082043EA0E0322F47F4243EA012111431F
:1021E000CCF80810DCF8081041F480411FE000BF73
:1021F000D1F804E0C968DCF82030DCF8202022F0B7
:102200000102CCF82020DCF8182022F0F00242EA8B
:10221000011123F00A0242EA0E02CCF81810CCF8A1
:102220002020DCF8081041F0570121F02001CCF803
:1022300008100022012180F83D10002180F83C1098
:10224000104680BD0122F5E77047000010B5016817
:1022500004460869800744BFC8685FEA807039D4C3
:102260000869400744BFC8685FEA40703ED4086907
:10227000000744BFC8685FEA007045D40869C0061B
:1022800044BFC8685FEAC0604AD40869C0071CBF81
:10229000C8685FEAC07051D10869000644BFC868C9
:1022A0005FEA006052D40869400644BFC8685FEA2C
:1022B000406053D40869800646BFC8685FEA806002
:1022C00010BD6FF0200220460A61BDE81040FFF704
:1022D000DBBD00BF6FF00200086101202077886934
:1022E000800743D02046FFF7AFFF45E06FF00400C2
:1022F000086102202077886910F4407F40D0204692
:10230000FFF7A2FF42E000BF6FF008000861042061
:102310002077C86980073DD02046FFF795FF3FE052
:102320006FF01000086108202077C86910F4407F22
:102330003AD02046FFF788FF3CE000BF6FF0010075
:102340000861204600F03EF82168A5E76FF08000A4
:1023500008612046FFF796FD2168A4E76FF0400072
:102360000861204600F0A8F82168A3E7204600F0A5
:1023700025F8204600F024F82168002020776FE738
:10238000204600F01BF8204600F01AF821680020D3
:1023900020776CE7204600F011F8204600F010F896
:1023A00021680020207769E7204600F007F82046E2
:1023B00000F006F821680020207766E770470000EB
:1023C00070470000F0B583B0006840F20041C4F2ED
:1023D000000188421CBF03B0F0BD40F20006C2F20B
:1023E0000006306A01F038FE40F29007C2F20007A2
:1023F00007F1350502460B4625A12846FDF7F4FEF8
:1024000040F2C014C2F200042046294614224FF0C4
:10241000FF3300F013FCB06901F01EFE07F149051F
:1024200002460B461CA12846FDF7DEFE2046294643
:1024300014224FF0FF3300F001FC306901F00CFE74
:1024400007F15D0502460B4615A12846FDF7CCFEB7
:102450002046294614224FF0FF3300F0EFFB70892D
:1024600040F204157288B3883789C2F200050090E3
:102470000DA128460197FDF7B7FE204629461522F3
:102480004FF0FF3303B0BDE8F04000F0D7BB00BF12
:102490000A59252E316600000A44252E31660000B7
:1024A0000A56252E316600000A5525642C25642C19
:1024B00025642C2564000000704700007047000070
:1024C00070470000B0B582B0044600680168C36878
:1024D000426901F02F05202D03F0200506D12DB112
:1024E000204602B0BDE8B04000F0F8BC5FEA017CD5
:1024F0001EBF02F0010E03F4907212EB0E0255D1D2
:10250000226B012A05D111F0100218BF13F010023E
:1025100036D10A0622D513F080021FD094F841105C
:10252000212941D1A168B1F5805F03D1216900293A
:1025300000F07282216A4A1C226209784160E18CB3
:1025400001390A04E1842FD1C16821F08001C16002
:10255000C16841F04001C16002B0B0BD490623D559
:1025600013F0400120D0C16821F04001C16020215A
:10257000204684F8411002B0BDE8B04000F092BCA3
:10258000002101910168019141680191019941691E
:10259000490600F18F80A18DE28DE38D002B1CBFD9
:1025A000891A5FEA01420CD102B0B0BDCA0718BF58
:1025B00013F4807240F038814A0700F13B8140E11A
:1025C000206850E8030F226820F4907042E803036B
:1025D000DBB1206850E8030F226820F4907042E8D5
:1025E000030393B1206850E8030F226820F4907031
:1025F00042E803034BB1206850E8030F226820F43F
:10260000907042E80303002BDAD1206850E8050FF0
:10261000226820F0010042E80503DBB1206850E8A1
:10262000050F226820F0010042E8050393B12068FD
:1026300050E8050F226820F0010042E805034BB185
:10264000206850E8050F226820F0010042E80503E9
:10265000002BDAD1202084F842000020206320687B
:1026600050E8030F226820F0100042E80303DBB1BA
:10267000206850E8030F226820F0100042E80303AE
:1026800093B1206850E8030F226820F0100042E860
:1026900003034BB1206850E8030F226820F01000BC
:1026A00042E80303002BDAD1022289B2204662639A
:1026B000B4E000BFE16B0A68526893B2002B3FF4AC
:1026C00073AFA58DAB42BFF46FAFE2858969202956
:1026D00000F09D8050E8030F216820F4807041E8ED
:1026E0000302EAB1206850E8030F216820F48070EB
:1026F00041E80302A2B1206850E8030F216820F4EA
:10270000807041E803025AB1206850E8030F216845
:1027100020F4807041E8030212B12068DAE700BFBC
:10272000206850E8050F216820F0010041E805020B
:10273000DAB1206850E8050F216820F0010041E877
:10274000050292B1206850E8050F216820F00100D1
:1027500041E805024AB1206850E8050F216820F0E1
:10276000010041E80502002ADAD1206850E8050F8F
:10277000216820F0400041E80502DAB1206850E805
:10278000050F216820F0400041E8050292B1206861
:1027900050E8050F216820F0400041E805024AB1E9
:1027A000206850E8050F216820F0400041E805024C
:1027B000002ADAD1202084F842000020206320681B
:1027C00050E8030F216820F0100041E80302DAB15D
:1027D000206850E8030F216820F0100041E8030250
:1027E00092B1206850E8030F216820F0100041E802
:1027F00003024AB1206850E8030F216820F010005E
:1028000041E80302002ADAD1E06BFEF7F3FD022073
:102810006063A08DE18D401A81B2204602B0BDE810
:10282000B040FFF74BBE00BF626C42F00102626431
:102830004A0706D5BEF1000F03D0626C42F00202D7
:1028400062648A0706D5BEF1000F03D0626C42F0C5
:1028500004026264BCF1000F06D555EA0E0203D0F3
:10286000626C42F008026264626C002A3FF49CAE23
:1028700011F0200118BF002D03D0204600F02EFBE0
:1028800020684169626C01F0400102F00802891879
:1028900000F0A28050E8030F216820F4907041E816
:1028A0000302C2B3206850E8030F216820F490703F
:1028B00041E803027AB3206850E8030F216820F44E
:1028C000907041E8030232B3206850E8030F21689A
:1028D00020F4907041E80302EAB12068DAE700BF13
:1028E000206850E8050F216820F0010041E805024A
:1028F000DAB1206850E8050F216820F0010041E8B6
:10290000050292B1206850E8050F216820F001000F
:1029100041E805024AB1206850E8050F216820F01F
:10292000010041E80502002ADAD1206B012824D1F8
:10293000206850E8030F216820F0100041E80302EE
:10294000DAB1206850E8030F216820F0100041E858
:10295000030292B1206850E8030F216820F01000B4
:1029600041E803024AB1206850E8030F216820F0D3
:10297000100041E80302002ADAD1202084F8420046
:10298000002020632068416949063FD550E8050FC3
:10299000216820F0400041E805022AB3206850E891
:1029A000050F216820F0400041E80502E2B12068EF
:1029B00050E8050F216820F0400041E805029AB177
:1029C000206850E8050F216820F0400041E805022A
:1029D00052B12068DAE700BF2046FFF771FD002002
:1029E000606402B0B0BD00BFE06B78B142F6D16167
:1029F000C0F600014163FEF721FD00283FF4D4AD8D
:102A0000E06B416B02B0BDE8B0400847204602B021
:102A1000BDE8B040FFF754BD216A31F8022B6FF3D7
:102A20005F22426021628AE5002804BF01207047CE
:102A300010B5044690F8410028B9002084F8400001
:102A4000204600F061F8242084F841002068D4E991
:102A50000212C36823F40053C360036923F4405394
:102A60001A430261D4E904231143C268194341F2B5
:102A70000C639A431143C1604169A26921F440711A
:102A8000114343F60002C4F201029042416103D0B7
:102A9000FEF7E0FF02E000BFFEF7F0FF62681921D9
:102AA00048439100B0FBF1F048F21F51C5F2EB1121
:102AB000A0FB01235A096FF0630302FB03003223DA
:102AC00003EB0010A0FB0101F02303EA511320687F
:102AD00003EB0212C1F3431111448160016921F437
:102AE00090410161416921F02A014161C16841F4CD
:102AF0000051C16000202021606484F8411084F8F6
:102B00004210606310BD000070B586B040F600440E
:102B1000C4F201040068A4F54441002688420496EA
:102B200002D006B070BD00BF41F21800C4F202002E
:102B3000416802AD41F480214160416801F4802187
:102B400001910199016841F008010160006829467E
:102B500000F00800019001984FF48060029002207C
:102B60000390032005902046FEF7C2FC4FF400605E
:102B7000CDE90206204629460496FEF7B9FC272037
:102B800000210022FEF74AFE2720FEF737FE06B09E
:102B900070BD000090F84230202B1CBF022070470F
:102BA00000294FF0010318BF002A01D118467047D1
:102BB00000230363816222218285C285436480F8F9
:102BC00042100169006819B1C16841F48071C160A7
:102BD0004169002341F001014161C16841F02001D8
:102BE000C16018467047000010B5006844F6000147
:102BF000C4F20001884218BF10BD40F29004C2F236
:102C0000000420780A2809D194F82C0000F03CFC3C
:102C1000002384F83430C4E90B3304E0617862188F
:102C200082F82C004B1C40F2C010C2F2000021467A
:102C300001226370BDE81040FFF7ACBF2DE9F043FF
:102C400081B0044690F84100202840F0B1800F4642
:102C500000294FF0010000F0D0801646002A00F055
:102C6000CC804FF0000821201D46C4F8448084F831
:102C70004100FEF755FDA684E684A1680646B1F53D
:102C8000805F05D12069002814BF3846B846074642
:102C9000E18C2068002900F08F8005F101090AE02D
:102CA00047B317F8011B4160E18C0139E184E18CE5
:102CB000002900F0818001680906F1D4B9F1000F04
:102CC0000AD0EDB1FEF72CFD801BA84218D8206871
:102CD00001680906F6D5E3E701680906E0D4016852
:102CE00009065CBF01685FEA0161D9D40168090681
:102CF000F2D5D5E738F8021B00276FF35F21D2E742
:102D0000206850E8030F216820F4D07041E80302E6
:102D1000BAB3206850E8030F216820F4D07041E86E
:102D2000030272B3206850E8030F216820F4D070CA
:102D300041E803022AB3206850E8030F216820F419
:102D4000D07041E80302002ADAD11AE0206850E886
:102D5000050F216820F0010041E80502DAB1206882
:102D600050E8050F216820F0010041E8050292B10A
:102D7000206850E8050F216820F0010041E80502B5
:102D80004AB1206850E8050F216820F0010041E8B1
:102D90000502002ADAD1202084F8410084F842009C
:102DA000002084F84000032001B0BDE8F08300BF9C
:102DB000022001B0BDE8F0830168490619D4FDB1D5
:102DC000691C0DD10168490613D4016849065CBF2E
:102DD00001685FEA41610CD401684906F2D508E058
:102DE000FEF79EFC801BA8420AD8206800684006B7
:102DF000F6D5202084F84100002001B0BDE8F08322
:102E0000206850E8030F216820F4D07041E80302E5
:102E1000E2B3206850E8030F216820F4D07041E845
:102E200003029AB3206850E8030F216820F4D070A1
:102E300041E8030252B3206850E8030F216820F4F0
:102E4000D07041E80302002ADAD11FE0206850E880
:102E5000050F216820F0010041E80502002A9AD000
:102E6000206850E8050F216820F0010041E80502C4
:102E7000002A3FF490AF206850E8050F216820F049
:102E8000010041E80502002A3FF485AF206850E8C0
:102E9000050F216820F0010041E80502002AD5D184
:102EA00079E7000070470000FEE70000FEE7000041
:102EB000FEE700007047000070470000FEF736BCD8
:102EC0007047000040F27810C2F20000FFF7BEB970
:102ED000406A0021C185C184FFF7F2BA81B090F841
:102EE0004210222920D18368B3F5805F08D101699F
:102EF000002965D000F128010A6803685B680AE0D0
:102F0000014651F8282F13B90369002BF5D0036847
:102F10005B6803F07F0313700A6801320A60C18D99
:102F200001390A04C18501D001B070470168CA683F
:102F300022F02002CA60CA6822F48072CA604A691C
:102F400022F001024A61202280F8422000224263DE
:102F5000036B012B3ED1026351E8031F026821F08D
:102F6000100142E803130168DBB151E8031F026856
:102F700021F0100142E80313016893B151E8031FE7
:102F8000026821F0100142E8031301684BB151E8D7
:102F9000031F026821F0100142E803130168002BAF
:102FA000DAD10A68D20606D5002200920A68009299
:102FB000496800910099818D01B0FFF77FBA00BF89
:102FC0000168826A49686FF35F2122F8021B8262FE
:102FD000A5E700BF01B0FFF707BE000040F2C01038
:102FE000C2F20000FFF76EBA40F25010C2F20000C9
:102FF000FDF756BFFEE700002DE9F0438A423CBFD3
:103000000020BDE8F083531A5A1C032B02F0030C76
:1030100008D24FF0000EBCF1000F34D17046BDE86D
:10302000F08300BF4C42014422F0030203394FF009
:10303000000E00BF11F8046FDDB211F8017CED0045
:1030400007FA05F545EA0E075D1EEDB2ED00AE404C
:1030500037439E1E91F80180F6B2F60008FA06F694
:103060003743DE1E91F80290F6B2F60009FA06F632
:1030700046EA070E043B043AA4F10404DAD16142A3
:10308000BCF1000FCAD0425CDCB2E400A240BCF14B
:10309000010F4EEA020EC1D00844591E4278C9B24F
:1030A000C90002FA01F1BCF1020F4EEA010EB5D0DF
:1030B000991E8078C9B2C90088404EEA000E704659
:1030C000BDE8F0832DE9F043914205D94FF0000EA1
:1030D0001FFA8EF0BDE8F083531A5A1C032B02F03E
:1030E000030C09D24FF0000E0122BCF1000F34D1C5
:1030F0001FFA8EF0BDE8F0834C42014422F0030336
:1031000003394FF0000E012211F8046FD5B211F807
:10311000017CED0007FA05F54EEA0507551EEDB2F4
:10312000ED00AE403743961E91F80180F6B2F600EE
:1031300008FA06F63743D61E91F80290F6B2F6006A
:1031400009FA06F647EA060E043A043BA4F1040421
:10315000DAD16142BCF1000FCAD0435CD4B2E400C2
:10316000A340BCF1010F4EEA030EC1D00844511E2A
:103170004378C9B2C90003FA01F1BCF1020F4EEA6B
:10318000010EB5D0911E8078C9B2C90088404EEAC0
:10319000000E1FFA8EF0BDE8F083000070B59A4271
:1031A00009D89C1A631C032C03F0030C04D20323DC
:1031B000BCF1000F29D170BD54420A4423F0030E24
:1031C000033A03235E1EF6B2DDB2F600ED0020FAEC
:1031D00006F620FA05F502F8046F02F8015C9D1E60
:1031E000EDB2ED0020FA05F55570DD1EEDB2ED00F3
:1031F00020FA05F5043BBEF1040EA4F10404957019
:10320000E0D16242BCF1000FD5D0DCB2E40020FA7C
:1032100004F4BCF1010F8C54CDD011445A1ED2B22B
:10322000D20020FA02F2BCF1020F4A7008BF70BD52
:103230009A1ED2B2D200D040887070BD90B0FEF716
:1032400083FA00240120CDE90B44CDE9094406901E
:103250000A904FF4E0104FF4803102250F9006A839
:10326000CDE90714CDE90D51FEF71CFC20B1EFF3B9
:10327000108072B6FEE700BF0F20CDE900054FF4C5
:103280008060CDE90304684602210294FEF702FB48
:1032900020B1EFF3108072B6FEE700BF41F21800D4
:1032A000C4F20200016840F6000841F0100101601C
:1032B0000168C4F2010801F0100106910699016845
:1032C00008F5006541F0200101600168002201F06D
:1032D00020010691069901684FF4005441F0040161
:1032E00001600168002701F0040106910699016858
:1032F00041F00801016000684FF4005100F008003F
:10330000069006982846FEF705FA40461F2100223F
:103310004FF01F09FEF7FEF906AE06944FF0010AC2
:10332000022428463146CDE907AA0994FEF7E0F8C1
:1033300040463146CDE9069ACDE90874FEF7D8F843
:1033400040F20416C2F20006A8F52441304640F8C7
:103350004C1F12214FF48032C0E90117C0E90372FB
:10336000C0E905778783FDF7CBFE28B1EFF3108026
:1033700072B600BFFEE700BF0D2006F14C050F90AE
:1033800006A92846CDF838A0CDE90677CDE908771B
:10339000CDE90A77CDE90C7AFDF770FC40F2C01058
:1033A000A8F54041C2F200000C234FF4E13280E85E
:1033B0008600C0E90377C0E90537C761FFF734FB32
:1033C00020B1EFF3108072B6FEE700BF40F2781034
:1033D0000021A8F58232C2F2000040F2374342F2E7
:1033E0000F770991CDE90711CDE90011C0E900235C
:1033F000C0E9021701618161FEF786FD20B1EFF39C
:10340000108072B6FEE700BF4FF48050069040F285
:103410007810C2F2000006A9FEF748FE20B1EFF3D3
:10342000108072B6FEE700BF40F27810C2F20000D2
:103430006946FEF72BFD28B1EFF3108072B600BF8E
:10344000FEE700BF2846FDF799FF28460221FDF759
:10345000ABFB08200021C6E9091040F27810C2F247
:103460000000C6E9071186F82C10FEF7E7FD40F2D0
:10347000C01040F29001C2F20000C2F2000101222D
:10348000FFF788FBFEE7000010B582B0502867D038
:10349000462800F0A380422840F09E8040F290022F
:1034A000C2F2000292F82E1092F82D00A1F1300322
:1034B00010720A2B34BF5381538992F82F10A1F157
:1034C0003004092C40F2E88092F83010A1F1300469
:1034D000092C40F2EF8092F83110A1F13004092C50
:1034E00040F2F68092F83210A1F13004092C40F23B
:1034F000FD8092F83310A1F13004092C40F20481D0
:1035000092F83410A1F13004092C06D803EB8303A0
:1035100001EB4301A1F13003538140F20411C2F2E7
:103520000001122441F8184F948B82F82200ADF864
:103530000040D2F81E4082F823308DF806008DF846
:10354000073001F13400131D6A46CDF80240FDF743
:1035500043FB002840D0EFF3108072B6FEE700BFB7
:1035600040F29000C2F2000090F82D1030390A2984
:1035700034BF4182418A90F82E20A2F13003092BFA
:1035800040F2D28090F82F20A2F13003092B40F2B4
:10359000D88090F83020A2F13003092B40F2DE8071
:1035A00090F83120A2F13003092B40F2E48090F82A
:1035B0003220A2F13003092B40F2EA8090F8332048
:1035C000A2F13003092B40F2F08090F83420A2F1F0
:1035D0003003092B40F2F68002B010BD40F2900497
:1035E000C2F2000494F82E0030380A2834BFE0817B
:1035F000E08994F82F10A1F13002092A40F2EA8004
:1036000094F83010A1F13002092A40F2F08094F8C9
:103610003110A1F13002092A40F2F68094F83210FC
:10362000A1F13002092A40F2FC8094F83310A1F194
:103630003002092A40F2028194F83410A1F13002DC
:10364000092A05D800EB800001EB40003038E0810A
:1036500094F82D1080B284F8271004F1240104227C
:103660000723FFF79BFD40F20411C2F200014FF463
:103670001D7041F8180FD4E90902231D0090019232
:1036800001F134006A46FDF7A7FA0028A4D0EFF351
:10369000108072B6FEE700BF03EB830301EB43012A
:1036A000A1F13003538192F83010A1F13004092CBC
:1036B0003FF611AF03EB830301EB4301A1F13003AC
:1036C000538192F83110A1F13004092C3FF60AAF72
:1036D00003EB830301EB4301A1F13003538192F823
:1036E0003210A1F13004092C3FF603AF03EB830342
:1036F00001EB4301A1F13003538192F83310A1F1A2
:103700003004092C3FF6FCAE03EB830301EB4301CD
:10371000A1F13003538192F83410A1F13004092C47
:103720007FF6F4AEF9E600BF01EB810102EB410147
:103730003039418290F82F20A2F13003092B3FF657
:1037400028AF01EB810102EB41013039418290F851
:103750003020A2F13003092B3FF622AF01EB8101AB
:1037600002EB41013039418290F83120A2F130035F
:10377000092B3FF61CAF01EB810102EB410130390F
:10378000418290F83220A2F13003092B3FF616AFA8
:1037900001EB810102EB41013039418290F8332085
:1037A000A2F13003092B3FF610AF01EB810102EBD0
:1037B00041013039418290F83420A2F13003092BC5
:1037C0003FF60AAF01EB810102EB41013039418242
:1037D00002B010BD00EB800001EB40003038E0810A
:1037E00094F83010A1F13002092A3FF610AF00EB37
:1037F000800001EB40003038E08194F83110A1F1F5
:103800003002092A3FF60AAF00EB800001EB4000CE
:103810003038E08194F83210A1F13002092A3FF6E5
:1038200004AF00EB800001EB40003038E08194F8F9
:103830003310A1F13002092A3FF6FEAE00EB800002
:1038400001EB40003038E08194F83410A1F13002EF
:10385000092A7FF6F7AEFBE65FEA400C08BF91F05D
:10386000000F4FEA8C234FEAC12243EA51514FEA3D
:103870001C5018BF00F5F0404FEA300018BF41F06F
:1038800000415FEA6C5C00F02980BCF1FF3F08BF9B
:1038900040F080407047130C06BF12044FF0100C2C
:1038A0004FF0000C130E04BF12020CF1080C130FA2
:1038B00004BF12010CF1040C930F04BF92000CF131
:1038C000020CD30F04BF52000CF1010C11464FF053
:1038D0000002A0F11F00A0EB0C00704711F0004F98
:1038E00008BF704731F000413FF4D5AF0B0C06BF65
:1038F00009044FF0100C4FF0000C0B0E04BF09022E
:103900000CF1080C0B0F04BF09010CF1040C8B0F18
:1039100004BF89000CF1020CCB0F04BF49000CF16D
:10392000010CCCF1200322FA03F341EA030102FA6D
:103930000CF2A0EB0C0000F10100704723F07F4770
:1039400020F07F4C80EA030000F00040ACEB07035E
:1039500003F57C5303F1FF032DE9804909B44FEAD5
:10396000144324EA03484FEA154B25EA0B4E0FF2A5
:10397000042606EB13273E7803FB0667C7F500070E
:1039800007FB06F64FEAD64606F102064FEA543721
:1039900007FB066CCCF1005C4FEA1C472CEA074C95
:1039A0000CFB06F507FB06F404EB15464FEA9616EA
:1039B00049085FEA320234BF00204FF000404FEA6E
:1039C000D13706FB07FC4FEA1C4C0CFB0BF7D21B54
:1039D00003FB0CF761EB07010CFB0EF7B0EB0740A4
:1039E00072EB17420CFB08F734BFA2EB0742B2EBB5
:1039F000074261EB17414FEA0C444FEA910706FB7F
:103A000007FC4FEA1C4C0CFB0BF7B0EBC74072EB0A
:103A1000573203FB0CF734BFA2EBC742B2EBC742ED
:103A200061EB57310CFB0EF7B0EBC70072EB57722E
:103A30000CFB08F734BFA2EBC702B2EBC70261EB85
:103A400057714FEA816141EA92114FEA826242EA7C
:103A500090124FEA806004EBCC04039F4FEAD13709
:103A600006FB07FC4FEA1C4C0CFB0BF7D21B03FBBD
:103A70000CF761EB07010CFB0EF7B0EB074072EBA4
:103A800017420CFB08F734BFA2EB0742B2EB074228
:103A900061EB17414FEA8C5504EB9C244FEA9107E8
:103AA00006FB07FC4FEA1C4C0CFB0BF7B0EBC740C6
:103AB00072EB573203FB0CF734BFA2EBC742B2EBF9
:103AC000C74261EB57310CFB0EF7B0EBC70072EB4E
:103AD00057720CFB08F734BFA2EBC702B2EBC70268
:103AE00061EB57714FEA816141EA92114FEA8262BC
:103AF00042EA90124FEA806015EB4C2544F1000435
:103B00004FEAD13706FB07FC4FEA1C4C0CFB0BF7C6
:103B1000D21B03FB0CF761EB07010CFB0EF7B0EBBC
:103B2000074072EB17420CFB08F734BFA2EB0742C9
:103B3000B2EB074261EB17414FEA813141EA924112
:103B40004FEA823242EA90424FEA80304FEA0C76E6
:103B500015EB1C1544F1000448EA03434EEA0B48F8
:103B60004FF0000EB2EB080C71EB030724BF624666
:103B700039464EEB0E0E4FF0000B001852414941F2
:103B80004BEB0B0BB2EB080C71EB03077BF1000B5B
:103B900024BF624639464EEB0E0E4FF0000B001864
:103BA000524149414BEB0B0BB2EB080C71EB030795
:103BB0007BF1000B24BF624639464EEB0E0E51EAF4
:103BC000020718BF46F0010616EB0E7655F100020B
:103BD00054F1000103D5BDE88901BDE80088BDE8C6
:103BE0008901BDE80048B619524141EB0101A3F13A
:103BF0000103704780807F7E7D7C7B7A7978777641
:103C000076757473727171706F6E6E6D6C6C6B6AB9
:103C10006A69686867666665646463636261616057
:103C2000605F5F5E5E5D5D5C5C5B5B5A5A595958D4
:103C3000585757565655555554545353525252513E
:103C4000515050504F4F4F4E4E4D4D4D4C4C4C4B94
:103C50004B4B4A4A4A4949494848484747474746DB
:103C60004646454545444444444343434342424217
:103C7000424141419C46002B30D477002BD04FEA83
:103C800037071CB503B44FF010004FF01001BAF124
:103C9000000F06D0BCF1000FDCBF40F0080040F080
:103CA00008014FF000000FBCBDE810400BF1010B04
:103CB000BBF1010F08BF5FEA170722BF12F1010233
:103CC00011F101014FF0004143F1000300F0004009
:103CD00043EA00007047F9D35708D0E746EA0646A2
:103CE0004FEA164613F1400F1FDD13F1200FDFBF1F
:103CF00016430A46002120335B42BED0C3F12007A1
:103D000046EA06464FEA164602FA07F746EA07066B
:103D100022FA03F2C3F1200701FA07F742EA070289
:103D200021FA03F14FF00003A7E746EA020646EA4C
:103D300006464FEA164646EA0106BCBF46EA064674
:103D4000360C4FF000034FF000024FF0000194E7F3
:103D50002DE9804C70B49A46934691E8380007C824
:103D600031EA400C48BF34EA430C03D5FFF7E6FDC7
:103D7000FFF780FFF0BCBDE8008C2DE9804C70B4EB
:103D80009A46934691E8380007C810F0804F08BF64
:103D900013F0804F03D100F005F8FFF76BFFF0BC84
:103DA000BDE8008C20F07F4723F07F4C80EA0300C1
:103DB00000F0004007EB0C03A3F57C53A3F1FE03D6
:103DC00092F0000F00F0B38095F0000F00F07780C4
:103DD0002DE901494FEA114021EA00484FEA144613
:103DE00024EA064700FB06FC08FB06F607FB08F87A
:103DF00018EB06484CEB164C00FB07F718EB07488E
:103E00004CEB17404FEA124B22EA0B4E4FEA154695
:103E100025EA06470BFB06FC0EFB06F607FB0EFE2B
:103E20001EEB064E4CEB164C0BFB07F71EEB074E3A
:103E30004CEB174B18EB0B0840F1000018EB0E0B86
:103E400058EB000840F100008F1A4FF000014FF0CE
:103E500000063CBFC943661B14BFB5EB040C002130
:103E60003CBFC943F61B4FEA174427EA04454FEA13
:103E70001C472CEA074C04FB076205FB07F70CFB09
:103E800005F616EB074642EB174204FB0CFC16EB5B
:103E90000C4642EB1C421BEB060658EB020241416A
:103EA0004EEA8E0E46EA9E0601D5BDE80189B61996
:103EB000524141EB0101A3F10103BDE801894FEA41
:103EC000144524EA05464FEA114721EA074C05FB51
:103ED00007F406FB07F70CFB06F111EB074144EB77
:103EE000174405FB0CFC11EB0C4144EB1C444FEA5E
:103EF000124722EA074C05FB07F206FB07F70CFB0B
:103F000006F616EB074642EB174205FB0CFC16EBD8
:103F10000C4642EB1C456A1854F1000148BF70473B
:103F2000B619524141EB0101A3F10103704795F02D
:103F3000000F37D04FEA114221EA02464FEA1447F8
:103F400024EA074C02FB07F106FB07F70CFB06F41B
:103F500014EB074441EB174102FB0CFC14EB0C443F
:103F600041EB1C414FEA154725EA074C02FB07F5D8
:103F700006FB07F70CFB06F616EB074645EB174565
:103F800002FB0CFC16EB0C4645EB1C42121951F1DE
:103F9000000148BF7047B619524141EB0101A3F13E
:103FA000010370474FEA144524EA05464FEA1147DA
:103FB00021EA074C05FB07F106FB07F70CFB06F2AD
:103FC00012EB074241EB174105FB0CFC12EB0C42D4
:103FD00051EB1C414FF0000648BF7047921841EB6F
:103FE0000101A3F101037047490050EAC12018BF45
:103FF00004204A0D18BF40F0010040F2FF72B2EBFE
:10400000515F08BF40F00200012808BF052070473B
:1040100030380A2801D20120704700207047000084
:1040200010B500290AD00878002807D00548784440
:10403000FCF768FD002801D0002010BD024878443C
:1040400010BD0000F2010000EA0100000808A0F520
:1040500000114FEA3101704743004FEAD30C4FEA99
:104060003C0C43401FBF40070CF1605113F0FE4F62
:1040700070471CF0006F03D10CF000410020704726
:104080000CF0004343EA507040EACC0010B500F059
:104090000EF800BF000000924FEA0001FFF7D6BF04
:1040A0004FF00041A1F500214FF0000070470EF1E4
:1040B000020E2EF0030E5EF8044B244204D44FEAA5
:1040C0004102B2F17F4F11D84FEA4003B3F17F4F65
:1040D0000CD80ED14FEAD07C0CEB4C0C0CF1020C3E
:1040E000B2F17F4F08BF4CEBD17C04E04FF0080CDD
:1040F00001E04FEAD17C0CEB4C0324FA03F404F00A
:104100000704B4F1040C06D20EEB840CBDE8104099
:104110004CF0010C6047DFE80CF0070802024FF09A
:104120000040A0F5800010BD0846420018BFD2F143
:10413000807288BF00F0004010BDFCF760BA00003C
:1041400002400000000000A0000000000540000048
:10415000000000C8000000000C4000000000409C6F
:1041600000000000194000000020BCBE000000005C
:1041700034400000BFC91B8E00000004B5400000A1
:10418000504BCFD06607E2CF010000006C41000029
:104190003E8251AADFEEA73401000000D9420000A0
:1041A000DCB5A0E23A301F97FFFFFFFFB4450000E7
:1041B000FD25A0C8E9A3C14FFFFFFFFFFF3F00009F
:1041C0000000008000000000FF3F000000000080B1
:1041D00000000000000000000000000001020304D5
:1041E000060708090000000001020304010202039F
:1041F0000405060708090A0B0C0D0E0F101000002D
:1042000040420008000000203000000028010008A3
:104210007042000830000020E00700004401000860
:104220001C00000043000000F8FFFFFF0C0000002E
:104230000E0000000F0000002E0000000000000033
:104240004C0000000000520000000000560000007A
:1042500000000000500000000000000059000000B5
:104260000000000001000000100000000024F40025
:04000005080000ED02
:00000001FF
