:020000040800F2
:1000000028090020B5010008DD490008A1450008C5
:10001000D9490008FD1C0008214B00080000000021
:10002000000000000000000000000000E54900089A
:10003000DD20000800000000E1490008E94900084F
:10004000CF010008CF010008CF010008CF01000850
:10005000CF010008CF010008CF010008CF01000840
:10006000CF010008CF010008CF010008CF01000830
:10007000CF010008CF010008CF010008CF01000820
:10008000CF010008CF010008CF010008CF01000810
:10009000154B0008011D0008CF010008CF01000822
:1000A000CF010008CF010008CF010008CF010008F0
:1000B000CF010008CF010008CF010008CF010008E0
:1000C000CF010008CF010008CF010008CF010008D0
:1000D000CF010008FD4A0008CF010008094B0008C5
:1000E000CF010008CF010008CF01000800F002F89E
:1000F00000F050F80AA090E8000C82448344AAF172
:100100000107DA4501D100F045F8AFF2090EBAE86F
:100110000F0013F0010F18BFFB1A43F0010318473B
:100120006061000080610000103A24BF78C878C187
:10013000FAD8520724BF30C830C144BF04680C60ED
:10014000704700000023002400250026103A28BF35
:1001500078C1FBD8520728BF30C148BF0B60704739
:10016000662905F07B87782900F08280002070479F
:100170001FB501F033F804000020002105F0C8FB92
:10018000401C60600020002105F0ACFBE0601FBD5A
:1001900010B510BD01F0FCFA1146FFF7E9FF04F0BD
:1001A000C1FC01F059FD03B4FFF7F2FF03BC01F0FD
:1001B0009DFD00000948804709480047FEE7FEE72B
:1001C000FEE7FEE7FEE7FEE7FEE7FEE7FEE7FEE707
:1001D00004480549054A064B70470000ED490008F0
:1001E000ED00000828030020280900202805002031
:1001F000280500200FB41CB5084B06AA7B446946AD
:100200000090059800F011FD04460020694600F0BA
:100210001FFD20461CBC5DF814FB0000510A0000C5
:1002200070B5044685690068C10601D5302600E036
:100230002026C00707D070BDD4E901213046904781
:10024000206A401C20626D1EF6D570BD70B5044654
:1002500085690078C00707D170BDD4E9012120204D
:100260009047206A401C20626D1EF6D570BD0000CC
:1002700070B504460D4621461068AFF30080218812
:10028000090502D50F4A7A4402E00E4A7A440E323A
:10029000002104F1240305E000F00F060009965D3B
:1002A0005E54491C0028F7D120780023000704D5AC
:1002B000702D02D009B1022311322046BDE87040F2
:1002C00000F047BAD25E00002DE9F05F894604468F
:1002D0004FF0000ADFF824B1FB44C0F820A020460C
:1002E000E168884700287DD0252806D0D4E901217F
:1002F0009047206A401C2062F1E700255F462046B7
:10030000E16888472028064607DB312E05D2B81958
:1003100010F8200C08B10543F1E7A80701D525F036
:100320000405C4F81CA00027C4F818A02A2E09D080
:10033000304605F06AFA38B304EB8708303EC8F857
:10034000186019E059F8041B204604EB87029161FC
:10035000E1688847012F064618D1E069002820DAB5
:1003600025F020051DE0D8F8180000EB800006EB12
:1003700040003038C8F818002046E1688847064633
:1003800005F043FA0028EED1012F0AD02E2E08D115
:100390002046E16888477F1C0646022F45F020056D
:1003A000C4DBA069002803DA404245F00105A061E2
:1003B000E80701D025F01005A6B1A6F141001928E3
:1003C00002D8203645F400654A463146204625606D
:1003D0004D46FFF7C5FE60B1012807D0ED1D25F0A1
:1003E000070000E007E000F1080978E705F10409DB
:1003F00075E730467AE7206ABDE8F09FA85E000006
:100400000FB400B58DB010A9099000910B904FF07A
:10041000FF300A9000200C90064878440690064869
:1004200078446A4607900F9909A800F0A7FE0DB01E
:100430005DF814FB7F0D0000970D00002DE9FF5FB4
:100440001D464FF0FF3B91464FF000085F46D5E94F
:100450000146A96901987F1C8847296A8246884716
:100460000028F6D1BAF1FF3F0CD0002E24F4C0646E
:1004700019DD600614D5BAF12B0F09D0BAF12D0F92
:100480000ED103E0584604B0BDE8F09F44F4806408
:10049000A96901987F1C8847761E8246002E02DDDE
:1004A000BAF1300F03D0B9F1000F26D032E0A969BC
:1004B000761E01987F1C44F400748847002E824603
:1004C00005DDBAF1780F06D0BAF1580F03D0B9F1B3
:1004D000000F10D01EE0B9F1000F02D0B9F1100FDB
:1004E00018D1A969761E01987F1C24F400748847EE
:1004F0008246102002E0082000E00A20814609E040
:10050000A96908FB0908761E01987F1C44F4007451
:1005100088478246002E05DD4946504600F09DFB87
:100520000028EDDAE96901988847A00502D46FF048
:100530000100A8E7E00725D1600613D5600502D5C4
:10054000C8F1000000E0404629680A1D2A600968D9
:10055000220501D5087015E0220701D5088011E0B9
:1005600008600FE02868011D29600068210502D598
:1005700080F8008006E0210702D5A0F8008001E0A5
:10058000C0F8008038467EE72DE9FF5F4FF0000895
:100590009946144646469169D2E901A7DDF838B07C
:1005A00001988847054659EA0B0005D009E0A16982
:1005B0000198761C88470546216A28468847002806
:1005C000F5D1681C03D05FEACA7005D015E04FF082
:1005D000FF3004B0BDE8F09F2068011D2160D0F815
:1005E00000800AE05FEACA7001D108F8015BA169E6
:1005F000761C01987F1E88470546002F1ADD681C6F
:1006000018D0B9F1000F0DD0E81705EBD0604211FA
:1006100020F01F0059F822102A1A012090400142B0
:10062000E0D107E0BBF1000FDCD12846216A884702
:100630000028D7D0E16901988847BBF1000F07D1A6
:10064000002E05DD5FEACA7002D1002188F8001093
:10065000A068B84203DDBBF1000F03D017B16FF003
:100660000100B6E73046B4E740EA010370B59B07E6
:100670002ED14FF00136042A2AD308C810C99D1B79
:100680009D43121F15EAC61517D0D8B2E1B2401A21
:1006900050EA056110D198B2A1B2401A50EA054162
:1006A0000AD123F07F4024F07F41401A50EA05210F
:1006B00002D1180EA0EB146070BDA342DBD018BAB3
:1006C00021BA884201D9012070BD4FF0FF3070BDC2
:1006D0000AB9002070BD10F8013B11F8014B63B15D
:1006E000A3420AD1521E08D010F8013B11F8014B69
:1006F0001BB1A34201D1521EEDD1181B70BD4FF0AA
:10070000000200B5134694469646203922BFA0E861
:100710000C50A0E80C50B1F12001BFF4F7AF09076D
:1007200028BFA0E80C5048BF0CC05DF804EB89005E
:1007300028BF40F8042B08BF704748BF20F8022BA1
:1007400011F0804F18BF00F8012B704770477047B9
:1007500070472DE9F0470D4699469246044600F150
:1007600024080168880604D5E06921F010012160A1
:1007700000E00120A84201DD471B00E00027A1693D
:100780007A1902EB0900081AA0612078C00602D489
:100790002046FFF745FD002608E0D4E901211AF8BC
:1007A00006009047206A401C761C20624E45F4DB10
:1007B0002078C0060AD52046FFF732FD06E0D4E9CE
:1007C000012130209047206A401C2062381EA7F18A
:1007D0000107F4DC07E0D4E9012118F8050090478F
:1007E000206A401C2062281EA5F10105F3DC20468A
:1007F000FFF72CFD2078000602D50220BDE8F08727
:100800000120FBE72DE9FF4F0C461E464FF0FF3756
:100810008BB0D2E90001DDF860800A908A46C1F30E
:100820000A5505B93D46002108464FF00000BAF1CF
:10083000000F00F4400005DA00EB80004FF44001A7
:1008400001EA50004FEA9059B9F1010F00DDB946B5
:100850000A9850EA4A000ED044F61050A5F2FF352F
:1008600045432F14B8F1000F1ED07542291E1EDD1E
:10087000C9F100021CE0B8F1010F4FF0000001D0F7
:10088000302103E0F24305E02154401CB042FBDB81
:1008900030460022002121540B99C1F80880C1E99B
:1008A00000200FB0BDE8F08FBD1B6D1CDEE74A468F
:1008B00000DA694206A800F0F5FE06AB93E80700EF
:1008C00003AB83E8070050460A9904F0D5FA8DE897
:1008D0000700A0F500501F3800900398002D0ADD96
:1008E00042F21F014A460844002303A903906846C8
:1008F00004F080FD09E0A0F500504A461F380023AF
:1009000003A90390684604F09FFD8DE807000004EA
:10091000000C03D04FF0FF30410800E01046B8F162
:10092000000F03D00022009215461EE0751E05D46C
:1009300000F06FFC303262556D1EF9D5B3460122CE
:10094000084302D000227F1C04E02078302801D127
:1009500000227F1E002A099784D01DE0112D07DA9E
:1009600000F057FC303262556D1C50EA0102F5D19F
:10097000084302D00098C8B10EE00021681E05E0CF
:10098000235C625C63542254401E491C8142F7DBA5
:10099000AB46A81B401E0990002004F80B000B98E2
:1009A000099AC0F80880C0E9002B7AE711264FF0B9
:1009B000000857E72DE9F04F88460446D21D22F083
:1009C000070191B0D1E90001CDE90A0104F088FEE8
:1009D00002460B98C00F01D02D2007E02068810748
:1009E00001D52B2002E0202101EAC000032A099052
:1009F00001D0072A05DB03464146204600F058FC9B
:100A00000BE12078800601D5E06900E00620B8F10E
:100A1000650F814606D0B8F1660F18D0B8F1670FA0
:100A200070D131E00020B9F1110F009001DB1123EA
:100A300001E009F101030AAA01A90CA8FFF7E2FEEF
:100A4000DDE90C70002609F10105834647E001202D
:100A50004B4600904FF000470AAA01A90CA8FFF7E7
:100A6000D1FEDDE90DB00C995D46002610B909F103
:100A700001000D18B9EB050003D4C0F1FF3609F1F0
:100A80000105A5EB09002BE0B9F1010F01DA4FF0E8
:100A900001090020B9F1110F0090484601DD112332
:100AA00000E003460AAA01A90CA8FFF7ABFEDDE9A6
:100AB0000C704D4600268346207800070AD4AB45CB
:100AC00000DA5D4601A8012D04DD411911F8011C71
:100AD000302907D04F4502DA17F1040F04DA01205C
:100AE00082460FE06D1EEEE7002F02DCED1B3E4458
:100AF00003E0781CA84200DD7D1CB81B00F1010A50
:100B00004FF000472078000703D4AA4501DB4FF0DF
:100B1000FF3A0021B7F1004F0DF143088DF8431063
:100B200024D002202B23002F01DA7F422D230A211B
:100B3000021EA0F1010000DC5FB197FBF1FC97FB06
:100B4000F1F201FB1C7C17460CF1300C08F801CDCA
:100B5000EEE7A8F1010003702188090501D54521C0
:100B600000E06521A0F1010800F8011C09980FA917
:100B7000A1EB0807FF1D00B10120411901EBEA704C
:100B8000A1693844081A401EA0612078C00602D42A
:100B90002046FFF745FB099828B1D4E90121904789
:100BA000206A401C20622078C00622D52046FFF72C
:100BB00037FB1EE0002E04DBB34502DD01A8805D9B
:100BC00000E03020D4E901219047206A401C2062D7
:100BD000761CAAF101005FEA000A0AD100F0FEFAD1
:100BE000C0680168405CD4E901219047206A401C3C
:100BF0002062281EA5F10105DCDC07E0D4E9012113
:100C000018F8010B9047206A401C2062381EA7F19B
:100C10000107F3DC2046FFF719FB032011B041E682
:100C200001694A1C02610878704700B58FB0CDE9B0
:100C300001310021059105497944CDE903101146A0
:100C40006846FFF741FB0FB000BD0000E5FFFFFF66
:100C50000A6802F8010B0A6070473A2800D230385F
:100C600020F02002412A01D3A2F13700884201D3AB
:100C70004FF0FF30704700002DE9FF4F06468BB064
:100C80000878FF2806D0491C2D2805D000244FF0F5
:100C9000000908E000200CE00124F8E709EB8903D3
:100CA000491C00EB43090878FF28F7D114B1C9F1BA
:100CB00000008146107800252C46AA4629462D289A
:100CC00001D02B2804D1521C2D2813D0002082469D
:100CD0008B461078FF280FD04FF0000C0A21521CD1
:100CE000A5FB017804FB018105FB0C11C5194BEB39
:100CF0000104EEE70120EAE7002108464FF000007A
:100D0000BAF1000F02D000EB80004008C0F3815719
:100D1000012F01DD4FF0FF370E9955EA040009EB72
:100D200001080BD04FF0020918F5FA7F16DA4FEAE6
:100D3000CA70002F706008DD012007E04FEACA701A
:100D4000C6E900B00FB0BDE8F08F0020306000F0C1
:100D500049FAC0F800901821084616E0B8F5FA7F65
:100D600018DD002F02DAF748784401E0F6487844AD
:100D7000D0E90010C6E9001040EACA70706000F0C7
:100D800031FAC0F80090142108460FB0BDE8F04FCA
:100D900005F061B9002108464FF00000B8F10001EC
:100DA000099002DAC7F1000200E03A4601DAC8F120
:100DB000000106A800F076FC06AB93E8070003AB41
:100DC00083E8070044F23E005BEA040100905846C5
:100DD00004D144F21E012C465D460091210C090409
:100DE000014306D10099240444EA15442D04103926
:100DF000009104F07F41014306D10099240244EAA6
:100E000015642D020839009104F07041014306D1A8
:100E10000099240144EA15742D01091F009104F082
:100E20004041014306D10099A40044EA9574AD0005
:100E3000891E009104F00041084304D100986D1907
:100E40006441401E00904FF001033A466846B8F1F5
:100E5000000FCDE9014503A902DD04F00AFB01E022
:100E600004F0DDFABAF1000F04460D4601D084F01B
:100E70000044002108464FF00000099940F2FF7736
:100E8000484010F00C0F07D124F00040284303D055
:100E9000C4F30A50B84212D100F0A4F9C0F800908F
:100EA000C4F30A50B8420AD1A8487844D0E90010E7
:100EB000C6E9001004F000410843706042E7C6E94B
:100EC00000543FE72DE9FF4F1F464FF0000A4FF057
:100ED000FF38454691B0D7E90146CDF83CA000F077
:100EE0007DF9C0680168405C1090B96912986D1C6A
:100EF0008847396A814688470028F6D1B9F1FF3F13
:100F00000AD0002E24F4D06411DDB9F12B0F08D0E3
:100F1000B9F12D0F0BD102E0404615B013E744F4B0
:100F20008064B96912986D1C8847761E81466005F9
:100F300004A901D52D2000E02B20002E01F1010B8A
:100F40000DF130088DF810003FDDB9F1690F08D0C0
:100F5000B9F1490F05D0B9F16E0F02D0B9F14E0FBA
:100F60001CD13B4601A8009580E85002DDE9121231
:100F70006FF0020005F0D8F8C11CCED10EE0B969BF
:100F800012986D1C884781461398761E44F40074AD
:100F900005600F98401C002E0F9016DDB9F1300F40
:100FA000EDD0B9F1780F02D0B9F1580F0DD10F98EB
:100FB00001280AD13B46CDE90054DDE91212001F99
:100FC000029605F0AFF8C11CA7D1109989453ED112
:100FD00044F0800406E01399681CAAF1010A44F465
:100FE00000740860B9696D1C1298761E8847302815
:100FF0008146F0D02BE01099894505D1200603D415
:10100000761E44F0800418E0484604F0FEFB08B366
:10101000761E0DF123029345A9F1300044F40074CB
:1010200006D20BF8010B200607D5AAF1010003E058
:10103000200602D40AF101008246A00502D51399C8
:10104000681C0860B96912986D1C88478146002E9B
:10105000D1DC53E0002E51DDB9F1650F02D0B9F1BA
:10106000450F4BD1A00549D5B9696D1C1298761E64
:1010700024F440748847002E81460CDD2B2804D0D0
:10108000B9F12D0F07D144F48074B96912986D1C21
:101090008847761E8146E00501D52D2100E02B21F1
:1010A00008F8011BCDF8008021E0761E0DF1390112
:1010B000884544F400740CD2A9F1300010F0FF0010
:1010C00088F8000002D10099884509D908F1010883
:1010D00006E0E00501D51E4801E042F20F708246AD
:1010E000B96912986D1C8847814613980560002ED7
:1010F00004DD484604F089FB0028D6D1F96912982E
:101100008847FF2053468BF8000088F80000002035
:101110000A900B9004AA0CA90AA8FFF7ADFDA00540
:1011200002D46FF00100F8E614F0240F12D0E007AB
:101130001CD13868DDE90A12031D3B600068C0E974
:10114000001213E03C5500002E550000F253000041
:10115000F1D8FFFF0AA9684604F0E6FAE00705D1D6
:101160003868009A011D3960006802602846D4E69C
:10117000026811441378016018467047D160054930
:101180007944516104497944116200211161114689
:1011900000F0CEB8EDFFFFFF13010000426842B13E
:1011A000016811F8013B23B1521EC0E90012184634
:1011B00070470121C160881E704742685AB1C368F8
:1011C000016843B983688B4205D0491E521CC0E9AF
:1011D0000012002070474FF0FF3070470048704702
:1011E000300000200048704710000020B2F12003BA
:1011F0000AD5C2F1200301FA02F120FA03F341EA11
:10120000030100FA02F0704700FA03F14FF000000A
:10121000704730B5B0F10A0271F100034FEA900E49
:101220004EEA817EB0EB0E0061EB91014FEA101E99
:101230004EEA017E10EB0E0041EB11114FEA102E29
:101240004EEA016E10EB0E0041EB11214FEA104EF9
:101250004EEA014E10EB0E0041EB1141401841F1F6
:1012600000014FEAD00040EA41704FEAD1014FEA55
:10127000810444EA907410EB800544EB01046D197D
:1012800044EB0404521BA3414FF0000348BF0A3251
:1012900000D530BD401C41F1000130BD10B5044601
:1012A00000F09CFA0068005D00F0010010BD000035
:1012B0002DE9F0411F46044603260168072A01F480
:1012C000006004DB08B116A505E016A503E008B12F
:1012D00015A500E015A521F010002060A069C01E32
:1012E000A0610FB1401EA0612046FEF799FF4FB1EB
:1012F000D4E9012138469047206A401C2062C01C76
:10130000206206E0206AFAE7D4E9012115F8010B12
:101310009047761EF8D22046FEF798FFBDE8F08190
:101320004E414E006E616E00494E4600696E660089
:101330002DE9F34F4FF0000A0C4656468DB00120C0
:101340000C9001F10C000B9062690B980121904701
:10135000051E2DD0252D2CD0216A8847C0B1626989
:101360000B9801219047216A88470028F7D16269CC
:10137000411E0B98904700E0761CA1690D988847A4
:10138000216A88470028F7D1E1690D988847DBE793
:10139000A1690D988847A842074601D1761CD3E77A
:1013A000E1690D9888477F1C02D1BAF1000F6FD018
:1013B0006BE162690B9800273D46394690472A2821
:1013C00004D162690B98012190470125DFF8D08292
:1013D00062690B9801219047A0F130010A290AD2D5
:1013E0004745E5DC07EB870100EB4107303FDFD4E1
:1013F00045F01005ECE7E90601D46FF000476C28D2
:101400000AD04C2814D0682815D06A280DD074282A
:101410001CD07A281AD01DE062690B9801219047F0
:101420006C2802D045F0040514E045F002050DE0FB
:1014300045F020050AE062690B9801219047682871
:1014400002D045F0080505E045F4006562690B9897
:1014500001219047C4E9015765283DD019DC58287F
:101460007AD00CDC452837D004DC252826D041284A
:101470009ED131E046282FD0472899D12CE05B2817
:1014800077D0612828D063287CD0642823D15AE003
:10149000F6E06F2848D008DC66281DD067281BD0EE
:1014A000692821D06E2816D127E0702845D07328EE
:1014B00068D0752847D078280DD14DE0A1690D98E6
:1014C0008847252805463FF469AFE1690D988847AC
:1014D0006D1C3FF46AAFD8E00D9923466A466FF061
:1014E000010004F01DFEC5E045F0400023464FF02A
:1014F00000026060A80736D43EE0E8077FF447AFFB
:101500002068011D21600068290501D506701BE7D0
:10151000290701D5068017E7A90703D5F117C0E908
:10152000006111E706600FE745F0400023464FF0E9
:1015300008026060A80716D41EE040F60E0125EAF6
:101540000100606016E045F0400023464FF00A02BB
:101550006060A80707D40FE045F040006060A8076E
:1015600008D5234610220D996FF00100AFF30080DB
:1015700080E007E0102223460D996FF00100FEF78E
:101580005DFF77E04FF0000963284F46C8464B46A1
:10159000CB4602D05B2806D038E0E80601D4012013
:1015A000A060012732E06269D4F80CB00B980121E9
:1015B00090475E2807D14FF0010949466269D4F887
:1015C0000CB00B989047216939B900210A4603AB4A
:1015D00043F82120491C0829FADBD8B3216949B313
:1015E00008F1010862690B98012190475D28F4D148
:1015F000B9F1000F09D0002003A951F82020D243EF
:1016000041F82020401C0828F7DB03AB20690028A4
:1016100020794FEA40701ED05B462246CDF800800C
:10162000CDE901970D9900286FF0010020DAAFF3A2
:1016300000801FE0C11703AA00EBD1614B1121F01C
:101640001F0102EB8302411A136801208840034303
:101650001360C7E719E00D99224600286FF00100DA
:10166000009702DAAFF3008004E0FEF78DFF01E09F
:10167000AFF3008000280ADA401C06D10C9820B194
:101680004FF0FF300FB0BDE8F08F5046FAE7E907A2
:1016900001D10AF1010A064400200C9054E6000032
:1016A000CCCCCC0C2DE9F047814616468AB03548A3
:1016B00078440DC88DE80D0032487844801C03AC96
:1016C0000DC884E80D0041F69B300844372190FB9B
:1016D000F1F290FBF1F5A5F1800501FB12041B3C32
:1016E00002D56442012000E00020DFF898A0804687
:1016F0000027FA44AAF1BE0A0EE0E0070AD03246FB
:10170000684607EB470101230AEB810103F09CFEC9
:101710008DE8070064107F1C002CEED1194F7F4428
:10172000AE3F19E0E80715D007EB04100DF1180AD9
:1017300090E80E008AE80E00C068F04201D19819C6
:1017400008903246012306A903A803F07DFE03ABEF
:1017500083E807006D10641C002DE3D14FF00103F6
:1017600032466946B8F1000F03A802D003F042FEEA
:1017700001E003F069FEC9E90001C9F808200AB0D8
:10178000BDE8F087604B0000004870471000002063
:101790007546FFF7F9FFAE4605006946534620F04F
:1017A0000700854618B020B5FEF712FDBDE82040C1
:1017B0004FF000064FF000074FF000084FF0000B0D
:1017C000AC46ACE8C009ACE8C009ACE8C009ACE87C
:1017D000C00921F007018D467047000010B5FFF7E2
:1017E000FDFC001D10BD00BF2941000010B5FFF732
:1017F000F9FC006810BD10B50446FFF7F3FC046067
:1018000010BD00002DE9FF4F1F464FF03C0987B087
:101810004FF00042DDE9141001F10108DDF858A095
:1018200002EA405003900020059083460546044696
:101830000490B969461E08988847AAF1010A0290E7
:10184000BAF1000F3BDD02982E2815D01021FFF7CA
:1018500004FA00282EDB4FF0010B0599014317D045
:10186000B9F1000F0BDB4A46C117FFF7BFFC054378
:101870000C43A9F1040905E0012004900BE008B134
:1018800045F0010501200590049820B9361D02E0BD
:10189000049800B1361FB969089808F10108884713
:1018A000BBF1000FAAF1010A0290C9D00999C1F851
:1018B0000080C5E70298702808D0502806D0F96942
:1018C00008988847BBF1000F14D04FE00020029029
:1018D0000120BBF1000F049009D0B969089808F104
:1018E00001088847AAF10109B9F1000F07DCF9697D
:1018F000089888476FF001000BB0BDE8F08F2B28E7
:1019000004D02D280CD14FF0FF300490B96908980D
:1019100008F101088847A9F10109B9F1000FE6DDD6
:10192000411CE4D00A21FFF798F90028DFDB029977
:1019300008F1010801EB810100EB41000290B96957
:10194000089888470A21FFF788F9099AA9F101093F
:10195000B9F1000FC2F8008001DD0028E7DAF9696B
:10196000089888470499029800FB016655EA04002C
:1019700004D004F04041090002D006E0039898E04A
:10198000A40044EA9574AD00B61E04F000410800BE
:1019900002D16D196441761E159810F0240F03D002
:1019A0004FF00B095C4803E04FF028096FF07D0011
:1019B0008246564507DAAAEB06018944B9F1410F80
:1019C00001DD4FF0410901200021A9F10102FFF7DB
:1019D0000DFC024628400B462140084301D001215E
:1019E00000E00021501E029143F1FF3128402140C8
:1019F000084301D0012000E000200299834651EA0B
:101A00000B014FD0002108464FF00000039900F46D
:101A1000400039B100EB80004FF4400100EBD07082
:101A200001EA60008015012802DD4FF0FF3000E080
:101A300013D0401C36D0029860B3BBF1000F0CD11C
:101A40004A4601200021FFF7D1FB284021400843EE
:101A500001D0012000E00020E0B101204A46002131
:101A6000FFF7C4FB034640190A4661412D1A8C4119
:101A700011D3B9F1400F09DD159810F0240F02D0F1
:101A8000AAF1340603E0AAF1170600E0761C00254F
:101A90004FF0004406E05B1E42F1FF3220EA0305EE
:101AA00021EA0204CAF10100B04206DA1B49039898
:101AB00008430190002000900EE0039AC4F3D32164
:101AC000E80A0A43164940EA44500A433146CDE940
:101AD0000002684603F08EFE159810F0240F0BD01C
:101AE0001598C00715D13868DDE90012031D3B6069
:101AF0000068C0E900120CE002A8694603F014FE79
:101B00001598C00705D13868029A011D3960006830
:101B100002604046F0E6000002FCFFFF0000F07F9C
:101B20000000F03F2DE9FF4F92461D4685B04FF073
:101B30000041DDE9124BDDE914727F1E01EA4B50D2
:101B4000414940F0FF4940EA0108002122F020000D
:101B50004928049102D04E2828D04CE03BA0012611
:101B600007C88DE80700A9690698641C88477F1E8E
:101B7000014606D41DF8060018B121F0200181426B
:101B80000BD0E96906988847032E34D0082E32D04E
:101B90006FF0010009B0BDE8F08F761C032E01D074
:101BA000082EE0D1601CCAF80000DCE7A96906989D
:101BB000641C88477F1E2AD420F02000412826D1AB
:101BC000A9690698641C88477F1E20D420F0200055
:101BD0004E281CD1A9690698641C88477F1E48F4CA
:101BE000002849F48009CAF8004001D4282806D00A
:101BF000E969069888475FEACB7012D022E0A969AC
:101C00000698641C88477F1E01D4002803DAE9691E
:101C100006988847BCE72928F1D1641CCAF800401F
:101C2000E9E71BF0240F07D028680499031D2B60F7
:101C30000068C0E9001805E02868021D2A600068F5
:101C4000C0F800902046A5E70000F07F494E4649C5
:101C50004E4954590000000010B50446AFF300800F
:101C60002046BDE81040FEF79EBA00004FF0013C50
:101C700050F8042B51F8043B9A4221D1A2EB0C03FB
:101C8000934313EACC1317D150F8042B51F8043BBB
:101C90009A4215D1A2EB0C03934313EACC130BD158
:101CA00050F8042B51F8043B9A4209D1A2EB0C03E3
:101CB000934313EACC13DBD04FF00000704700BF12
:101CC000D01A01BAB1FA81F101F0180122FA01F03B
:101CD000CB40DBB2C0B2C01AC1F120012CFA01F333
:101CE000D11A914311EAC311E6D170470149182076
:101CF000ABBEFEE72600020070470000FEE70000D2
:101D000040F2F400C2F2000000F0DCBC2DE9F0412A
:101D100082B0044608982160A07140F60640C2F6E1
:101D20001400C4F807000820E072322022716371A9
:101D300000F0A4FFE07A3825002808BF30252E1DCA
:101D4000012038278DF8046000F098FF01208DF8FD
:101D500005508DF8066000F091FF206821794FF45E
:101D60007A7801AA04238DF80750CDF8008001F09D
:101D700073F9E07A3826002808BF3026351D012087
:101D80008DF8045000F07AFF01208DF805608DF881
:101D9000065000F073FF2068217901AA04238DF812
:101DA0000760CDF8008001F057F9052000F066FFCC
:101DB000E07A2825002808BF302707F1040008BF73
:101DC00020258DF804000120282600F057FF281D4B
:101DD0008DF8060001208DF8057000F04FFF206897
:101DE000217901AA04238DF80750CDF8008001F075
:101DF00033F9052000F042FFE07A2825002818BFBB
:101E0000012008BF2025C700281D8DF804000120EF
:101E100000F034FF381D8DF8060001208DF80550C4
:101E200000F02CFF2068217901AA04238DF80770A7
:101E3000CDF8008001F010F9052000F01FFFE079D7
:101E4000E27A010120F00F0501F10807002A14BF12
:101E500008350701281D8DF80400012000F00EFF51
:101E6000381D8DF8060001208DF8055000F006FFA2
:101E70002068217901AA04238DF80770CDF800802D
:101E800001F0EAF8207AE27A010120F00F0501F171
:101E90000807002A14BF08350701281D8DF8040023
:101EA000012000F0EBFE381D8DF8060001208DF8B2
:101EB000055000F0E3FE2068217901AA04238DF883
:101EC0000770CDF8008001F0C7F8607AE27A01016E
:101ED00020F00F0501F10807002A14BF083507019B
:101EE000281D8DF80400012000F0C8FE381D8DF873
:101EF000060001208DF8055000F0C0FE2068217911
:101F000001AA04238DF80770CDF8008001F0A4F831
:101F1000A07AE27A010120F00F0501F10807002AFA
:101F200014BF08350701281D8DF80400012000F0BA
:101F3000A5FE381D8DF8060001208DF8055000F033
:101F40009DFE2068217901AA04238DF80770CDF841
:101F5000008001F081F8E07A1827002818BF0120DE
:101F60004FEAC00505F1040008BF10278DF80400F2
:101F7000012000F083FE381D8DF8060001208DF849
:101F8000055000F07BFE2068217901AA04238DF81A
:101F90000770CDF8008001F05FF8E07A00280CBFF0
:101FA00020260120C500281D8DF80400012000F026
:101FB00065FE301D8DF8060001208DF8055000F0FB
:101FC0005DFE2068217901AA04238DF80760CDF811
:101FD000008001F041F802B0BDE8F08170B582B038
:101FE00004464079A379884298BF411E934298BF26
:101FF0005A1ED0B2032805D8DFE800F0090206080F
:10200000403104E0002102E0143100E054310A01C3
:10201000E37A01F0700002F108056FF07702002BFF
:1020200008BF6FF07F0202EB000606F1040008BF54
:102030000D018DF80400012000F020FE281D8DF810
:10204000060001208DF8056000F018FE2068217957
:102050004FF47A7601AA04238DF80750009600F019
:10206000FBFF02B070BD00002DE9F04782B00A7896
:102070008AB382464E1E4FF47A780DF1040900BFF0
:1020800011019AF80B3022F00F0001F10807002B24
:1020900014BF08301701451C05308DF804000120DD
:1020A0007C1C00F0EBFD781D8DF8060001208DF8FA
:1020B000055000F0E3FDDAF800009AF804104A46F3
:1020C00004238DF80740CDF8008000F0C5FFB278FA
:1020D0000136002AD4D102B0BDE8F0877047000075
:1020E0000B4640F270018446C2F2000118460122FC
:1020F000CCF8003002F0F2B92DE9F04782B040F29E
:102100007009C2F2000999F8002088460A2A82461E
:102110000ED099F8010041B2002909D4013189F8A3
:10212000011040F2A021C2F200010A546DE000BF8C
:1021300040F2A020C2F20000017824295BD1467849
:10214000002E58D0002202272A2EA7F1010129D003
:10215000C35D002B4FD02A2B82EA060226D0C61977
:102160007478002C47D049294FF0000538BF01256D
:102170002A2C82EA03021DD048291BD8B378D3B396
:1021800048294FF0000538BF01252A2B82EA0402B6
:1021900012D0472910D8F6785A40002E07F10407CC
:1021A000D2D128E001252A240F4607E001252A2460
:1021B00004E000BF013701E002371C46DDB12A2CE4
:1021C00019D1384446F2562145788478C0F600018A
:1021D0000DF10500FEF70EF89DF80500A8420AD1A2
:1021E0009DF80600A04206D140F2A020C2F20000F5
:1021F000414600F017F8002089F8010040F2A020C5
:10220000C2F200008021FEF77AFADAF8000040F20C
:102210007001C2F20001012202B0BDE8F04702F0F5
:102220005DB900002DE9F04F89B00C4671A106227E
:102230000546FEF719FAD8B170A128460622FEF726
:1022400013FA002800F08E806EA128460622FEF7C1
:102250000BFA002800F09C806CA128460622FEF7AD
:1022600003FA002800F0AA8009B0BDE8F08F00BF93
:1022700004F1180004F10C0104F1190704F11C0623
:102280008DE8830003A846F25B2104F1140204F1F7
:10229000100304F1200C04F1240E04F1280804F1C9
:1022A0002C0980E84050C0F600012846CDF818807F
:1022B000CDF81C90FEF7A4F80128D5DBD4E903572C
:1022C00040F20008C4F2C82894F818B038464146D5
:1022D00003F00AFD03F0CAFD4FF0640A064600FB56
:1022E0000AF003F0DFFD0146384603F03FFE40F2FE
:1022F0000009C4F27029494603F0F6FC074630464F
:1023000003F0D0FD0146384603F08CFC0BF0FB01D6
:10231000532908BF80F00040677E60602846414630
:1023200003F0E2FC03F0A2FD064600FB0AF003F016
:10233000B9FD0146284603F019FE494603F0D4FCD6
:102340000546304603F0AEFD0146284603F06AFC20
:1023500007F0FB01532908BF80F00040206009B05E
:10236000BDE8F08F04F1180004F10C0104F114022F
:1023700004F1100304F1190704F1300604F1340CE0
:1023800038348DE8830032A1CDE9036C2AE000BF28
:1023900004F10C0004F1190104F13C0604F11002EF
:1023A00004F1180304F114078DE8830021A12846E5
:1023B0000396FEF725F809B0BDE8F08F04F1480058
:1023C00004F14C0104F14D0604F1500C04F14002FB
:1023D00004F1440304F1300754348DE88300CDE95F
:1023E000036C0CA128460594FEF70AF809B0BDE875
:1023F000F08F00BF24475047474100002447505208
:102400004D430000244750474C4C00002447505691
:10241000544700002447505654472C25662C25630A
:102420002C25662C25632C25662C25632C25662CF3
:1024300025630000244750474C4C2C25662C25630F
:102440002C25662C25632C25662C256300000000B6
:10245000244750524D432C25662C25662C25632C91
:1024600025662C25632C25662C25662C256400000A
:1024700090F82020013A012A08D8006800F11402DF
:102480000020136819431160704700BF00F1240257
:1024900001204FF480211368194311607047000038
:1024A000B0B5026890F82030013B012B28D8D2F853
:1024B0000002012340F00100C2F80002D1F814E04C
:1024C000CC690EF01F0003FA00F0D2F81C326FEA5C
:1024D000000C8343012CC2F81C3217D06CBBD2F81D
:1024E0000C3203EA0C03C2F80C32CB688C8844EA45
:1024F000034302EBCE04C4F840320B4615E000BFA4
:10250000416A41F4802141620120B0BDD2F80C3211
:102510000343C2F80C320B688C8844EA034302EB95
:10252000CE04C4F8403201F10C038C681B8843EAE6
:10253000044302EBCE04C4F84432D2F804328D696D
:1025400043EA0004D1F810E0096A002D08BF03EA4D
:102550000C04C2F80442D2F81432BEF1000F43EA70
:10256000000408BF03EA0C040129C2F8144204D194
:10257000D2F81C120843C2F81C02D2F8000220F064
:102580000100C2F800020020B0BD0000704700004A
:1025900010B590F82040013C012C7BD8D0F800C049
:1025A000002900F08180DCF81040A40700F0818051
:1025B0000CEB011CDCF8B0410CF5D87E14F00404DF
:1025C0009460DCF8B04119BFE4085460640D1460F5
:1025D000DEF800400CF5DA7E04F00204D460DCF88A
:1025E000B44124075ABFDEF8004004F00F04082469
:1025F0001461DEF800400029C4F307249461DEF87A
:1026000000404FEA14445461DCF8B8211A700268A3
:1026100002EB0112D2F8B8214FEA12225A70026876
:1026200002EB0112D2F8B8214FEA12429A70026806
:1026300002EB0112D2F8B8214FEA1262DA70026896
:1026400002EB0112D2F8BC211A71026802EB0112EE
:10265000D2F8BC214FEA12225A71026802EB011231
:10266000D2F8BC214FEA12429A71026802EB0112C1
:10267000D2F8BC214FEA1262DA71006814BF00F18F
:10268000100100F10C01002020220B681A430A609F
:1026900010BD00BF00F1240101204FF480220B681F
:1026A0001A430A6010BD00BFDCF80C40A4077FF499
:1026B0007FAF00F1240101204FF400120B681A4390
:1026C0000A6010BD2DE9F04F81B0044600684669EC
:1026D000D0F804908768D0F80CB0D0F810A0D0F8EB
:1026E0001880F10704D1002530071DD424E000BF75
:1026F000F90710D00121BA07816009D4780700F1E9
:10270000AF80380700F1B680204600F02BFA02E0D7
:10271000204600F029FA0025F80500F18780F8032B
:1027200000F1B180300707D51BF0100004D02068FD
:1027300045F400751021C160700708D51BF0080032
:1027400005D020680821C160204600F0B3F9B00729
:1027500006D52068C068800702D0204600F0ACF99A
:10276000700607D51AF0100004D0206845F4806583
:1027700010210161B00608D51AF0080005D02068C4
:1027800008210161204600F0B9F9F00606D520685D
:102790000069800702D0204600F0B2F9B00308D5E6
:1027A00019F0100005D0206810214160204600F08B
:1027B000A9F9F00308D519F0080005D02068082110
:1027C0004160204600F0DAF9300440F19B805FEA76
:1027D000497040F1948006F4807008EA1020284384
:1027E0005FEA8871014648BF41F00201B20558BF57
:1027F00001465FEA48700D4648BF45F00405700584
:1028000058BF0D46300540F17A8018F0700000F096
:1028100076801038000905286CD8DFE800F00359ED
:102820005D61656945F0080564E000BF20684FF40C
:102830008071BA0581600BD4780515D438051DD494
:10284000204600F093F9F8037FF56CAF1BE000BF62
:10285000204600F08DF9F8037FF564AF13E000BF68
:102860004FF4006558E700BF05F50055F8037FF504
:1028700059AF08E04FF480554EE700BF05F580459D
:10288000F8037FF54FAF20684FF48031BA038160C1
:102890000AD4780310D4380314D4204600F06AF91F
:1028A00030073FF541AF47E7204600F065F93007B4
:1028B0003FF53AAF40E700BF05F5004530073FF56B
:1028C00033AF39E705F5803530073FF52DAF33E7F6
:1028D00045F010050EE000BF45F020050AE000BFFE
:1028E00045F0400506E000BF45F0800502E000BF6E
:1028F00045F480752068816921F07001816120684C
:102900000421416055B1606A40EA050120466162D8
:1029100001B0BDE8F04FFFF739BE00BF01B0BDE820
:10292000F08F0000B0B5C8B1044690F8200010B98F
:10293000204600F071F82068016841F00101016053
:1029400000F0C8FA054600BF20684168C90707D1F2
:1029500000F0C0FA401B0B28F6D312E00120B0BDF6
:10296000016821F00201016000F0B4FA054600BFE1
:102970002068416889070DD500F0ACFA401B0B2890
:10298000F6D3606A052140F400306062012084F8CB
:102990002010B0BD217E0268012922F0800208BF0C
:1029A00080320260617E0268012922F0400208BF85
:1029B00040320260A17E0268012922F0200208BF95
:1029C00020320260E17E0268012922F0100218BF65
:1029D00010320260217F0268012922F0080208BF3C
:1029E00008320260617F0268012922F0040208BFF8
:1029F00004320260D4E901C2D4E9033561691A43A3
:102A00002A431143ACF101021143C16100200121AD
:102A1000606284F82010B0BDB0B586B040F6000406
:102A2000C4F201040068A4F52442002190420591FB
:102A300002D006B0B0BD00BF41F21800C4F20200DF
:102A4000426802AD42F000724260426802F00072D9
:102A50000192019A026842F004020260006800F0EC
:102A60000400019001984FF40060CDE90201049147
:102A70002046294600F016F94FF4805002900220BB
:102A80000390032005902046294600F00BF91420FE
:102A90000221002200F074FC142000F061FC1520DB
:102AA0000221002200F06CFC152000F059FC06B059
:102AB000B0BD00007047000010B540F2740140F254
:102AC000D804C2F20001C2F2000401F11603002191
:102AD0002246FFF75DFD002818BF10BD20681228B0
:102AE0000AD141F20000C4F201004FF40051BDE8E8
:102AF000104000F0E1B900BF10BD000070470000B9
:102B00007047000070470000B0B5044690F8200000
:102B100001281DD1022084F820002068016821F0DE
:102B20000101016000F0D6F9054600BF2068406849
:102B3000C00713D000F0CEF9401B0B28F6D3606A13
:102B400040F400306062052084F820000120B0BD10
:102B5000606A40F4002060620120B0BD0020606225
:102B6000B0BD0000704700007047000070470000D3
:102B70007047000070470000704700007047000079
:102B8000014690F82100022816D10868D1E90FC348
:102B9000026822F00E020260026822F00102026066
:102BA000012000FA03F2CCF8042081F82100002073
:102BB000002281F820207047042088630120002231
:102BC00081F820207047000080B590F8211002297C
:102BD00024D10268116821F00E0111602F211368C1
:102BE000C4F202018A4240F20401C4F2020123F05D
:102BF0000103136016DD3023C4F202039A421DD094
:102C00004423C4F202039A421CD05823C4F20203A4
:102C10009A421DD14FF4803322E000BF042181632A
:102C2000012080BD0823C4F202039A420ED01C2367
:102C3000C4F202039A420BD1102311E04FF48073C7
:102C40000EE000BF4FF480530AE000BF012307E00D
:102C500001F1680C4FF08073624508BF4FF4801398
:102C60000B60012180F82110426B002180F82010B8
:102C70000AB190470021084680BD0000B0B5044667
:102C800000F028F9054640F20000C2F2000000788A
:102C9000611C18BF044400BF00F01CF9401BA04297
:102CA000FAD3B0BD2DE9F04F82B041F20042C4F238
:102CB00001020E680423904208BF0323002E0093F4
:102CC00000F0F68040F2004C4FF6FF7E0022C4F286
:102CD000010C0124C1F2100E4FF0000A4FF0000960
:102CE00047E000BF012502F00C040F27A7402BEAA4
:102CF000070705FA04F43C4343F82640D1F804B032
:102D000040F20C455FEACB23DCF8083054BF23EADD
:102D1000080343EA0803C4F20105CCF808302B6825
:102D20005FEA8B2454BF23EA080343EA08032B60BD
:102D30005FEA8B34DCF8043054BF23EA080343EA2B
:102D400008035FEACB34CCF80430DCF800304FF0F5
:102D5000010454BF23EA080343EA0803CCF8003017
:102D60000E680AF1010A36FA0AF302F1040200F0D1
:102D70009F8004FA0AF816EA080FF1D04B687345F1
:102D800012DC122B56D8DFE803F0350B45495555B8
:102D900055555555555555555555554D510000BF2F
:102DA000D1F80C9046E000BF4FF6FF75C1F2210547
:102DB000AB420FDC0025C1F21105AB421AD0002551
:102DC000C1F21205AB4215D00025C1F22105AB427C
:102DD00010D02FE00025C1F22205AB420AD0002519
:102DE000C1F23105AB4205D00025C1F23205AB423C
:102DF00020D100BF8B684BB1012B14BFC0F81480E9
:102E0000C0F810804FF0080914E000BF4FF004092B
:102E100010E000BFCB6803F108090BE04FF0000998
:102E200008E000BFCB6803F1040903E0CB6803F1BD
:102E30000C0900BF13460546BAF1080F24BF203B1A
:102E400004352E680F279F40BE4309FA03F333432E
:102E50002B60CB79DB067FF583AF41F21804C4F217
:102E6000020423684FEA9A0643F0010323602368B3
:102E700040F6000403F001030193019BACF57E735F
:102E800053F826B0C4F20104A0420FD040F600442B
:102E9000C4F20104A0423FF425AF41F20004C4F2A1
:102EA0000104009DA04208BF02251CE700251AE787
:102EB00002B0BDE8F08F0000C26802EA010391434E
:102EC00041EA034101617047002A08BF090401611A
:102ED0007047000040F22030C2F2000000687047E6
:102EE00070B5B8B3044690F83D0028B9002084F8C6
:102EF0003C00204600F09AF9242084F83D00206828
:102F0000016821F001010160016841F400410160A4
:102F1000016821F40041016000F04EFB48F280415D
:102F2000C0F21E0140F60013D4F804E088424FF0CE
:102F30000001C0F23D0348F2A16C4FF0000238BF1F
:102F400001219842C0F2010C38BF0122E64538BF8A
:102F50000A460AB1012070BD4DF68361C4F21B31EF
:102F6000A0FB01122168950C4B684FF4967623F074
:102F70003F0343EA9243754344F6D3564B60C1F294
:102F800062060B6AA5FB0656B50923F03F03E6452A
:102F900038BF950C6A1C1A430A62CA6948F2A066D7
:102FA0004CF6FF73C0F20106B64522EA03020BD8C5
:102FB00001384FEA4E03B0FBF3F001306FF31F30DE
:102FC000042898BF04201EE0A368013863B11923C8
:102FD0000EFB03F3B0FBF3F001306FF31F3078B159
:102FE00000F5804008E000BF0EEB4E03B0FBF3F0AD
:102FF00001306FF31F3028B100F5004003E000BF3F
:10300000012000E001201043C8610868D4E90723CB
:1030100020F0C000104318430860886848F2FF326F
:1030200004F10C0690434CCE18431043A569886008
:10303000C86820F0FF0030432843C860086840F0AB
:103040000100086000202021206484F83D102063E6
:1030500084F83E0070BD00002DE9F04383B01E46A9
:10306000174689460446FFF735FF94F83D1020299E
:1030700020D10546206800BF8169890716D5FFF772
:1030800029FF411B20681A29F6D381698907F3D5E6
:1030900000202021206384F83D1084F83E00216C3C
:1030A00041F02001216484F83C0003E094F83C10D6
:1030B000012903D1022003B0BDE8F083012184F887
:1030C0003C100168C90703D1016841F001010160AA
:1030D000016840F2020821F400610160212184F8B6
:1030E0003D10102184F83E1000212164676266853E
:1030F000618DC0F201082185A8F10211E162E16A47
:103100000A9E11F5803F18BF01291DD1016841F4C5
:103110008071016020464FF0011100223346009576
:1031200001F0A0FA50B120680068C00544BF4FF418
:1031300000702064012003B0BDE8F0832069B0F581
:10314000804F07D1FE2015E00829DFD0216B12291E
:10315000DCD0DFE7062000EAD9102168F0300861F2
:1031600008F10601204632462B4601F065FB002897
:10317000E0D1FF20216800EA0900086120464146AD
:1031800032462B4601F058FB0028D3D10020029094
:1031900020684169029180690290029806E000BFB0
:1031A000204631462A4601F0FDF918BB208D68B350
:1031B000204631462A4601F0AFFBD8B9606A216843
:1031C000024612F8013B0B616262628D013A628530
:1031D000228D531E23854F697F07E1D51B04DFD065
:1031E000437802300B616062608D01386085901E0B
:1031F0002085D5E7206C04289CD12068016841F423
:1032000000710160012003B0BDE8F083206801680F
:1032100041F400710160202084F83D00002084F812
:103220003E0084F83C0003B0BDE8F08310B586B0E2
:1032300045F200410068C4F2000100228842049275
:1032400002D006B010BD00BF41F21804C4F202045F
:10325000206840F008002060206800F0080001901D
:103260000198C0200290122003900320059001F5E0
:10327000384002A9FFF716FD606840F40010606056
:10328000606800F400100190019806B010BD0000C5
:1032900040F2000040F22031C2F20000C2F2000110
:1032A00000780A68104408607047000080B542F258
:1032B0000000C4F20200016841F010010160032027
:1032C00000F08AF80F2000F005F800F027F8002041
:1032D00080BD000070B540F20006C2F2000640F268
:1032E00008013278C2F200014FF47A730968B3FB27
:1032F000F2F20446B1FBF2F1084600F05FFB0F2C3E
:103300004FF0010508D838B94FF0FF3021460022B0
:10331000002500F035F87460284670BD82B041F297
:103320001800C4F202000168022241F001010160AC
:10333000016801F0010101910199416841F080515A
:103340004160406800F08050009000980420C4F272
:103350000100016862F31A61016002B07047000069
:10336000002848BF704700F01F01012202FA01F156
:103370004EF200124009CEF2000242F820107047CF
:1033800010B54EF60C5CCEF2000CDCF80030C3F346
:10339000022E8EF00704042C28BF0424BEF1030380
:1033A0004FF0FF3E0EFA04F438BF0023A1439940CA
:1033B0000EFA03F39A43114300F00F02043A6244F9
:1033C00009010C3200F16043B0F1FF3FC8BF03F5C3
:1033D0006442117010BD00004EF60C51CEF2000197
:1033E0000A684FF6FF031A4060F30A2242F0806039
:1033F00040F0FD70086070472DE9F04381B000286F
:1034000000F0858042F20008C4F202080446D8F8B1
:1034100000000D4600F0070088420CD2D8F80000EA
:1034200020F007002843C8F80000D8F8000000F09A
:103430000700A8426BD1206841F204098107C4F259
:10344000020917D5410705D5D9F8001041F4E0610C
:10345000C9F80010010705D5D9F8001041F46051F2
:10346000C9F80010D9F80010A26821F0F00111434A
:10347000C9F80010C00741D1D8F8000000F00700DB
:10348000A8420CD9D8F8000020F007002843C8F85B
:103490000000D8F8000000F00700A84237D12068EB
:1034A000410707D5D9F80010E26821F4E061114323
:1034B000C9F80010000708D5D9F80000216920F4E8
:1034C000605040EAC100C9F80000D9F8002002F0BD
:1034D0000C00082841F20020C0F27A0050D146F2D8
:1034E0004623C2F38341C0F60003595CD2033BD4A8
:1034F00040F60010C0F23D00484341E060680228F9
:103500000AD001282AD159F8041C890308D40120C3
:1035100001B0BDE8F08300BF59F8041C8901F6D55D
:10352000D9F8001021F003010843C9F80000FFF7A3
:10353000D1FC064641F28837D9F80000616800F0F6
:103540000C00B0EB810F97D0FFF7C4FC801BB84292
:10355000F2D9032001B0BDE8F08300BF59F8041C84
:103560008907D4D5DCE700BFD9F8002046F2442310
:10357000C2F34042C0F600039A5C4843B0FBF2F04D
:10358000D9F8001046F22C22C1F30311C0F6000254
:10359000515C40F2080220FA01F140F20400C2F24C
:1035A00000000068C2F200021160FFF793FE0020E5
:1035B00001B0BDE8F083000040F2080041F20401D0
:1035C000C2F20000C4F202010068096846F23C221F
:1035D000C1F30221C0F60002515CC84070470000F0
:1035E00040F2080041F20401C2F20000C4F20201FC
:1035F0000068096846F23C22C1F3C221C0F600020D
:10360000515CC840704700002DE9F04182B00028AD
:1036100068D00446007841F20006C007C4F20206F2
:1036200025D0706800F00C0004281BD0706800F0F2
:103630000C00082802D17068C00313D46068002809
:1036400000F06881B0F5A02F00F07C81B0F5803FDC
:1036500000F07C81306820F480303060306820F4E5
:10366000802076E13068800301D56068D0B320788F
:10367000800718D5706810F00C0F07D0706800F044
:103680000C0008286ED17068C0036BD430688007C6
:1036900002D52069012825D13068616920F0F80041
:1036A00040EAC1003060207800071FD4207840072E
:1036B00032D4E56995B1706800F00C00082840F03C
:1036C0008F80012D0ED07068216A00F480328A420A
:1036D00008D1616A00F47010884203D1002002B062
:1036E000BDE8F081012002B0BDE8F081A0690028AA
:1036F00062D00020C4F242200121C0F88014FFF7FC
:10370000E9FB0546706A800700F18C80FFF7E2FB59
:10371000401B0228F6D92AE1F06910F0805808D140
:10372000F06940F08050F061F06900F08050009046
:10373000009847F20007C4F200073868C00529D492
:10374000386840F480703860FFF7C4FB054600BF5E
:103750003868C0051ED4FFF7BDFB401B6428F7D9AD
:1037600005E100BF2069002840F20000C4F24220B9
:1037700000F0828001210160FFF7ACFB054600BF2D
:10378000306880073FF588AFFFF7A4FB401B022895
:10379000F6D9ECE0E068002800F08080052800F011
:1037A0009780012800F09880306A20F00100306294
:1037B000306A20F0040092E00020C4F24220002190
:1037C000C0F88014FFF786FB054600BF706A8007CB
:1037D0007FF56CAFFFF77EFB401B0228F6D9C6E0F1
:1037E0000027C4F2422700203866FFF773FB022D42
:1037F00005460BD13068800140F1BE80FFF76AFBBF
:10380000401B02284FF00300F4D968E730688001BC
:103810007FF564AFFFF75EFB401B02284FF003000B
:10382000F4D95CE740F20800C2F20000006844F6F8
:10383000D351C1F26201A0FB0101480A019000BF0F
:1038400000BF0198411E002801913FF42FAF00BF37
:103850000198411E002801913FF428AF00BF019854
:10386000411E002801913FF421AF00BF0198411E85
:1038700000280191E4D119E700210160FFF72AFB3C
:10388000054600BF306880077FF50DAFFFF722FBCC
:10389000401B02284FF00300F4D920E7306A20F0E3
:1038A00001003062306A20F004003062FFF712FB42
:1038B000054641F2883700BF306A800720D5FFF700
:1038C00009FB401BB8424FF00300F5D907E700BFE2
:1038D000306A40F004003062306A40F0010030622B
:1038E000FFF7F8FA054641F2883700BF306A8007D3
:1038F00006D4FFF7EFFA401BB842F7D937E000BF14
:10390000B8F1000F7FF4D5AEF06920F08050F0617F
:10391000CFE600BF306820F480303060306820F49B
:1039200080203060FFF7D6FA054600BF306880037C
:103930007FF59DAEFFF7CEFA401B64284FF00300E1
:10394000F4D9CCE6306840F480203060306840F430
:1039500080303060FFF7BEFA054600BF3068800354
:103960003FF585AEFFF7B6FA401B6428F6D9032071
:1039700002B0BDE8F08100BF206AB0F5803F05D1FC
:103980007168A26821F40031114371607168626A44
:1039900021F4741110430843706001203866FFF76A
:1039A00099FA0446306880013FF598AEFFF792FA25
:1039B000001B02284FF00300F4D990E6411E0020BE
:1039C000B0EB116F1CBF012070474EF21002CEF217
:1039D000000251604EF62351CEF20001F0230B702D
:1039E000072190601160704710B590F83C20012AC3
:1039F0004FF0020233D080F83D200268D2F804E094
:103A0000D2F808C00C682EF07003234340F2FF7414
:103A1000C4F20004A24253600ADCB2F1804F13D01A
:103A200040F20043C4F200039A420DD011E000BFFF
:103A300042F60043C4F201039A4205D040F6000367
:103A4000C4F200039A4204D149682CF08003194360
:103A500091600121002280F83D1080F83C20104642
:103A600010BD0000002804BF0120704710B50446B7
:103A700090F83D0028B9002084F83C00204600F072
:103A800067F8022084F83D00206840F2FF73026866
:103A9000C4F2000342F6004C9842C4F2010C15DC5B
:103AA000B0F1804F1AD040F20041C4F200018842C8
:103AB00014D0984218DCB0F1804F1DD040F2004184
:103AC000C4F20001884217D01AE000BF604505D05B
:103AD00040F60001C4F200018842EAD1A16822F058
:103AE00070020A439842E6DD604505D040F60001C9
:103AF000C4F20001884203D1216922F440720A43D2
:103B0000A36922F08001D4F804E0E268194360451B
:103B10000160C262C0F828E002D16169CCF83010BF
:103B200001214161002084F8461084F83E1084F899
:103B30003F1084F8401084F8411084F8421084F853
:103B4000431084F8441084F8451084F83D1010BDEB
:103B500081B00068B0F1804F02D001B0704700BF63
:103B600041F21C00C4F20200016841F00101016051
:103B7000006800F001000090009801B0704700005C
:103B800090F83D1001291CBF01207047022180F8E8
:103B90003D10006840F2FF71C4F20001884209DC68
:103BA000B0F1804F12D040F20041C4F200018842CF
:103BB0000CD012E042F60041C4F20101884205D067
:103BC00040F60001C4F20001884206D1816801F08C
:103BD0000701062904BF00207047016841F0010178
:103BE000016000207047000080B590F83C20012A59
:103BF0004FF0020200F0C28080F83D20D0F800C0F3
:103C00004FF67772DCF8083023EA0202CCF808207D
:103C10000B684F2B28DC1F2B44DD202B45D0302B8D
:103C200043D0402B40F0AC80D1F804E0C968DCF808
:103C30002030DCF8202022F00102CCF82020DCF833
:103C4000182022F0F00242EA011123F00A0242EAAF
:103C50000E02CCF81810CCF82020DCF8081041F047
:103C6000470121F0300180E06F2B27DDB3F5005FC5
:103C700048D0B3F5805F7AD0702B40F08180D1E9D5
:103C800001E3C968DCF8082043EA0E0322F47F420E
:103C900043EA01211143CCF80810DCF8081041F088
:103CA000770162E00BB1102B6AD1DCF8081021F02B
:103CB0007001194341F0070157E000BF502B35D088
:103CC000602B5DD1D1F804E0C968DCF82030DCF865
:103CD000202022F01002CCF82020DCF8182022F45A
:103CE000704242EA013123F0A00242EA0E12CCF8FF
:103CF0001810CCF82020DCF8081041F0670121F002
:103D0000100132E0D1E901E3C968DCF8082043EA98
:103D10000E0322F47F4243EA01211143CCF808103C
:103D2000DCF8081041F480411FE000BFD1F804E046
:103D3000C968DCF82030DCF8202022F00102CCF841
:103D40002020DCF8182022F0F00242EA011123F0D2
:103D50000A0242EA0E02CCF81810CCF82020DCF857
:103D6000081041F0570121F02001CCF80810002282
:103D7000012180F83D10002180F83C10104680BDE4
:103D80000122F5E77047000070470000B0B582B02F
:103D9000044600680168C368426901F02F05202DC0
:103DA00003F0200506D12DB1204602B0BDE8B04099
:103DB00000F024BE5FEA017C1EBF02F0010E03F496
:103DC000907212EB0E0255D1226B012A05D111F02F
:103DD000100218BF13F0100236D10A0622D513F0D4
:103DE00080021FD094F84110212941D1A168B1F57A
:103DF000805F03D12169002900F07282216A4A1C88
:103E0000226209784160E18C01390A04E1842FD1F2
:103E1000C16821F08001C160C16841F04001C1600A
:103E200002B0B0BD490623D513F0400120D0C168CF
:103E300021F04001C1602021204684F8411002B0E9
:103E4000BDE8B04000F0AABB0021019101680191DA
:103E50004168019101994169490600F18F80A18D66
:103E6000E28DE38D002B1CBF891A5FEA01420CD161
:103E700002B0B0BDCA0718BF13F4807240F0388199
:103E80004A0700F13B8140E1206850E8030F2268B7
:103E900020F4907042E80303DBB1206850E8030F80
:103EA000226820F4907042E8030393B1206850E840
:103EB000030F226820F4907042E803034BB120689E
:103EC00050E8030F226820F4907042E80303002BAF
:103ED000DAD1206850E8050F226820F0010042E89E
:103EE0000503DBB1206850E8050F226820F00100CF
:103EF00042E8050393B1206850E8050F226820F0DE
:103F0000010042E805034BB1206850E8050F226824
:103F100020F0010042E80503002BDAD1202084F8CC
:103F2000420000202063206850E8030F226820F040
:103F3000100042E80303DBB1206850E8030F226859
:103F400020F0100042E8030393B1206850E8030F0B
:103F5000226820F0100042E803034BB1206850E8CB
:103F6000030F226820F0100042E80303002BDAD18F
:103F7000022289B220466263B4E000BFE16B0A68A6
:103F8000526893B2002B3FF473AFA58DAB42BFF4E0
:103F90006FAFE2858969202900F09D8050E8030F0A
:103FA000216820F4807041E80302EAB1206850E8FB
:103FB000030F216820F4807041E80302A2B1206859
:103FC00050E8030F216820F4807041E803025AB1E1
:103FD000206850E8030F216820F4807041E8030254
:103FE00012B12068DAE700BF206850E8050F2168A9
:103FF00020F0010041E80502DAB1206850E8050F21
:10400000216820F0010041E8050292B1206850E8E3
:10401000050F216820F0010041E805024AB120683F
:1040200050E8050F216820F0010041E80502002A50
:10403000DAD1206850E8050F216820F0400041E8FF
:104040000502DAB1206850E8050F216820F0400031
:1040500041E8050292B1206850E8050F216820F080
:10406000400041E805024AB1206850E8050F216888
:1040700020F0400041E80502002ADAD1202084F82F
:10408000420000202063206850E8030F216820F0E0
:10409000100041E80302DAB1206850E8030F2168FC
:1040A00020F0100041E8030292B1206850E8030FAD
:1040B000216820F0100041E803024AB1206850E86E
:1040C000030F216820F0100041E80302002ADAD132
:1040D000E06BFEF755FD02206063A08DE18D401A74
:1040E00081B2204602B0BDE8B040FFF74BBE00BF32
:1040F000626C42F0010262644A0706D5BEF1000F0D
:1041000003D0626C42F0020262648A0706D5BEF1F7
:10411000000F03D0626C42F004026264BCF1000F35
:1041200006D555EA0E0203D0626C42F008026264C2
:10413000626C002A3FF49CAE11F0200118BF002DE4
:1041400003D0204600F05AFC20684169626C01F0FF
:10415000400102F00802891800F0A28050E8030F25
:10416000216820F4907041E80302C2B3206850E84F
:10417000030F216820F4907041E803027AB32068AD
:1041800050E8030F216820F4907041E8030232B335
:10419000206850E8030F216820F4907041E8030282
:1041A000EAB12068DAE700BF206850E8050F21680F
:1041B00020F0010041E80502DAB1206850E8050F5F
:1041C000216820F0010041E8050292B1206850E822
:1041D000050F216820F0010041E805024AB120687E
:1041E00050E8050F216820F0010041E80502002A8F
:1041F000DAD1206B012824D1206850E8030F216810
:1042000020F0100041E80302DAB1206850E8030F03
:10421000216820F0100041E8030292B1206850E8C4
:10422000030F216820F0100041E803024AB1206822
:1042300050E8030F216820F0100041E80302002A33
:10424000DAD1202084F842000020206320684169F0
:1042500049063FD550E8050F216820F0400041E8AD
:1042600005022AB3206850E8050F216820F04000BD
:1042700041E80502E2B1206850E8050F216820F00E
:10428000400041E805029AB1206850E8050F216816
:1042900020F0400041E8050252B12068DAE700BF93
:1042A0002046FFF771FD0020606402B0B0BD00BF82
:1042B000E06B78B144F6F111C0F600014163FEF7FE
:1042C00083FC00283FF4D4ADE06B416B02B0BDE845
:1042D000B0400847204602B0BDE8B040FFF754BDEB
:1042E000216A31F8022B6FF35F22426021628AE576
:1042F000002804BF0120704710B5044690F8410023
:1043000028B9002084F84000204600F061F82420FD
:1043100084F841002068D4E90212C36823F40053F2
:10432000C360036923F440531A430261D4E90423B0
:104330001143C268194341F20C639A431143C160AF
:104340004169A26921F44071114343F60002C4F2AD
:1043500001029042416103D0FFF72EF902E000BF55
:10436000FFF73EF96268192148439100B0FBF1F074
:1043700048F21F51C5F2EB11A0FB01235A096FF05F
:10438000630302FB0300322303EB0010A0FB0101D7
:10439000F02303EA5113206803EB0212C1F3431127
:1043A00011448160016921F490410161416921F06A
:1043B0002A014161C16841F40051C16000202021FF
:1043C000606484F8411084F84210606310BD0000FE
:1043D00070B586B0006844F60001C4F20001002602
:1043E00088420596CDE9036602963BD043F600016C
:1043F000C4F2010188426FD141F21800C4F20200F8
:10440000016840F6000441F4804101600168C4F293
:10441000010401F4804101910199016802AD41F06C
:10442000040101600068294600F004000190019831
:104430004FF4007002900220039003200590204664
:10444000FEF730FC4FF4806002900020CDE90300BD
:1044500020462946FEF726FC25200121002225249E
:1044600035E000BF41F21800C4F20200416802AD1D
:1044700041F480214160416801F48021019101995A
:10448000016841F0080101600068294600F0080059
:10449000019001984FF48060029002200390032065
:1044A000059040F60000C4F2010000F5806420464B
:1044B000FEF7F8FB4FF40060CDE9020620462946DE
:1044C0000496FEF7EFFB2720002100222724FEF7A9
:1044D00057FF2046FEF744FF06B070BD90F842300B
:1044E000202B1CBF0220704700294FF0010318BF8A
:1044F000002A01D1184670470023036381622221FC
:104500008285C285436480F842100169006819B150
:10451000C16841F48071C1604169002341F001012B
:104520004161C16841F02001C16018467047000038
:10453000B0B544F600050446C4F20005006805F570
:10454000704188420BD140F27400C2F2000040F288
:104550001C110430C2F20001FDF7CEFD2068A84214
:1045600018BFB0BD40F27401C2F2000108780A28F9
:1045700006D1087C0023422804BF487C087303E06E
:104580004A788B181874531C40F25820C2F200006D
:1045900001224B70BDE8B040FFF7A0BF704700009C
:1045A000FEE7000070B50368044653F8140F400797
:1045B00011D40E46481C29D086BB00BF18684005A0
:1045C00027D4FEF787FC236853F8140F400739D52A
:1045D00018684007F2D5002070BD00BF186840077A
:1045E000F9D41868400514D418684007F3D4186843
:1045F00040050ED418684007EDD41868400508D46B
:10460000186840074FF0000048BF70BD18684005AB
:10461000E4D56FF480601860042014E0154603E0D0
:1046200053F8140F4007D6D418684005F1D4FEF7AC
:1046300051FC401B2368B042F2D958694007EFD4BF
:10464000202000E0202000212022216384F83D204A
:1046500084F83E10226C10432064012084F83C1042
:1046600070BD00002DE9F041054600681E46144665
:1046700001F47F0201338FB242D0DDF81880B2F529
:10468000803F40F0878040693840C01BB0FA80F01E
:104690004009A04240F0C8804EB924E0406938404B
:1046A000C01BB0FA80F04009A04240F0BD80FEF788
:1046B00011FCA0EB08012868B142EFD941693940EB
:1046C000C91BB1FA81F14909A142E7D19BE000BFC2
:1046D00040693840C01BB0FA80F04009A0424FF05A
:1046E000000040F0A680FEF7F5FB286841693940DC
:1046F000C91BB1FA81F14909A142E9D183E000BFA8
:10470000B2F5803F24D100BF41693940C91BB1FADD
:1047100081F14909A14240F0878041693940C91BB4
:10472000B1FA81F14909A14240F07E8041693940E6
:10473000C91BB1FA81F14909A14275D141693940DA
:10474000C91BB1FA81F14909A142DDD06CE000BF7B
:1047500081693940C91BB1FA81F14909A14263D18C
:1047600081693940C91BB1FA81F14909A1425BD184
:1047700081693940C91BB1FA81F14909A14253D17C
:1047800081693940C91BB1FA81F14909A142DFD0E1
:104790004AE000BF80693840C01BB0FA80F0400991
:1047A000A04241D146B923E080693840C01BB0FA2D
:1047B00080F04009A0423BD1FEF78CFBA0EB080142
:1047C0002868B142F0D981693940C91BB1FA81F139
:1047D0004909A142E8D116E080693840C01BB0FA0F
:1047E00080F04009A0424FF0000018BFBDE8F08102
:1047F000FEF770FB286881693940C91BB1FA81F165
:104800004909A142E8D100202021286385F83D1004
:1048100085F83E00296C41F02001296485F83C00B0
:104820000120BDE8F08100BF0020BDE8F08100BF9D
:104830000020BDE8F0810000F0B581B004460068BA
:104840001D4643698FB203EA0701B94202D1002035
:1048500001B0F0BD41691646013201F4806125D0F6
:10486000002940D1CEB100BFFEF734FB411B2068C8
:10487000B14203D941693940B9424BD1416939400C
:10488000B942E4D041694905EED52CE0416939408F
:10489000B942DCD04169490525D4FEF71BFB2068ED
:1048A00041693940B942F1D0202024E0D9B94169A9
:1048B0003940B942CBD04169490514D441693940E6
:1048C000B942C4D0416949050DD441693940B94262
:1048D000BDD04169490506D441693940B942B6D0D5
:1048E00041694905E3D5016841F4007101606FF445
:1048F00080614161042000212022216384F83D2051
:1049000084F83E10226C1043206484F83C1001208F
:1049100001B0F0BD2020EEE770B50368044653F8FF
:10492000140F000611D40E46481C29D086BB00BFC8
:104930001868400527D4FEF7CDFA236853F8140F02
:10494000000639D518680006F2D5002070BD00BFFA
:1049500018680006F9D41868400514D418680006D1
:10496000F3D4186840050ED418680006EDD4186812
:10497000400508D4186800064FF0000048BF70BD1D
:1049800018684005E4D56FF480601860042014E0D6
:10499000154603E053F8140F0006D6D418684005F6
:1049A000F1D4FEF797FA401B2368B042F2D9586958
:1049B0000006EFD4202000E02020002120222163E7
:1049C00084F83D2084F83E10226C104320640120BE
:1049D00084F83C1070BD0000FEE70000FEE7000018
:1049E0007047000070470000FEF752BC704700009F
:1049F000406A0021C185C184FFF7C6B981B090F833
:104A00004210222920D18368B3F5805F08D1016963
:104A1000002965D000F128010A6803685B680AE094
:104A2000014651F8282F13B90369002BF5D003680C
:104A30005B6803F07F0313700A6801320A60C18D5E
:104A400001390A04C18501D001B070470168CA6804
:104A500022F02002CA60CA6822F48072CA604A69E1
:104A600022F001024A61202280F8422000224263A3
:104A7000036B012B3ED1026351E8031F026821F052
:104A8000100142E803130168DBB151E8031F02681B
:104A900021F0100142E80313016893B151E8031FAC
:104AA000026821F0100142E8031301684BB151E89C
:104AB000031F026821F0100142E803130168002B74
:104AC000DAD10A68D20606D5002200920A6800925E
:104AD000496800910099818D01B0FFF753B900BF7B
:104AE0000168826A49686FF35F2122F8021B8262C3
:104AF000A5E700BF01B0FFF71BBD000040F210208A
:104B0000C2F20000FFF742B940F25820C2F20000A2
:104B1000FFF73CB940F2F400C2F20000FDF7D2BD4D
:104B2000FEE7000092B0FEF7C1FB00240120CDE9B2
:104B30000D44CDE90B4408900C904FF4E0104FF475
:104B400080310225119008A8CDE90914CDE90F5153
:104B5000FEF75AFD20B1EFF3108072B6FEE700BFFA
:104B60000F20CDE902054FF48060CDE9050402A8CD
:104B700002210494FEF740FC20B1EFF3108072B6DE
:104B8000FEE700BF41F21800C4F20200016840F6DF
:104B9000000841F0100101600168C4F2010801F051
:104BA000100108910899016808F5006541F020019D
:104BB00001600168002201F0200108910899016854
:104BC0004FF4005641F0040101600168002701F034
:104BD000040108910899016841F00801016000682A
:104BE0004FF4005100F00800089008982846FEF79E
:104BF0006BF90896022008AE01240B902846314636
:104C0000CDE90944FEF74EF80320CDE908074046F8
:104C100031460A94FEF746F80420CDE908074046DD
:104C200031460A97FEF73EF840F2C810C2F2000083
:104C30004FF080414FF6FF730B97CDE90977CDE92F
:104C400002774FF4347280E88600C0E90337876149
:104C5000FEF708FF20B1EFF3108072B6FEE700BF49
:104C60004FF48050089040F2C810C2F2000008A92A
:104C7000FEF7BAFF20B1EFF3108072B6FEE700BF77
:104C800040F2C810C2F2000002A9FEF7ADFE28B142
:104C9000EFF3108072B600BFFEE700BF40F2D80508
:104CA000C2F20005A8F52441284640F81C1F122135
:104CB00000264FF48032C0E90116C0E90362C0E962
:104CC00005668683FDF72EFE20B1EFF3108072B6E5
:104CD000FEE700BF01201090CDE90E600D201C35CD
:104CE000119008A92846CDE90866CDE90A66CDE904
:104CF0000C66FDF7D5FB40F2102008F54051C2F2DA
:104D000000000C234FF4165280E84600C0E9036609
:104D1000C0E90536C661FFF7EBFA28B1EFF3108062
:104D200072B600BFFEE700BF40F27410A8F5344130
:104D3000C2F2000048F2A06200264FF48043C0F2A5
:104D4000010280E84600C0E90363C0E90566C0E9E6
:104D50000766FEF7C5F828B1EFF3108072B600BF02
:104D6000FEE700BF40F25820A8F54041C2F2000023
:104D70000C234FF4E13280E84600C0E90366C0E945
:104D80000536C661FFF7B4FA20B1EFF3108072B6B2
:104D9000FEE700BF40F2C810C2F20000FEF7F0FECE
:104DA0002846FDF7B1FE284602210225FDF760FBEB
:104DB00040F27407C2F2000708200021C7E914116D
:104DC000C7E9161087F8601007F1200440F274114B
:104DD000C2F2000120464E2210230095FCF796FFF8
:104DE00040F21021381DC2F20001FDF779F940F2BE
:104DF0005820C2F2000039460122FFF76FFB40F253
:104E00001C16C2F2000607F12C050FF254083C37BD
:104E10000FF25809306800F0D9FE02460B462846CA
:104E20004146FBF7E7F9204600210022FDF7D6F8BE
:104E300020462946FDF718F9706800F0C7FE0246C3
:104E40000B4638464946FBF7D5F92046002101229A
:104E5000FDF7C4F820463946FDF706F9DAE700BF4A
:104E60004C6F6E673A252E36660000004C61743A2E
:104E7000252E3666000000005FEA400C08BF91F066
:104E8000000F4FEA8C234FEAC12243EA51514FEA07
:104E90001C5018BF00F5F0404FEA300018BF41F039
:104EA00000415FEA6C5C00F02980BCF1FF3F08BF65
:104EB00040F080407047130C06BF12044FF0100CF6
:104EC0004FF0000C130E04BF12020CF1080C130F6C
:104ED00004BF12010CF1040C930F04BF92000CF1FB
:104EE000020CD30F04BF52000CF1010C11464FF01D
:104EF0000002A0F11F00A0EB0C00704711F0004F62
:104F000008BF704731F000413FF4D5AF0B0C06BF2E
:104F100009044FF0100C4FF0000C0B0E04BF0902F7
:104F20000CF1080C0B0F04BF09010CF1040C8B0FE2
:104F300004BF89000CF1020CCB0F04BF49000CF137
:104F4000010CCCF1200322FA03F341EA030102FA37
:104F50000CF2A0EB0C0000F10100704723F07F473A
:104F600020F07F4C80EA030000F00040ACEB070328
:104F700003F57C5303F1FF032DE9804909B44FEA9F
:104F8000144324EA03484FEA154B25EA0B4E0FF26F
:104F9000042606EB13273E7803FB0667C7F50007D8
:104FA00007FB06F64FEAD64606F102064FEA5437EB
:104FB00007FB066CCCF1005C4FEA1C472CEA074C5F
:104FC0000CFB06F507FB06F404EB15464FEA9616B4
:104FD00049085FEA320234BF00204FF000404FEA38
:104FE000D13706FB07FC4FEA1C4C0CFB0BF7D21B1E
:104FF00003FB0CF761EB07010CFB0EF7B0EB07406E
:1050000072EB17420CFB08F734BFA2EB0742B2EB7E
:10501000074261EB17414FEA0C444FEA910706FB48
:1050200007FC4FEA1C4C0CFB0BF7B0EBC74072EBD4
:10503000573203FB0CF734BFA2EBC742B2EBC742B7
:1050400061EB57310CFB0EF7B0EBC70072EB5772F8
:105050000CFB08F734BFA2EBC702B2EBC70261EB4F
:1050600057714FEA816141EA92114FEA826242EA46
:1050700090124FEA806004EBCC04039F4FEAD137D3
:1050800006FB07FC4FEA1C4C0CFB0BF7D21B03FB87
:105090000CF761EB07010CFB0EF7B0EB074072EB6E
:1050A00017420CFB08F734BFA2EB0742B2EB0742F2
:1050B00061EB17414FEA8C5504EB9C244FEA9107B2
:1050C00006FB07FC4FEA1C4C0CFB0BF7B0EBC74090
:1050D00072EB573203FB0CF734BFA2EBC742B2EBC3
:1050E000C74261EB57310CFB0EF7B0EBC70072EB18
:1050F00057720CFB08F734BFA2EBC702B2EBC70232
:1051000061EB57714FEA816141EA92114FEA826285
:1051100042EA90124FEA806015EB4C2544F10004FE
:105120004FEAD13706FB07FC4FEA1C4C0CFB0BF790
:10513000D21B03FB0CF761EB07010CFB0EF7B0EB86
:10514000074072EB17420CFB08F734BFA2EB074293
:10515000B2EB074261EB17414FEA813141EA9241DC
:105160004FEA823242EA90424FEA80304FEA0C76B0
:1051700015EB1C1544F1000448EA03434EEA0B48C2
:105180004FF0000EB2EB080C71EB030724BF624630
:1051900039464EEB0E0E4FF0000B001852414941BC
:1051A0004BEB0B0BB2EB080C71EB03077BF1000B25
:1051B00024BF624639464EEB0E0E4FF0000B00182E
:1051C000524149414BEB0B0BB2EB080C71EB03075F
:1051D0007BF1000B24BF624639464EEB0E0E51EABE
:1051E000020718BF46F0010616EB0E7655F10002D5
:1051F00054F1000103D5BDE88901BDE80088BDE890
:105200008901BDE80048B619524141EB0101A3F103
:105210000103704780807F7E7D7C7B7A797877760A
:1052200076757473727171706F6E6E6D6C6C6B6A83
:105230006A69686867666665646463636261616021
:10524000605F5F5E5E5D5D5C5C5B5B5A5A5959589E
:105250005857575656555555545453535252525108
:10526000515050504F4F4F4E4E4D4D4D4C4C4C4B5E
:105270004B4B4A4A4A4949494848484747474746A5
:1052800046464545454444444443434343424242E1
:105290004241414110B546EA06464FEA164646EA03
:1052A00042564FEAD22242EA41524FEAD121A3F5B7
:1052B0007053A3F1010300F02FF820F0004000F03C
:1052C000004700F1020CBCF5006F01EB00501146E5
:1052D00040EA070000D210BDBAF1000F0AD01CB599
:1052E00003B44FF004004FF004014FF000000FBC76
:1052F000BDE810404FF00001BBF1010FB9BF0448F9
:105300004FF0FF310348002140EA070010BD00BF05
:10531000FFFFEF7F0000F07F9C46002B30D477002A
:105320002BD04FEA37071CB503B44FF010004FF0F5
:105330001001BAF1000F06D0BCF1000FDCBF40F045
:10534000080040F008014FF000000FBCBDE810401D
:105350000BF1010BBBF1010F08BF5FEA170722BF7A
:1053600012F1010211F101014FF0004143F100037C
:1053700000F0004043EA00007047F9D35708D0E737
:1053800046EA06464FEA164613F1400F1FDD13F1B9
:10539000200FDFBF16430A46002120335B42BED0F8
:1053A000C3F1200746EA06464FEA164602FA07F717
:1053B00046EA070622FA03F2C3F1200701FA07F7CB
:1053C00042EA070221FA03F14FF00003A7E746EA99
:1053D000020646EA06464FEA164646EA0106BCBF02
:1053E00046EA0646360C4FF000034FF000024FF03D
:1053F000000194E72DE9804C70B49A46934691E8F9
:10540000380007C831EA400C48BF34EA430C03D5E2
:10541000FFF7A4FDFFF780FFF0BCBDE8008C2DE98D
:10542000804C70B49A46934691E8380007C831EA38
:10543000400C48BF34EA430C03D5FFF78FFDFFF75C
:1054400029FFF0BCBDE8008C2DE9804C70B49A4671
:10545000934691E8380007C810F0804F08BF13F05A
:10546000804F03D100F01AF8FFF756FFF0BCBDE8FB
:10547000008C2DE9804C70B49A46934691E8380030
:1054800007C810F0804F08BF13F0804F03D100F021
:1054900005F8FFF7FFFEF0BCBDE8008C20F07F4769
:1054A00023F07F4C80EA030000F0004007EB0C0380
:1054B000A3F57C53A3F1FE0392F0000F00F0B3803C
:1054C00095F0000F00F077802DE901494FEA114077
:1054D00021EA00484FEA144624EA064700FB06FC8E
:1054E00008FB06F607FB08F818EB06484CEB164CD1
:1054F00000FB07F718EB07484CEB17404FEA124B3D
:1055000022EA0B4E4FEA154625EA06470BFB06FC3E
:105510000EFB06F607FB0EFE1EEB064E4CEB164C82
:105520000BFB07F71EEB074E4CEB174B18EB0B086A
:1055300040F1000018EB0E0B58EB000840F10000A2
:105540008F1A4FF000014FF000063CBFC943661BA5
:1055500014BFB5EB040C00213CBFC943F61B4FEA56
:10556000174427EA04454FEA1C472CEA074C04FB82
:10557000076205FB07F70CFB05F616EB074642EB47
:10558000174204FB0CFC16EB0C4642EB1C421BEBD7
:10559000060658EB020241414EEA8E0E46EA9E068E
:1055A00001D5BDE80189B619524141EB0101A3F1D2
:1055B0000103BDE801894FEA144524EA05464FEA94
:1055C000114721EA074C05FB07F406FB07F70CFB24
:1055D00006F111EB074144EB174405FB0CFC11EB02
:1055E0000C4144EB1C444FEA124722EA074C05FBEE
:1055F00007F206FB07F70CFB06F616EB074642EB35
:10560000174205FB0CFC16EB0C4642EB1C456A18D6
:1056100054F1000148BF7047B619524141EB0101F6
:10562000A3F10103704795F0000F37D04FEA114204
:1056300021EA02464FEA144724EA074C02FB07F12D
:1056400006FB07F70CFB06F414EB074441EB17418C
:1056500002FB0CFC14EB0C4441EB1C414FEA1547D8
:1056600025EA074C02FB07F506FB07F70CFB06F6DD
:1056700016EB074645EB174502FB0CFC16EB0C46F8
:1056800045EB1C42121951F1000148BF7047B61991
:10569000524141EB0101A3F1010370474FEA144568
:1056A00024EA05464FEA114721EA074C05FB07F1BA
:1056B00006FB07F70CFB06F212EB074241EB174122
:1056C00005FB0CFC12EB0C4251EB1C414FF00006A9
:1056D00048BF7047921841EB0101A3F101037047E5
:1056E000490050EAC12018BF04204A0D18BF40F0FD
:1056F000010040F2FF72B2EB515F08BF40F00200C0
:10570000012808BF0520704740F2013200204FF009
:10571000E04100F0D7BC0000024A0020110700F071
:10572000D1BC000001FDFFFF10B50446D1E9000126
:1057300000F002F8206010BDF8B504460D466A4638
:1057400000F06AF800987E30009000281EDC0022ED
:1057500013462046294600F037F917D0002140F6BD
:1057600008004FF0000006462046294600F0E6F803
:10577000044640F6080006EA00014FF0000034F04D
:10578000004004BF0220FCF736F829E00098FF280B
:1057900028DB002108464FF0000000F440060022FC
:1057A00013462046294600F0DBF98CBF0025012571
:1057B0000220FCF720F84FF0FF4446B1002D0CBF4B
:1057C0004FF400004FF48000B04218BF084C042191
:1057D00008464FF00000002D04BF84F00040F8BDE3
:1057E0002046F8BD20462946BDE8F84000F0A6B89E
:1057F000FFFF7F7F10B504460A46D4E9000319462F
:1058000000F036F8C4E9000110BD30380A2801D292
:10581000012070470020704710B514460022226016
:10582000114A21F000439342A8BF10BD53EA000281
:1058300008BF10BDB3F5801FA8BF226807DA362263
:1058400000F040FC6FF0350221F000432260DFF8E9
:105850001CC06FF31E510CEB23531A4441F0FF514F
:1058600041F00051226010BD0000F07F02FCFFFFFC
:105870002DE9F04106460C4640F2FF75174635EA21
:1058800014502BD000221346304600F09DF825D04E
:105890003A463046214600F015FC06460C4635EAED
:1058A000145010D000221346304600F08DF815D168
:1058B0000220FBF7A0FFFFF72FFF0A46214662F305
:1058C0001E01BDE8F0810220FBF795FFFFF71CFFEA
:1058D0000A46214662F31E01BDE8F08130462146AA
:1058E000BDE8F08110B500290AD00878002807D05B
:1058F00005487844FCF7BAF9002801D0002010BD13
:105900000248784410BD0000BE090000B60900003E
:1059100010B500290AD00878002807D00548784437
:10592000FCF7A4F9002801D0002010BD02487844FB
:1059300010BD0000AE090000A609000021F00042E1
:1059400001F00043A2F16052B2F5801F28BFD2F1EE
:105950007F6C0BD95FEA001C43EAC20242EB507035
:1059600018BF704728BF20F001007047B2F5801FB4
:10597000BCBF184670474FEA410C1CF5001F02D20D
:10598000084600F0EDBA70B500F096F80000008906
:10599000FFF7F6BF4FF00040A0F580007047000011
:1059A00002494FF0000000F05BBB00BF0000F87F31
:1059B000491058BFC1F140415B1058BFC3F140438B
:1059C0008B42EFF30080704751EA030C17D41CF5AB
:1059D000801F58BFBCF5801F00F10680994218BF98
:1059E000704708BF9042704707D711F5801F58BF16
:1059F00013F5801F19D499427047894270471CF5EE
:105A0000801F08D5BCF5801FF7D58B4218BF7047A3
:105A100008BF824270474FF4001C1CEB410F38BF97
:105A20001CEB430F01D28B42704770B500F044F875
:105A3000922449004FF000514FF08053FFF7B8BF58
:105A400051EA030C17D41CF5801F58BFBCF5801F0A
:105A500000F10680994218BF704708BF9042704716
:105A600007D711F5801F58BF13F5801F19D499422D
:105A70007047894270471CF5801F08D5BCF5801F10
:105A8000F7D58B4218BF704708BF824270474FF46A
:105A9000001C1CEB410F38BF1CEB430F01D28B42A3
:105AA000704770B500F008F8922449004FF000519B
:105AB0004FF08053FFF77CBF0EF1020E2EF0030E65
:105AC0005EF8046B364205D4012A43EB030515F555
:105AD000001F12D8012841EB010C1CF5001F0CD847
