:020000040800F2
:10000000F006002089010008611300085913000858
:100010005D1300084502000881130008000000007D
:10002000000000000000000000000000691300084C
:100030005502000800000000651300086D13000859
:10004000A3010008A3010008A3010008A301000800
:10005000A3010008A3010008A3010008A3010008F0
:10006000A3010008A3010008A3010008A3010008E0
:10007000A3010008A3010008A3010008A3010008D0
:10008000A3010008A3010008A3010008A3010008C0
:100090007513000849020008A3010008A301000825
:1000A000A3010008A3010008A3010008A3010008A0
:1000B000A3010008A3010008A3010008A301000890
:1000C000A3010008A3010008A3010008A301000880
:1000D000A3010008A3010008A3010008A301000870
:1000E000A3010008A3010008A301000800F002F822
:1000F00000F03AF80AA090E8000C82448344AAF188
:100100000107DA4501D100F02FF8AFF2090EBAE885
:100110000F0013F0010F18BFFB1A43F0010318473B
:10012000AC140000CC140000103A24BF78C878C189
:10013000FAD8520724BF30C830C144BF04680C60ED
:10014000704700000023002400250026103A28BF35
:1001500078C1FBD8520728BF30C148BF0B60704739
:100160001FB51FBD10B510BD00F031F81146FFF7E7
:10017000F7FF01F007F900F04FF803B4FFF7F2FFC3
:1001800003BC00F057F800000948804709480047C1
:10019000FEE7FEE7FEE7FEE7FEE7FEE7FEE7FEE737
:1001A000FEE7FEE704480549054A064B7047000094
:1001B00071130008ED000008F0000020F006002098
:1001C000F0020020F002002070477047704775462B
:1001D00000F02CF8AE4605006946534620F00700B3
:1001E000854618B020B5FFF7DDFFBDE820404FF091
:1001F00000064FF000074FF000084FF0000BAC4630
:10020000ACE8C009ACE8C009ACE8C009ACE8C0097A
:1002100021F007018D46704710B50446AFF300800A
:100220002046BDE81040FFF7A8BF00000048704717
:100230001000002001491820ABBEFEE72600020096
:1002400070470000FEE7000040F27800C2F20000B4
:1002500000F004B870470000704700002DE9F04F2F
:1002600081B0044600684669D0F804908768D0F8E9
:100270000CB0D0F810A0D0F81880F10704D10025F8
:1002800030071DD424E000BFF90710D00121BA07C0
:10029000816009D4780700F1AF80380700F1B6809B
:1002A000204600F0DDF902E0204600F0DBF90025F1
:1002B000F80500F18780F80300F1B180300707D519
:1002C0001BF0100004D0206845F400751021C160B7
:1002D000700708D51BF0080005D020680821C16010
:1002E000204600F0B3F9B00706D52068C068800743
:1002F00002D0204600F0ACF9700607D51AF01000C5
:1003000004D0206845F4806510210161B00608D54D
:100310001AF0080005D0206808210161204600F08D
:1003200099F9F00606D520680069800702D02046BA
:1003300000F092F9B00308D519F0100005D020683C
:1003400010214160204600F089F9F00308D519F02A
:10035000080005D0206808214160204600F08CF993
:10036000300440F19B805FEA497040F1948006F4CC
:10037000807008EA102028435FEA8871014648BF70
:1003800041F00201B20558BF01465FEA48700D46D0
:1003900048BF45F00405700558BF0D46300540F1D3
:1003A0007A8018F0700000F0768010380009052877
:1003B0006CD8DFE800F003595D61656945F0080518
:1003C00064E000BF20684FF48071BA0581600BD4EF
:1003D000780515D438051DD4204600F045F9F803FA
:1003E0007FF56CAF1BE000BF204600F03FF9F8033B
:1003F0007FF564AF13E000BF4FF4006558E700BF1E
:1004000005F50055F8037FF559AF08E04FF4805526
:100410004EE700BF05F58045F8037FF54FAF206834
:100420004FF48031BA0381600AD4780310D43803C2
:1004300014D4204600F01CF930073FF541AF47E7E0
:10044000204600F017F930073FF53AAF40E700BF0C
:1004500005F5004530073FF533AF39E705F5803541
:1004600030073FF52DAF33E745F010050EE000BF34
:1004700045F020050AE000BF45F0400506E000BF5A
:1004800045F0800502E000BF45F480752068816971
:1004900021F07001816120680421416055B1606ADA
:1004A00040EA05012046616201B0BDE8F04FFFF768
:1004B000D3BE00BF01B0BDE8F08F0000B0B5C8B139
:1004C000044690F8200010B9204600F071F820682A
:1004D000016841F00101016000F0E6F9054600BF46
:1004E00020684168C90707D100F0DEF9401B0B28DE
:1004F000F6D312E00120B0BD016821F002010160D5
:1005000000F0D2F9054600BF2068416889070DD583
:1005100000F0CAF9401B0B28F6D3606A052140F4AD
:1005200000306062012084F82010B0BD217E026896
:10053000012922F0800208BF80320260617E0268D9
:10054000012922F0400208BF40320260A17E026809
:10055000012922F0200208BF20320260E17E0268F9
:10056000012922F0100218BF10320260217F0268B8
:10057000012922F0080208BF08320260617F026888
:10058000012922F0040208BF04320260D4E901C24A
:10059000D4E9033561691A432A431143ACF10102DE
:1005A0001143C16100200121606284F82010B0BDB8
:1005B000B0B586B040F60004C4F201040068A4F5AA
:1005C000244200219042059102D006B0B0BD00BF88
:1005D00041F21800C4F20200426802AD42F000721B
:1005E0004260426802F000720192019A026842F091
:1005F00004020260006800F00400019001984FF4CA
:100600000060CDE9020104912046294600F036F849
:100610004FF4805002900220039003200590204662
:10062000294600F02BF814200121002200F0BAF92D
:10063000142000F0A7F915200121002200F0B2F9E2
:10064000152000F09FF906B0B0BD00007047000013
:1006500070470000704700007047000070470000BE
:1006600070470000704700007047000070470000AE
:100670007047000070470000704700002DE9F04F00
:1006800082B041F20042C4F201020E68042390429B
:1006900008BF0323002E009300F0F68040F2004CC8
:1006A0004FF6FF7E0022C4F2010C0124C1F2100EAD
:1006B0004FF0000A4FF0000947E000BF012502F0AB
:1006C0000C040F27A7402BEA070705FA04F43C4364
:1006D00043F82640D1F804B040F20C455FEACB2342
:1006E000DCF8083054BF23EA080343EA0803C4F2E5
:1006F0000105CCF808302B685FEA8B2454BF23EA4D
:10070000080343EA08032B605FEA8B34DCF804300B
:1007100054BF23EA080343EA08035FEACB34CCF86A
:100720000430DCF800304FF0010454BF23EA080322
:1007300043EA0803CCF800300E680AF1010A36FAE1
:100740000AF302F1040200F09F8004FA0AF816EAA4
:10075000080FF1D04B68734512DC122B56D8DFE836
:1007600003F0350B45495555555555555555555576
:100770005555554D510000BFD1F80C9046E000BFD3
:100780004FF6FF75C1F22105AB420FDC0025C1F227
:100790001105AB421AD00025C1F21205AB4215D0AB
:1007A0000025C1F22105AB4210D02FE00025C1F297
:1007B0002205AB420AD00025C1F23105AB4205D07B
:1007C0000025C1F23205AB4220D100BF8B684BB18E
:1007D000012B14BFC0F81480C0F810804FF0080936
:1007E00014E000BF4FF0040910E000BFCB6803F134
:1007F00008090BE04FF0000908E000BFCB6803F1E7
:10080000040903E0CB6803F10C0900BF1346054659
:10081000BAF1080F24BF203B04352E680F279F40F4
:10082000BE4309FA03F333432B60CB79DB067FF534
:1008300083AF41F21804C4F2020423684FEA9A0617
:1008400043F001032360236840F6000403F0010332
:100850000193019BACF57E7353F826B0C4F20104FA
:10086000A0420FD040F60044C4F20104A0423FF47D
:1008700025AF41F20004C4F20104009DA04208BF6C
:1008800002251CE700251AE702B0BDE8F08F000042
:100890008068084018BF012070470000002A08BF88
:1008A000090401617047000040F2E800C2F2000054
:1008B0000068704740F2000040F2E801C2F2000018
:1008C000C2F2000100780A68104408607047000016
:1008D00080B542F20000C4F20200016841F010014C
:1008E0000160032000F08AF80F2000F005F800F006
:1008F00027F8002080BD000070B540F20006C2F26B
:10090000000640F208013278C2F200014FF47A7317
:100910000968B3FBF2F20446B1FBF2F1084600F0BD
:1009200037FB0F2C4FF0010508D838B94FF0FF30D6
:1009300021460022002500F035F87460284670BD7D
:1009400082B041F21800C4F202000168022241F0B4
:1009500001010160016801F0010101910199416803
:1009600041F080514160406800F080500090009854
:100970000420C4F20100016862F31A61016002B050
:1009800070470000002848BF704700F01F01012297
:1009900002FA01F14EF200124009CEF2000242F8D2
:1009A0002010704710B54EF60C5CCEF2000CDCF84F
:1009B0000030C3F3022E8EF00704042C28BF042459
:1009C000BEF103034FF0FF3E0EFA04F438BF0023DC
:1009D000A14399400EFA03F39A43114300F00F022A
:1009E000043A624409010C3200F16043B0F1FF3F68
:1009F000C8BF03F56442117010BD00004EF60C51E3
:100A0000CEF200010A684FF6FF031A4060F30A2293
:100A100042F0806040F0FD70086070472DE9F043BF
:100A200081B0002800F0858042F20008C4F202087C
:100A30000446D8F800000D4600F0070088420CD2AA
:100A4000D8F8000020F007002843C8F80000D8F8C4
:100A5000000000F00700A8426BD1206841F20409B1
:100A60008107C4F2020917D5410705D5D9F800104E
:100A700041F4E061C9F80010010705D5D9F800106C
:100A800041F46051C9F80010D9F80010A26821F0B3
:100A9000F0011143C9F80010C00741D1D8F8000097
:100AA00000F00700A8420CD9D8F8000020F0070099
:100AB0002843C8F80000D8F8000000F00700A8425A
:100AC00037D12068410707D5D9F80010E26821F432
:100AD000E0611143C9F80010000708D5D9F80000FB
:100AE000216920F4605040EAC100C9F80000D9F83B
:100AF000002002F00C00082841F20020C0F27A0029
:100B000050D141F2BA53C2F38341C0F60003595C9D
:100B1000D2033BD440F60010C0F23D00484341E010
:100B2000606802280AD001282AD159F8041C8903D8
:100B300008D4012001B0BDE8F08300BF59F8041CBF
:100B40008901F6D5D9F8001021F003010843C9F84E
:100B50000000FFF7A9FE064641F28837D9F80000E9
:100B6000616800F00C00B0EB810F97D0FFF79CFE9E
:100B7000801BB842F2D9032001B0BDE8F08300BF6A
:100B800059F8041C8907D4D5DCE700BFD9F8002048
:100B900041F2B853C2F34042C0F600039A5C4843A6
:100BA000B0FBF2F0D9F8001041F2A852C1F30311E2
:100BB000C0F60002515C40F2080220FA01F140F256
:100BC0000400C2F200000068C2F200021160FFF7E8
:100BD00093FE002001B0BDE8F08300002DE9F04154
:100BE00082B0002868D00446007841F20006C007B1
:100BF000C4F2020625D0706800F00C0004281BD057
:100C0000706800F00C00082802D17068C00313D48B
:100C10006068002800F06881B0F5A02F00F07C81AA
:100C2000B0F5803F00F07C81306820F48030306087
:100C3000306820F4802076E13068800301D5606858
:100C4000D0B32078800718D5706810F00C0F07D04B
:100C5000706800F00C0008286ED17068C0036BD477
:100C60003068800702D52069012825D13068616984
:100C700020F0F80040EAC1003060207800071FD45F
:100C80002078400732D4E56995B1706800F00C0017
:100C9000082840F08F80012D0ED07068216A00F482
:100CA00080328A4208D1616A00F47010884203D110
:100CB000002002B0BDE8F081012002B0BDE8F08163
:100CC000A069002862D00020C4F242200121C0F8AF
:100CD0008014FFF7E9FD0546706A800700F18C80FB
:100CE000FFF7E2FD401B0228F6D92AE1F06910F077
:100CF000805808D1F06940F08050F061F06900F050
:100D000080500090009847F20007C4F2000738684E
:100D1000C00529D4386840F480703860FFF7C4FDFE
:100D2000054600BF3868C0051ED4FFF7BDFD401B57
:100D30006428F7D905E100BF2069002840F20000CF
:100D4000C4F2422000F0828001210160FFF7ACFD77
:100D5000054600BF306880073FF588AFFFF7A4FD68
:100D6000401B0228F6D9ECE0E068002800F0808003
:100D7000052800F09780012800F09880306A20F064
:100D800001003062306A20F0040092E00020C4F2DA
:100D900042200021C0F88014FFF786FD054600BF01
:100DA000706A80077FF56CAFFFF77EFD401B02285D
:100DB000F6D9C6E00027C4F2422700203866FFF7C4
:100DC00073FD022D05460BD13068800140F1BE80D5
:100DD000FFF76AFD401B02284FF00300F4D968E7D3
:100DE000306880017FF564AFFFF75EFD401B02288D
:100DF0004FF00300F4D95CE740F20800C2F20000B3
:100E0000006844F6D351C1F26201A0FB0101480A17
:100E1000019000BF00BF0198411E002801913FF4DE
:100E20002FAF00BF0198411E002801913FF428AF69
:100E300000BF0198411E002801913FF421AF00BF7F
:100E40000198411E00280191E4D119E700210160B9
:100E5000FFF72AFD054600BF306880077FF50DAF1C
:100E6000FFF722FD401B02284FF00300F4D920E7D2
:100E7000306A20F001003062306A20F004003062F5
:100E8000FFF712FD054641F2883700BF306A800740
:100E900020D5FFF709FD401BB8424FF00300F5D9FC
:100EA00007E700BF306A40F004003062306A40F06B
:100EB00001003062FFF7F8FC054641F2883700BFB9
:100EC000306A800706D4FFF7EFFC401BB842F7D921
:100ED00037E000BFB8F1000F7FF4D5AEF06920F025
:100EE0008050F061CFE600BF306820F48030306081
:100EF000306820F480203060FFF7D6FC054600BF44
:100F0000306880037FF59DAEFFF7CEFC401B642860
:100F10004FF00300F4D9CCE6306840F48020306014
:100F2000306840F480303060FFF7BEFC054600BFFB
:100F3000306880033FF585AEFFF7B6FC401B6428A0
:100F4000F6D9032002B0BDE8F08100BF206AB0F5F9
:100F5000803F05D17168A26821F4003111437160AE
:100F60007168626A21F474111043084370600120B3
:100F70003866FFF799FC0446306880013FF598AE6B
:100F8000FFF792FC001B02284FF00300F4D990E613
:100F9000411E0020B0EB116F1CBF012070474EF2C4
:100FA0001002CEF2000251604EF62351CEF2000143
:100FB000F0230B70072190601160704710B590F816
:100FC0003C20012A4FF0020233D080F83D20026815
:100FD000D2F804E0D2F808C00C682EF07003234366
:100FE00040F2FF74C4F20004A24253600ADCB2F182
:100FF000804F13D040F20043C4F200039A420DD058
:1010000011E000BF42F60043C4F201039A4205D04A
:1010100040F60003C4F200039A4204D149682CF060
:101020008003194391600121002280F83D1080F86F
:101030003C20104610BD0000002804BF012070476E
:1010400010B5044690F83D0028B9002084F83C0013
:10105000204600F067F8022084F83D00206840F246
:10106000FF730268C4F2000342F6004C9842C4F2D7
:10107000010C15DCB0F1804F1AD040F20041C4F2EF
:101080000001884214D0984218DCB0F1804F1DD086
:1010900040F20041C4F20001884217D01AE000BFBC
:1010A000604505D040F60001C4F200018842EAD153
:1010B000A16822F070020A439842E6DD604505D03F
:1010C00040F60001C4F20001884203D1216922F4F4
:1010D00040720A43A36922F08001D4F804E0E26878
:1010E000194360450160C262C0F828E002D161691D
:1010F000CCF8301001214161002084F8461084F8BA
:101100003E1084F83F1084F8401084F8411084F8B1
:10111000421084F8431084F8441084F8451084F891
:101120003D1010BD81B00068B0F1804F02D001B019
:10113000704700BF41F21C00C4F20200016841F098
:1011400001010160006800F001000090009801B00A
:101150007047000090F83D1001291CBF0120704726
:10116000022180F83D10006840F2FF71C4F20001D6
:10117000884209DCB0F1804F12D040F20041C4F245
:10118000000188420CD012E042F60041C4F2010195
:10119000884205D040F60001C4F20001884206D121
:1011A000816801F00701062904BF0020704701682B
:1011B00041F00101016000207047000080B590F807
:1011C0003C20012A4FF0020200F0C28080F83D204E
:1011D000D0F800C04FF67772DCF8083023EA02023C
:1011E000CCF808200B684F2B28DC1F2B44DD202B6C
:1011F00045D0302B43D0402B40F0AC80D1F804E0F8
:10120000C968DCF82030DCF8202022F00102CCF89C
:101210002020DCF8182022F0F00242EA011123F02D
:101220000A0242EA0E02CCF81810CCF82020DCF8B2
:10123000081041F0470121F0300180E06F2B27DDDD
:10124000B3F5005F48D0B3F5805F7AD0702B40F0E3
:101250008180D1E901E3C968DCF8082043EA0E0384
:1012600022F47F4243EA01211143CCF80810DCF854
:10127000081041F0770162E00BB1102B6AD1DCF865
:10128000081021F07001194341F0070157E000BF39
:10129000502B35D0602B5DD1D1F804E0C968DCF863
:1012A0002030DCF8202022F01002CCF82020DCF8DE
:1012B000182022F4704242EA013123F0A00242EAEF
:1012C0000E12CCF81810CCF82020DCF8081041F0F1
:1012D000670121F0100132E0D1E901E3C968DCF8CF
:1012E000082043EA0E0322F47F4243EA012111431E
:1012F000CCF80810DCF8081041F480411FE000BF72
:10130000D1F804E0C968DCF82030DCF8202022F0B5
:101310000102CCF82020DCF8182022F0F00242EA8A
:10132000011123F00A0242EA0E02CCF81810CCF8A0
:101330002020DCF8081041F0570121F02001CCF802
:1013400008100022012180F83D10002180F83C1097
:10135000104680BD0122F5E7FEE70000FEE7000031
:10136000FEE700007047000070470000FFF7A2BAD8
:101370007047000040F27800C2F20000FEF76EBF36
:10138000FEE7000090B0FFF7A3FA00240120CDE9AA
:101390000B44CDE9094406900A904FF4E0104FF455
:1013A000803102250F9006A8CDE90714CDE90D5133
:1013B000FFF714FC20B1EFF3108072B6FEE700BF18
:1013C0000F20CDE900054FF48060CDE903046846A5
:1013D00002210294FFF722FB20B1EFF3108072B6D6
:1013E000FEE700BF41F21800C4F20200016840F6B7
:1013F000000441F0100101600168C4F2010401F031
:10140000100106910699016804F5006541F020017C
:1014100001600168002201F020010691069901682F
:101420004FF4005641F00401016000684FF4005190
:1014300000F004000690069828460027FFF72EFAD1
:1014400002200DF11808069601260990284641460B
:10145000CDE90766FFF712F90320CDE9060720461C
:1014600041460896FFF70AF940F27008C2F20008F8
:101470004FF08041404640F8301F4FF434714FF632
:10148000FF720997CDE90777CDE90077C0E9011729
:10149000C0E903278761FFF7CFFD28B1EFF3108084
:1014A00072B600BFFEE700BF4FF4805008F1300570
:1014B000069006A92846FFF781FE28B1EFF31080B9
:1014C00072B600BFFEE700BF69462846FFF776FD0B
:1014D00020B1EFF3108072B6FEE700BFA4F52441FF
:1014E000404640F8081F122100224FF48033C0E923
:1014F0000112C0E90323C0E905228283FEF7DEFF63
:1015000020B1EFF3108072B6FEE700BF2427284613
:10151000C4F20007FFF71EFE04E000BF3868801B1E
:10152000C8F80400FFF7C0F900F164052046012166
:10153000FFF7AEF9012805D0FFF7B6F9A842F5D9B3
:101540000CE000BF3E6800BF20460121FFF7A0F974
:10155000012805D1FFF7A8F9A842F5D9002001E03C
:101560003868801BC8F80000FFF79EF900F1640599
:1015700020460221FFF78CF9012805D0FFF794F9E6
:10158000A842F5D90CE000BF3E6800BF204602210A
:10159000FFF77EF90128C1D1FFF786F9A842F5D9F6
:1015A0000020C8F80400BDE70000000000000000B3
:1015B00001020304060708090102020304050607E5
:1015C00008090A0B0C0D0E0F10100000F015000892
:1015D000000000201000000028010008001600088C
:1015E00010000020E0060000440100080000000098
:1015F00001000000100000000024F40000000000C2
:04000005080000ED02
:00000001FF
