:020000040800F2
:10000000E8070020A101000825390008E9340008AC
:1000100021390008FD1000085D3A000800000000CA
:100020000000000000000000000000002D39000862
:10003000DD130008000000002939000831390008EC
:10004000BB010008BB010008BB010008BB010008A0
:10005000BB010008BB010008BB010008BB01000890
:10006000BB010008BB010008BB010008BB01000880
:10007000BB010008BB010008BB010008BB01000870
:10008000BB010008BB010008BB010008BB01000860
:10009000513A000801110008BB010008BB0100082B
:1000A000BB010008BB010008BB010008BB01000840
:1000B000BB010008BB010008BB010008BB01000830
:1000C000BB010008BB010008BB010008BB01000820
:1000D000BB010008453A0008BB010008BB0100084D
:1000E000BB010008BB010008BB01000800F002F8DA
:1000F00000F047F80AA090E8000C82448344AAF17B
:100100000107DA4501D100F03CF8AFF2090EBAE878
:100110000F0013F0010F18BFFB1A43F0010318473B
:10012000444B0000644B0000103A24BF78C878C1EB
:10013000FAD8520724BF30C830C144BF04680C60ED
:10014000704700000023002400250026103A28BF35
:1001500078C1FBD8520728BF30C148BF0B60704739
:10016000782900F06580002070471FB500F088FCFA
:1001700004000020002104F023FBE0601FBD10B547
:1001800010BD00F00FFD1146FFF7EFFF03F068FC14
:1001900000F062FF03B4FFF7F2FF03BC00F0A6FF1C
:1001A0000948804709480047FEE7FEE7FEE7FEE70B
:1001B000FEE7FEE7FEE7FEE7FEE7FEE70448054947
:1001C000054A064B7047000035390008ED0000086D
:1001D000E8010020E8070020E8030020E8030020F1
:1001E00070B5044685690068C10601D5302600E077
:1001F0002026C00707D070BDD4E9012130469047C2
:10020000206A401C20626D1EF6D570BD70B5044694
:1002100085690078C00707D170BDD4E9012120208D
:100220009047206A401C20626D1EF6D570BD00000C
:1002300070B504460D4621461068AFF30080218852
:10024000090502D50F4A7A4402E00E4A7A440E327A
:10025000002104F1240305E000F00F060009965D7B
:100260005E54491C0028F7D120780023000704D5EC
:10027000702D02D009B1022311322046BDE8704032
:1002800000F01BB9324900002DE9FF5F1D464FF019
:10029000FF3B91464FF000085F46D5E90146A9694A
:1002A00001987F1C8847296A824688470028F6D132
:1002B000BAF1FF3F0CD0002E24F4C06419DD6006B3
:1002C00014D5BAF12B0F09D0BAF12D0F0ED103E0DE
:1002D000584604B0BDE8F09F44F48064A9690198D1
:1002E0007F1C8847761E8246002E02DDBAF1300F51
:1002F00003D0B9F1000F26D032E0A969761E01982B
:100300007F1C44F400748847002E824605DDBAF154
:10031000780F06D0BAF1580F03D0B9F1000F10D002
:100320001EE0B9F1000F02D0B9F1100F18D1A96980
:10033000761E01987F1C24F40074884782461020A2
:1003400002E0082000E00A20814609E0A96908FBD4
:100350000908761E01987F1C44F400748847824681
:10036000002E05DD4946504600F000F90028EDDA80
:10037000E96901988847A00502D46FF00100A8E759
:10038000E00725D1600613D5600502D5C8F100004D
:1003900000E0404629680A1D2A600968220501D547
:1003A000087015E0220701D5088011E008600FE011
:1003B0002868011D29600068210502D580F80080A9
:1003C00006E0210702D5A0F8008001E0C0F8008017
:1003D00038467EE72DE9FF5F4FF000089946144646
:1003E00046469169D2E901A7DDF838B001988847FF
:1003F000054659EA0B0005D009E0A1690198761C71
:1004000088470546216A284688470028F5D1681C98
:1004100003D05FEACA7005D015E04FF0FF3004B09A
:10042000BDE8F09F2068011D2160D0F800800AE03F
:100430005FEACA7001D108F8015BA169761C0198D6
:100440007F1E88470546002F1ADD681C18D0B9F1B9
:10045000000F0DD0E81705EBD060421120F01F000F
:1004600059F822102A1A012090400142E0D107E0F9
:10047000BBF1000FDCD12846216A88470028D7D07D
:10048000E16901988847BBF1000F07D1002E05DD17
:100490005FEACA7002D1002188F80010A068B84253
:1004A00003DDBBF1000F03D017B16FF00100B6E719
:1004B0003046B4E77047704770472DE9F0470D4666
:1004C00099469246044600F124080168880604D53E
:1004D000E06921F01001216000E00120A84201DD67
:1004E000471B00E00027A1697A1902EB0900081AEE
:1004F000A0612078C00602D42046FFF771FE0026D6
:1005000008E0D4E901211AF806009047206A401C4F
:10051000761C20624E45F4DB2078C0060AD52046C2
:10052000FFF75EFE06E0D4E9012130209047206A03
:10053000401C2062381EA7F10107F4DC07E0D4E973
:10054000012118F805009047206A401C2062281EEF
:10055000A5F10105F3DC2046FFF758FE20780006E0
:1005600002D50220BDE8F0870120FBE73A2800D23F
:10057000303820F02002412A01D3A2F1370088420E
:1005800001D34FF0FF3070472DE9FF4F06468BB087
:100590000878FF2806D0491C2D2805D000244FF0EC
:1005A000000908E000200CE00124F8E709EB8903CA
:1005B000491C00EB43090878FF28F7D114B1C9F1B1
:1005C00000008146107800252C46AA4629462D2891
:1005D00001D02B2804D1521C2D2813D00020824694
:1005E0008B461078FF280FD04FF0000C0A21521CC8
:1005F000A5FB017804FB018105FB0C11C5194BEB30
:100600000104EEE70120EAE7002108464FF0000070
:10061000BAF1000F02D000EB80004008C0F3815710
:10062000012F01DD4FF0FF370E9955EA040009EB69
:1006300001080BD04FF0020918F5FA7F16DA4FEADD
:10064000CA70002F706008DD012007E04FEACA7011
:10065000C6E900B00FB0BDE8F08F0020306000F0B8
:1006600013FAC0F800901821084616E0B8F5FA7F92
:1006700018DD002F02DAF748784401E0F6487844A4
:10068000D0E90010C6E9001040EACA70706000F0BE
:10069000FBF9C0F80090142108460FB0BDE8F04FF8
:1006A00004F0EBB9002108464FF00000B8F100015A
:1006B000099002DAC7F1000200E03A4601DAC8F117
:1006C000000106A800F0F8F906AB93E8070003ABB9
:1006D00083E8070044F23E005BEA040100905846BC
:1006E00004D144F21E012C465D460091210C090400
:1006F000014306D10099240444EA15442D0410391D
:10070000009104F07F41014306D10099240244EA9C
:1007100015642D020839009104F07041014306D19F
:100720000099240144EA15742D01091F009104F079
:100730004041014306D10099A40044EA9574AD00FC
:10074000891E009104F00041084304D100986D19FE
:100750006441401E00904FF001033A466846B8F1EC
:10076000000FCDE9014503A902DD03F004FE01E01D
:1007700003F0D7FDBAF1000F04460D4601D084F016
:100780000044002108464FF00000099940F2FF772D
:10079000484010F00C0F07D124F00040284303D04C
:1007A000C4F30A50B84212D100F06EF9C0F80090BC
:1007B000C4F30A50B8420AD1A8487844D0E90010DE
:1007C000C6E9001004F000410843706042E7C6E942
:1007D00000543FE72DE9FF4F1F464FF0000A4FF04E
:1007E000FF38454691B0D7E90146CDF83CA000F06E
:1007F00047F9C0680168405C1090B96912986D1C97
:100800008847396A814688470028F6D1B9F1FF3F09
:100810000AD0002E24F4D06411DDB9F12B0F08D0DA
:10082000B9F12D0F0BD102E0404615B013E744F4A7
:100830008064B96912986D1C8847761E81466005F0
:1008400004A901D52D2000E02B20002E01F1010B81
:100850000DF130088DF810003FDDB9F1690F08D0B7
:10086000B9F1490F05D0B9F16E0F02D0B9F14E0FB1
:100870001CD13B4601A8009580E85002DDE9121228
:100880006FF0020004F060F9C11CCED10EE0B9692E
:1008900012986D1C884781461398761E44F40074A4
:1008A00005600F98401C002E0F9016DDB9F1300F37
:1008B000EDD0B9F1780F02D0B9F1580F0DD10F98E2
:1008C00001280AD13B46CDE90054DDE91212001F90
:1008D000029604F037F9C11CA7D1109989453ED181
:1008E00044F0800406E01399681CAAF1010A44F45C
:1008F00000740860B9696D1C1298761E884730280C
:100900008146F0D02BE01099894505D1200603D40B
:10091000761E44F0800418E0484603F0E4FE08B375
:10092000761E0DF123029345A9F1300044F40074C2
:1009300006D20BF8010B200607D5AAF1010003E04F
:10094000200602D40AF101008246A00502D51399BF
:10095000681C0860B96912986D1C88478146002E92
:10096000D1DC53E0002E51DDB9F1650F02D0B9F1B1
:10097000450F4BD1A00549D5B9696D1C1298761E5B
:1009800024F440748847002E81460CDD2B2804D0C7
:10099000B9F12D0F07D144F48074B96912986D1C18
:1009A0008847761E8146E00501D52D2100E02B21E8
:1009B00008F8011BCDF8008021E0761E0DF1390109
:1009C000884544F400740CD2A9F1300010F0FF0007
:1009D00088F8000002D10099884509D908F101087A
:1009E00006E0E00501D51E4801E042F20F708246A4
:1009F000B96912986D1C8847814613980560002ECE
:100A000004DD484603F06FFE0028D6D1F96912983C
:100A10008847FF2053468BF8000088F8000000202C
:100A20000A900B9004AA0CA90AA8FFF7ADFDA00537
:100A300002D46FF00100F8E614F0240F12D0E007A2
:100A40001CD13868DDE90A12031D3B600068C0E96B
:100A5000001213E01046000002460000C6440000E9
:100A6000F1D8FFFF0AA9684603F0CCFDE00705D1E5
:100A70003868009A011D3960006802602846D4E693
:100A800000487047300000200048704710000020E8
:100A9000B2F120030AD5C2F1200301FA02F120FAD3
:100AA00003F341EA030100FA02F0704700FA03F190
:100AB0004FF00000704700002DE9F04781461646D0
:100AC0008AB0354878440DC88DE80D003248784426
:100AD000801C03AC0DC884E80D0041F69B3008442F
:100AE000372190FBF1F290FBF1F5A5F1800501FBB8
:100AF00012041B3C02D56442012000E00020DFF814
:100B000098A080460027FA44AAF1BE0A0EE0E0074A
:100B10000AD03246684607EB470101230AEB810100
:100B200003F014FC8DE8070064107F1C002CEED14C
:100B3000194F7F44AE3F19E0E80715D007EB0410CA
:100B40000DF1180A90E80E008AE80E00C068F04225
:100B500001D1981908903246012306A903A803F091
:100B6000F5FB03AB83E807006D10641C002DE3D197
:100B70004FF0010332466946B8F1000F03A802D0D6
:100B800003F0BAFB01E003F0E1FBC9E90001C9F899
:100B900008200AB0BDE8F0875841000000487047BF
:100BA000100000207546FFF7F9FFAE4605006946C4
:100BB000534620F00700854618B020B5FFF7FEFA2F
:100BC000BDE820404FF000064FF000074FF000084E
:100BD0004FF0000BAC46ACE8C009ACE8C009ACE88B
:100BE000C009ACE8C00921F007018D46704710B577
:100BF000FFF74AFF006810BD10B50446FFF744FF39
:100C0000046010BD2DE9FF4F1F464FF03C0987B02F
:100C10004FF00042DDE9141001F10108DDF858A0A1
:100C200002EA4050039000200590834605460446A2
:100C30000490B969461E08988847AAF1010A0290F3
:100C4000BAF1000F3BDD02982E2815D01021FFF7D6
:100C50008DFC00282EDB4FF0010B0599014317D0C6
:100C6000B9F1000F0BDB4A46C117FFF711FF05432F
:100C70000C43A9F1040905E0012004900BE008B140
:100C800045F0010501200590049820B9361D02E0C9
:100C9000049800B1361FB969089808F1010888471F
:100CA000BBF1000FAAF1010A0290C9D00999C1F85D
:100CB0000080C5E70298702808D0502806D0F9694E
:100CC00008988847BBF1000F14D04FE00020029035
:100CD0000120BBF1000F049009D0B969089808F110
:100CE00001088847AAF10109B9F1000F07DCF96989
:100CF000089888476FF001000BB0BDE8F08F2B28F3
:100D000004D02D280CD14FF0FF300490B969089819
:100D100008F101088847A9F10109B9F1000FE6DDE2
:100D2000411CE4D00A21FFF721FC0028DFDB0299F7
:100D300008F1010801EB810100EB41000290B96963
:100D4000089888470A21FFF711FC099AA9F10109BF
:100D5000B9F1000FC2F8008001DD0028E7DAF96977
:100D6000089888470499029800FB016655EA040038
:100D700004D004F04041090002D006E0039898E056
:100D8000A40044EA9574AD00B61E04F000410800CA
:100D900002D16D196441761E159810F0240F03D00E
:100DA0004FF00B095C4803E04FF028096FF07D001D
:100DB0008246564507DAAAEB06018944B9F1410F8C
:100DC00001DD4FF0410901200021A9F10102FFF7E7
:100DD0005FFE024628400B462140084301D0012116
:100DE00000E00021501E029143F1FF3128402140D4
:100DF000084301D0012000E000200299834651EA17
:100E00000B014FD0002108464FF00000039900F479
:100E1000400039B100EB80004FF4400100EBD0708E
:100E200001EA60008015012802DD4FF0FF3000E08C
:100E300013D0401C36D0029860B3BBF1000F0CD128
:100E40004A4601200021FFF723FE284021400843A5
:100E500001D0012000E00020E0B101204A4600213D
:100E6000FFF716FE034640190A4661412D1A8C41D0
:100E700011D3B9F1400F09DD159810F0240F02D0FD
:100E8000AAF1340603E0AAF1170600E0761C00255B
:100E90004FF0004406E05B1E42F1FF3220EA0305FA
:100EA00021EA0204CAF10100B04206DA1B490398A4
:100EB00008430190002000900EE0039AC4F3D32170
:100EC000E80A0A43164940EA44500A433146CDE94C
:100ED0000002684603F0FCFB159810F0240F0BD0BD
:100EE0001598C00715D13868DDE90012031D3B6075
:100EF0000068C0E900120CE002A8694603F082FB1A
:100F00001598C00705D13868029A011D396000683C
:100F100002604046F0E6000002FCFFFF0000F07FA8
:100F20000000F03F2DE9FF4F92461D4685B04FF07F
:100F30000041DDE9124BDDE914727F1E01EA4B50DE
:100F4000414940F0FF4940EA0108002122F0200019
:100F50004928049102D04E2828D04CE03BA001261D
:100F600007C88DE80700A9690698641C88477F1E9A
:100F7000014606D41DF8060018B121F02001814277
:100F80000BD0E96906988847032E34D0082E32D05A
:100F90006FF0010009B0BDE8F08F761C032E01D080
:100FA000082EE0D1601CCAF80000DCE7A9690698A9
:100FB000641C88477F1E2AD420F02000412826D1B7
:100FC000A9690698641C88477F1E20D420F0200061
:100FD0004E281CD1A9690698641C88477F1E48F4D6
:100FE000002849F48009CAF8004001D4282806D016
:100FF000E969069888475FEACB7012D022E0A969B8
:101000000698641C88477F1E01D4002803DAE9692A
:1010100006988847BCE72928F1D1641CCAF800402B
:10102000E9E71BF0240F07D028680499031D2B6003
:101030000068C0E9001805E02868021D2A60006801
:10104000C0F800902046A5E70000F07F494E4649D1
:101050004E4954590000000010B50446AFF300801B
:101060002046BDE81040FFF795B800004FF0013C66
:1010700050F8042B51F8043B9A4221D1A2EB0C0307
:10108000934313EACC1317D150F8042B51F8043BC7
:101090009A4215D1A2EB0C03934313EACC130BD164
:1010A00050F8042B51F8043B9A4209D1A2EB0C03EF
:1010B000934313EACC13DBD04FF00000704700BF1E
:1010C000D01A01BAB1FA81F101F0180122FA01F047
:1010D000CB40DBB2C0B2C01AC1F120012CFA01F33F
:1010E000D11A914311EAC311E6D170470149182082
:1010F000ABBEFEE72600020070470000FEE70000DE
:1011000040F2D400C2F2000000F0F2BA2DE9F04142
:1011100082B0044608982160A07140F60640C2F6ED
:101120001400C4F807000820E072322022716371B5
:1011300000F0B6FDE07A3825002808BF30252E1DC6
:10114000012038278DF8046000F0AAFD01208DF8F9
:1011500005508DF8066000F0A3FD206821794FF45A
:101160007A7801AA04238DF80750CDF8008000F0AA
:101170008BFFE07A3826002808BF3026351D012075
:101180008DF8045000F08CFD01208DF805608DF87D
:10119000065000F085FD2068217901AA04238DF80E
:1011A0000760CDF8008000F06FFF052000F078FDAB
:1011B000E07A2825002808BF302707F1040008BF7F
:1011C00020258DF804000120282600F069FD281D47
:1011D0008DF8060001208DF8057000F061FD206893
:1011E000217901AA04238DF80750CDF8008000F082
:1011F0004BFF052000F054FDE07A2825002818BF99
:10120000012008BF2025C700281D8DF804000120FB
:1012100000F046FD381D8DF8060001208DF80550C0
:1012200000F03EFD2068217901AA04238DF80770A3
:10123000CDF8008000F028FF052000F031FDE079B6
:10124000E27A010120F00F0501F10807002A14BF1E
:1012500008350701281D8DF80400012000F020FD4D
:10126000381D8DF8060001208DF8055000F018FD9E
:101270002068217901AA04238DF80770CDF8008039
:1012800000F002FF207AE27A010120F00F0501F15F
:101290000807002A14BF08350701281D8DF804002F
:1012A000012000F0FDFC381D8DF8060001208DF8AE
:1012B000055000F0F5FC2068217901AA04238DF87F
:1012C0000770CDF8008000F0DFFE607AE27A01015D
:1012D00020F00F0501F10807002A14BF08350701A7
:1012E000281D8DF80400012000F0DAFC381D8DF86F
:1012F000060001208DF8055000F0D2FC206821790D
:1013000001AA04238DF80770CDF8008000F0BCFE20
:10131000A07AE27A010120F00F0501F10807002A06
:1013200014BF08350701281D8DF80400012000F0C6
:10133000B7FC381D8DF8060001208DF8055000F02F
:10134000AFFC2068217901AA04238DF80770CDF83D
:10135000008000F099FEE07A1827002818BF0120CD
:101360004FEAC00505F1040008BF10278DF80400FE
:10137000012000F095FC381D8DF8060001208DF845
:10138000055000F08DFC2068217901AA04238DF816
:101390000770CDF8008000F077FEE07A00280CBFDF
:1013A00020260120C500281D8DF80400012000F032
:1013B00077FC301D8DF8060001208DF8055000F0F7
:1013C0006FFC2068217901AA04238DF80760CDF80D
:1013D000008000F059FE02B0BDE8F08170470000C7
:1013E0000B4640F270018446C2F200011846012209
:1013F000CCF8003002F04AB890F82020013A012AD7
:1014000008D8006800F11402002013681943116025
:10141000704700BF00F1240201204FF480211368BF
:10142000194311607047000010B590F820E0D0F823
:1014300000C0AEF1010EBEF1010FDCF808E00FD8DC
:101440001EF0E05F16D0CEF3016E012000FA0EF020
:1014500018608B68C3B1486843EAC00316E000BF58
:1014600000F1240101204FF480220B681A430A6026
:1014700010BD00BF00F1240101204FF400120B68E1
:101480001A430A6010BD00BF08684305D1E9030490
:1014900003430CEB0E10C0F88031C0F88441097D85
:1014A000012905D100F5C2710B6843F480730B600C
:1014B0005168C0F88C11126800F5C071C0F888211D
:1014C000002001220B681A430A6010BDB0B5026803
:1014D00090F82030013B012B28D8D2F800020123DC
:1014E00040F00100C2F80002D1F814E0CC690EF01F
:1014F0001F0003FA00F0D2F81C326FEA000C83439D
:10150000012CC2F81C3217D06CBBD2F80C3203EAA3
:101510000C03C2F80C32CB688C8844EA034302EB1C
:10152000CE04C4F840320B4615E000BF416A41F4D6
:10153000802141620120B0BDD2F80C320343C2F8D1
:101540000C320B688C8844EA034302EBCE04C4F8E7
:10155000403201F10C038C681B8843EA044302EB20
:10156000CE04C4F84432D2F804328D6943EA000450
:10157000D1F810E0096A002D08BF03EA0C04C2F894
:101580000442D2F81432BEF1000F43EA000408BF4F
:1015900003EA0C040129C2F8144204D1D2F81C1247
:1015A0000843C2F81C02D2F8000220F00100C2F881
:1015B00000020020B0BD00007047000010B590F898
:1015C0002040013C012C7BD8D0F800C0002900F05D
:1015D0008180DCF81040A40700F081800CEB011C36
:1015E000DCF8B0410CF5D87E14F004049460DCF80B
:1015F000B04119BFE4085460640D1460DEF8004087
:101600000CF5DA7E04F00204D460DCF8B44124075F
:101610005ABFDEF8004004F00F0408241461DEF81D
:1016200000400029C4F307249461DEF800404FEA2B
:1016300014445461DCF8B8211A70026802EB0112FC
:10164000D2F8B8214FEA12225A70026802EB011256
:10165000D2F8B8214FEA12429A70026802EB0112E6
:10166000D2F8B8214FEA1262DA70026802EB011276
:10167000D2F8BC211A71026802EB0112D2F8BC2127
:101680004FEA12225A71026802EB0112D2F8BC2111
:101690004FEA12429A71026802EB0112D2F8BC21A1
:1016A0004FEA1262DA71006814BF00F1100100F114
:1016B0000C01002020220B681A430A6010BD00BFF5
:1016C00000F1240101204FF480220B681A430A60C4
:1016D00010BD00BFDCF80C40A4077FF47FAF00F121
:1016E000240101204FF400120B681A430A6010BD58
:1016F0002DE9F04F81B0044600684669D0F80490A7
:101700008768D0F80CB0D0F810A0D0F81880F10796
:1017100004D1002530071DD424E000BFF90710D004
:101720000121BA07816009D4780700F1AF8038073A
:1017300000F1B680204600F027FA02E0204600F0D3
:1017400025FA0025F80500F18780F80300F1B18043
:10175000300707D51BF0100004D0206845F4007551
:101760001021C160700708D51BF0080005D0206863
:101770000821C160204600F0B3F9B00706D5206803
:10178000C068800702D0204600F0ACF9700607D58B
:101790001AF0100004D0206845F480651021016122
:1017A000B00608D51AF0080005D0206808210161AC
:1017B000204600F0B5F9F00606D5206800698007DC
:1017C00002D0204600F0AEF9B00308D519F01000A1
:1017D00005D0206810214160204600F0A5F9F003F3
:1017E00008D519F0080005D020680821416020467E
:1017F00000F0D6F9300440F19B805FEA497040F177
:10180000948006F4807008EA102028435FEA88710B
:10181000014648BF41F00201B20558BF01465FEAE8
:1018200048700D4648BF45F00405700558BF0D4689
:10183000300540F17A8018F0700000F076801038A2
:10184000000905286CD8DFE800F003595D6165697F
:1018500045F0080564E000BF20684FF48071BA05C8
:1018600081600BD4780515D438051DD4204600F0CE
:101870008FF9F8037FF56CAF1BE000BF204600F046
:1018800089F9F8037FF564AF13E000BF4FF40065FA
:1018900058E700BF05F50055F8037FF559AF08E09C
:1018A0004FF480554EE700BF05F58045F8037FF5FE
:1018B0004FAF20684FF48031BA0381600AD47803B7
:1018C00010D4380314D4204600F066F930073FF5F1
:1018D00041AF47E7204600F061F930073FF53AAFE6
:1018E00040E700BF05F5004530073FF533AF39E766
:1018F00005F5803530073FF52DAF33E745F010058E
:101900000EE000BF45F020050AE000BF45F04005AD
:1019100006E000BF45F0800502E000BF45F4807599
:101920002068816921F07001816120680421416093
:1019300055B1606A40EA05012046616201B0BDE828
:10194000F04FFFF739BE00BF01B0BDE8F08F0000D7
:10195000B0B5C8B1044690F8200010B9204600F098
:1019600071F82068016841F00101016000F0CAFAD5
:10197000054600BF20684168C90707D100F0C2FAD8
:10198000401B0B28F6D312E00120B0BD016821F006
:101990000201016000F0B6FA054600BF2068416808
:1019A00089070DD500F0AEFA401B0B28F6D3606A0C
:1019B000052140F400306062012084F82010B0BDA1
:1019C000217E0268012922F0800208BF8032026075
:1019D000617E0268012922F0400208BF40320260A5
:1019E000A17E0268012922F0200208BF2032026095
:1019F000E17E0268012922F0100218BF1032026055
:101A0000217F0268012922F0080208BF0832026023
:101A1000617F0268012922F0040208BF04320260DB
:101A2000D4E901C2D4E9033561691A432A43114359
:101A3000ACF101021143C16100200121606284F810
:101A40002010B0BDB0B586B040F60004C4F2010469
:101A50000068A4F5244200219042059102D006B00E
:101A6000B0BD00BF41F21800C4F20200426802ADEE
:101A700042F000724260426802F000720192019AE4
:101A8000026842F004020260006800F00400019065
:101A900001984FF40060CDE90201049120462946E7
:101AA00000F012F94FF480500290022003900320BE
:101AB00005902046294600F007F914200021002255
:101AC00000F076FC142000F063FC152000210022B9
:101AD00000F06EFC152000F05BFC06B0B0BD00000D
:101AE0007047000010B540F27404C2F2000404F123
:101AF000440204F124030021FFF760FD002818BF11
:101B000010BD606C122809D141F20000C4F201003E
:101B10004FF40051BDE8104000F0E6B910BD0000E0
:101B2000704700007047000070470000B0B50446E1
:101B300090F8200001281DD1022084F820002068A0
:101B4000016821F00101016000F0DCF9054600BFE9
:101B500020684068C00713D000F0D4F9401B0B2860
:101B6000F6D3606A40F400306062052084F82000FB
:101B70000120B0BD606A40F4002060620120B0BD69
:101B800000206062B0BD0000704700007047000098
:101B90007047000070470000704700007047000069
:101BA00070470000014690F82100022816D108680D
:101BB000D1E90FC3026822F00E020260026822F02F
:101BC00001020260012000FA03F2CCF8042081F83F
:101BD00021000020002281F8202070470420886323
:101BE0000120002281F820207047000080B590F885
:101BF0002110022924D10268116821F00E01116020
:101C00002F211368C4F202018A4240F20401C4F297
:101C1000020123F00103136016DD3023C4F2020336
:101C20009A421DD04423C4F202039A421CD0582386
:101C3000C4F202039A421DD14FF4803322E000BF68
:101C400004218163012080BD0823C4F202039A426B
:101C50000ED01C23C4F202039A420BD1102311E0D0
:101C60004FF480730EE000BF4FF480530AE000BFD2
:101C7000012307E001F1680C4FF08073624508BF53
:101C80004FF480130B60012180F82110426B00217A
:101C900080F820100AB190470021084680BD00005E
:101CA000B0B5044600F02EF9054640F20000C2F23D
:101CB00000000078611C18BF044400BF00F022F946
:101CC000401BA042FAD3B0BD2DE9F04F82B041F2E3
:101CD0000042C4F201020E680423904208BF0323AD
:101CE000002E009300F0F68040F2004C4FF6FF7E8D
:101CF0000022C4F2010C0124C1F2100E4FF0000AC0
:101D00004FF0000947E000BF012502F00C040F2747
:101D1000A7402BEA070705FA04F43C4343F82640A2
:101D2000D1F804B040F20C455FEACB23DCF8083070
:101D300054BF23EA080343EA0803C4F20105CCF8C0
:101D400008302B685FEA8B2454BF23EA080343EA78
:101D500008032B605FEA8B34DCF8043054BF23EABD
:101D6000080343EA08035FEACB34CCF80430DCF81C
:101D700000304FF0010454BF23EA080343EA08038C
:101D8000CCF800300E680AF1010A36FA0AF302F1C3
:101D9000040200F09F8004FA0AF816EA080FF1D056
:101DA0004B68734512DC122B56D8DFE803F0350B75
:101DB0004549555555555555555555555555554DF7
:101DC000510000BFD1F80C9046E000BF4FF6FF7500
:101DD000C1F22105AB420FDC0025C1F21105AB4277
:101DE0001AD00025C1F21205AB4215D00025C1F270
:101DF0002105AB4210D02FE00025C1F22205AB42F5
:101E00000AD00025C1F23105AB4205D00025C1F250
:101E10003205AB4220D100BF8B684BB1012B14BF00
:101E2000C0F81480C0F810804FF0080914E000BF1B
:101E30004FF0040910E000BFCB6803F108090BE084
:101E40004FF0000908E000BFCB6803F1040903E08C
:101E5000CB6803F10C0900BF13460546BAF1080F21
:101E600024BF203B04352E680F279F40BE4309FA4C
:101E700003F333432B60CB79DB067FF583AF41F26D
:101E80001804C4F2020423684FEA9A0643F00103DF
:101E90002360236840F6000403F001030193019BD3
:101EA000ACF57E7353F826B0C4F20104A0420FD003
:101EB00040F60044C4F20104A0423FF425AF41F2D1
:101EC0000004C4F20104009DA04208BF02251CE7E3
:101ED00000251AE702B0BDE8F08F000080680840D6
:101EE00018BF012070470000C26802EA0103914355
:101EF00041EA034101617047002A08BF09040161FA
:101F00007047000040F2E010C2F200000068704725
:101F100070B5B8B3044690F83D0028B9002084F8A5
:101F20003C00204600F09AF9242084F83D00206807
:101F3000016821F001010160016841F40041016084
:101F4000016821F40041016000F04EFB48F280413D
:101F5000C0F21E0140F60013D4F804E088424FF0AE
:101F60000001C0F23D0348F2A16C4FF0000238BFFF
:101F700001219842C0F2010C38BF0122E64538BF6A
:101F80000A460AB1012070BD4DF68361C4F21B31CF
:101F9000A0FB01122168950C4B684FF4967623F054
:101FA0003F0343EA9243754344F6D3564B60C1F274
:101FB00062060B6AA5FB0656B50923F03F03E6450A
:101FC00038BF950C6A1C1A430A62CA6948F2A066B7
:101FD0004CF6FF73C0F20106B64522EA03020BD8A5
:101FE00001384FEA4E03B0FBF3F001306FF31F30BE
:101FF000042898BF04201EE0A368013863B11923A8
:102000000EFB03F3B0FBF3F001306FF31F3078B138
:1020100000F5804008E000BF0EEB4E03B0FBF3F08C
:1020200001306FF31F3028B100F5004003E000BF1E
:10203000012000E001201043C8610868D4E90723AB
:1020400020F0C000104318430860886848F2FF324F
:1020500004F10C0690434CCE18431043A5698860E8
:10206000C86820F0FF0030432843C860086840F08B
:102070000100086000202021206484F83D102063C6
:1020800084F83E0070BD00002DE9F04383B01E4689
:10209000174689460446FFF735FF94F83D1020297E
:1020A00020D10546206800BF8169890716D5FFF752
:1020B00029FF411B20681A29F6D381698907F3D5C6
:1020C00000202021206384F83D1084F83E00216C1C
:1020D00041F02001216484F83C0003E094F83C10B6
:1020E000012903D1022003B0BDE8F083012184F867
:1020F0003C100168C90703D1016841F0010101608A
:10210000016840F2020821F400610160212184F895
:102110003D10102184F83E1000212164676266851D
:10212000618DC0F201082185A8F10211E162E16A26
:102130000A9E11F5803F18BF01291DD1016841F4A5
:102140008071016020464FF0011100223346009556
:1021500001F02CFA50B120680068C00544BF4FF46C
:1021600000702064012003B0BDE8F0832069B0F561
:10217000804F07D1FE2015E00829DFD0216B1229FE
:10218000DCD0DFE7062000EAD9102168F0300861D2
:1021900008F10601204632462B4601F0F1FA0028EC
:1021A000E0D1FF20216800EA09000861204641468D
:1021B00032462B4601F0E4FA0028D3D100200290E9
:1021C00020684169029180690290029806E000BF90
:1021D000204631462A4601F089F918BB208D68B3A4
:1021E000204631462A4601F03BFBD8B9606A216897
:1021F000024612F8013B0B616262628D013A628510
:10220000228D531E23854F697F07E1D51B04DFD044
:10221000437802300B616062608D01386085901EEA
:102220002085D5E7206C04289CD12068016841F402
:1022300000710160012003B0BDE8F08320680168EF
:1022400041F400710160202084F83D00002084F8F2
:102250003E0084F83C0003B0BDE8F08310B586B0C2
:1022600045F200410068C4F2000100228842049255
:1022700002D006B010BD00BF41F21804C4F202043F
:10228000206840F008002060206800F008000190FD
:102290000198C0200290122003900320059001F5C0
:1022A000384002A9FFF710FD606840F4001060603C
:1022B000606800F400100190019806B010BD0000A5
:1022C00040F2000040F2E011C2F20000C2F2000150
:1022D00000780A68104408607047000080B542F238
:1022E0000000C4F20200016841F010010160032007
:1022F00000F08AF80F2000F005F800F027F8002021
:1023000080BD000070B540F20006C2F2000640F247
:1023100008013278C2F200014FF47A730968B3FB06
:10232000F2F20446B1FBF2F1084600F05FFB0F2C1D
:102330004FF0010508D838B94FF0FF302146002290
:10234000002500F035F87460284670BD82B041F277
:102350001800C4F202000168022241F0010101608C
:10236000016801F0010101910199416841F080513A
:102370004160406800F08050009000980420C4F252
:102380000100016862F31A61016002B07047000049
:10239000002848BF704700F01F01012202FA01F136
:1023A0004EF200124009CEF2000242F820107047AF
:1023B00010B54EF60C5CCEF2000CDCF80030C3F326
:1023C000022E8EF00704042C28BF0424BEF1030360
:1023D0004FF0FF3E0EFA04F438BF0023A1439940AA
:1023E0000EFA03F39A43114300F00F02043A6244D9
:1023F00009010C3200F16043B0F1FF3FC8BF03F5A3
:102400006442117010BD00004EF60C51CEF2000176
:102410000A684FF6FF031A4060F30A2242F0806018
:1024200040F0FD70086070472DE9F04381B000284E
:1024300000F0858042F20008C4F202080446D8F891
:1024400000000D4600F0070088420CD2D8F80000CA
:1024500020F007002843C8F80000D8F8000000F07A
:102460000700A8426BD1206841F204098107C4F239
:10247000020917D5410705D5D9F8001041F4E061EC
:10248000C9F80010010705D5D9F8001041F46051D2
:10249000C9F80010D9F80010A26821F0F00111432A
:1024A000C9F80010C00741D1D8F8000000F00700BB
:1024B000A8420CD9D8F8000020F007002843C8F83B
:1024C0000000D8F8000000F00700A84237D12068CB
:1024D000410707D5D9F80010E26821F4E061114303
:1024E000C9F80010000708D5D9F80000216920F4C8
:1024F000605040EAC100C9F80000D9F8002002F09D
:102500000C00082841F20020C0F27A0050D144F6B5
:102510005243C2F38341C0F60003595CD2033BD45B
:1025200040F60010C0F23D00484341E060680228D8
:102530000AD001282AD159F8041C890308D40120A3
:1025400001B0BDE8F08300BF59F8041C8901F6D53D
:10255000D9F8001021F003010843C9F80000FFF783
:10256000D1FC064641F28837D9F80000616800F0D6
:102570000C00B0EB810F97D0FFF7C4FC801BB84272
:10258000F2D9032001B0BDE8F08300BF59F8041C64
:102590008907D4D5DCE700BFD9F8002044F65043C2
:1025A000C2F34042C0F600039A5C4843B0FBF2F02D
:1025B000D9F8001044F63842C1F30311C0F6000206
:1025C000515C40F2080220FA01F140F20400C2F22C
:1025D00000000068C2F200021160FFF793FE0020C5
:1025E00001B0BDE8F083000040F2080041F20401B0
:1025F000C2F20000C4F202010068096844F64842D1
:10260000C1F30221C0F60002515CC84070470000CF
:1026100040F2080041F20401C2F20000C4F20201DB
:102620000068096844F64842C1F3C221C0F60002BE
:10263000515CC840704700002DE9F04182B000288D
:1026400068D00446007841F20006C007C4F20206D2
:1026500025D0706800F00C0004281BD0706800F0D2
:102660000C00082802D17068C00313D460680028E9
:1026700000F06881B0F5A02F00F07C81B0F5803FBC
:1026800000F07C81306820F480303060306820F4C5
:10269000802076E13068800301D56068D0B320786F
:1026A000800718D5706810F00C0F07D0706800F024
:1026B0000C0008286ED17068C0036BD430688007A6
:1026C00002D52069012825D13068616920F0F80021
:1026D00040EAC1003060207800071FD4207840070E
:1026E00032D4E56995B1706800F00C00082840F01C
:1026F0008F80012D0ED07068216A00F480328A42EA
:1027000008D1616A00F47010884203D1002002B041
:10271000BDE8F081012002B0BDE8F081A069002889
:1027200062D00020C4F242200121C0F88014FFF7DB
:10273000E9FB0546706A800700F18C80FFF7E2FB39
:10274000401B0228F6D92AE1F06910F0805808D120
:10275000F06940F08050F061F06900F08050009026
:10276000009847F20007C4F200073868C00529D472
:10277000386840F480703860FFF7C4FB054600BF3E
:102780003868C0051ED4FFF7BDFB401B6428F7D98D
:1027900005E100BF2069002840F20000C4F2422099
:1027A00000F0828001210160FFF7ACFB054600BF0D
:1027B000306880073FF588AFFFF7A4FB401B022875
:1027C000F6D9ECE0E068002800F08080052800F0F1
:1027D0009780012800F09880306A20F00100306274
:1027E000306A20F0040092E00020C4F24220002170
:1027F000C0F88014FFF786FB054600BF706A8007AB
:102800007FF56CAFFFF77EFB401B0228F6D9C6E0D0
:102810000027C4F2422700203866FFF773FB022D21
:1028200005460BD13068800140F1BE80FFF76AFB9E
:10283000401B02284FF00300F4D968E7306880019C
:102840007FF564AFFFF75EFB401B02284FF00300EB
:10285000F4D95CE740F20800C2F20000006844F6D8
:10286000D351C1F26201A0FB0101480A019000BFEF
:1028700000BF0198411E002801913FF42FAF00BF17
:102880000198411E002801913FF428AF00BF019834
:10289000411E002801913FF421AF00BF0198411E65
:1028A00000280191E4D119E700210160FFF72AFB1C
:1028B000054600BF306880077FF50DAFFFF722FBAC
:1028C000401B02284FF00300F4D920E7306A20F0C3
:1028D00001003062306A20F004003062FFF712FB22
:1028E000054641F2883700BF306A800720D5FFF7E0
:1028F00009FB401BB8424FF00300F5D907E700BFC2
:10290000306A40F004003062306A40F0010030620A
:10291000FFF7F8FA054641F2883700BF306A8007B2
:1029200006D4FFF7EFFA401BB842F7D937E000BFF3
:10293000B8F1000F7FF4D5AEF06920F08050F0615F
:10294000CFE600BF306820F480303060306820F47B
:1029500080203060FFF7D6FA054600BF306880035C
:102960007FF59DAEFFF7CEFA401B64284FF00300C1
:10297000F4D9CCE6306840F480203060306840F410
:1029800080303060FFF7BEFA054600BF3068800334
:102990003FF585AEFFF7B6FA401B6428F6D9032051
:1029A00002B0BDE8F08100BF206AB0F5803F05D1DC
:1029B0007168A26821F40031114371607168626A24
:1029C00021F4741110430843706001203866FFF74A
:1029D00099FA0446306880013FF598AEFFF792FA05
:1029E000001B02284FF00300F4D990E6411E00209E
:1029F000B0EB116F1CBF012070474EF21002CEF2F7
:102A0000000251604EF62351CEF20001F0230B700C
:102A1000072190601160704710B590F83C20012AA2
:102A20004FF0020233D080F83D200268D2F804E073
:102A3000D2F808C00C682EF07003234340F2FF74F4
:102A4000C4F20004A24253600ADCB2F1804F13D0FA
:102A500040F20043C4F200039A420DD011E000BFDF
:102A600042F60043C4F201039A4205D040F6000347
:102A7000C4F200039A4204D149682CF08003194340
:102A800091600121002280F83D1080F83C20104622
:102A900010BD0000002804BF0120704710B5044697
:102AA00090F83D0028B9002084F83C00204600F052
:102AB00067F8022084F83D00206840F2FF73026846
:102AC000C4F2000342F6004C9842C4F2010C15DC3B
:102AD000B0F1804F1AD040F20041C4F200018842A8
:102AE00014D0984218DCB0F1804F1DD040F2004164
:102AF000C4F20001884217D01AE000BF604505D03B
:102B000040F60001C4F200018842EAD1A16822F037
:102B100070020A439842E6DD604505D040F60001A8
:102B2000C4F20001884203D1216922F440720A43B1
:102B3000A36922F08001D4F804E0E26819436045FB
:102B40000160C262C0F828E002D16169CCF830109F
:102B500001214161002084F8461084F83E1084F879
:102B60003F1084F8401084F8411084F8421084F833
:102B7000431084F8441084F8451084F83D1010BDCB
:102B800081B00068B0F1804F02D001B0704700BF43
:102B900041F21C00C4F20200016841F00101016031
:102BA000006800F001000090009801B0704700003C
:102BB00090F83D1001291CBF01207047022180F8C8
:102BC0003D10006840F2FF71C4F20001884209DC48
:102BD000B0F1804F12D040F20041C4F200018842AF
:102BE0000CD012E042F60041C4F20101884205D047
:102BF00040F60001C4F20001884206D1816801F06C
:102C00000701062904BF00207047016841F0010157
:102C1000016000207047000080B590F83C20012A38
:102C20004FF0020200F0C28080F83D20D0F800C0D2
:102C30004FF67772DCF8083023EA0202CCF808205D
:102C40000B684F2B28DC1F2B44DD202B45D0302B6D
:102C500043D0402B40F0AC80D1F804E0C968DCF8E8
:102C60002030DCF8202022F00102CCF82020DCF813
:102C7000182022F0F00242EA011123F00A0242EA8F
:102C80000E02CCF81810CCF82020DCF8081041F027
:102C9000470121F0300180E06F2B27DDB3F5005FA5
:102CA00048D0B3F5805F7AD0702B40F08180D1E9B5
:102CB00001E3C968DCF8082043EA0E0322F47F42EE
:102CC00043EA01211143CCF80810DCF8081041F068
:102CD000770162E00BB1102B6AD1DCF8081021F00B
:102CE0007001194341F0070157E000BF502B35D068
:102CF000602B5DD1D1F804E0C968DCF82030DCF845
:102D0000202022F01002CCF82020DCF8182022F439
:102D1000704242EA013123F0A00242EA0E12CCF8DE
:102D20001810CCF82020DCF8081041F0670121F0E1
:102D3000100132E0D1E901E3C968DCF8082043EA78
:102D40000E0322F47F4243EA01211143CCF808101C
:102D5000DCF8081041F480411FE000BFD1F804E026
:102D6000C968DCF82030DCF8202022F00102CCF821
:102D70002020DCF8182022F0F00242EA011123F0B2
:102D80000A0242EA0E02CCF81810CCF82020DCF837
:102D9000081041F0570121F02001CCF80810002262
:102DA000012180F83D10002180F83C10104680BDC4
:102DB0000122F5E77047000070470000B0B582B00F
:102DC000044600680168C368426901F02F05202DA0
:102DD00003F0200506D12DB1204602B0BDE8B04079
:102DE00000F0B0BD5FEA017C1EBF02F0010E03F4EB
:102DF000907212EB0E0255D1226B012A05D111F00F
:102E0000100218BF13F0100236D10A0622D513F0B3
:102E100080021FD094F84110212941D1A168B1F559
:102E2000805F03D12169002900F07282216A4A1C67
:102E3000226209784160E18C01390A04E1842FD1D2
:102E4000C16821F08001C160C16841F04001C160EA
:102E500002B0B0BD490623D513F0400120D0C168AF
:102E600021F04001C1602021204684F8411002B0C9
:102E7000BDE8B04000F036BB00210191016801912E
:102E80004168019101994169490600F18F80A18D46
:102E9000E28DE38D002B1CBF891A5FEA01420CD141
:102EA00002B0B0BDCA0718BF13F4807240F0388179
:102EB0004A0700F13B8140E1206850E8030F226897
:102EC00020F4907042E80303DBB1206850E8030F60
:102ED000226820F4907042E8030393B1206850E820
:102EE000030F226820F4907042E803034BB120687E
:102EF00050E8030F226820F4907042E80303002B8F
:102F0000DAD1206850E8050F226820F0010042E87D
:102F10000503DBB1206850E8050F226820F00100AE
:102F200042E8050393B1206850E8050F226820F0BD
:102F3000010042E805034BB1206850E8050F226804
:102F400020F0010042E80503002BDAD1202084F8AC
:102F5000420000202063206850E8030F226820F020
:102F6000100042E80303DBB1206850E8030F226839
:102F700020F0100042E8030393B1206850E8030FEB
:102F8000226820F0100042E803034BB1206850E8AB
:102F9000030F226820F0100042E80303002BDAD16F
:102FA000022289B220466263B4E000BFE16B0A6886
:102FB000526893B2002B3FF473AFA58DAB42BFF4C0
:102FC0006FAFE2858969202900F09D8050E8030FEA
:102FD000216820F4807041E80302EAB1206850E8DB
:102FE000030F216820F4807041E80302A2B1206839
:102FF00050E8030F216820F4807041E803025AB1C1
:10300000206850E8030F216820F4807041E8030233
:1030100012B12068DAE700BF206850E8050F216888
:1030200020F0010041E80502DAB1206850E8050F00
:10303000216820F0010041E8050292B1206850E8C3
:10304000050F216820F0010041E805024AB120681F
:1030500050E8050F216820F0010041E80502002A30
:10306000DAD1206850E8050F216820F0400041E8DF
:103070000502DAB1206850E8050F216820F0400011
:1030800041E8050292B1206850E8050F216820F060
:10309000400041E805024AB1206850E8050F216868
:1030A00020F0400041E80502002ADAD1202084F80F
:1030B000420000202063206850E8030F216820F0C0
:1030C000100041E80302DAB1206850E8030F2168DC
:1030D00020F0100041E8030292B1206850E8030F8D
:1030E000216820F0100041E803024AB1206850E84E
:1030F000030F216820F0100041E80302002ADAD112
:10310000E06BFEF74FFD02206063A08DE18D401A59
:1031100081B2204602B0BDE8B040FFF74BBE00BF11
:10312000626C42F0010262644A0706D5BEF1000FEC
:1031300003D0626C42F0020262648A0706D5BEF1D7
:10314000000F03D0626C42F004026264BCF1000F15
:1031500006D555EA0E0203D0626C42F008026264A2
:10316000626C002A3FF49CAE11F0200118BF002DC4
:1031700003D0204600F0E6FB20684169626C01F054
:10318000400102F00802891800F0A28050E8030F05
:10319000216820F4907041E80302C2B3206850E82F
:1031A000030F216820F4907041E803027AB320688D
:1031B00050E8030F216820F4907041E8030232B315
:1031C000206850E8030F216820F4907041E8030262
:1031D000EAB12068DAE700BF206850E8050F2168EF
:1031E00020F0010041E80502DAB1206850E8050F3F
:1031F000216820F0010041E8050292B1206850E802
:10320000050F216820F0010041E805024AB120685D
:1032100050E8050F216820F0010041E80502002A6E
:10322000DAD1206B012824D1206850E8030F2168EF
:1032300020F0100041E80302DAB1206850E8030FE3
:10324000216820F0100041E8030292B1206850E8A4
:10325000030F216820F0100041E803024AB1206802
:1032600050E8030F216820F0100041E80302002A13
:10327000DAD1202084F842000020206320684169D0
:1032800049063FD550E8050F216820F0400041E88D
:1032900005022AB3206850E8050F216820F040009D
:1032A00041E80502E2B1206850E8050F216820F0EE
:1032B000400041E805029AB1206850E8050F2168F6
:1032C00020F0400041E8050252B12068DAE700BF73
:1032D0002046FFF771FD0020606402B0B0BD00BF62
:1032E000E06B78B143F63911C0F600014163FEF797
:1032F0007DFC00283FF4D4ADE06B416B02B0BDE82B
:10330000B0400847204602B0BDE8B040FFF754BDCA
:10331000216A31F8022B6FF35F22426021628AE555
:10332000002804BF0120704710B5044690F8410002
:1033300028B9002084F84000204600F061F82420DD
:1033400084F841002068D4E90212C36823F40053D2
:10335000C360036923F440531A430261D4E9042390
:103360001143C268194341F20C639A431143C1608F
:103370004169A26921F44071114343F60002C4F28D
:1033800001029042416103D0FFF72EF902E000BF35
:10339000FFF73EF96268192148439100B0FBF1F054
:1033A00048F21F51C5F2EB11A0FB01235A096FF03F
:1033B000630302FB0300322303EB0010A0FB0101B7
:1033C000F02303EA5113206803EB0212C1F3431107
:1033D00011448160016921F490410161416921F04A
:1033E0002A014161C16841F40051C16000202021DF
:1033F000606484F8411084F84210606310BD0000DE
:1034000070B586B040F60004C4F20104006804F50B
:10341000405100268842049602D006B070BD00BF1D
:1034200041F21800C4F20200016802AD41F480418B
:103430000160016801F4804101910199016841F046
:10344000040101600068294600F004000190019821
:103450004FF4007002900220039003200590204654
:10346000FEF732FC4FF48060CDE902062046294683
:103470000496FEF729FC252000210022FEF798FF84
:103480002520FEF785FF06B070BD000090F84230A1
:10349000202B1CBF0220704700294FF0010318BFEA
:1034A000002A01D11846704700230363816222215C
:1034B0008285C285436480F842100169006819B1B1
:1034C000C16841F48071C1604169002341F001018C
:1034D0004161C16841F02001C16018467047000099
:1034E0007047000070470000FEE7000070B50368F9
:1034F000044653F8140F400711D40E46481C29D037
:1035000086BB00BF1868400527D4FEF7FBFC236884
:1035100053F8140F400739D518684007F2D500203A
:1035200070BD00BF18684007F9D41868400514D46E
:1035300018684007F3D4186840050ED4186840078F
:10354000EDD41868400508D4186840074FF0000013
:1035500048BF70BD18684005E4D56FF480601860FE
:10356000042014E0154603E053F8140F4007D6D4A6
:1035700018684005F1D4FEF7C5FC401B2368B04233
:10358000F2D958694007EFD4202000E02020002124
:103590002022216384F83D2084F83E10226C1043E1
:1035A0002064012084F83C1070BD00002DE9F0413A
:1035B000054600681E46144601F47F0201338FB2AF
:1035C00042D0DDF81880B2F5803F40F08780406936
:1035D0003840C01BB0FA80F04009A04240F0C880DB
:1035E0004EB924E040693840C01BB0FA80F0400971
:1035F000A04240F0BD80FEF785FCA0EB08012868E2
:10360000B142EFD941693940C91BB1FA81F1490989
:10361000A142E7D19BE000BF40693840C01BB0FA2F
:1036200080F04009A0424FF0000040F0A680FEF775
:1036300069FC286841693940C91BB1FA81F149091F
:10364000A142E9D183E000BFB2F5803F24D100BFA1
:1036500041693940C91BB1FA81F14909A14240F0E1
:10366000878041693940C91BB1FA81F14909A142FA
:1036700040F07E8041693940C91BB1FA81F14909A6
:10368000A14275D141693940C91BB1FA81F149099B
:10369000A142DDD06CE000BF81693940C91BB1FA9D
:1036A00081F14909A14263D181693940C91BB1FA4D
:1036B00081F14909A1425BD181693940C91BB1FA45
:1036C00081F14909A14253D181693940C91BB1FA3D
:1036D00081F14909A142DFD04AE000BF806938404A
:1036E000C01BB0FA80F04009A04241D146B923E0A6
:1036F00080693840C01BB0FA80F04009A0423BD13D
:10370000FEF700FCA0EB08012868B142F0D98169FE
:103710003940C91BB1FA81F14909A142E8D116E04B
:1037200080693840C01BB0FA80F04009A0424FF0D9
:10373000000018BFBDE8F081FEF7E4FB286881694E
:103740003940C91BB1FA81F14909A142E8D10020F1
:103750002021286385F83D1085F83E00296C41F052
:103760002001296485F83C000120BDE8F08100BFFC
:103770000020BDE8F08100BF0020BDE8F08100001E
:10378000F0B581B0044600681D4643698FB203EA74
:103790000701B94202D1002001B0F0BD41691646CF
:1037A000013201F4806125D0002940D1CEB100BFA3
:1037B000FEF7A8FB411B2068B14203D9416939409B
:1037C000B9424BD141693940B942E4D04169490518
:1037D000EED52CE041693940B942DCD04169490558
:1037E00025D4FEF78FFB206841693940B942F1D0FA
:1037F000202024E0D9B941693940B942CBD0416990
:10380000490514D441693940B942C4D041694905D8
:103810000DD441693940B942BDD04169490506D44A
:1038200041693940B942B6D041694905E3D50168DB
:1038300041F4007101606FF4806141610420002156
:103840002022216384F83D2084F83E10226C10432E
:10385000206484F83C10012001B0F0BD2020EEE788
:1038600070B50368044653F8140F000611D40E46D1
:10387000481C29D086BB00BF1868400527D4FEF736
:1038800041FB236853F8140F000639D51868000669
:10389000F2D5002070BD00BF18680006F9D4186882
:1038A000400514D418680006F3D4186840050ED4F7
:1038B00018680006EDD41868400508D4186800069A
:1038C0004FF0000048BF70BD18684005E4D56FF4A4
:1038D00080601860042014E0154603E053F8140FCC
:1038E0000006D6D418684005F1D4FEF70BFB401B48
:1038F0002368B042F2D958690006EFD4202000E0D6
:10390000202000212022216384F83D2084F83E10ED
:10391000226C10432064012084F83C1070BD00002C
:10392000FEE70000FEE7000070470000704700005F
:10393000FEF7C6BC70470000406A0021C185C18403
:10394000FFF73ABA81B090F84210222920D183685B
:10395000B3F5805F08D10169002965D000F1280125
:103960000A6803685B680AE0014651F8282F13B91A
:103970000369002BF5D003685B6803F07F031370C5
:103980000A6801320A60C18D01390A04C18501D07B
:1039900001B070470168CA6822F02002CA60CA6894
:1039A00022F48072CA604A6922F001024A61202230
:1039B00080F8422000224263036B012B3ED1026358
:1039C00051E8031F026821F0100142E80313016867
:1039D000DBB151E8031F026821F0100142E8031334
:1039E000016893B151E8031F026821F0100142E819
:1039F000031301684BB151E8031F026821F0100165
:103A000042E803130168002BDAD10A68D20606D512
:103A1000002200920A680092496800910099818D05
:103A200001B0FFF7C7B900BF0168826A49686FF348
:103A30005F2122F8021B8262A5E700BF01B0FFF7F9
:103A40004FBD000040F29810C2F20000FFF7B6B977
:103A500040F2D400C2F20000FDF74ABEFEE70000CB
:103A600092B0FEF73BFC00240120CDE90D44CDE9E6
:103A70000B4408900C904FF4E0104FF48031022575
:103A8000119008A8CDE90914CDE90F51FEF7D4FD36
:103A900020B1EFF3108072B6FEE700BF0F20CDE932
:103AA00002054FF48060CDE9050402A802210494C8
:103AB000FEF7BAFC20B1EFF3108072B6FEE700BF4C
:103AC00041F21800C4F20200016840F6000841F01B
:103AD000100101600168C4F2010801F010010891B1
:103AE0000899016808F5006541F02001016001684E
:103AF000002201F020010891089901684FF4005656
:103B000041F0040101600168002701F004010891FF
:103B10000899016841F00801016000684FF4005104
:103B200000F00800089008982846FEF7E5F9089686
:103B3000022008AE01240B9028463146CDE9094405
:103B4000FEF7C2F80320CDE90807404631460A9443
:103B5000FEF7BAF840F2D405C2F200054FF08041FA
:103B6000284640F8281F4FF434714FF6FF720B9728
:103B7000CDE90977CDE90277C0E90117C0E903274C
:103B80008761FEF787FF28B1EFF3108072B600BFA0
:103B9000FEE700BF4FF4805005F12806089008A901
:103BA0003046FFF739F828B1EFF3108072B600BF46
:103BB000FEE700BF02A93046FEF72EFF20B1EFF36B
:103BC000108072B6FEE700BFA8F52440122100263F
:103BD0004FF4803285E843002846C5E90362C5E911
:103BE0000566AE83FDF7B4FE20B1EFF3108072B628
:103BF000FEE700BF012040F2D40B1090CDE90E602B
:103C00000D20C2F2000B119008A95846CDE90866B4
:103C1000CDE90A66CDE90C66FDF758FC40F2981034
:103C200008F54051C2F200000C234FF4165280E810
:103C30004600C0E90366C0E90536C661FFF770FBC0
:103C400020B1EFF3108072B6FEE700BF40F24410DF
:103C5000A8F53441C2F2000048F2A06200254FF4FA
:103C60008043C0F2010280E82600C0E90353C0E9A6
:103C70000555C0E90755FEF74BF928B1EFF3108061
:103C800072B600BFFEE700BF40F2240A0BF1280025
:103C9000C4F2000AFEF78CFF5846FDF747FF58466E
:103CA00002210224FDF7A8FB40F27406C2F20006CE
:103CB000082040F24411C6E90E50C2F2000108A8E3
:103CC0004E221023C6E90C5586F840500094FDF7AB
:103CD0001DFA40F29811C2F2000101A8FDF780FB25
:103CE00002AC02E03168C6E90210FEF70BF900F100
:103CF000640500BF40460221FEF7F0F8012805D018
:103D0000FEF700F9A842F5D918E000BFDAF80090F4
:103D100040460221FEF7E2F8012805D1FEF7F2F84D
:103D2000A842F5D90AE000BFDAF80000A0EB0900CC
:103D3000BE2801D9642002E06E286DD200203060D8
:103D4000FEF7E0F800F1640540460121FEF7C6F8F1
:103D5000012805D0FEF7D6F8A842F5D918E000BF33
:103D6000DAF8007040460121FEF7B8F8012805D1C5
:103D7000FEF7C8F8A842F5D90AE000BFDAF800005B
:103D8000C01BBE2802D9642003E000BF6E284FD2BA
:103D900000203268B168706091421BD03146122019
:103DA00041F82C0F11F8180C31F8173C8DF8080069
:103DB00051F8150CADF8093001F8112CCDF80B00B5
:103DC0008DF80F20A1F11C0358462246FDF72CFB6D
:103DD000D0BB7068F16881423FF484AF31464FF444
:103DE0001D7241F82C2F11F8102C31F80F3C8DF872
:103DF000082051F80D2CADF8093001F8090CCDF868
:103E00000B208DF80F00A1F11C0358462246FDF748
:103E10000BFBF8B9706865E76421484342F6F82166
:103E2000401A80B24CF6CD414843800D87E700BF71
:103E30006421484342F6F821401A80B24CF6CD4145
:103E40004843800DA5E700BFEFF3108072B600BFB6
:103E5000FEE700BFEFF3108072B600BFFEE7000080
:103E600023F07F4720F07F4C80EA030000F0004001
:103E7000ACEB070303F57C5303F1FF032DE9804905
:103E800009B44FEA144324EA03484FEA154B25EAE4
:103E90000B4E0FF2042606EB13273E7803FB066752
:103EA000C7F5000707FB06F64FEAD64606F10206FD
:103EB0004FEA543707FB066CCCF1005C4FEA1C4715
:103EC0002CEA074C0CFB06F507FB06F404EB154641
:103ED0004FEA961649085FEA320234BF00204FF0DD
:103EE00000404FEAD13706FB07FC4FEA1C4C0CFBA5
:103EF0000BF7D21B03FB0CF761EB07010CFB0EF772
:103F0000B0EB074072EB17420CFB08F734BFA2EB93
:103F10000742B2EB074261EB17414FEA0C444FEA0C
:103F2000910706FB07FC4FEA1C4C0CFB0BF7B0EBB0
:103F3000C74072EB573203FB0CF734BFA2EBC7420A
:103F4000B2EBC74261EB57310CFB0EF7B0EBC70089
:103F500072EB57720CFB08F734BFA2EBC702B2EB4F
:103F6000C70261EB57714FEA816141EA92114FEA52
:103F7000826242EA90124FEA806004EBCC04039F15
:103F80004FEAD13706FB07FC4FEA1C4C0CFB0BF742
:103F9000D21B03FB0CF761EB07010CFB0EF7B0EB38
:103FA000074072EB17420CFB08F734BFA2EB074245
:103FB000B2EB074261EB17414FEA8C5504EB9C24AE
:103FC0004FEA910706FB07FC4FEA1C4C0CFB0BF772
:103FD000B0EBC74072EB573203FB0CF734BFA2EBD8
:103FE000C742B2EBC74261EB57310CFB0EF7B0EBA7
:103FF000C70072EB57720CFB08F734BFA2EBC70285
:10400000B2EBC70261EB57714FEA816141EA92114D
:104010004FEA826242EA90124FEA806015EB4C252B
:1040200044F100044FEAD13706FB07FC4FEA1C4C71
:104030000CFB0BF7D21B03FB0CF761EB07010CFB2E
:104040000EF7B0EB074072EB17420CFB08F734BFDA
:10405000A2EB0742B2EB074261EB17414FEA813115
:1040600041EA92414FEA823242EA90424FEA80307E
:104070004FEA0C7615EB1C1544F1000448EA0343A3
:104080004EEA0B484FF0000EB2EB080C71EB030741
:1040900024BF624639464EEB0E0E4FF0000B00185F
:1040A000524149414BEB0B0BB2EB080C71EB030790
:1040B0007BF1000B24BF624639464EEB0E0E4FF0EB
:1040C000000B0018524149414BEB0B0BB2EB080CB3
:1040D00071EB03077BF1000B24BF624639464EEBC0
:1040E0000E0E51EA020718BF46F0010616EB0E76D7
:1040F00055F1000254F1000103D5BDE88901BDE886
:104100000088BDE88901BDE80048B619524141EB7D
:104110000101A3F10103704780807F7E7D7C7B7A63
:104120007978777676757473727171706F6E6E6D63
:104130006C6C6B6A6A696868676666656464636309
:1041400062616160605F5F5E5E5D5D5C5C5B5B5A8F
:104150005A595958585757565655555554545353FC
:1041600052525251515050504F4F4F4E4E4D4D4D57
:104170004C4C4C4B4B4B4A4A4A49494948484847A2
:1041800047474746464645454544444444434343E0
:10419000434242424241414110B546EA06464FEA97
:1041A000164646EA42564FEAD22242EA41524FEAC6
:1041B000D121A3F57053A3F1010300F02FF820F0F3
:1041C000004000F0004700F1020CBCF5006F01EB6D
:1041D0000050114640EA070000D210BDBAF1000FAE
:1041E0000AD01CB503B44FF004004FF004014FF0A7
:1041F00000000FBCBDE810404FF00001BBF1010F03
:10420000B9BF04484FF0FF310348002140EA0700DE
:1042100010BD00BFFFFFEF7F0000F07F9C46002B2A
:1042200030D477002BD04FEA37071CB503B44FF0DA
:1042300010004FF01001BAF1000F06D0BCF1000FD2
:10424000DCBF40F0080040F008014FF000000FBC58
:10425000BDE810400BF1010BBBF1010F08BF5FEA95
:10426000170722BF12F1010211F101014FF00041C5
:1042700043F1000300F0004043EA00007047F9D327
:104280005708D0E746EA06464FEA164613F1400FB4
:104290001FDD13F1200FDFBF16430A460021203334
:1042A0005B42BED0C3F1200746EA06464FEA1646F7
:1042B00002FA07F746EA070622FA03F2C3F12007DB
:1042C00001FA07F742EA070221FA03F14FF000036F
:1042D000A7E746EA020646EA06464FEA164646EAD7
:1042E0000106BCBF46EA0646360C4FF000034FF00D
:1042F00000024FF0000194E72DE9804C70B49A461B
:10430000934691E8380007C831EA400C48BF34EAC8
:10431000430C03D5FFF7A4FDFFF780FFF0BCBDE819
:10432000008C2DE9804C70B49A46934691E8380091
:1043300007C831EA400C48BF34EA430C03D5FFF705
:104340008FFDFFF729FFF0BCBDE8008C2DE9804C04
:1043500070B49A46934691E8380007C810F0804F31
:1043600008BF13F0804F03D100F01AF8FFF756FF93
:10437000F0BCBDE8008C2DE9804C70B49A469346A1
:1043800091E8380007C810F0804F08BF13F0804F45
:1043900003D100F005F8FFF7FFFEF0BCBDE8008C8C
:1043A00020F07F4723F07F4C80EA030000F00040BC
:1043B00007EB0C03A3F57C53A3F1FE0392F0000F6F
:1043C00000F0B38095F0000F00F077802DE90149EF
:1043D0004FEA114021EA00484FEA144624EA064712
:1043E00000FB06FC08FB06F607FB08F818EB06487E
:1043F0004CEB164C00FB07F718EB07484CEB17404B
:104400004FEA124B22EA0B4E4FEA154625EA0647C1
:104410000BFB06FC0EFB06F607FB0EFE1EEB064E24
:104420004CEB164C0BFB07F71EEB074E4CEB174BF8
:1044300018EB0B0840F1000018EB0E0B58EB0008CE
:1044400040F100008F1A4FF000014FF000063CBF12
:10445000C943661B14BFB5EB040C00213CBFC94324
:10446000F61B4FEA174427EA04454FEA1C472CEA9B
:10447000074C04FB076205FB07F70CFB05F616EB80
:10448000074642EB174204FB0CFC16EB0C4642EBD2
:104490001C421BEB060658EB020241414EEA8E0E0F
:1044A00046EA9E0601D5BDE80189B619524141EBA5
:1044B0000101A3F10103BDE801894FEA144524EA93
:1044C00005464FEA114721EA074C05FB07F406FBB6
:1044D00007F70CFB06F111EB074144EB174405FB12
:1044E0000CFC11EB0C4144EB1C444FEA124722EA4E
:1044F000074C05FB07F206FB07F70CFB06F616EB6D
:10450000074642EB174205FB0CFC16EB0C4642EB50
:104510001C456A1854F1000148BF7047B619524152
:1045200041EB0101A3F10103704795F0000F37D073
:104530004FEA114221EA02464FEA144724EA074CA7
:1045400002FB07F106FB07F70CFB06F414EB07442C
:1045500041EB174102FB0CFC14EB0C4441EB1C41FA
:104560004FEA154725EA074C02FB07F506FB07F75C
:104570000CFB06F616EB074645EB174502FB0CFC59
:1045800016EB0C4645EB1C42121951F1000148BFD5
:104590007047B619524141EB0101A3F10103704785
:1045A0004FEA144524EA05464FEA114721EA074C31
:1045B00005FB07F106FB07F70CFB06F212EB0742BF
:1045C00041EB174105FB0CFC12EB0C4251EB1C417B
:1045D0004FF0000648BF7047921841EB0101A3F16C
:1045E0000103704740F2013200204FF0E04100F03B
:1045F00079BA0000024A0020110700F073BA0000E7
:1046000001FDFFFF10B50446D1E9000100F002F8FA
:10461000206010BDF8B504460D466A4600F06AF801
:1046200000987E30009000281EDC002213462046B1
:10463000294600F021F917D0002140F608004FF07C
:10464000000006462046294600F0D0F8044640F611
:10465000080006EA00014FF0000034F0004004BFFB
:104660000220FCF7C9FA29E00098FF2828DB002186
:1046700008464FF0000000F4400600221346204692
:10468000294600F0BFF98CBF002501250220FCF768
:10469000B3FA4FF0FF4446B1002D0CBF4FF40000B9
:1046A0004FF48000B04218BF084C042108464FF078
:1046B0000000002D04BF84F00040F8BD2046F8BD86
:1046C00020462946BDE8F84000F090B8FFFF7F7F04
:1046D00010B504460A46D4E90003194600F036F83E
:1046E000C4E9000110BD30380A2801D2012070470A
:1046F0000020704710B5144600222260114A21F0B4
:1047000000439342A8BF10BD53EA000208BF10BD8A
:10471000B3F5801FA8BF226807DA362200F0E2F95D
:104720006FF0350221F000432260DFF81CC06FF308
:104730001E510CEB23531A4441F0FF5141F000513C
:10474000226010BD0000F07F02FCFFFF2DE9F04168
:1047500006460C4640F2FF75174635EA14502BD03A
:1047600000221346304600F087F825D03A463046FE
:10477000214600F0B7F906460C4635EA145010D031
:1047800000221346304600F077F815D10220FCF7DE
:1047900033FAFFF72FFF0A46214662F31E01BDE8F8
:1047A000F0810220FCF728FAFFF71CFF0A46214699
:1047B00062F31E01BDE8F08130462146BDE8F0817C
:1047C00010B500290AD00878002807D00548784499
:1047D000FCF74CFC002801D0002010BD02487844B2
:1047E00010BD0000C6040000BE04000021F000421D
:1047F00001F00043A2F16052B2F5801F28BFD2F150
:104800007F6C0BD95FEA001C43EAC20242EB507096
:1048100018BF704728BF20F001007047B2F5801F15
:10482000BCBF184670474FEA410C1CF5001F02D26E
:10483000084600F01DB970B500F096F80000008938
:10484000FFF7F6BF4FF00040A0F580007047000072
:1048500002494FF0000000F013B900BF0000F87FDC
:10486000491058BFC1F140415B1058BFC3F14043EC
:104870008B42EFF30080704751EA030C17D41CF50C
:10488000801F58BFBCF5801F00F10680994218BFF9
:10489000704708BF9042704707D711F5801F58BF77
:1048A00013F5801F19D499427047894270471CF54F
:1048B000801F08D5BCF5801FF7D58B4218BF704705
:1048C00008BF824270474FF4001C1CEB410F38BFF9
:1048D0001CEB430F01D28B42704770B500F044F8D7
:1048E000922449004FF000514FF08053FFF7B8BFBA
:1048F00051EA030C17D41CF5801F58BFBCF5801F6C
:1049000000F10680994218BF704708BF9042704777
:1049100007D711F5801F58BF13F5801F19D499428E
:104920007047894270471CF5801F08D5BCF5801F71
:10493000F7D58B4218BF704708BF824270474FF4CB
:10494000001C1CEB410F38BF1CEB430F01D28B4204
:10495000704770B500F008F8922449004FF00051FC
:104960004FF08053FFF77CBF0EF1020E2EF0030EC6
:104970005EF8046B364205D4012A43EB030515F5B6
:10498000001F12D8012841EB010C1CF5001F0CD8A8
:104990000ED14FEAD17C0CEB4C0C0CF1020C15F54E
:1049A000001F08BF4CEBD37C04E04FF0080C01E083
:1049B0004FEAD37C0CEB4C0526FA05F606F0070609
:1049C000B6F1040C06D20EEB860CBDE870404CF03C
:1049D000010C6047DFE80CF0090B02024FF00041C8
:1049E000A1F500214FF0000070BD194610460128C6
:1049F00051EB010418BFD4F5001484BF002001F06E
:104A0000004170BD53EA010C17D41CF5801F58BF3C
:104A1000BCF5801F00F106808B4218BF704708BFAD
:104A20008242704707D713F5801F58BF11F5801FCA
:104A300019D48B4270479B4270471CF5801F08D5E4
:104A4000BCF5801FF7D5994218BF704708BF904248
:104A500070474FF4001C1CEB430F38BF1CEB410F99
:104A600001D2994270470FB40CBC03BCFFF771BF71
:104A7000FF2141EAD050C00570474FF00000704759
:104A80000CF00F03092B08BF082000F05F800A2BF1
:104A90000BD0082B18BF704708BF1CF0400F0AD07E
:104AA0004FF000004FF0000170471CF0400F18BF9E
:104AB0004FF0004070471CF0100F08D000F07F420C
:104AC00020F0704342EAD3014FEA4370704700F090
:104AD000604021F07F4242EA000201F07F4040EA5C
:104AE000727070474FF0FF0C4CF4E06C1CEA1153ED
:104AF0001CBF9CEA030C9445C2BFDA4201EB025191
:104B00007047002B0DD0BCF1000F0FD001F0004119
:104B1000002AA4BF41F0E04141F07F614FF0000066
:104B2000704701F000414FF00000704750EA013338
:104B30004FF09B0C18BF4CF0806C7FF489AE70472F
:104B4000FBF748BEFCF75EB8FCF7ECB91CF4801F1D
:104B500011D01CF4E02F03D06FEACC31490070472C
:104B60004FF04050EFF3008222F0704242EA000220
:104B700082F3008870474FF00000704730313233C5
:104B80003435363738394142434445464030580081
:104B900030313233343536373839616263646566B3
:104BA0004030780002400000000000A0000000003B
:104BB00005400000000000C8000000000C4000009C
:104BC0000000409C00000000194000000020BCBE16
:104BD0000000000034400000BFC91B8E000000042C
:104BE000B5400000504BCFD06607E2CF0100000077
:104BF0006C4100003E8251AADFEEA73401000000A4
:104C0000D9420000DCB5A0E23A301F97FFFFFFFF5A
:104C1000B4450000FD25A0C8E9A3C14FFFFFFFFF79
:104C2000FF3F00000000008000000000FF3F000088
:104C300000000080000000000000000000000000F4
:104C40000102030406070809000000000102030432
:104C5000010202030405060708090A0B0C0D0E0FDA
:104C600010100000B04C00080000002010000000F0
:104C700028010008C04C000810000020D8070000E0
:104C800044010008000000000000F07FFFFFFFFF6C
:104C9000FFFFEF7F1C00000043000000F8FFFFFF54
:104CA0000C0000000E0000000F0000002E000000AD
:104CB00001000000100000000024F40000000000CB
:04000005080000ED02
:00000001FF
