:020000040800F2
:1000000008090020A1010008993B0008312B0008D5
:10001000953B0008810A0008B93B00080000000079
:10002000000000000000000000000000A13B0008EC
:10003000610E0008000000009D3B0008A53B000881
:10004000BB010008BB010008BB010008BB010008A0
:10005000BB010008BB010008BB010008BB01000890
:10006000BB010008BB010008BB010008BB01000880
:10007000BB010008BB010008BB010008BB01000870
:10008000BB010008BB010008BB010008BB01000860
:10009000AD3B0008850A0008BB010008650E00089A
:1000A000BB010008BB010008BB010008BB01000840
:1000B000BB010008BB010008BB010008BB01000830
:1000C000BB010008BB010008BB010008BB01000820
:1000D000BB010008BB010008BB010008BB01000810
:1000E000BB010008BB010008BB01000800F002F8DA
:1000F00000F047F80AA090E8000C82448344AAF17B
:100100000107DA4501D100F03CF8AFF2090EBAE878
:100110000F0013F0010F18BFFB1A43F0010318473B
:10012000605C0000805C0000103A24BF78C878C191
:10013000FAD8520724BF30C830C144BF04680C60ED
:10014000704700000023002400250026103A28BF35
:1001500078C1FBD8520728BF30C148BF0B60704739
:10016000662905F0E084002070471FB500F00EFB03
:1001700004000020002104F0D9FCE0601FBD10B590
:1001800010BD00F007FC1146FFF7EFFF03F016FD6E
:1001900000F025FC03B4FFF7F2FF03BC00F068FC9D
:1001A0000948804709480047FEE7FEE7FEE7FEE70B
:1001B000FEE7FEE7FEE7FEE7FEE7FEE70448054947
:1001C000054A064B70470000A93B0008ED000008F7
:1001D0000803002008090020080500200805002069
:1001E0000FB41CB5074B06AA7B44694600900598DE
:1001F00000F0B3FA0020694600F0C2FA1CBC5DF8BA
:1002000014FB0000950500002DE9F0474FF0000AAF
:1002100089460446C0F820A02046E16888470028A7
:1002200076D0252806D0D4E901219047206A401CC9
:100230002062F1E7E168204600258847C4F81CA049
:1002400006460027C4F818A02A2E09D0304604F02C
:1002500061FA38B304EB8708303EC8F8186019E03B
:1002600059F8041B204604EB87029161E168884736
:10027000012F064618D1E069002820DA25F0200574
:100280001DE0D8F8180000EB800006EB4000303885
:10029000C8F818002046E1688847064604F03AFA94
:1002A0000028EED1012F0AD02E2E08D12046E16879
:1002B00088477F1C0646022F45F02005C4DBA06955
:1002C000002803DA404245F00105A061E80701D0AB
:1002D00025F01005B6B1A6F14100192802D8203644
:1002E00045F400654A463146204625604D46FFF7F5
:1002F00037FF58B1012806D0ED1D25F0070000F1A9
:10030000080989E704E005F1040985E730468AE732
:10031000206ABDE8F08770477047704710B500F05D
:1003200039FA006810BD10B5044600F033FA0460D5
:1003300010BD2DE9FF4F0C461E464FF0FF378BB026
:10034000D2E90001DDF860800A908A46C1F30A55BF
:1003500005B93D46002108464FF00000BAF1000FF4
:1003600000F4400005DA00EB80004FF4400101EAA0
:1003700050004FEA9059B9F1010F00DDB9460A98D3
:1003800050EA4A000ED044F61050A5F2FF3545431E
:100390002F14B8F1000F1ED07542291E1EDDC9F1C1
:1003A00000021CE0B8F1010F4FF0000001D0302135
:1003B00003E0F24305E02154401CB042FBDB304631
:1003C0000022002121540B99C1F80880C1E90020C6
:1003D0000FB0BDE8F08FBD1B6D1CDEE74A4600DAAA
:1003E000694206A800F060FA06AB93E8070003AB89
:1003F00083E8070050460A9903F04EFD8DE8070098
:10040000A0F500501F3800900398002D0ADD42F23D
:100410001F014A460844002303A90390684603F0DD
:10042000B7FF09E0A0F500504A461F38002303A992
:100430000390684603F0C1FF8DE807000004000C3C
:1004400003D04FF0FF30410800E01046B8F1000F34
:1004500003D00022009215461EE0751E05D400F060
:100460009DF9303262556D1EF9D5B346012208431D
:1004700002D000227F1C04E02078302801D1002225
:100480007F1E002A099784D01DE0112D07DA00F0A5
:1004900085F9303262556D1C50EA0102F5D10843EE
:1004A00002D00098C8B10EE00021681E05E0235C70
:1004B000625C63542254401E491C8142F7DBAB4608
:1004C000A81B401E0990002004F80B000B98099A05
:1004D000C0F80880C0E9002B7AE711264FF0000829
:1004E00057E72DE9F04F88460446D21D22F0070158
:1004F00091B0D1E90001CDE90A0104F095F8024676
:100500000B98C00F01D02D2007E02068810701D58E
:100510002B2002E0202101EAC000032A099001D02B
:10052000072A05DB03464146204600F07DF90BE132
:100530002078800601D5E06900E00620B8F1650F5B
:10054000814606D0B8F1660F18D0B8F1670F70D1A8
:1005500031E00020B9F1110F009001DB112301E01F
:1005600009F101030AAA01A90CA8FFF7E2FEDDE9DF
:100570000C70002609F10105834647E001204B4637
:1005800000904FF000470AAA01A90CA8FFF7D1FE7E
:10059000DDE90DB00C995D46002610B909F10100A6
:1005A0000D18B9EB050003D4C0F1FF3609F10105C0
:1005B000A5EB09002BE0B9F1010F01DA4FF00109B9
:1005C0000020B9F1110F0090484601DD112300E031
:1005D00003460AAA01A90CA8FFF7ABFEDDE90C70DF
:1005E0004D4600268346207800070AD4AB4500DA42
:1005F0005D4601A8012D04DD411911F8011C3029C7
:1006000007D04F4502DA17F1040F04DA01208246C1
:100610000FE06D1EEEE7002F02DCED1B3E4403E011
:10062000781CA84200DD7D1CB81B00F1010A4FF0C8
:1006300000472078000703D4AA4501DB4FF0FF3ABA
:100640000021B7F1004F0DF143088DF8431024D07D
:1006500002202B23002F01DA7F422D230A21021EC4
:10066000A0F1010000DC5FB197FBF1FC97FBF1F218
:1006700001FB1C7C17460CF1300C08F801CDEEE7AD
:10068000A8F1010003702188090501D5452100E08A
:100690006521A0F1010800F8011C09980FA9A1EB40
:1006A0000807FF1D00B10120411901EBEA70A169A3
:1006B0003844081A401EA0612078C00602D42046A3
:1006C000AFF30080099828B1D4E901219047206A4E
:1006D000401C20622078C00622D52046AFF300805F
:1006E0001EE0002E04DBB34502DD01A8805D00E0C2
:1006F0003020D4E901219047206A401C2062761CFA
:10070000AAF101005FEA000A0AD100F03FF8C068D0
:100710000168405CD4E901219047206A401C2062B6
:10072000281EA5F10105DCDC07E0D4E9012118F859
:10073000010B9047206A401C2062381EA7F1010778
:10074000F3DC2046AFF30080032011B041E6000047
:1007500001694A1C02610878704700B58FB0CDE985
:1007600001310021059105497944CDE90310114675
:100770006846FFF749FD0FB000BD0000E5FFFFFF31
:100780000A6802F8010B0A607047000000487047D1
:100790000801002000487047E800002030B5B0F1A3
:1007A0000A0271F100034FEA900E4EEA817EB0EB2F
:1007B0000E0061EB91014FEA101E4EEA017E10EB34
:1007C0000E0041EB11114FEA102E4EEA016E10EBB4
:1007D0000E0041EB11214FEA104E4EEA014E10EB94
:1007E0000E0041EB1141401841F100014FEAD000E9
:1007F00040EA41704FEAD1014FEA810444EA907423
:1008000010EB800544EB01046D1944EB0404521B0A
:10081000A3414FF0000348BF0A3200D530BD401C51
:1008200041F1000130BD00002DE9F0411F460446B2
:1008300003260168072A01F4006004DB08B116A54D
:1008400005E016A503E008B115A500E015A521F007
:1008500010002060A069C01EA0610FB1401EA06101
:100860002046AFF300804FB1D4E9012138469047CC
:10087000206A401C2062C01C206206E0206AFAE761
:10088000D4E9012115F8010B9047761EF8D22046D5
:10089000AFF30080BDE8F0814E414E006E616E0006
:1008A000494E4600696E66002DE9F04781461646BE
:1008B0008AB0354878440DC88DE80D003248784438
:1008C000801C03AC0DC884E80D0041F69B30084441
:1008D000372190FBF1F290FBF1F5A5F1800501FBCA
:1008E00012041B3C02D56442012000E00020DFF826
:1008F00098A080460027FA44AAF1BE0A0EE0E0075D
:100900000AD03246684607EB470101230AEB810112
:1009100003F053FD8DE8070064107F1C002CEED11E
:10092000194F7F44AE3F19E0E80715D007EB0410DC
:100930000DF1180A90E80E008AE80E00C068F04237
:1009400001D1981908903246012306A903A803F0A3
:1009500034FD03AB83E807006D10641C002DE3D168
:100960004FF0010332466946B8F1000F03A802D0E8
:1009700003F00EFD01E003F020FDC9E90001C9F814
:1009800008200AB0BDE8F087845400000048704792
:10099000E80000207546FFF7F9FFAE4605006946FE
:1009A000534620F00700854618B020B5FFF706FC37
:1009B000BDE820404FF000064FF000074FF0000860
:1009C0004FF0000BAC46ACE8C009ACE8C009ACE89D
:1009D000C009ACE8C00921F007018D46704710B589
:1009E0000446AFF300802046BDE81040FFF7D2BBBD
:1009F0004FF0013C50F8042B51F8043B9A4221D1AE
:100A0000A2EB0C03934313EACC1317D150F8042B39
:100A100051F8043B9A4215D1A2EB0C03934313EA1D
:100A2000CC130BD150F8042B51F8043B9A4209D156
:100A3000A2EB0C03934313EACC13DBD04FF000007E
:100A4000704700BFD01A01BAB1FA81F101F0180164
:100A500022FA01F0CB40DBB2C0B2C01AC1F12001D2
:100A60002CFA01F3D11A914311EAC311E6D1704770
:100A700001491820ABBEFEE72600020070470000C7
:100A8000FEE7000040F2D410C2F2000000F018BBF4
:100A90002DE9F04182B0044608982160A07140F62B
:100AA0000640C2F61400C4F807000820E0723220A5
:100AB0002271637100F05EFDE07A3825002808BFDE
:100AC00030252E1D012038278DF8046000F052FDDE
:100AD00001208DF805508DF8066000F04BFD206870
:100AE00021794FF47A7801AA04238DF80750CDF8C4
:100AF000008000F047FFE07A3826002808BF302643
:100B0000351D01208DF8045000F034FD01208DF8D2
:100B100005608DF8065000F02DFD2068217901AAAE
:100B200004238DF80760CDF8008000F02BFF05202E
:100B300000F020FDE07A2825002808BF302707F1C3
:100B4000040008BF20258DF804000120282600F0AD
:100B500011FD281D8DF8060001208DF8057000F0AC
:100B600009FD2068217901AA04238DF80750CDF8EA
:100B7000008000F007FF052000F0FCFCE07A28254B
:100B8000002818BF012008BF2025C700281D8DF8A8
:100B90000400012000F0EEFC381D8DF80600012055
:100BA0008DF8055000F0E6FC2068217901AA0423A5
:100BB0008DF80770CDF8008000F0E4FE052000F00D
:100BC000D9FCE079E27A010120F00F0501F1080774
:100BD000002A14BF08350701281D8DF804000120E4
:100BE00000F0C8FC381D8DF8060001208DF8055076
:100BF00000F0C0FC2068217901AA04238DF8077059
:100C0000CDF8008000F0BEFE207AE27A010120F0EB
:100C10000F0501F10807002A14BF08350701281D38
:100C20008DF80400012000F0A5FC381D8DF80600A9
:100C300001208DF8055000F09DFC2068217901AA63
:100C400004238DF80770CDF8008000F09BFE607AD9
:100C5000E27A010120F00F0501F10807002A14BF14
:100C600008350701281D8DF80400012000F082FCE2
:100C7000381D8DF8060001208DF8055000F07AFC33
:100C80002068217901AA04238DF80770CDF800802F
:100C900000F078FEA07AE27A010120F00F0501F160
:100CA0000807002A14BF08350701281D8DF8040025
:100CB000012000F05FFC381D8DF8060001208DF842
:100CC000055000F057FC2068217901AA04238DF813
:100CD0000770CDF8008000F055FEE07A1827002854
:100CE00018BF01204FEAC00505F1040008BF102716
:100CF0008DF80400012000F03DFC381D8DF8060041
:100D000001208DF8055000F035FC2068217901AAFA
:100D100004238DF80770CDF8008000F033FEE07AF0
:100D200000280CBF20260120C500281D8DF80400D6
:100D3000012000F01FFC301D8DF8060001208DF809
:100D4000055000F017FC2068217901AA04238DF8D2
:100D50000760CDF8008000F015FE02B0BDE8F0811C
:100D600070B582B004464079A379884298BF411E8D
:100D7000934298BF5A1ED0B2032805D8DFE800F08E
:100D800009020608403104E0002102E0143100E0CD
:100D900054310A01E37A01F0700002F108056FF0A6
:100DA0007702002B08BF6FF07F0202EB000606F10E
:100DB000040008BF0D018DF80400012000F0DAFBEB
:100DC000281D8DF8060001208DF8056000F0D2FB8B
:100DD000206821794FF47A7601AA04238DF8075010
:100DE000009600F0CFFD02B070BD00002DE9F04785
:100DF00082B00A788AB382464E1E4FF47A780DF19B
:100E0000040900BF11019AF80B3022F00F0001F124
:100E10000807002B14BF08301701451C05308DF85A
:100E2000040001207C1C00F0A5FB781D8DF8060055
:100E300001208DF8055000F09DFBDAF800009AF8CB
:100E400004104A4604238DF80740CDF8008000F0D6
:100E500099FDB2780136002AD4D102B0BDE8F087FE
:100E600070470000202000F0A7BB000090F8202071
:100E7000013A012A08D8006800F114020020136822
:100E800019431160704700BF00F1240201204FF4A4
:100E9000802113681943116070470000B0B50268E3
:100EA00090F82030013B012B28D8D2F80002012312
:100EB00040F00100C2F80002D1F814E0CC690EF055
:100EC0001F0003FA00F0D2F81C326FEA000C8343D3
:100ED000012CC2F81C3217D06CBBD2F80C3203EADA
:100EE0000C03C2F80C32CB688C8844EA034302EB53
:100EF000CE04C4F840320B4615E000BF416A41F40D
:100F0000802141620120B0BDD2F80C320343C2F807
:100F10000C320B688C8844EA034302EBCE04C4F81D
:100F2000403201F10C038C681B8843EA044302EB56
:100F3000CE04C4F84432D2F804328D6943EA000486
:100F4000D1F810E0096A002D08BF03EA0C04C2F8CA
:100F50000442D2F81432BEF1000F43EA000408BF85
:100F600003EA0C040129C2F8144204D1D2F81C127D
:100F70000843C2F81C02D2F8000220F00100C2F8B7
:100F800000020020B0BD00007047000010B590F8CE
:100F90002040013C012C7BD8D0F800C0002900F093
:100FA0008180DCF81040A40700F081800CEB011C6C
:100FB000DCF8B0410CF5D87E14F004049460DCF841
:100FC000B04119BFE4085460640D1460DEF80040BD
:100FD0000CF5DA7E04F00204D460DCF8B441240796
:100FE0005ABFDEF8004004F00F0408241461DEF854
:100FF00000400029C4F307249461DEF800404FEA62
:1010000014445461DCF8B8211A70026802EB011232
:10101000D2F8B8214FEA12225A70026802EB01128C
:10102000D2F8B8214FEA12429A70026802EB01121C
:10103000D2F8B8214FEA1262DA70026802EB0112AC
:10104000D2F8BC211A71026802EB0112D2F8BC215D
:101050004FEA12225A71026802EB0112D2F8BC2147
:101060004FEA12429A71026802EB0112D2F8BC21D7
:101070004FEA1262DA71006814BF00F1100100F14A
:101080000C01002020220B681A430A6010BD00BF2B
:1010900000F1240101204FF480220B681A430A60FA
:1010A00010BD00BFDCF80C40A4077FF47FAF00F157
:1010B000240101204FF400120B681A430A6010BD8E
:1010C0002DE9F04F81B0044600684669D0F80490DD
:1010D0008768D0F80CB0D0F810A0D0F81880F107CD
:1010E00004D1002530071DD424E000BFF90710D03B
:1010F0000121BA07816009D4780700F1AF80380771
:1011000000F1B680204600F027FA02E0204600F009
:1011100025FA0025F80500F18780F80300F1B18079
:10112000300707D51BF0100004D0206845F4007587
:101130001021C160700708D51BF0080005D0206899
:101140000821C160204600F0B3F9B00706D5206839
:10115000C068800702D0204600F0ACF9700607D5C1
:101160001AF0100004D0206845F480651021016158
:10117000B00608D51AF0080005D0206808210161E2
:10118000204600F0B5F9F00606D520680069800712
:1011900002D0204600F0AEF9B00308D519F01000D7
:1011A00005D0206810214160204600F0A5F9F00329
:1011B00008D519F0080005D02068082141602046B4
:1011C00000F0D6F9300440F19B805FEA497040F1AD
:1011D000948006F4807008EA102028435FEA887142
:1011E000014648BF41F00201B20558BF01465FEA1F
:1011F00048700D4648BF45F00405700558BF0D46C0
:10120000300540F17A8018F0700000F076801038D8
:10121000000905286CD8DFE800F003595D616569B5
:1012200045F0080564E000BF20684FF48071BA05FE
:1012300081600BD4780515D438051DD4204600F004
:101240008FF9F8037FF56CAF1BE000BF204600F07C
:1012500089F9F8037FF564AF13E000BF4FF4006530
:1012600058E700BF05F50055F8037FF559AF08E0D2
:101270004FF480554EE700BF05F58045F8037FF534
:101280004FAF20684FF48031BA0381600AD47803ED
:1012900010D4380314D4204600F066F930073FF527
:1012A00041AF47E7204600F061F930073FF53AAF1C
:1012B00040E700BF05F5004530073FF533AF39E79C
:1012C00005F5803530073FF52DAF33E745F01005C4
:1012D0000EE000BF45F020050AE000BF45F04005E4
:1012E00006E000BF45F0800502E000BF45F48075D0
:1012F0002068816921F070018161206804214160CA
:1013000055B1606A40EA05012046616201B0BDE85E
:10131000F04FFFF739BE00BF01B0BDE8F08F00000D
:10132000B0B5C8B1044690F8200010B9204600F0CE
:1013300071F82068016841F00101016000F060FA75
:10134000054600BF20684168C90707D100F058FA78
:10135000401B0B28F6D312E00120B0BD016821F03C
:101360000201016000F04CFA054600BF20684168A8
:1013700089070DD500F044FA401B0B28F6D3606AAC
:10138000052140F400306062012084F82010B0BDD7
:10139000217E0268012922F0800208BF80320260AB
:1013A000617E0268012922F0400208BF40320260DB
:1013B000A17E0268012922F0200208BF20320260CB
:1013C000E17E0268012922F0100218BF103202608B
:1013D000217F0268012922F0080208BF083202605A
:1013E000617F0268012922F0040208BF0432026012
:1013F000D4E901C2D4E9033561691A432A43114390
:10140000ACF101021143C16100200121606284F846
:101410002010B0BDB0B586B040F60004C4F201049F
:101420000068A4F5244200219042059102D006B044
:10143000B0BD00BF41F21800C4F20200426802AD24
:1014400042F000724260426802F000720192019A1A
:10145000026842F004020260006800F0040001909B
:1014600001984FF40060CDE902010491204629461D
:1014700000F0AEF84FF48050029002200390032059
:1014800005902046294600F0A3F8142000210022F0
:1014900000F05EFE142000F04BFE1520002100221B
:1014A00000F056FE152000F043FE06B0B0BD00006F
:1014B0007047000010B540F26014C2F2000404F15D
:1014C0005802231D0021FFF761FD78B9A06D40F29D
:1014D0002221884218BF10BD41F20000C4F2010071
:1014E0004FF4005100F07EF9E07AE07410BD000086
:1014F000704700007047000070470000B0B5044618
:1015000090F8200001281DD1022084F820002068D6
:10151000016821F00101016000F072F9054600BF89
:1015200020684068C00713D000F06AF9401B0B2800
:10153000F6D3606A40F400306062052084F8200031
:101540000120B0BD606A40F4002060620120B0BD9F
:1015500000206062B0BD00007047000070470000CE
:10156000704700007047000070470000704700009F
:1015700070470000B0B5044600F042F9054640F25D
:101580000000C2F200000078611C18BF044400BFD4
:1015900000F036F9401BA042FAD3B0BD202818BF96
:1015A000704740F2B02040F24821C2F20000C2F27F
:1015B000000101F073BE000040F21441C4F20101C9
:1015C0000A68024214BF08607047FFF7E7BF0000D7
:1015D0002DE9F04F82B041F20042C4F201020E68E0
:1015E0000423904208BF0323002E009300F0F680EE
:1015F00040F2004C4FF6FF7E0022C4F2010C0124A1
:10160000C1F2100E4FF0000A4FF0000947E000BF92
:10161000012502F00C040F27A7402BEA070705FA63
:1016200004F43C4343F82640D1F804B040F20C45A2
:101630005FEACB23DCF8083054BF23EA080343EA0F
:101640000803C4F20105CCF808302B685FEA8B244C
:1016500054BF23EA080343EA08032B605FEA8B3494
:10166000DCF8043054BF23EA080343EA08035FEAC6
:10167000CB34CCF80430DCF800304FF0010454BF18
:1016800023EA080343EA0803CCF800300E680AF1A5
:10169000010A36FA0AF302F1040200F09F8004FA0C
:1016A0000AF816EA080FF1D04B68734512DC122BCA
:1016B00056D8DFE803F0350B454955555555555576
:1016C000555555555555554D510000BFD1F80C9005
:1016D00046E000BF4FF6FF75C1F22105AB420FDCBB
:1016E0000025C1F21105AB421AD00025C1F2120546
:1016F000AB4215D00025C1F22105AB4210D02FE03E
:101700000025C1F22205AB420AD00025C1F2310505
:10171000AB4205D00025C1F23205AB4220D100BF5B
:101720008B684BB1012B14BFC0F81480C0F8108037
:101730004FF0080914E000BF4FF0040910E000BFAB
:10174000CB6803F108090BE04FF0000908E000BF87
:10175000CB6803F1040903E0CB6803F10C0900BF77
:1017600013460546BAF1080F24BF203B04352E6806
:101770000F279F40BE4309FA03F333432B60CB7915
:10178000DB067FF583AF41F21804C4F2020423683C
:101790004FEA9A0643F001032360236840F60004F1
:1017A00003F001030193019BACF57E7353F826B05F
:1017B000C4F20104A0420FD040F60044C4F2010478
:1017C000A0423FF425AF41F20004C4F20104009DA1
:1017D000A04208BF02251CE700251AE702B0BDE8B9
:1017E000F08F0000C26802EA0103914341EA03411D
:1017F00001617047002A08BF0904016170470000B9
:1018000040F20430C2F200000068704770B5B8B30F
:10181000044690F83D0028B9002084F83C0020469A
:1018200000F0ECFB242084F83D002068016821F0E2
:1018300001010160016841F400410160016821F487
:101840000041016000F0A0FD48F28041C0F21E019D
:1018500040F60013D4F804E088424FF00001C0F2D3
:101860003D0348F2A16C4FF0000238BF01219842BD
:10187000C0F2010C38BF0122E64538BF0A460AB162
:10188000012070BD4DF68361C4F21B31A0FB011233
:101890002168950C4B684FF4967623F03F0343EA9A
:1018A0009243754344F6D3564B60C1F262060B6A0D
:1018B000A5FB0656B50923F03F03E64538BF950C56
:1018C0006A1C1A430A62CA6948F2A0664CF6FF73A2
:1018D000C0F20106B64522EA03020BD801384FEAEE
:1018E0004E03B0FBF3F001306FF31F30042898BFB4
:1018F00004201EE0A368013863B119230EFB03F333
:10190000B0FBF3F001306FF31F3078B100F5804089
:1019100008E000BF0EEB4E03B0FBF3F001306FF3B5
:101920001F3028B100F5004003E000BF012000E0B7
:1019300001201043C8610868D4E9072320F0C000E3
:10194000104318430860886848F2FF3204F10C061F
:1019500090434CCE18431043A5698860C86820F0B6
:10196000FF0030432843C860086840F00100086069
:1019700000202021206484F83D10206384F83E007C
:1019800070BD00002DE9F04383B01E46174689461E
:101990000446FFF735FF94F83D10202920D1054675
:1019A000206800BF8169890716D5FFF729FF411B11
:1019B00020681A29F6D381698907F3D500202021F0
:1019C000206384F83D1084F83E00216C41F0200132
:1019D000216484F83C0003E094F83C10012903D111
:1019E000022003B0BDE8F083012184F83C100168B7
:1019F000C90703D1016841F001010160016840F2AB
:101A0000020821F400610160212184F83D101021B9
:101A100084F83E100021216467626685618DC0F202
:101A200001082185A8F10211E162E16A0A9E11F51F
:101A3000803F18BF01291DD1016841F48071016008
:101A400020464FF0011100223346009501F0C2F903
:101A500050B120680068C00544BF4FF40070206496
:101A6000012003B0BDE8F0832069B0F5804F07D1B5
:101A7000FE2015E00829DFD0216B1229DCD0DFE73A
:101A8000062000EAD9102168F030086108F106014B
:101A9000204632462B4601F087FA0028E0D1FF208D
:101AA000216800EA090008612046414632462B467B
:101AB00001F07AFA0028D3D1002002902068416911
:101AC000029180690290029806E000BF20463146EC
:101AD0002A4601F01FF918BB208D68B32046314615
:101AE0002A4601F019FBD8B9606A2168024612F84B
:101AF000013B0B616262628D013A6285228D531E49
:101B000023854F697F07E1D51B04DFD0437802307E
:101B10000B616062608D01386085901E2085D5E77D
:101B2000206C04289CD12068016841F40071016098
:101B3000012003B0BDE8F0832068016841F4007122
:101B40000160202084F83D00002084F83E0084F8E5
:101B50003C0003B0BDE8F0832DE9F04F85B00446AA
:101B60000020994616460F460490FFF749FE94F868
:101B70003D10202927D10546206800BF81698907CB
:101B80001CD5FFF73DFE411B20681A29F6D3816959
:101B90008907F3D500202021206384F83D1084F8C4
:101BA0003E00206C04F13C0A40F02000206402203A
:101BB00000218AF8001005B0BDE8F08FA2461AF89F
:101BC0003C1F012904D1022005B0BDE8F08F00BF01
:101BD00001228AF800200368DDE90F180E9ADB075E
:101BE00003D1036843F001030360036823F4006337
:101BF0000360222084F83D00402084F83E0000204D
:101C0000206462626185608D394620850020CFF6B0
:101C1000FF70E062204632464B46CDF800800195C9
:101C200000F088FF20B1012005B0BDE8F08F00BFB3
:101C3000208D022810D0012824D0002838D100207F
:101C400003902068416903918169039103990168B8
:101C500041F40071016037E02068016841F40061DF
:101C60000160EFF3108072B6002003902068416994
:101C70000391816903910399016821F480610160F6
:101C800062B621E02068016821F480610160EFF311
:101C9000108072B600200390206841690391816929
:101CA00003910399016841F40071016062B60BE091
:101CB0002068016841F4806101600021039141695D
:101CC0000391806903900398208D002800F0CA805A
:101CD000042740F2E0094BF2895BC0F20107C2F22F
:101CE0000009C1F2F84B232617E000BF2046414609
:101CF0002A4601F0C9F9002895D12068616A006977
:101D00000870606A218D01306062481E2085618DF7
:101D100001396185010400F0A58080B2032865D8EF
:101D2000022800F07F800128E0D0204639460022BA
:101D30004346009501F04EF800287FF474AF206808
:101D4000016821F480610160EFF3108072B62068B1
:101D5000616A00690870606A218D01300139606232
:101D60002185618D01396185D9F80010C908A1FB71
:101D70000B12110A714304910499013904910499D9
:101D8000002900F07B8021684A6952071DD404991C
:101D9000013904910499002970D021684A695207D9
:101DA00013D40499013904910499002966D021685B
:101DB0004A69520709D40499013904910499002908
:101DC0005CD021684A695207D6D50A6842F400728D
:101DD0000A6009690170606A218D01306062481EE5
:101DE0002085608D0138608562B686E720464146D1
:101DF0002A4601F049F900287FF415AF2068616A8E
:101E000000690870606A2268411C208D6162013897
:101E10002085638D013B638553695B077FF57AAF4E
:101E200010696DE72046394600224346009500F0D0
:101E3000D1FF00287FF4F7AEEFF3108072B6206870
:101E4000616A026842F40072026000690870606AA8
:101E5000218D01306062481E2085608D01386085CB
:101E600062B64AE7202084F83D00002084F83E0056
:101E700000218AF8001005B0BDE8F08F0020202175
:101E8000206384F83D1084F83E00206C40F0200070
:101E9000206462B6012000218AF8001005B0BDE878
:101EA000F08F00002DE9F04383B0994616460F46A7
:101EB0000446FFF7A5FC94F83D10202920D10546E3
:101EC000206800BF8169890716D5FFF799FC411B7F
:101ED00020681A29F6D381698907F3D500202021CB
:101EE000206384F83D1084F83E00216C41F020010D
:101EF000216484F83C0003E094F83C10012903D1EC
:101F0000022003B0BDE8F083012284F83C2003687E
:101F1000DDE90B180A9ADB0703D1036843F00103DC
:101F20000360036823F400630360212084F83D000C
:101F3000402084F83E000020206462626185608D4C
:101F4000394620850020CFF6FF70E06220463246F9
:101F50004B46CDF80080019500F078FE20B10120BD
:101F600003B0BDE8F08300BF208D98B920464146FC
:101F70002A4600F0CFFE88B3206C0428EFD12068F9
:101F8000016841F400710160012003B0BDE8F083F5
:101F90000004EBD0204641462A4601F0BDF8002857
:101FA000EAD1616A2268084610F8013B1361238D6B
:101FB0006062581E2085678D013F678557697F07DE
:101FC000E6D50704E4D048781061881C6062981E4A
:101FD0002085618D01396185DAE700BF20680168DD
:101FE00041F400710160202084F83D00002084F855
:101FF0003E0084F83C0003B0BDE8F08310B586B025
:1020000045F200410068C4F20001002288420492B7
:1020100002D006B010BD00BF41F21804C4F20204A1
:10202000206840F008002060206800F0080001905F
:102030000198C0200290122003900320059001F522
:10204000384002A9FFF7C4FA606840F400106060ED
:10205000606800F400100190019806B010BD000007
:1020600040F2000040F20431C2F20000C2F200016E
:1020700000780A68104408607047000080B542F29A
:102080000000C4F20200016841F010010160032069
:1020900000F08AF80F2000F005F800F027F8002083
:1020A00080BD000070B540F20006C2F2000640F2AA
:1020B000E0013278C2F200014FF47A730968B3FB91
:1020C000F2F20446B1FBF2F1084600F04BFB0F2C94
:1020D0004FF0010508D838B94FF0FF3021460022F3
:1020E000002500F035F87460284670BD82B041F2DA
:1020F0001800C4F202000168022241F001010160EF
:10210000016801F0010101910199416841F080519C
:102110004160406800F08050009000980420C4F2B4
:102120000100016862F31A61016002B070470000AB
:10213000002848BF704700F01F01012202FA01F198
:102140004EF200124009CEF2000242F82010704711
:1021500010B54EF60C5CCEF2000CDCF80030C3F388
:10216000022E8EF00704042C28BF0424BEF10303C2
:102170004FF0FF3E0EFA04F438BF0023A14399400C
:102180000EFA03F39A43114300F00F02043A62443B
:1021900009010C3200F16043B0F1FF3FC8BF03F505
:1021A0006442117010BD00004EF60C51CEF20001D9
:1021B0000A684FF6FF031A4060F30A2242F080607B
:1021C00040F0FD70086070472DE9F04381B00028B1
:1021D00000F0858042F20008C4F202080446D8F8F4
:1021E00000000D4600F0070088420CD2D8F800002D
:1021F00020F007002843C8F80000D8F8000000F0DD
:102200000700A8426BD1206841F204098107C4F29B
:10221000020917D5410705D5D9F8001041F4E0614E
:10222000C9F80010010705D5D9F8001041F4605134
:10223000C9F80010D9F80010A26821F0F00111438C
:10224000C9F80010C00741D1D8F8000000F007001D
:10225000A8420CD9D8F8000020F007002843C8F89D
:102260000000D8F8000000F00700A84237D120682D
:10227000410707D5D9F80010E26821F4E061114365
:10228000C9F80010000708D5D9F80000216920F42A
:10229000605040EAC100C9F80000D9F8002002F0FF
:1022A0000C00082841F20020C0F27A0050D145F617
:1022B0006E53C2F38341C0F60003595CD2033BD492
:1022C00040F60010C0F23D00484341E0606802283B
:1022D0000AD001282AD159F8041C890308D4012006
:1022E00001B0BDE8F08300BF59F8041C8901F6D5A0
:1022F000D9F8001021F003010843C9F80000FFF7E6
:102300007FFA064641F28837D9F80000616800F08C
:102310000C00B0EB810F97D0FFF772FA801BB84228
:10232000F2D9032001B0BDE8F08300BF59F8041CC6
:102330008907D4D5DCE700BFD9F8002045F66C53F7
:10234000C2F34042C0F600039A5C4843B0FBF2F08F
:10235000D9F8001045F65452C1F30311C0F600023B
:10236000515C40F2E00220FA01F140F20400C2F2B6
:1023700000000068C2F200021160FFF793FE002027
:1023800001B0BDE8F083000040F2E00041F204013A
:10239000C2F20000C4F202010068096845F6645206
:1023A000C1F30221C0F60002515CC8407047000032
:1023B0002DE9F04182B0002868D00446007841F24F
:1023C0000006C007C4F2020625D0706800F00C00B9
:1023D00004281BD0706800F00C00082802D1706837
:1023E000C00313D46068002800F06881B0F5A02F06
:1023F00000F07C81B0F5803F00F07C81306820F4F3
:1024000080303060306820F4802076E130688003CE
:1024100001D56068D0B32078800718D5706810F0B7
:102420000C0F07D0706800F00C0008286ED170689F
:10243000C0036BD43068800702D52069012825D1FC
:102440003068616920F0F80040EAC100306020780F
:1024500000071FD42078400732D4E56995B1706831
:1024600000F00C00082840F08F80012D0ED070681D
:10247000216A00F480328A4208D1616A00F4701047
:10248000884203D1002002B0BDE8F081012002B0F3
:10249000BDE8F081A069002862D00020C4F242208B
:1024A0000121C0F88014FFF7ABF90546706A800778
:1024B00000F18C80FFF7A4F9401B0228F6D92AE12D
:1024C000F06910F0805808D1F06940F08050F06158
:1024D000F06900F080500090009847F20007C4F2C5
:1024E00000073868C00529D4386840F48070386027
:1024F000FFF786F9054600BF3868C0051ED4FFF710
:102500007FF9401B6428F7D905E100BF2069002846
:1025100040F20000C4F2422000F0828001210160FC
:10252000FFF76EF9054600BF306880073FF588AFBA
:10253000FFF766F9401B0228F6D9ECE0E0680028B6
:1025400000F08080052800F09780012800F0988036
:10255000306A20F001003062306A20F0040092E01E
:102560000020C4F242200021C0F88014FFF748F98F
:10257000054600BF706A80077FF56CAFFFF740F932
:10258000401B0228F6D9C6E00027C4F242270020EB
:102590003866FFF735F9022D05460BD1306880010A
:1025A00040F1BE80FFF72CF9401B02284FF00300DA
:1025B000F4D968E7306880017FF564AFFFF720F950
:1025C000401B02284FF00300F4D95CE740F2E00022
:1025D000C2F20000006844F6D351C1F26201A0FBD0
:1025E0000101480A019000BF00BF0198411E002868
:1025F00001913FF42FAF00BF0198411E00280191C7
:102600003FF428AF00BF0198411E002801913FF41C
:1026100021AF00BF0198411E00280191E4D119E7C4
:1026200000210160FFF7ECF8054600BF3068800725
:102630007FF50DAFFFF7E4F8401B02284FF00300D1
:10264000F4D920E7306A20F001003062306A20F0CF
:1026500004003062FFF7D4F8054641F2883700BF26
:10266000306A800720D5FFF7CBF8401BB8424FF007
:102670000300F5D907E700BF306A40F0040030627C
:10268000306A40F001003062FFF7BAF8054641F2C7
:10269000883700BF306A800706D4FFF7B1F8401BC7
:1026A000B842F7D937E000BFB8F1000F7FF4D5AEDC
:1026B000F06920F08050F061CFE600BF306820F470
:1026C00080303060306820F480203060FFF798F868
:1026D000054600BF306880037FF59DAEFFF790F898
:1026E000401B64284FF00300F4D9CCE6306840F476
:1026F00080203060306840F480303060FFF780F830
:10270000054600BF306880033FF585AEFFF778F8D7
:10271000401B6428F6D9032002B0BDE8F08100BF59
:10272000206AB0F5803F05D17168A26821F40031BC
:10273000114371607168626A21F474111043084397
:10274000706001203866FFF75BF80446306880014E
:102750003FF598AEFFF754F8001B02284FF0030036
:10276000F4D990E6411E0020B0EB116F1CBF012090
:1027700070474EF21002CEF2000251604EF6235125
:10278000CEF20001F0230B700721906011607047BA
:1027900010B590F83C20012A4FF0020233D080F8A7
:1027A0003D200268D2F804E0D2F808C00C682EF090
:1027B0007003234340F2FF74C4F20004A24253604A
:1027C0000ADCB2F1804F13D040F20043C4F20003A0
:1027D0009A420DD011E000BF42F60043C4F201035B
:1027E0009A4205D040F60003C4F200039A4204D195
:1027F00049682CF08003194391600121002280F880
:102800003D1080F83C20104610BD0000002804BF99
:102810000120704710B5044690F83D0028B900200B
:1028200084F83C00204600F067F8022084F83D0060
:10283000206840F2FF730268C4F2000342F6004CC5
:102840009842C4F2010C15DCB0F1804F1AD040F26E
:102850000041C4F20001884214D0984218DCB0F163
:10286000804F1DD040F20041C4F20001884217D0D1
:102870001AE000BF604505D040F60001C4F2000137
:102880008842EAD1A16822F070020A439842E6DD4C
:10289000604505D040F60001C4F20001884203D132
:1028A000216922F440720A43A36922F08001D4F81E
:1028B00004E0E268194360450160C262C0F828E0A4
:1028C00002D16169CCF8301001214161002084F807
:1028D000461084F83E1084F83F1084F8401084F8C5
:1028E000411084F8421084F8431084F8441084F8AE
:1028F000451084F83D1010BD81B0006842F60041DB
:10290000C4F20101884201D001B0704741F21800C1
:10291000C4F20200016841F400610160006800F443
:1029200000600090009801B07047000090F83D10E2
:1029300001291CBF01207047022180F83D1000686A
:1029400040F2FF71C4F20001884209DCB0F1804F0F
:1029500012D040F20041C4F2000188420CD012E0D3
:1029600042F60041C4F20101884205D040F6000160
:10297000C4F20001884206D1816801F007010629EE
:1029800004BF00207047016841F001010160002090
:102990007047000080B590F83C20012A4FF00202F9
:1029A00000F0C28080F83D20D0F800C04FF677726A
:1029B000DCF8083023EA0202CCF808200B684F2B21
:1029C00028DC1F2B44DD202B45D0302B43D0402B5F
:1029D00040F0AC80D1F804E0C968DCF82030DCF8C5
:1029E000202022F00102CCF82020DCF8182022F070
:1029F000F00242EA011123F00A0242EA0E02CCF888
:102A00001810CCF82020DCF8081041F0470121F024
:102A1000300180E06F2B27DDB3F5005F48D0B3F5C0
:102A2000805F7AD0702B40F08180D1E901E3C968E2
:102A3000DCF8082043EA0E0322F47F4243EA012136
:102A40001143CCF80810DCF8081041F0770162E07F
:102A50000BB1102B6AD1DCF8081021F0700119437A
:102A600041F0070157E000BF502B35D0602B5DD1FE
:102A7000D1F804E0C968DCF82030DCF8202022F02E
:102A80001002CCF82020DCF8182022F4704242EA30
:102A9000013123F0A00242EA0E12CCF81810CCF853
:102AA0002020DCF8081041F0670121F0100132E02D
:102AB000D1E901E3C968DCF8082043EA0E0322F4F7
:102AC0007F4243EA01211143CCF80810DCF80810DA
:102AD00041F480411FE000BFD1F804E0C968DCF890
:102AE0002030DCF8202022F00102CCF82020DCF895
:102AF000182022F0F00242EA011123F00A0242EA11
:102B00000E02CCF81810CCF82020DCF8081041F0A8
:102B1000570121F02001CCF808100022012180F893
:102B20003D10002180F83C10104680BD0122F5E7E1
:102B3000FEE700002DE9F04782B0044600680E462B
:102B40000168DDF828A041F4806101600168DDF8CA
:102B50002C9041F480711D461746016020464FF0CD
:102B6000011100225346CDF8009000F033F958B11E
:102B700020680068C00544BF4FF400702064032043
:102B800002B0BDE8F08700BF40F202082068C0F242
:102B9000010806F0FE0606612046414652464B46B5
:102BA00000F002FA20B1012002B0BDE8F08700BFBA
:102BB0000020019020684A46416901918069514690
:102BC00001900198204600F0A7FA98B9012D08D08D
:102BD0002068390A0161204651464A4600F09CFAB5
:102BE00040B92068F9B20161204651464A4600F0DA
:102BF00093FA58B1206C0428D5D12068016841F4BB
:102C000000710160012002B0BDE8F0872068002259
:102C10000168534641F48071016020464FF0011174
:102C2000CDF8009000F0D6F80028A1D1206846F039
:102C3000010101612046414652464B4600F0B4F97D
:102C4000002818BF012002B0BDE8F0872DE9F0434D
:102C500083B0044600680D4601680A9F0B9E41F44C
:102C6000807199469046016020464FF00111002284
:102C70003B46009600F0AEF850B120680068C005F1
:102C800044BF4FF400702064032003B0BDE8F0831C
:102C9000206805F0FE0101610221C0F20101204619
:102CA0003A46334600F080F920B1012003B0BDE878
:102CB000F08300BF002002902068324641690291F3
:102CC0008069394602900298204600F025FA58B1F2
:102CD000206C0428E9D12068016841F4007101608A
:102CE000012003B0BDE8F083B9F1010F0AD02068DC
:102CF0004FEA1821016120463946324600F00CFAAD
:102D00000028E5D120685FFA88F10161002003B056
:102D1000BDE8F08370B50368044653F8140F40070C
:102D200011D40E46481C29D086BB00BF1868400548
:102D300027D4FEF765FD236853F8140F400739D5F3
:102D400018684007F2D5002070BD00BF1868400722
:102D5000F9D41868400514D418684007F3D41868EB
:102D600040050ED418684007EDD41868400508D413
:102D7000186840074FF0000048BF70BD1868400554
:102D8000E4D56FF480601860042014E0154603E079
:102D900053F8140F4007D6D418684005F1D4FEF755
:102DA0002FFD401B2368B042F2D958694007EFD489
:102DB000202000E0202000212022216384F83D20F3
:102DC00084F83E10226C10432064012084F83C10EB
:102DD00070BD00002DE9F041054600681E4614460E
:102DE00001F47F0201338FB242D0DDF81880B2F5D2
:102DF000803F40F0878040693840C01BB0FA80F0C7
:102E00004009A04240F0C8804EB924E040693840F3
:102E1000C01BB0FA80F04009A04240F0BD80FEF730
:102E2000EFFCA0EB08012868B142EFD941693940B5
:102E3000C91BB1FA81F14909A142E7D19BE000BF6A
:102E400040693840C01BB0FA80F04009A0424FF002
:102E5000000040F0A680FEF7D3FC286841693940A5
:102E6000C91BB1FA81F14909A142E9D183E000BF50
:102E7000B2F5803F24D100BF41693940C91BB1FA86
:102E800081F14909A14240F0878041693940C91B5D
:102E9000B1FA81F14909A14240F07E80416939408F
:102EA000C91BB1FA81F14909A14275D14169394083
:102EB000C91BB1FA81F14909A142DDD06CE000BF24
:102EC00081693940C91BB1FA81F14909A14263D135
:102ED00081693940C91BB1FA81F14909A1425BD12D
:102EE00081693940C91BB1FA81F14909A14253D125
:102EF00081693940C91BB1FA81F14909A142DFD08A
:102F00004AE000BF80693840C01BB0FA80F0400939
:102F1000A04241D146B923E080693840C01BB0FAD5
:102F200080F04009A0423BD1FEF76AFCA0EB08010B
:102F30002868B142F0D981693940C91BB1FA81F1E1
:102F40004909A142E8D116E080693840C01BB0FAB7
:102F500080F04009A0424FF0000018BFBDE8F081AA
:102F6000FEF74EFC286881693940C91BB1FA81F12E
:102F70004909A142E8D100202021286385F83D10AD
:102F800085F83E00296C41F02001296485F83C0059
:102F90000120BDE8F08100BF0020BDE8F08100BF46
:102FA0000020BDE8F0810000F0B581B00446006863
:102FB0001D4643698FB203EA0701B94202D10020DE
:102FC00001B0F0BD41691646013201F4806125D09F
:102FD000002940D1CEB100BFFEF712FC411B206892
:102FE000B14203D941693940B9424BD141693940B5
:102FF000B942E4D041694905EED52CE04169394038
:10300000B942DCD04169490525D4FEF7F9FB2068B7
:1030100041693940B942F1D0202024E0D9B9416951
:103020003940B942CBD04169490514D4416939408E
:10303000B942C4D0416949050DD441693940B9420A
:10304000BDD04169490506D441693940B942B6D07D
:1030500041694905E3D5016841F4007101606FF4ED
:1030600080614161042000212022216384F83D20F9
:1030700084F83E10226C1043206484F83C10012038
:1030800001B0F0BD2020EEE770B50446006815469B
:1030900050F8143F5A063DD40E4629B926E000BF29
:1030A00050F8141F490635D40168C90621D4FEF72B
:1030B000A7FB411B2068B142F2D941694906EFD410
:1030C00000202021206384F83D1084F83E00206C0D
:1030D00040F0200018E000BFFEF792FB206850F897
:1030E000141F4906ECD50168490613D40168C906C6
:1030F000F2D56FF01001016000202021206384F8D8
:103100003D1084F83E00206C2064002084F83C00D0
:10311000012070BD002070BD70B50368044653F8EF
:10312000140F000611D40E46481C29D086BB00BFE0
:103130001868400527D4FEF763FB236853F8140F83
:10314000000639D518680006F2D5002070BD00BF12
:1031500018680006F9D41868400514D418680006E9
:10316000F3D4186840050ED418680006EDD418682A
:10317000400508D4186800064FF0000048BF70BD35
:1031800018684005E4D56FF480601860042014E0EE
:10319000154603E053F8140F0006D6D4186840050E
:1031A000F1D4FEF72DFB401B2368B042F2D95869D9
:1031B0000006EFD4202000E02020002120222163FF
:1031C00084F83D2084F83E10226C104320640120D6
:1031D00084F83C1070BD00002DE9F04184B0044635
:1031E00001250DF10F006426CDE900052046D02110
:1031F000752201230296FEF7AFFC9DF80F006828A8
:1032000048D14FF000080DF10E072046D0216B2267
:1032100001238DF80E80CDE900750296FEF742FE7F
:1032200004208DF80E002046D02119220123CDE97B
:1032300000750296FEF736FE02208DF80E0020463D
:10324000D0211A220123CDE900750296FEF72AFE4D
:103250002046D0211C2201238DF80E80CDE9007577
:103260000296FEF71FFE2046D0211B2201238DF877
:103270000E80CDE900750296FEF714FE2046D0219F
:10328000382201238DF80E50CDE900750296FEF725
:1032900009FE0025284604B0BDE8F0812DE9F04F75
:1032A0009FB08A460E210DF16E026427CDE9002100
:1032B000D0213B2201230297FEF74EFCBDF86E00A1
:1032C000BDF8707001BA090CAAF8001039BABDF83F
:1032D0007260090CAAF8021031BABDF87680090CA8
:1032E000AAF8041098FA88F1BDF878B0090CAAF889
:1032F00020109BFA8BF1BDF87A20090CAAF8221055
:1033000011BABDF87490090CC0BA1A92AAF8241028
:1033100001F074FE4EF60064C4F2CF04002223468E
:1033200001F0D6FCCAE90201F8BA01F067FE0022FA
:10333000234601F0CDFCF5BACAE90401284601F0A4
:103340005DFE0022234601F0C3FCCAE9060199FA9A
:10335000B9F002F00FFB0021C4F2AA3102F048FAE2
:1033600041F6B861C4F2122102F0B6F9CAF8480079
:1033700098FAB8F001F042FE46F20004C4F260048C
:103380000022234601F0A4FCCAE90A019BFABBF023
:1033900001F034FE0022234601F09AFCCAE90C0138
:1033A0001A98C0BA01F02AFE0022234601F090FCD0
:1033B00040F24814C2F200042288CAE90E0142F623
:1033C00024406280C4F2010000684FF6FF71208043
:1033D00080B25140904288BF5142084401F00EFE35
:1033E00048F28043C4F22E13002201F071FCBAF9B6
:1033F000002005FB05F302FB0232C4E9020110467E
:1034000001F0FCFD01F06CFB0022002304460D4698
:1034100002F0C4F9B0B9BAF9020001F0EFFD22469A
:103420002B4601F055FC01F07DF94CF2F8124AF2FE
:10343000DC53C1F66322C4F24C0301F06FFE159118
:1034400003E000BF0020159000201690BAF900009C
:10345000BAF90440404201F0D1FD054620460E462F
:1034600001F0CCFD02460B462846314601F06AFACF
:103470004CF2F8124AF2DC53C1F66322C4F24C0358
:1034800001F04CFE48F20003CCF256030022044641
:103490008B4602F098F9CDF864A048B9DAE9160134
:1034A00048F20003C4F25603002202F085F998B9ED
:1034B00048F20003C4F2560320465946002202F0A7
:1034C00089F988B9DAE9160148F20003CCF256030B
:1034D000002202F078F938B940F25000C2F2000040
:1034E000C0E9064B12E100BF40F2481240F250061C
:1034F000C2F20002C2F20006DAE90C01D2E9028748
:10350000D6E90823CDE9132301F0F8FF024612940F
:10351000D6E906450B464046394601F0FFFD2246F6
:103520002B4601F019FBD6E91093D6E90C540F9005
:103530000E91404639464A46109311951894CDF89D
:103540001C9001F0EBFD2A46234601F0D7FFD6E997
:103550000E4322460B9301F0D1FF96E82C0009950B
:10356000F568CDF828B0089501F0F6FA0246D6F8CD
:103570002CB0B66A0B4640463946454601F0CEFDB2
:1035800032465B4601F0E8FA4A46DDF84090179073
:103590001A9187F0004140464B4601F0BFFD119A59
:1035A000189B06468B4601F0D7FA0B9BCDE90C1011
:1035B00030465946224601F0CFFA189088460B91C2
:1035C000DDE908102A463B4601F0A8FD079A4B4664
:1035D00001F0C2FA119040F25000C2F20000179CB4
:1035E0001A9DD0E9042310912046294601F0B4FA2F
:1035F00006460F462046294632463B4601F068FB08
:103600008346CDE906101898414632463B4601F004
:103610005FFB0F9C0E9D814609908A460891129887
:103620000A9922462B4601F069FF069F0646884606
:10363000584639463246434601F070FD22462B4635
:1036400001F08AFA40F2500504468B46C2F20005AA
:103650004846514632464346DDF864A0C5E9064B6C
:1036600001F05CFDDDE9132301F076FAC5E90801FC
:10367000A846079EDDF85C901A9D304639464A46BA
:103680002B4601F04BFD02460B464846294601F009
:1036900035FFC8E90A013946DDF834800C9F304611
:1036A00042463B4601F03AFD02460B46404639464B
:1036B00001F024FF40F25002099D089EC2F2000270
:1036C0001A9BC2E90C01284631464A4601F026FD04
:1036D00002460B4618980B9901F010FF40F2500279
:1036E000C2F20002C2E90E012846314642463B467C
:1036F00001F014FD02460B46DDE9101001F0FEFE5C
:1037000040F25002C2F20002C2E9100148F2000386
:103710002BF00041C4F2560320460022CAE9164BA2
:1037200002F058F80246DAE90A0140F20809002AD4
:1037300004BF81F00041CAE90A01C2F20009D9E9D7
:103740000823CDE9102301F0D9FE40F24817C2F258
:10375000000707F1080602460B4643CE7F69D9E908
:1037600006451396129706460F461A9101F0D6FCAD
:1037700022462B4601F0F0F9D9E91023D9E90C547F
:103780000C900B9130463946CDE90532CDE90D5408
:10379000B34601F0C3FC2A46234601F0AFFED9E947
:1037A0000E8A4246534601F0A9FE99E88C00049720
:1037B000D9F80C70039701F0CFF91A9C0246D9E9A9
:1037C0000A560B46584621465F4601F0A7FC2A469A
:1037D000334601F0C1F9CDE917105846CDF83CB099
:1037E000DDF818B0059D84F000415A462B4614912F
:1037F00001F094FCDDE90D230646894601F0ACF9A1
:10380000CDE90910304649464246534601F0A4F935
:10381000814608908A460791DDE903103A4623461F
:1038200001F07CFC5A462B4601F096F90E9040F2CE
:103830000800C2F20000189E179DD0E904230D91E4
:103840003046294601F088F904460F46304629469D
:1038500022463B4601F03CFA80468B46484651469C
:1038600022463B4601F034FA0C9CDDF82C900546CC
:1038700005900E460691DDE9151022464B4601F0F3
:103880003DFE07468A46404659463A46534601F0B1
:1038900045FC22464B4601F05FF940F20804C2F2B3
:1038A0000004CDE91501C4E90601284631463A462F
:1038B000534601F033FCDDE9102301F04DF9DDF84A
:1038C0006090DDF85CA0C4E90801404659464A46CC
:1038D000534601F023FC02460B464846514601F090
:1038E0000DFE0A9E099FC4E90A0140465946324628
:1038F0003B4601F013FC02460B463046394601F0C8
:10390000FDFDC4E90C01A046059C069D2046294604
:103910004A46534601F002FC02460B46DDE9071019
:1039200001F0ECFDC8E90E012046294632463B462F
:1039300001F0F4FB02460B46DDE90D1001F0DEFD5F
:10394000C8E910011998DDE91521D0E90E590023C5
:10395000C0E91421C3F6F87328464946002201F055
:10396000FBF8DDF83CB0DDF868A002460B4658468F
:10397000514601F0D3FB02460B4601F0EDF8DDE9BC
:10398000123201F0E9F840F298070446CDE912013D
:10399000C2F2000740F24810D7E90823C2F2000043
:1039A000C0E9044128464946CDE9152301F0A6FDAA
:1039B0000246D7E906450B465846514601F0AEFB94
:1039C00022462B4601F0C8F8D7E91029D7E90C5454
:1039D00011901091584651464B460A92CDE90D542C
:1039E00001F09CFB2A46234601F088FDD7E90E58DA
:1039F0002A46434601F082FD97E84C000996FE688E
:103A0000089601F0A9F80246D7E90A460B4658463F
:103A1000514601F083FB2246334601F09DF8DDF864
:103A200028A0CDE917101499584652464B464F46E8
:103A300001F074FBDDE90D2304460E4601F08CF81D
:103A4000CDE90D10204631462A46434601F084F860
:103A500080460C9089460B91DDE908101A9B5A4666
:103A600001F05CFB52463B4601F076F81A9040F2BA
:103A70009800C2F20000189D179FD0E9042314910A
:103A80002846394601F068F804460E46284639466D
:103A90002246334601F01CF982468B464046494691
:103AA0002246334601F014F905460F90DDE9114036
:103AB000109E894613992246334601F01FFD0746A2
:103AC0008846504659463A46434601F027FB22466F
:103AD000334601F041F840F29804C2F20004CDE907
:103AE0001201C4E90601284649463A4643464E4675
:103AF00001F014FBDDE9152301F02EF8A046C8E91A
:103B0000080155465046DDF86090DDF85CA0594646
:103B10004A46534601F002FB02460B4648465146D0
:103B200001F0ECFCC8E90A0128460E9D0D9F59469C
:103B30002A463B4601F0F2FA02460B462846394631
:103B400001F0DCFC0F9CC8E90C01204631464A46D6
:103B5000534601F0E3FA02460B46DDE90B1001F093
:103B6000CDFCC8E90E01204631462A463B4601F00D
:103B7000D5FA02460B461A98149901F0BFFCC8E921
:103B800010011998DDE91221C0E918211FB0BDE824
:103B9000F08F0000FEE70000FEE700007047000025
:103BA00070470000FEF75CBA7047000040F2D41086
:103BB000C2F20000FDF784BAFEE7000092B0FEF703
:103BC0005DFA00240120CDE90D44CDE90B440890B5
:103BD0000C904FF4E0104FF480310225119008A8AA
:103BE000CDE90914CDE90F51FEF7E2FB20B1EFF367
:103BF000108072B6FEE700BF0F20CDE902054FF43A
:103C0000806005904FF4A060069002A80221049401
:103C1000FEF7DAFA20B1EFF3108072B6FEE700BFCC
:103C200041F21800C4F20200016841F2000441F0C0
:103C3000100101600168C4F2010401F01001089153
:103C400008990168002241F02001016001684FF4E9
:103C5000005501F02001089108990168002641F003
:103C600004010160016801F00401089108990168EC
:103C700041F00801016000684FF4005100F00800B5
:103C8000089008982046FDF7B5FD01200895CDE97C
:103C90000906022008AD0B9020462946FDF798FC46
:103CA000202008900020C1F21100CDE90906A4F5FA
:103CB00000602946FDF78CFC172000210022FEF74A
:103CC00047FA1720FEF734FA40F2B020A4F53C4141
:103CD000C2F2000048F2A0624FF48043C0F2010239
:103CE00080E84600C0E90363C0E90566C0E90766ED
:103CF000FDF78CFD20B1EFF3108072B6FEE700BF38
:103D000040F2D415A4F52C40C2F2000512214FF464
:103D1000803285E843002846C5E90362C5E90566A7
:103D2000AE83FDF7FDFA28B1EFF3108072B600BF45
:103D3000FEE700BF0120002610900A21CDE90E60A9
:103D40000D200D91119008A92846CDE90866CDE90E
:103D50000A660C96FDF7A2F804F5E051284640F8F3
:103D6000281F48214FF6FF720B96CDE90966CDE971
:103D70000266C0E90116C0E90326C0E90566FEF740
:103D800045FD28B1EFF3108072B600BFFEE700BF1B
:103D90004FF4805005F12806089008A93046FEF738
:103DA000F9FD28B1EFF3108072B600BFFEE700BF47
:103DB00002A93046FEF7ECFC20B1EFF3108072B69A
:103DC000FEE700BF20464FF400510122FDF712FD2F
:103DD0003046FEF7ABFD40F26017C2F2000740F23A
:103DE000B02607F11404C2F200064FF0020C204680
:103DF00031464E221023CDF800C0FCF749FE28467C
:103E0000FDF77CFB28460221FDF730F80820002151
:103E1000C7E913103046C7E9111187F85410FFF7AE
:103E2000DBF940F2482AC2F2000A07F120050FF23E
:103E3000500830370FF25809DAE91806DAE9142386
:103E40000090284641460196FCF7CAF9DAE91623A4
:103E500038464946FCF7C4F9204600210022FCF709
:103E60007FFF20462946FCF7C1FF204600210122A2
:103E7000FCF776FF20463946FCF7B8FFDCE700BFC9
:103E8000583A252E3266205A3A252E3266200000F6
:103E9000593A252E326620005FEA400C08BF91F0A7
:103EA000000F4FEA8C234FEAC12243EA51514FEAF7
:103EB0001C5018BF00F5F0404FEA300018BF41F029
:103EC00000415FEA6C5C00F02980BCF1FF3F08BF55
:103ED00040F080407047130C06BF12044FF0100CE6
:103EE0004FF0000C130E04BF12020CF1080C130F5C
:103EF00004BF12010CF1040C930F04BF92000CF1EB
:103F0000020CD30F04BF52000CF1010C11464FF00C
:103F10000002A0F11F00A0EB0C00704711F0004F51
:103F200008BF704731F000413FF4D5AF0B0C06BF1E
:103F300009044FF0100C4FF0000C0B0E04BF0902E7
:103F40000CF1080C0B0F04BF09010CF1040C8B0FD2
:103F500004BF89000CF1020CCB0F04BF49000CF127
:103F6000010CCCF1200322FA03F341EA030102FA27
:103F70000CF2A0EB0C0000F10100704723F07F472A
:103F800020F07F4C80EA030000F00040ACEB070318
:103F900003F57C5303F1FF032DE9804909B44FEA8F
:103FA000144324EA03484FEA154B25EA0B4E0FF25F
:103FB000042606EB13273E7803FB0667C7F50007C8
:103FC00007FB06F64FEAD64606F102064FEA5437DB
:103FD00007FB066CCCF1005C4FEA1C472CEA074C4F
:103FE0000CFB06F507FB06F404EB15464FEA9616A4
:103FF00049085FEA320234BF00204FF000404FEA28
:10400000D13706FB07FC4FEA1C4C0CFB0BF7D21B0D
:1040100003FB0CF761EB07010CFB0EF7B0EB07405D
:1040200072EB17420CFB08F734BFA2EB0742B2EB6E
:10403000074261EB17414FEA0C444FEA910706FB38
:1040400007FC4FEA1C4C0CFB0BF7B0EBC74072EBC4
:10405000573203FB0CF734BFA2EBC742B2EBC742A7
:1040600061EB57310CFB0EF7B0EBC70072EB5772E8
:104070000CFB08F734BFA2EBC702B2EBC70261EB3F
:1040800057714FEA816141EA92114FEA826242EA36
:1040900090124FEA806004EBCC04039F4FEAD137C3
:1040A00006FB07FC4FEA1C4C0CFB0BF7D21B03FB77
:1040B0000CF761EB07010CFB0EF7B0EB074072EB5E
:1040C00017420CFB08F734BFA2EB0742B2EB0742E2
:1040D00061EB17414FEA8C5504EB9C244FEA9107A2
:1040E00006FB07FC4FEA1C4C0CFB0BF7B0EBC74080
:1040F00072EB573203FB0CF734BFA2EBC742B2EBB3
:10410000C74261EB57310CFB0EF7B0EBC70072EB07
:1041100057720CFB08F734BFA2EBC702B2EBC70221
:1041200061EB57714FEA816141EA92114FEA826275
:1041300042EA90124FEA806015EB4C2544F10004EE
:104140004FEAD13706FB07FC4FEA1C4C0CFB0BF780
:10415000D21B03FB0CF761EB07010CFB0EF7B0EB76
:10416000074072EB17420CFB08F734BFA2EB074283
:10417000B2EB074261EB17414FEA813141EA9241CC
:104180004FEA823242EA90424FEA80304FEA0C76A0
:1041900015EB1C1544F1000448EA03434EEA0B48B2
:1041A0004FF0000EB2EB080C71EB030724BF624620
:1041B00039464EEB0E0E4FF0000B001852414941AC
:1041C0004BEB0B0BB2EB080C71EB03077BF1000B15
:1041D00024BF624639464EEB0E0E4FF0000B00181E
:1041E000524149414BEB0B0BB2EB080C71EB03074F
:1041F0007BF1000B24BF624639464EEB0E0E51EAAE
:10420000020718BF46F0010616EB0E7655F10002C4
:1042100054F1000103D5BDE88901BDE80088BDE87F
:104220008901BDE80048B619524141EB0101A3F1F3
:104230000103704780807F7E7D7C7B7A79787776FA
:1042400076757473727171706F6E6E6D6C6C6B6A73
:104250006A69686867666665646463636261616011
:10426000605F5F5E5E5D5D5C5C5B5B5A5A5959588E
:1042700058575756565555555454535352525251F8
:10428000515050504F4F4F4E4E4D4D4D4C4C4C4B4E
:104290004B4B4A4A4A494949484848474747474695
:1042A00046464545454444444443434343424242D1
:1042B000424141419C46002B30D477002BD04FEA3D
:1042C00037071CB503B44FF010004FF01001BAF1DE
:1042D000000F06D0BCF1000FDCBF40F0080040F03A
:1042E00008014FF000000FBCBDE810400BF1010BBE
:1042F000BBF1010F08BF5FEA170722BF12F10102ED
:1043000011F101014FF0004143F1000300F00040C2
:1043100043EA00007047F9D35708D0E746EA06465B
:104320004FEA164613F1400F1FDD13F1200FDFBFD8
:1043300016430A46002120335B42BED0C3F120075A
:1043400046EA06464FEA164602FA07F746EA070625
:1043500022FA03F2C3F1200701FA07F742EA070243
:1043600021FA03F14FF00003A7E746EA020646EA06
:1043700006464FEA164646EA0106BCBF46EA06462E
:10438000360C4FF000034FF000024FF0000194E7AD
:104390002DE9804C70B49A46934691E8380007C8DE
:1043A00031EA400C48BF34EA430C03D5FFF7E6FD81
:1043B000FFF780FFF0BCBDE8008C2DE9804C70B4A5
:1043C0009A46934691E8380007C810F0804F08BF1E
:1043D00013F0804F03D100F005F8FFF76BFFF0BC3E
:1043E000BDE8008C20F07F4723F07F4C80EA03007B
:1043F00000F0004007EB0C03A3F57C53A3F1FE0390
:1044000092F0000F00F0B38095F0000F00F077807D
:104410002DE901494FEA114021EA00484FEA1446CC
:1044200024EA064700FB06FC08FB06F607FB08F833
:1044300018EB06484CEB164C00FB07F718EB074847
:104440004CEB17404FEA124B22EA0B4E4FEA15464F
:1044500025EA06470BFB06FC0EFB06F607FB0EFEE5
:104460001EEB064E4CEB164C0BFB07F71EEB074EF4
:104470004CEB174B18EB0B0840F1000018EB0E0B40
:1044800058EB000840F100008F1A4FF000014FF088
:1044900000063CBFC943661B14BFB5EB040C0021EA
:1044A0003CBFC943F61B4FEA174427EA04454FEACD
:1044B0001C472CEA074C04FB076205FB07F70CFBC3
:1044C00005F616EB074642EB174204FB0CFC16EB15
:1044D0000C4642EB1C421BEB060658EB0202414124
:1044E0004EEA8E0E46EA9E0601D5BDE80189B61950
:1044F000524141EB0101A3F10103BDE801894FEAFB
:10450000144524EA05464FEA114721EA074C05FB0A
:1045100007F406FB07F70CFB06F111EB074144EB30
:10452000174405FB0CFC11EB0C4144EB1C444FEA17
:10453000124722EA074C05FB07F206FB07F70CFBC4
:1045400006F616EB074642EB174205FB0CFC16EB92
:104550000C4642EB1C456A1854F1000148BF7047F5
:10456000B619524141EB0101A3F10103704795F0E7
:10457000000F37D04FEA114221EA02464FEA1447B2
:1045800024EA074C02FB07F106FB07F70CFB06F4D5
:1045900014EB074441EB174102FB0CFC14EB0C44F9
:1045A00041EB1C414FEA154725EA074C02FB07F592
:1045B00006FB07F70CFB06F616EB074645EB17451F
:1045C00002FB0CFC16EB0C4645EB1C42121951F198
:1045D000000148BF7047B619524141EB0101A3F1F8
:1045E000010370474FEA144524EA05464FEA114794
:1045F00021EA074C05FB07F106FB07F70CFB06F267
:1046000012EB074241EB174105FB0CFC12EB0C428D
:1046100051EB1C414FF0000648BF7047921841EB28
:104620000101A3F101037047490050EAC12018BFFE
:1046300004204A0D18BF40F0010040F2FF72B2EBB7
:10464000515F08BF40F00200012808BF05207047F5
:104650002DE9F0414F1E00EBC7010446D1E90001EE
:1046600015461E4637F006020DD02A46334600F0A6
:1046700055FD7F1E04EBC703D3E9002300F06CFA5D
:1046800037F00602F1D1022F25D0042F13D0062FC8
:1046900018BFBDE8F0812A46334600F03FFDD4E95B
:1046A0000A2300F059FA2A46334600F037FDD4E9D0
:1046B000082300F051FA2A46334600F02FFDD4E9D2
:1046C000062300F049FA2A46334600F027FDD4E9D4
:1046D000042300F041FA2A46334600F01FFDD4E9D6
:1046E000022300F039FA2A46334600F017FDD4E9D8
:1046F0000023BDE8F04100F02FBA012201F047BAD3
:1047000000F02ABA024A0020110701F040BA000066
:1047100001FDFFFF30380A2801D201207047002038
:10472000704700002DE9F84F04460D4621F0004087
:1047300000917349814211DC7249884201DC06D143
:104740002CB120462946BDE8F84FFFF7D6BF6E488A
:10475000002DCCBF6D496E49BDE8F88F6D4981428F
:1047600011DD6D498142D8BF4FF0FF366DDD204627
:104770002946FFF759FF042808BFFFF7C3FF20466B
:104780002946BDE8F88F6549654F25F0004581420F
:1047900033DD6449814219DD002632464FF0804303
:1047A0002046294600F0D8F980468A460122204654
:1047B000294601F0ECF900223B4600F09FFE4246FC
:1047C000534600F085FA04460D463EE001260022DD
:1047D000BA463B462046294600F0BEF980460F46C1
:1047E000002253462046294600F088FE42463B46BA
:1047F00000F06EFA04460D4627E04B4981421BDD6E
:10480000DFF828A10226002253462046294600F060
:1048100085FC00223B4600F09FF980460F460022AF
:1048200053462046294600F069FE42463B4600F0CA
:104830004FFA04460D4608E0032622462B46002088
:104840003B4900F045FA04460D4622462B461046E9
:10485000194600F063FC8B46824602460B4600F088
:104860005DFC07460246334888460B4606217844DD
:10487000FFF7EEFE52465B4600F050FC82462E48A3
:104880008B463A46434605217844FFF7E1FE3A4617
:10489000434600F043FC02460B46002E5046594664
:1048A0000CDA00F059F922462B4600F037FC01B033
:1048B00022462B46BDE8F04F00F02EBD00F04CF92B
:1048C00022462B4600F02AFC1C4A7A4402EBC6031F
:1048D000D3E9002300F012FE22462B4600F00EFE24
:1048E000174A7A4402EBC603D3E9002300F014FD13
:1048F000009A002AB8BF81F00041BDE8F88F00009F
:10490000000010440000F07F182D4454FB21F93FB3
:10491000FB21F9BF0000DC3F0000203E0000F33F18
:104920000000F03F0000E63F008003400000F83F39
:104930000000F0BF16140000D41300007213000032
:104940003A1300002DE9F04D9446CCF1000423F019
:1049500000464CEA0404594F46EAD4749A46884605
:1049600021F00042BC4206D8454240EA050442EA32
:10497000D474BC4204D9BDE8F04D6246FFF7C0BE16
:10498000AAF14055A5F17F6555EA0C040BD002242D
:1049900004EAAA744A4DDFF82CE144EAD87452EADA
:1049A000000B04D00CE0BDE8F04DFFF7BBBE002CBF
:1049B00014BF012CBDE8F08D022C30D0032C32D076
:1049C00056EA0C0B0AD0BE4220D1BA4209D126F0D9
:1049D000804622F080423346114617E000291ADB58
:1049E00025E0DFF8E4B0FB44002C04BFDBE9000164
:1049F000BDE8F08D012C02BFDBE9000181F0004130
:104A0000BDE8F08D022C0AD0032C0CD0BA4212D192
:104A1000B8F1000F0BDA2A482C49BDE8F08D284682
:104A20002B49BDE8F08D28467146BDE8F08D24483D
:104A30002849BDE8F08D921B12153C2AC4BF204FB7
:104A4000244E10DCBAF1000FBEBF12F13C0F00275C
:104A50003E4608DB624600F03BF921F00041FFF7DB
:104A600061FE07460E4694B1012C08BF86F0004651
:104A70000DD0194A194B022C3846314615D000F09A
:104A80003DFD2A46BDE8F04D114B00F037BD002238
:104A900013463846314600F075FA04BF0220FBF792
:104AA00042FC38463146BDE8F08D00F027FD2A462D
:104AB000BDE8F04D064B00F02FBC00000000F07F79
:104AC000182D4454FB2109C0CE120000FB21F9BF70
:104AD000FB210940FB21F93F075C143326A6A13CCA
:104AE0002DE9F04106460F4600F022FC041E0D465B
:104AF00018BF0120284320F00040C0F17F6000F182
:104B0000E040C00F0ED0301C18BF0120384320F009
:104B10000040C0F17F6000F1E040C00F04BF012001
:104B2000FBF701FC20462946BDE8F08110B50029BD
:104B30000AD00878002807D005487844FBF758FFCA
:104B4000002801D0002010BD0248784410BD0000AC
:104B5000661200005E12000010B591EA030F48BF14
:104B600083F0004300F1D284841A71EB030C05D268
:104B7000121943EB0C03001B61EB0C014FEA1154BB
:104B8000A4EB135CDFF81CE11EEA430F18BF9EEA9A
:104B9000445F00F0748021EA045123EA0E0343F4D9
:104BA0008013DCF1200E32D322FA0CFE10EB0E0043
:104BB00023FA0CFE41EB0E01CCF1200E03FA0EFE9F
:104BC00010EB0E00CCF1200E51F10001B1F5801F69
:104BD00032D201EB045112FA0EF2BDE8104058BF78
:104BE0007047401C38BF5FEA420218BF7047002878
:104BF00014BF20F0010041F100014FEA410313F519
:104C0000001F38BF7047A1F1C04100F07FBB012AEF
:104C100043EB0302ACF1200CDCF11F0E32BF4FF06E
:104C2000000E23FA0CF310EB030041EB0451B4EB3C
:104C3000115FD0D0A1EB045101F58011490801EBBF
:104C400004515FEA30000ED350F1000038BF12FA71
:104C50000EFE08D1BDE81040C9E7401C38BF5FEA2E
:104C60004202CAD1C3E7BDE810404FEA410313F541
:104C7000001F38BF7047A1F1C04100F047BB9EEA5A
:104C8000445F08D011EA5E0FBDE8104004BF01F098
:104C9000004100207047BDE8104070B500F0E8FA10
:104CA00064FBBE3E0000E0FF02494FF0000000F050
:104CB0003CBF00BF0000F87F491058BFC1F1404120
:104CC0005B1058BFC3F140438B42EFF30080704745
:104CD0002DE9C04130B4DFF8A4C23CEA111418BF7A
:104CE0003CEA131400F0ED801CEA111481EA03057C
:104CF00044EAD57418BF1CEA131500F0C880A4EB71
:104D0000050404F17F7404F500344FF0004545EAD2
:104D1000C12145EAC32341EA505143EA52534FEAC5
:104D2000C0204FEAC222994208BF904200F09D8005
:104D30004FEA13650FF24416765D4FEA134506FB02
:104D400005F7C7F1807706FB07F74FEAD737A7FBD0
:104D500003687642A7FB06CEC8F5803838BFA8F1B5
:104D6000010807FB08E6A6FB028C4FF0000EE6FBED
:104D700003CEDCF1000CCEF1004E38BFAEF1010ED7
:104D8000A6FB0C584FF00007E6FB0E87A1FB08C6F8
:104D9000A0FB07CE16EB0E064FF0000545F100050F
:104DA000E1FB076515F1E04E7EBFA4F580345FEAB4
:104DB00046066D4116F1800745F100054FEA1727B9
:104DC00047EA05674FEA15254FEA0666A6F1DE4673
:104DD000B6F1805F20D9384605EBC47124F0010C90
:104DE00001EB0C11BCF1FE6F02D8F0BCBDE80081F4
:104DF00024425CBF01F5801E9EEAC47F02D4F0BC51
:104E0000BDE80081244200F13980A1F1C041F0BC2D
:104E1000BDE8004100F07ABA4FEAD02040EA4150A4
:104E20004FEAD1214FEAD22242EA43524FEAD3233A
:104E3000A7FB028607FB036605FB02661EEA0E0F50
:104E400058BFA6EB0056B6EB00564FEA520E4EEA9C
:104E5000C37E18EB0E0E56EB530EBCD518EB0208B2
:104E60005E417F1C55F10005B5E74FF480154FF00A
:104E700000074FF000064FF00008ACE701F1C04119
:104E800001F000414FF00000F0BCBDE800810CEAE9
:104E9000131511EA0C1F00D00CE013EA0C1F00F0F0
:104EA00026804FF0000081EA030101F00041F0BCD0
:104EB000BDE80081F0BCBDE8004181EA030100F0DB
:104EC00025BAF0BCBDE8004170B500F0D1F900BFD3
:104ED000097EFC3E00F007B84FF0000081EA0301B4
:104EE00001F00041704781EA030100F00FBAF0BC05
:104EF000BDE8004122494FF000007047FFFDFBF97B
:104F0000F7F5F4F2F0EEEDEBE9E8E6E4E3E1E0DEFC
:104F1000DDDBDAD8D7D5D4D3D1D0CFCDCCCBCAC86E
:104F2000C7C6C5C4C2C1C0BFBEBDBCBBBAB9B8B795
:104F3000B6B5B4B3B2B1B0AFAEADACABAAA9A8A888
:104F4000A7A6A5A4A3A3A2A1A09F9F9E9D9C9C9B56
:104F50009A99999897979695959493939291919001
:104F60008F8F8E8E8D8C8C8B8B8A89898888878792
:104F70008685858484838382828181800000FF0707
:104F80000000F87F51EA030C17D41CF5801F58BFAE
:104F9000BCF5801F00F10680994218BF704708BF1A
:104FA0009042704707D711F5801F58BF13F5801F37
:104FB00019D499427047894270471CF5801F08D563
:104FC000BCF5801FF7D58B4218BF704708BF8242DF
:104FD00070474FF4001C1CEB410F38BF1CEB430F14
:104FE00001D28B42704770B500F042F9922449001B
:104FF0004FF000514FF08053FFF75EBE10F00042BB
:1050000048BF4042B0FA80F310FA03F10AD0C3F16E
:105010001D0303F5806302EB03524FEA415002EB9C
:10502000D12170474FF000007047000051EA030C97
:1050300017D41CF5801F58BFBCF5801F00F10680F7
:10504000994218BF704708BF9042704707D711F5C3
:10505000801F58BF13F5801F19D4994270478942A9
:1050600070471CF5801F08D5BCF5801FF7D58B4213
:1050700018BF704708BF824270474FF4001C1CEBFA
:10508000410F38BF1CEB430F01D28B42704770B504
:1050900000F0EEF8922449004FF080514FF0005399
:1050A000FFF70ABE51EA030C17D41CF5801F58BF46
:1050B000BCF5801F00F10680994218BF704708BFF9
:1050C0009042704707D711F5801F58BF13F5801F16
:1050D00019D499427047894270471CF5801F08D542
:1050E000BCF5801FF7D58B4218BF704708BF8242BE
:1050F00070474FF4001C1CEB410F38BF1CEB430FF3
:1051000001D28B42704770B500F0B2F8922449008A
:105110004FF000514FF08053FFF7CEBD70B5DFF870
:1051200048C11CEA111E1EBF1CEA13159EEA0C0F93
:1051300095EA0C0F00F06F8081EA03044EEAD47EFA
:10514000AE4421EA4C1123EA4C1341F4801143F49C
:105150008013AEF17F7EA1FB024CA0FB03653619E4
:1051600055EB0C05A1FB034C4CF10003A0FB021C0A
:1051700016EB0C06654153F10003094218BF46F0D7
:10518000010613F4007F0BD14FEA03314FEA0530DB
:1051900041EA155140EA165034036FF003020AE069
:1051A0004FEAC3214FEAC52041EA555140EA565023
:1051B000F4026FF0020202EB2E4201EB025585EA87
:1051C000CE710AD05FEA440C18BF24F0004450F1BD
:1051D000000041F1000120EAD47040F2FE7C6245FB
:1051E00000D270BDA84214BF4FF080444FF040443D
:1051F000002E08BF0024BEF1806FA8BFA1F1C041FE
:10520000BDE8704080F2828001F1C04101F00041B0
:105210004FF0000070470CEA13159EEA0C0F18BF00
:1052200095EA0C0F06D081EA030E4FF000000EF055
:10523000004170BD00F01CF88900013E00F007B885
:1052400000F009B84FEA430C5FEA5C5C08D081EAE1
:10525000030100F05BB84FEA410C5FEA5C5CF6D1F9
:1052600002494FF0000070470000FF070000F87F80
:105270000EF1020E2EF0030E5EF8046B364205D4DA
:10528000012A43EB030515F5001F12D8012841EB55
:10529000010C1CF5001F0CD80ED14FEAD17C0CEB91
:1052A0004C0C0CF1020C15F5001F08BF4CEBD37C25
:1052B00004E04FF0080C01E04FEAD37C0CEB4C0506
:1052C00026FA05F606F00706B6F1040C06D20EEB38
:1052D000860CBDE870404CF0010C6047DFE80CF034
:1052E000090B02024FF00041A1F500214FF0000030
:1052F00070BD19461046012851EB010418BFD4F5C2
:10530000001484BF002001F0004170BD0808A0F522
:1053100000114FEA3101704710B591EA030F81F097
:1053200000413FF521AC83F0004300F0EFB80000EE
:105330002DE9F04101F5801CBCF5001FC0F2C380CF
:105340004FEA115C21EA0C5141F480110CF1FD0C83
:105350005FEA5C0C0CF5C07C01D340004941890236
:1053600041EA905187023BA48E0EA45D0A0C04FB17
:1053700004F602FB06F6C6F14046A4FB0662F60DF3
:1053800046EA422606FB06F4A4FB01235242C3F17F
:10539000404338BF5B1EA6FB02420024E6FB032409
:1053A000D20B42EA4446A6FB0623A1FB02E2A3FB82
:1053B00007E4A4184FF0000252F10002E3FB01429F
:1053C0006442C2F1404E38BFAEF1010EA6FB042389
:1053D0004FF00002E6FB0E32A2FB0346B6194FF077
:1053E000000454F10004E2FB0264A1FB06E6A4FB06
:1053F00007E816EB08064FF0000858F10008E4FB38
:1054000001687642C8F1405838BFA8F10108A2FBF4
:1054100006E4A3FB08E52D194FF0000454F1000445
:10542000E2FB0854A1FB05E6A7FB04E818EB06081D
:105430004FF0000656F10006E1FB048618F1200546
:1054400056F10006A80940EA8660B109A8F11B08D8
:1054500008F03F08B8F10A0F1CD901EB0C51BDE868
:10546000F08100BFFCF5EEE8E2DDD8D3CFCBC7C3B7
:10547000C0BDB9B6B4B1AEACA9A7A5A3A19F9D9B71
:105480009A9896959392908F8D8C8B898887868534
:1054900084838281A0FB006800FB01F208EB4208D4
:1054A000B8EB872807D5341858EB0104D5D5401C34
:1054B00051F10001D1E7341A78EB0104CDD4401E3C
:1054C00071F10001C9E75FEA4C0C5FEA9C5C0DD109
:1054D00005D301F000414FF00000BDE8F081BDE8C8
:1054E000F04170B5FFF7C4FE6DDBFFBEBDE8F041D3
:1054F00001494FF0000070470000F87F10B591EAB5
:10550000030F48BF83F000433FF52EAB841A71EBC5
:10551000030C07D28CF0004C121943EB0C03001B58
:1055200061EB0C014FEA1154A4EB135CDFF8A4E12A
:105530001EEA430F18BF9EEA445F00F0B48021EAE0
:10554000045123EA6E035242C3EB6E0338BF5B1E65
:10555000DCF1200E25D322FA0CFE10EB0E0043FAEC
:105560000CFE41EB0E01CCF1200E03FA0EFE10EB07
:105570000E00CCF1200E51F1000129D401EB0451B1
:1055800012FA0EF2BDE8104058BF7047401C1CBF15
:10559000B2F1004F704700280CBF491C20F00100F9
:1055A000704712EB020E43EB030218BF4FF0010EDF
:1055B0004EEA4202ACF1200CDCF11E0E56D943FA41
:1055C0000CFE10EB0E00CCF11E0E51F1FF31D5D5C3
:1055D0000EF1010E12FA0EFE404141EB010101EB0A
:1055E000445C5FEA5C5C10D901EB045110EBDE70A7
:1055F00038BFBEF1004FBDE8104018BF704700280B
:105600000CBF491C20F00100704734D24FEAD42C63
:1056100024F4006411F500111BD0B1FA81F20B3AA9
:10562000A41AA41ED2F12003914030FA03F31943C7
:10563000904001EBCC7101EB0451002CBDE810400F
:10564000A8BF704701F1C04101F000414FF00000D8
:105650007047B0FA80F310FA03F102D1BDE81040B0
:105660007047E41A173C4805C90AE2E701EB045108
:10567000BDE81040704749104FEA300001EB04517B
:10568000BDE8104002E04FF0000170474A0008BF3B
:105690000042F8D0B2F5001F28BF704701F000416A
:1056A0004FF0000070479EEA445F07D011EA5E0F9A
:1056B000BDE8104004BF002100207047BDE8104045
:1056C00070B5FFF7D5FD00BF40DFF63E104683F012
:1056D000004170470000E0FF90EA010F48BF81F0F1
:1056E000004100F1B281421A3CBF801A89184FEA8A
:1056F000D052A2EBD1534FF07F4C1CEA410F18BFA0
:105700009CEA026F00F03B804FF0004C4CEA002016
:105710004CEA012121FA03FC10EB0C0C1ED202F121
:10572000FF325FEA1C2040EBC25038BF70471CF0CC
:105730007F0F4FEA400C18BFBCF17F4F38BF704756
:10574000C3F12003994008BF20F00100BCF17F4F56
:1057500038BF7047A0F1C04000F06AB94FEA3C0082
:10576000000A40EBC25028BF1CF0FF0F4FEA400C6C
:10577000E6D018BFBCF17F4F38BF7047EAE79CEA1C
:10578000026F05D010EA5C0F08BF00F000407047C0
:1057900010B500F007F900BF64FBBE3E10B5FFF77F
:1057A000F1FB0CBF0120002010BD10B5FFF7EAFB94
:1057B00014BF0120002010BD10B5FFF737FC8CBFCF
:1057C0000120002010BD10B5FFF730FC2CBF0120D8
:1057D000002010BD10B5FFF765FC94BF012000202C
:1057E00010BD10B5FFF75EFC34BF0120002010BDD6
:1057F0004FF47F0C1CEAD0121EBF1CEAD11392EAB0
:105800000C0F93EA0C0F00F0858090EA010F48BF5F
:1058100042F4807240F4000C41F400002CF07F410F
:1058200020F07F4000B5A2EB030281420FF2081C7A
:10583000ACEB504E9EF800E0C0F100004FEA4E0E77
:1058400000FB0EFC38BF49004FEA2C1C0CFB0EF38A
:105850004FEACE1E0EEB635E4FEA112C0EFB0CFCE2
:105860004FEAC1214FEA1C5300FB031102F5FA0273
:105870004FEA112C0EFB0CFC4FEA01314FEADC4CD5
:1058800000FB0C1142EB2242C14228BF09184CEB2D
:1058900003335DF804EB10EB410143EBC250B2F56A
:1058A0007C0F38BF704729D512F0F00F1CBF00F1F4
:1058B000C04000F000407047008182838485868765
:1058C00088898B8C8D8E8F919293959697999A9CBF
:1058D0009D9FA0A2A3A5A7A8AAACAEB0B2B3B5B72E
:1058E000B9BCBEC0C2C5C7C9CCCED1D4D7D9DCDF04
:1058F000E2E6E9ECF0F3F7FAFE0000004FEA400CB4
:105900000CF1807CBCF17E4F28BF7047B0F1C040E5
:1059100000F08EB80CEAD11390EA010F48BF42F4B0
:105920008072624538BF634507D213F47F0F16D0EB
:1059300080EA010000F00040704710B500F032F836
:10594000097EFC3E00F005B880EA010000F000404E
:10595000704780EA010000F0004000F069B812F4DE
:105960007F0F04BF0248704780EA010000F060B872
:105970000000C07F10F0004148BF4042B0FA80F301
:1059800010FA03F2C3F19D030BD051EAC35101EBAE
:105990001220530638BF704700F1010008BF20F005
:1059A000010070470EF1020E2EF0030E5EF8044B5C
:1059B000244204D44FEA4102B2F17F4F11D84FEA9A
:1059C0004003B3F17F4F0CD80ED14FEAD07C0CEBE3
:1059D0004C0C0CF1020CB2F17F4F08BF4CEBD17CA8
:1059E00004E04FF0080C01E04FEAD17C0CEB4C03D3
:1059F00024FA03F404F00704B4F1040C06D20EEB0D
:105A0000840CBDE810404CF0010C6047DFE80CF05E
:105A1000070802024FF00040A0F5800010BD0846C4
:105A2000420018BFD2F1807288BF00F0004010BD64
:105A3000FF2141EAD050C0057047000090EA010FF5
:105A400048BF81F000413FF54EAE421A04D882F0C3
:105A50000042A0EB020011444FEAD052A2EBD15316
:105A60004FF07F4C1CEA410F18BF9CEA026F4AD0EE
:105A70004FF0004C4CEA00204CEA012121FA03FCD3
:105A8000B0EB0C0C0FD412F0FE0F36D05FEA4C00D6
:105A90001DD5001240EBC25038BF70471CF03F0FBD
:105AA00018BF70470BE05FEA1C20A2F1010240EB37
:105AB000C25038BF70471CF07F0F18BF7047C3F14A
:105AC0002003994014BF401E20F0010070474FEAA8
:105AD0001223800808BF7047B0FA80FCA2EB0C02CA
