:020000040800F2
:100000002809002089010008553D0008592F0008E3
:10001000513D000825030008813D00080000000054
:100020000000000000000000000000005D3D00082E
:100030000506000800000000593D0008613D000869
:10004000A3010008A3010008A3010008A301000800
:10005000A3010008A3010008A30100080906000885
:1000600011060008A3010008A3010008A30100086D
:10007000A3010008A3010008A3010008A3010008D0
:10008000A3010008A301000861020008A301000801
:10009000753D000829030008A3010008190600089F
:1000A000A3010008A3010008A3010008A3010008A0
:1000B000A3010008693D0008A3010008A30100088E
:1000C000A3010008A3010008A3010008A301000880
:1000D000A3010008A3010008A3010008A301000870
:1000E000A3010008A3010008A301000800F002F822
:1000F00000F03AF80AA090E8000C82448344AAF188
:100100000107DA4501D100F02FF8AFF2090EBAE885
:100110000F0013F0010F18BFFB1A43F0010318473B
:100120008C5C0000AC5C0000103A24BF78C878C139
:10013000FAD8520724BF30C830C144BF04680C60ED
:10014000704700000023002400250026103A28BF35
:1001500078C1FBD8520728BF30C148BF0B60704739
:100160001FB51FBD10B510BD00F044F81146FFF7D4
:10017000F7FF03F007FE00F062F803B4FFF7F2FFA9
:1001800003BC00F065F800000948804709480047B3
:10019000FEE7FEE7FEE7FEE7FEE7FEE7FEE7FEE737
:1001A000FEE7FEE704480549054A064B7047000094
:1001B000653D0008ED000008280300202809002004
:1001C000280500202805002070477047704710B5AB
:1001D00000F008F8006810BD10B5044600F002F801
:1001E000046010BD00487047A00000200048704720
:1001F000A00000207546FFF7F9FFAE4605006946EE
:10020000534620F00700854618B020B5FFF7CAFF17
:10021000BDE820404FF000064FF000074FF0000807
:100220004FF0000BAC46ACE8C009ACE8C009ACE844
:10023000C009ACE8C00921F007018D46704710B530
:100240000446AFF300802046BDE81040FFF795BF9D
:1002500001491820ABBEFEE72600020070470000EF
:1002600040F2B410C2F2000000F0ACBAB0B582B0F7
:1002700004460020019021688A68D2074FD188681F
:1002800040F00100886040F29800C2F2000000686F
:100290004DF68361C4F21B31A0FB0101880C019073
:1002A0000198A0B1019801380190019878B10198A6
:1002B00001380190019850B10198013801900198DE
:1002C00028B101980138019001980028EAD101F085
:1002D00031F921688968C9071CD1054603E000BFD0
:1002E0008068C0071AD101F025F9411B2068032955
:1002F000F6D38168C907F3D1A06A40F01000A0626C
:10030000E06A40F00100E062002084F8240001204F
:1003100002B0B0BD002002B0B0BD00BF002002B0EE
:10032000B0BD0000FEE7000040F28C10C2F20000F9
:1003300000F03ABD2DE9F04182B0044608982160F2
:10034000A07140F60640C2F61400C4F80700082069
:10035000E07232202271637100F080FFE07A38256C
:10036000002808BF30252E1D012038278DF8046095
:1003700000F074FF01208DF805508DF8066000F044
:100380006DFF206821794FF47A7801AA04238DF853
:100390000750CDF8008001F08FF9E07A3826002868
:1003A00008BF3026351D01208DF8045000F056FF9F
:1003B00001208DF805608DF8065000F04FFF206891
:1003C000217901AA04238DF80760CDF8008001F09F
:1003D00073F9052000F042FFE07A2825002808BFC5
:1003E000302707F1040008BF20258DF80400012004
:1003F000282600F033FF281D8DF8060001208DF817
:10040000057000F02BFF2068217901AA04238DF8E4
:100410000750CDF8008001F04FF9052000F01EFFD5
:10042000E07A2825002818BF012008BF2025C70032
:10043000281D8DF80400012000F010FF381D8DF8F4
:10044000060001208DF8055000F008FF2068217992
:1004500001AA04238DF80770CDF8008001F02CF973
:10046000052000F0FBFEE079E27A010120F00F05A3
:1004700001F10807002A14BF08350701281D8DF86F
:100480000400012000F0EAFE381D8DF8060001206E
:100490008DF8055000F0E2FE2068217901AA0423BE
:1004A0008DF80770CDF8008001F006F9207AE27A25
:1004B000010120F00F0501F10807002A14BF0835DB
:1004C0000701281D8DF80400012000F0C7FE381D2B
:1004D0008DF8060001208DF8055000F0BFFE206861
:1004E000217901AA04238DF80770CDF8008001F06E
:1004F000E3F8607AE27A010120F00F0501F10807C4
:10050000002A14BF08350701281D8DF804000120BA
:1005100000F0A4FE381D8DF8060001208DF805506E
:1005200000F09CFE2068217901AA04238DF8077051
:10053000CDF8008001F0C0F8A07AE27A010120F045
:100540000F0501F10807002A14BF08350701281D0F
:100550008DF80400012000F081FE381D8DF80600A2
:1005600001208DF8055000F079FE2068217901AA5C
:1005700004238DF80770CDF8008001F09DF8E07A33
:100580001827002818BF01204FEAC00505F1040014
:1005900008BF10278DF80400012000F05FFE381D11
:1005A0008DF8060001208DF8055000F057FE2068F8
:1005B000217901AA04238DF80770CDF8008001F09D
:1005C0007BF8E07A00280CBF20260120C500281DFA
:1005D0008DF80400012000F041FE301D8DF806006A
:1005E00001208DF8055000F039FE2068217901AA1C
:1005F00004238DF80760CDF8008001F05DF802B0AB
:10060000BDE8F08170470000022000F069BE0000E4
:10061000042000F065BE0000202000F061BE000054
:100620007047000010B581B00022009290F824209D
:10063000012A03D10221084601B010BD4B680122F6
:10064000062B80F8242015D8026803EB8303A3F15E
:10065000050E1F23D2F834C003FA0EF40B682CEAFF
:10066000040C03FA0EF444EA0C045463092B17D962
:1006700037E000BF02680C2B20D803EB8303A3F103
:1006800023041F23D2F830C003FA04FE0B682CEABF
:100690000E0C03FA04F444EA0C041463092B20D86A
:1006A000D2F810C003EB4303072489689C402CEA6E
:1006B0000404994021431161002136E003EB8303D8
:1006C000A3F141041F23D2F82CC003FA04FE0B68E7
:1006D0002CEA0E0C03FA04F444EA0C04D462092B4D
:1006E000DED903EB4304D2F80CC0A4F11E0E07249C
:1006F000896804FA0EF42CEA040401FA0EF121438D
:1007000023F00104102CD1600ED142F20841C4F252
:100710000101A1F10804A2420ED0816A41F020013A
:100720008162012101E000BF0021002280F8242025
:10073000084601B010BD00BF0A68120230D40A6832
:10074000102B42F400020A602CD140F29801C2F250
:10075000000109684DF68362C4F21B32A1FB02124C
:10076000910C01EB8101490000910099E1B10099E0
:10077000013900910099C9B100990139009100999E
:10078000B1B1009901390091009999B100990139ED
:100790000091009900294FF00001E8D1C5E700BFA2
:1007A0000021C2E70021C0E70021BEE70021BCE72D
:1007B0000021BAE70021B8E7704700000068C06C6C
:1007C0007047000070B50446006805684668B106C9
:1007D00027D515F0020124D0A16AC90603D4A16A65
:1007E00041F40071A162816801F46021B1F5602FCC
:1007F00010D1217B71B9416821F020014160A06ACC
:1008000020F48070A062A06AC00403D4A06A40F003
:100810000100A0622046FFF7CFFF20686FF01201B1
:100820000160310633D515F0040130D0A16AC90644
:1008300003D4A16A41F40051A162816801F4E0414E
:10084000B1F5E04F10D1416821F080014160A06A0C
:1008500020F48050A062A06AC00511D4A06A40F0C4
:100860000100A0620CE000BF4168490508D481681E
:1008700001F46021B1F5602F02D1217B0029E2D083
:100880002046FFF7CDFE20686FF00C010160700676
:100890000ED515F0010008BF70BDA06A40F480308D
:1008A000A062204600F0B4F820686FF001010160FA
:1008B00070BD0000B0B5002800F0A8800446806A32
:1008C00020B121688868C0070BD114E00020E062E5
:1008D00084F82400204600F09DF821688868C0074D
:1008E00009D0886820F00100886000F023FE2168AC
:1008F0008A68D20726D1A06AC0063AD4A06A41F21B
:10090000021290430230A062E069D4E9013240EA69
:10091000030C531EB3FA83F35D091346B2F5807FCF
:1009200018BF2B02207D257B01284CEA450030D1E1
:1009300035B3A56A45F02005A562E56A45F00105D5
:10094000E56226E0054602E08868C007D3D000F0E3
:10095000F1FD401B21680328F6D38868C007F3D057
:10096000A06A40F01000A062E06A40F00100E0627E
:10097000A06AA06A40F01000A0620120B0BD00BFD4
:10098000D4F818C04EF60005CFF6FF7505EB4C35D0
:100990002B434D68B2F5807F25F4694543EA050392
:1009A0004B608B684FF2FD75CFF6E17503EA0503E6
:1009B00043EA00038B6001D0012A07D1226900239A
:1009C000CFF6F07303EB025201E000BF0022CB6AC6
:1009D00023F470031A43CA62896840F6FE62CFF6B8
:1009E0001F721140814207D10020E062A16A0122FA
:1009F00062F30101A162B0BDA06A40F0100020F0D6
:100A00000200A062E06A40F00100E0620120B0BD97
:100A10007047000080B586B0014640F60000C4F281
:100A20000100096800F5E05291424FF00001CDE964
:100A3000041101D006B080BD41F21801C4F20201D8
:100A40000A6842F400720A600A6802F400720192B5
:100A5000019A0A6842F004020A60096801F0040180
:100A600001910199012102910321039102A900F052
:100A700043FC12200421002201F004FA122001F0AC
:100A8000F1F906B080BD000010B5044690F82400CE
:100A9000012804BF022010BD012084F82400204654
:100AA000FFF7E4FB20B1002184F8241010BD00BF43
:100AB00042F2044C2068A16AC4F2010C40F20132F7
:100AC00091430CF57F7201F580719042A16233D0A1
:100AD000A16A21F48011A1624168490504D5A16A87
:100AE000012363F30D31A162A16A0023C9044FF011
:100AF000000144BFE16A21F00601E1626FF00201EA
:100B000084F824300160816801F46021B1F5602F20
:100B100006D190420AD1DCF8001011F4702F05D0F4
:100B2000816841F480118160002010BD816841F42A
:100B3000A0018160002010BDDCF8001011F4702FBE
:100B4000C6D0A16A41F48011A162DCF80010490509
:100B5000C5D4C9E790F82020013A012A08D80068D6
:100B600000F114020020136819431160704700BFA0
:100B700000F1240201204FF4802113681943116011
:100B800070470000B0B5026890F82030013B012B9F
:100B900028D8D2F80002012340F00100C2F8000278
:100BA000D1F814E0CC690EF01F0003FA00F0D2F87F
:100BB0001C326FEA000C8343012CC2F81C3217D0A0
:100BC0006CBBD2F80C3203EA0C03C2F80C32CB68CF
:100BD0008C8844EA034302EBCE04C4F840320B464F
:100BE00015E000BF416A41F4802141620120B0BD9F
:100BF000D2F80C320343C2F80C320B688C8844EAFA
:100C0000034302EBCE04C4F8403201F10C038C68BC
:100C10001B8843EA044302EBCE04C4F84432D2F802
:100C200004328D6943EA0004D1F810E0096A002D0E
:100C300008BF03EA0C04C2F80442D2F81432BEF131
:100C4000000F43EA000408BF03EA0C040129C2F8BC
:100C5000144204D1D2F81C120843C2F81C02D2F884
:100C6000000220F00100C2F800020020B0BD000028
:100C70007047000010B590F82040013C012C7BD853
:100C8000D0F800C0002900F08180DCF81040A407F3
:100C900000F081800CEB011CDCF8B0410CF5D87E33
:100CA00014F004049460DCF8B04119BFE408546007
:100CB000640D1460DEF800400CF5DA7E04F00204E6
:100CC000D460DCF8B44124075ABFDEF8004004F0D9
:100CD0000F0408241461DEF800400029C4F307243F
:100CE0009461DEF800404FEA14445461DCF8B82106
:100CF0001A70026802EB0112D2F8B8214FEA1222F0
:100D00005A70026802EB0112D2F8B8214FEA12427F
:100D10009A70026802EB0112D2F8B8214FEA12620F
:100D2000DA70026802EB0112D2F8BC211A71026873
:100D300002EB0112D2F8BC214FEA12225A7102686A
:100D400002EB0112D2F8BC214FEA12429A710268FA
:100D500002EB0112D2F8BC214FEA1262DA7100688C
:100D600014BF00F1100100F10C01002020220B68DB
:100D70001A430A6010BD00BF00F1240101204FF4A6
:100D800080220B681A430A6010BD00BFDCF80C40DB
:100D9000A4077FF47FAF00F1240101204FF400127B
:100DA0000B681A430A6010BD2DE9F04F81B004466C
:100DB00000684669D0F804908768D0F80CB0D0F885
:100DC00010A0D0F81880F10704D1002530071DD4F9
:100DD00024E000BFF90710D00121BA07816009D4CF
:100DE000780700F1AF80380700F1B680204600F0A8
:100DF00027FA02E0204600F025FA0025F80500F168
:100E00008780F80300F1B180300707D51BF0100090
:100E100004D0206845F400751021C160700708D522
:100E20001BF0080005D020680821C160204600F0B2
:100E3000B3F9B00706D52068C068800702D0204605
:100E400000F0ACF9700607D51AF0100004D0206845
:100E500045F4806510210161B00608D51AF008003C
:100E600005D0206808210161204600F0B5F9F006A0
:100E700006D520680069800702D0204600F0AEF950
:100E8000B00308D519F0100005D02068102141608A
:100E9000204600F0A5F9F00308D519F0080005D0A8
:100EA000206808214160204600F0D6F9300440F166
:100EB0009B805FEA497040F1948006F4807008EAF4
:100EC000102028435FEA8871014648BF41F00201C3
:100ED000B20558BF01465FEA48700D4648BF45F06D
:100EE0000405700558BF0D46300540F17A8018F0B2
:100EF000700000F076801038000905286CD8DFE813
:100F000000F003595D61656945F0080564E000BFC4
:100F100020684FF48071BA0581600BD4780515D430
:100F200038051DD4204600F08FF9F8037FF56CAF2B
:100F30001BE000BF204600F089F9F8037FF564AF9D
:100F400013E000BF4FF4006558E700BF05F50055FA
:100F5000F8037FF559AF08E04FF480554EE700BF26
:100F600005F58045F8037FF54FAF20684FF48031D9
:100F7000BA0381600AD4780310D4380314D420460D
:100F800000F066F930073FF541AF47E7204600F033
:100F900061F930073FF53AAF40E700BF05F500457E
:100FA00030073FF533AF39E705F5803530073FF5BA
:100FB0002DAF33E745F010050EE000BF45F02005EA
:100FC0000AE000BF45F0400506E000BF45F080059F
:100FD00002E000BF45F480752068816921F070014E
:100FE000816120680421416055B1606A40EA0501D1
:100FF0002046616201B0BDE8F04FFFF739BE00BF87
:1010000001B0BDE8F08F0000B0B5C8B1044690F85B
:10101000200010B9204600F071F82068016841F006
:101020000101016000F086FA054600BF20684168B2
:10103000C90707D100F07EFA401B0B28F6D312E057
:101040000120B0BD016821F00201016000F072FAD8
:10105000054600BF2068416889070DD500F06AFA8F
:10106000401B0B28F6D3606A052140F40030606213
:10107000012084F82010B0BD217E0268012922F0F1
:10108000800208BF80320260617E0268012922F07E
:10109000400208BF40320260A17E0268012922F0AE
:1010A000200208BF20320260E17E0268012922F09E
:1010B000100218BF10320260217F0268012922F05D
:1010C000080208BF08320260617F0268012922F02D
:1010D000040208BF04320260D4E901C2D4E9033536
:1010E00061691A432A431143ACF101021143C16102
:1010F00000200121606284F82010B0BDB0B586B038
:1011000040F60004C4F201040068A4F52442002162
:101110009042059102D006B0B0BD00BF41F2180068
:10112000C4F20200426802AD42F0007242604268BE
:1011300002F000720192019A026842F00402026019
:10114000006800F00400019001984FF40060CDE9C0
:10115000020104912046294600F0CEF84FF4805059
:10116000029002200390032005902046294600F0BB
:10117000C3F814200021002200F084FE142000F0A7
:1011800071FE15200021002200F07CFE152000F0E9
:1011900069FE06B0B0BD00007047000010B540F217
:1011A0002014C2F2000404F1500204F124030021CF
:1011B000FFF760FD78B9206D40F22221884218BF08
:1011C00010BD41F20000C4F201004FF4005100F0E4
:1011D000A3F9608D608410BD704700007047000067
:1011E00070470000B0B5044690F8200001281DD1DA
:1011F000022084F820002068016821F001010160CC
:1012000000F098F9054600BF20684068C00713D079
:1012100000F090F9401B0B28F6D3606A40F40030D0
:101220006062052084F820000120B0BD606A40F4AF
:10123000002060620120B0BD00206062B0BD0000EF
:1012400070470000704700007047000070470000C2
:10125000704700007047000070470000B0B50446BA
:1012600000F068F9054640F20000C2F20000007884
:10127000611C18BF044400BF00F05CF9401BA04291
:10128000FAD3B0BD202819D0042821D0022818BFD5
:10129000704740F22010C2F20000017804230131AF
:1012A000CAB2017040F29C01C2F20001032A0B7025
:1012B00022BF002101707047704700BF40F24020FC
:1012C00040F2E811C2F20000C2F2000102F0FAB9E5
:1012D00040F29C00C2F2000005210170704700003E
:1012E00040F21441C4F201010A68024214BF0860CE
:1012F0007047FFF7C7BF00002DE9F04F82B041F201
:101300000042C4F201020E680423904208BF032386
:10131000002E009300F0F68040F2004C4FF6FF7E66
:101320000022C4F2010C0124C1F2100E4FF0000A99
:101330004FF0000947E000BF012502F00C040F2721
:10134000A7402BEA070705FA04F43C4343F826407C
:10135000D1F804B040F20C455FEACB23DCF808304A
:1013600054BF23EA080343EA0803C4F20105CCF89A
:1013700008302B685FEA8B2454BF23EA080343EA52
:1013800008032B605FEA8B34DCF8043054BF23EA97
:10139000080343EA08035FEACB34CCF80430DCF8F6
:1013A00000304FF0010454BF23EA080343EA080366
:1013B000CCF800300E680AF1010A36FA0AF302F19D
:1013C000040200F09F8004FA0AF816EA080FF1D030
:1013D0004B68734512DC122B56D8DFE803F0350B4F
:1013E0004549555555555555555555555555554DD1
:1013F000510000BFD1F80C9046E000BF4FF6FF75DA
:10140000C1F22105AB420FDC0025C1F21105AB4250
:101410001AD00025C1F21205AB4215D00025C1F249
:101420002105AB4210D02FE00025C1F22205AB42CE
:101430000AD00025C1F23105AB4205D00025C1F22A
:101440003205AB4220D100BF8B684BB1012B14BFDA
:10145000C0F81480C0F810804FF0080914E000BFF5
:101460004FF0040910E000BFCB6803F108090BE05E
:101470004FF0000908E000BFCB6803F1040903E066
:10148000CB6803F10C0900BF13460546BAF1080FFB
:1014900024BF203B04352E680F279F40BE4309FA26
:1014A00003F333432B60CB79DB067FF583AF41F247
:1014B0001804C4F2020423684FEA9A0643F00103B9
:1014C0002360236840F6000403F001030193019BAD
:1014D000ACF57E7353F826B0C4F20104A0420FD0DD
:1014E00040F60044C4F20104A0423FF425AF41F2AB
:1014F0000004C4F20104009DA04208BF02251CE7BD
:1015000000251AE702B0BDE8F08F000080680840AF
:1015100018BF012070470000C26802EA010391432E
:1015200041EA034101617047002A08BF09040161D3
:101530007047000040F22430C2F20000006870479B
:1015400070B5B8B3044690F83D0028B9002084F87F
:101550003C00204600F0ECFB242084F83D0020688D
:10156000016821F001010160016841F4004101605E
:10157000016821F40041016000F026FE48F280413C
:10158000C0F21E0140F60013D4F804E088424FF088
:101590000001C0F23D0348F2A16C4FF0000238BFD9
:1015A00001219842C0F2010C38BF0122E64538BF44
:1015B0000A460AB1012070BD4DF68361C4F21B31A9
:1015C000A0FB01122168950C4B684FF4967623F02E
:1015D0003F0343EA9243754344F6D3564B60C1F24E
:1015E00062060B6AA5FB0656B50923F03F03E645E4
:1015F00038BF950C6A1C1A430A62CA6948F2A06691
:101600004CF6FF73C0F20106B64522EA03020BD87E
:1016100001384FEA4E03B0FBF3F001306FF31F3097
:10162000042898BF04201EE0A368013863B1192381
:101630000EFB03F3B0FBF3F001306FF31F3078B112
:1016400000F5804008E000BF0EEB4E03B0FBF3F066
:1016500001306FF31F3028B100F5004003E000BFF8
:10166000012000E001201043C8610868D4E9072385
:1016700020F0C000104318430860886848F2FF3229
:1016800004F10C0690434CCE18431043A5698860C2
:10169000C86820F0FF0030432843C860086840F065
:1016A0000100086000202021206484F83D102063A0
:1016B00084F83E0070BD00002DE9F04383B01E4663
:1016C000174689460446FFF735FF94F83D10202958
:1016D00020D10546206800BF8169890716D5FFF72C
:1016E00029FF411B20681A29F6D381698907F3D5A0
:1016F00000202021206384F83D1084F83E00216CF6
:1017000041F02001216484F83C0003E094F83C108F
:10171000012903D1022003B0BDE8F083012184F840
:101720003C100168C90703D1016841F00101016063
:10173000016840F2020821F400610160212184F86F
:101740003D10102184F83E100021216467626685F7
:10175000618DC0F201082185A8F10211E162E16A00
:101760000A9E11F5803F18BF01291DD1016841F47F
:101770008071016020464FF0011100223346009530
:1017800001F03CFD50B120680068C00544BF4FF433
:1017900000702064012003B0BDE8F0832069B0F53B
:1017A000804F07D1FE2015E00829DFD0216B1229D8
:1017B000DCD0DFE7062000EAD9102168F0300861AC
:1017C00008F10601204632462B4601F001FE0028B2
:1017D000E0D1FF20216800EA090008612046414667
:1017E00032462B4601F0F4FD0028D3D100200290B0
:1017F00020684169029180690290029806E000BF6A
:10180000204631462A4601F099FC18BB208D68B36A
:10181000204631462A4601F093FED8B9606A216815
:10182000024612F8013B0B616262628D013A6285E9
:10183000228D531E23854F697F07E1D51B04DFD01E
:10184000437802300B616062608D01386085901EC4
:101850002085D5E7206C04289CD12068016841F4DC
:1018600000710160012003B0BDE8F08320680168C9
:1018700041F400710160202084F83D00002084F8CC
:101880003E0084F83C0003B0BDE8F0832DE9F04F42
:1018900085B004460020994616460F460490FFF78F
:1018A00049FE94F83D10202927D10546206800BF45
:1018B000816989071CD5FFF73DFE411B20681A2965
:1018C000F6D381698907F3D500202021206384F8AD
:1018D0003D1084F83E00206C04F13C0A40F02000EA
:1018E0002064022000218AF8001005B0BDE8F08FC6
:1018F000A2461AF83C1F012904D1022005B0BDE818
:10190000F08F00BF01228AF800200368DDE90F187C
:101910000E9ADB0703D1036843F0010303600368F9
:1019200023F400630360222084F83D00402084F803
:101930003E000020206462626185608D394620850A
:101940000020CFF6FF70E062204632464B46CDF8CD
:101950000080019501F002FB20B1012005B0BDE837
:10196000F08F00BF208D022810D0012824D000283D
:1019700038D1002003902068416903918169039167
:101980000399016841F40071016037E02068016843
:1019900041F400610160EFF3108072B60020039003
:1019A000206841690391816903910399016821F4D9
:1019B0008061016062B621E02068016821F48061E5
:1019C0000160EFF3108072B6002003902068416937
:1019D0000391816903910399016841F400710160E9
:1019E00062B60BE02068016841F48061016000216B
:1019F000039141690391806903900398208D002829
:101A000000F0CA80042740F298094BF2895BC0F2CB
:101A10000107C2F20009C1F2F84B232617E000BF0C
:101A2000204641462A4601F043FD002895D1206812
:101A3000616A00690870606A218D01306062481E29
:101A40002085618D01396185010400F0A58080B297
:101A5000032865D8022800F07F800128E0D02046C6
:101A6000394600224346009501F0C8FB00287FF468
:101A700074AF2068016821F480610160EFF3108089
:101A800072B62068616A00690870606A218D013051
:101A9000013960622185618D01396185D9F80010B5
:101AA000C908A1FB0B12110A714304910499013971
:101AB00004910499002900F07B8021684A6952074B
:101AC0001DD40499013904910499002970D021682A
:101AD0004A69520713D404990139049104990029E1
:101AE00066D021684A69520709D4049901390491E2
:101AF000049900295CD021684A695207D6D50A6842
:101B000042F400720A6009690170606A218D013037
:101B10006062481E2085608D0138608562B686E768
:101B2000204641462A4601F0C3FC00287FF415AF49
:101B30002068616A00690870606A2268411C208D13
:101B4000616201382085638D013B638553695B07C2
:101B50007FF57AAF10696DE720463946002243468B
:101B6000009501F04BFB00287FF4F7AEEFF31080F7
:101B700072B62068616A026842F40072026000690D
:101B80000870606A218D01306062481E2085608D7A
:101B90000138608562B64AE7202084F83D000020C5
:101BA00084F83E0000218AF8001005B0BDE8F08FEF
:101BB00000202021206384F83D1084F83E00206C32
:101BC00040F02000206462B6012000218AF8001055
:101BD00005B0BDE8F08F00002DE9F04383B09946D1
:101BE00016460F460446FFF7A5FC94F83D10202941
:101BF00020D10546206800BF8169890716D5FFF707
:101C000099FC411B20681A29F6D381698907F3D50D
:101C100000202021206384F83D1084F83E00216CD0
:101C200041F02001216484F83C0003E094F83C106A
:101C3000012903D1022003B0BDE8F083012284F81A
:101C40003C200368DDE90B180A9ADB0703D103681F
:101C500043F001030360036823F400630360212061
:101C600084F83D00402084F83E0000202064626239
:101C70006185608D394620850020CFF6FF70E062D7
:101C8000204632464B46CDF80080019501F0F2F92E
:101C900020B1012003B0BDE8F08300BF208D98B9CA
:101CA000204641462A4601F049FA88B3206C0428B0
:101CB000EFD12068016841F400710160012003B098
:101CC000BDE8F0830004EBD0204641462A4601F0EF
:101CD00037FC0028EAD1616A2268084610F8013B07
:101CE0001361238D6062581E2085678D013F6785D3
:101CF00057697F07E6D50704E4D048781061881C4F
:101D00006062981E2085618D01396185DAE700BF28
:101D10002068016841F400710160202084F83D00D2
:101D2000002084F83E0084F83C0003B0BDE8F08356
:101D300010B586B045F200410068C4F200010022EF
:101D40008842049202D006B010BD00BF41F21804D0
:101D5000C4F20204206840F008002060206800F00F
:101D6000080001900198C0200290122003900320E7
:101D7000059001F5384002A9FFF7BEFA606840F40B
:101D800000106060606800F400100190019806B0D7
:101D900010BD000040F2000040F22431C2F2000009
:101DA000C2F2000100780A68104408607047000021
:101DB00080B542F20000C4F20200016841F0100157
:101DC0000160032000F08AF80F2000F005F800F011
:101DD00027F8002080BD000070B540F20006C2F276
:101DE000000640F298013278C2F200014FF47A7393
:101DF0000968B3FBF2F20446B1FBF2F1084600F0C9
:101E0000D1FB0F2C4FF0010508D838B94FF0FF3047
:101E100021460022002500F035F87460284670BD88
:101E200082B041F21800C4F202000168022241F0BF
:101E300001010160016801F001010191019941680E
:101E400041F080514160406800F08050009000985F
:101E50000420C4F20100016862F31A61016002B05B
:101E600070470000002848BF704700F01F010122A2
:101E700002FA01F14EF200124009CEF2000242F8DD
:101E80002010704710B54EF60C5CCEF2000CDCF85A
:101E90000030C3F3022E8EF00704042C28BF042464
:101EA000BEF103034FF0FF3E0EFA04F438BF0023E7
:101EB000A14399400EFA03F39A43114300F00F0235
:101EC000043A624409010C3200F16043B0F1FF3F73
:101ED000C8BF03F56442117010BD00004EF60C51EE
:101EE000CEF200010A684FF6FF031A4060F30A229F
:101EF00042F0806040F0FD70086070472DE9F041CD
:101F000082B00446007841F21C06C007C4F2020603
:101F10004AD0306810F0805808D1306840F08050C6
:101F20003060306800F080500190019847F200075F
:101F3000C4F200073868C00512D4386840F48070D5
:101F40003860FFF7F7FA05463868C00508D4FFF790
:101F5000F1FA401B6428F7D9032002B0BDE8F081F4
:101F6000706810F4407012D0616801F440718842CA
:101F70000DD0706840F24042C4F24222012320F4A6
:101F8000407113600023C007136071602AD170682C
:101F9000616820F440700843B8F1000F706003D10D
:101FA000306820F0805030602068810707D556F8EF
:101FB000181CA26821F44041114346F8181CC006C1
:101FC00004D4002002B0BDE8F08100BF56F8180C20
:101FD000E16820F48000084346F8180C002002B0A5
:101FE000BDE8F081FFF7A6FA054641F2883700BF49
:101FF00070688007CBD4FFF79DFA401BB8424FF0C2
:102000000300F5D9EBE700002DE9F04381B000288B
:1020100000F0858042F20008C4F202080446D8F8B5
:1020200000000D4600F0070088420CD2D8F80000EE
:1020300020F007002843C8F80000D8F8000000F09E
:102040000700A8426BD1206841F204098107C4F25D
:10205000020917D5410705D5D9F8001041F4E06110
:10206000C9F80010010705D5D9F8001041F46051F6
:10207000C9F80010D9F80010A26821F0F00111434E
:10208000C9F80010C00741D1D8F8000000F00700DF
:10209000A8420CD9D8F8000020F007002843C8F85F
:1020A0000000D8F8000000F00700A84237D12068EF
:1020B000410707D5D9F80010E26821F4E061114327
:1020C000C9F80010000708D5D9F80000216920F4EC
:1020D000605040EAC100C9F80000D9F8002002F0C1
:1020E0000C00082841F20020C0F27A0050D145F6D9
:1020F0009A53C2F38341C0F60003595CD2033BD428
:1021000040F60010C0F23D00484341E060680228FC
:102110000AD001282AD159F8041C890308D40120C7
:1021200001B0BDE8F08300BF59F8041C8901F6D561
:10213000D9F8001021F003010843C9F80000FFF7A7
:10214000F9F9064641F28837D9F80000616800F0D5
:102150000C00B0EB810F97D0FFF7ECF9801BB84271
:10216000F2D9032001B0BDE8F08300BF59F8041C88
:102170008907D4D5DCE700BFD9F8002045F698538D
:10218000C2F34042C0F600039A5C4843B0FBF2F051
:10219000D9F8001045F68052C1F30311C0F60002D1
:1021A000515C40F2980220FA01F140F20400C2F2C0
:1021B00000000068C2F200021160FFF70DFE00206F
:1021C00001B0BDE8F083000040F2980041F2040144
:1021D000C2F20000C4F202010068096845F690529C
:1021E000C1F30221C0F60002515CC84070470000F4
:1021F0002DE9F04182B0002868D00446007841F211
:102200000006C007C4F2020625D0706800F00C007A
:1022100004281BD0706800F00C00082802D17068F8
:10222000C00313D46068002800F06881B0F5A02FC7
:1022300000F07C81B0F5803F00F07C81306820F4B4
:1022400080303060306820F4802076E13068800390
:1022500001D56068D0B32078800718D5706810F079
:102260000C0F07D0706800F00C0008286ED1706861
:10227000C0036BD43068800702D52069012825D1BE
:102280003068616920F0F80040EAC10030602078D1
:1022900000071FD42078400732D4E56995B17068F3
:1022A00000F00C00082840F08F80012D0ED07068DF
:1022B000216A00F480328A4208D1616A00F4701009
:1022C000884203D1002002B0BDE8F081012002B0B5
:1022D000BDE8F081A069002862D00020C4F242204D
:1022E0000121C0F88014FFF725F90546706A8007C0
:1022F00000F18C80FFF71EF9401B0228F6D92AE175
:10230000F06910F0805808D1F06940F08050F06119
:10231000F06900F080500090009847F20007C4F286
:1023200000073868C00529D4386840F480703860E8
:10233000FFF700F9054600BF3868C0051ED4FFF757
:10234000F9F8401B6428F7D905E100BF206900288F
:1023500040F20000C4F2422000F0828001210160BE
:10236000FFF7E8F8054600BF306880073FF588AF03
:10237000FFF7E0F8401B0228F6D9ECE0E0680028FF
:1023800000F08080052800F09780012800F09880F8
:10239000306A20F001003062306A20F0040092E0E0
:1023A0000020C4F242200021C0F88014FFF7C2F8D8
:1023B000054600BF706A80077FF56CAFFFF7BAF87B
:1023C000401B0228F6D9C6E00027C4F242270020AD
:1023D0003866FFF7AFF8022D05460BD13068800153
:1023E00040F1BE80FFF7A6F8401B02284FF0030023
:1023F000F4D968E7306880017FF564AFFFF79AF899
:10240000401B02284FF00300F4D95CE740F298002B
:10241000C2F20000006844F6D351C1F26201A0FB91
:102420000101480A019000BF00BF0198411E002829
:1024300001913FF42FAF00BF0198411E0028019188
:102440003FF428AF00BF0198411E002801913FF4DE
:1024500021AF00BF0198411E00280191E4D119E786
:1024600000210160FFF766F8054600BF306880076D
:102470007FF50DAFFFF75EF8401B02284FF0030019
:10248000F4D920E7306A20F001003062306A20F091
:1024900004003062FFF74EF8054641F2883700BF6E
:1024A000306A800720D5FFF745F8401BB8424FF04F
:1024B0000300F5D907E700BF306A40F0040030623E
:1024C000306A40F001003062FFF734F8054641F20F
:1024D000883700BF306A800706D4FFF72BF8401B0F
:1024E000B842F7D937E000BFB8F1000F7FF4D5AE9E
:1024F000F06920F08050F061CFE600BF306820F432
:1025000080303060306820F480203060FFF712F8AF
:10251000054600BF306880037FF59DAEFFF70AF8DF
:10252000401B64284FF00300F4D9CCE6306840F437
:1025300080203060306840F480303060FEF7FAFF71
:10254000054600BF306880033FF585AEFEF7F2FF19
:10255000401B6428F6D9032002B0BDE8F08100BF1B
:10256000206AB0F5803F05D17168A26821F400317E
:10257000114371607168626A21F474111043084359
:10258000706001203866FEF7D5FF04463068800190
:102590003FF598AEFEF7CEFF001B02284FF0030078
:1025A000F4D990E6411E0020B0EB116F1CBF012052
:1025B00070474EF21002CEF2000251604EF62351E7
:1025C000CEF20001F0230B7007219060116070477C
:1025D000704700007047000010B590F83C20012AB9
:1025E0004FF0020233D080F83D200268D2F804E0B8
:1025F000D2F808C00C682EF07003234340F2FF7439
:10260000C4F20004A24253600ADCB2F1804F13D03E
:1026100040F20043C4F200039A420DD011E000BF23
:1026200042F60043C4F201039A4205D040F600038B
:10263000C4F200039A4204D149682CF08003194384
:1026400091600121002280F83D1080F83C20104666
:1026500010BD0000002804BF0120704710B50446DB
:1026600090F83D0028B9002084F83C00204600F096
:1026700067F8022084F83D00206840F2FF7302688A
:10268000C4F2000342F6004C9842C4F2010C15DC7F
:10269000B0F1804F1AD040F20041C4F200018842EC
:1026A00014D0984218DCB0F1804F1DD040F20041A8
:1026B000C4F20001884217D01AE000BF604505D07F
:1026C00040F60001C4F200018842EAD1A16822F07C
:1026D00070020A439842E6DD604505D040F60001ED
:1026E000C4F20001884203D1216922F440720A43F6
:1026F000A36922F08001D4F804E0E2681943604540
:102700000160C262C0F828E002D16169CCF83010E3
:1027100001214161002084F8461084F83E1084F8BD
:102720003F1084F8401084F8411084F8421084F877
:10273000431084F8441084F8451084F83D1010BD0F
:1027400080B582B0006840F20041C4F200018842C6
:1027500014D042F60041C4F2010188420CD141F28A
:102760001800C4F20200016841F4006101600068D1
:1027700000F400600190019802B080BD41F21800A1
:10278000C4F202004168002241F002014160406849
:10279000012100F00200009000981D20FFF772FB5D
:1027A0001D2002B0BDE88040FFF75CBB90F83D10F3
:1027B00001291CBF01207047022180F83D100068EC
:1027C00040F2FF71C4F20001884209DCB0F1804F91
:1027D00012D040F20041C4F2000188420CD012E055
:1027E00042F60041C4F20101884205D040F60001E2
:1027F000C4F20001884206D1816801F00701062970
:1028000004BF00207047016841F001010160002011
:102810007047000080B590F83C20012A4FF002027A
:1028200000F0C28080F83D20D0F800C04FF67772EB
:10283000DCF8083023EA0202CCF808200B684F2BA2
:1028400028DC1F2B44DD202B45D0302B43D0402BE0
:1028500040F0AC80D1F804E0C968DCF82030DCF846
:10286000202022F00102CCF82020DCF8182022F0F1
:10287000F00242EA011123F00A0242EA0E02CCF809
:102880001810CCF82020DCF8081041F0470121F0A6
:10289000300180E06F2B27DDB3F5005F48D0B3F542
:1028A000805F7AD0702B40F08180D1E901E3C96864
:1028B000DCF8082043EA0E0322F47F4243EA0121B8
:1028C0001143CCF80810DCF8081041F0770162E001
:1028D0000BB1102B6AD1DCF8081021F070011943FC
:1028E00041F0070157E000BF502B35D0602B5DD180
:1028F000D1F804E0C968DCF82030DCF8202022F0B0
:102900001002CCF82020DCF8182022F4704242EAB1
:10291000013123F0A00242EA0E12CCF81810CCF8D4
:102920002020DCF8081041F0670121F0100132E0AE
:10293000D1E901E3C968DCF8082043EA0E0322F478
:102940007F4243EA01211143CCF80810DCF808105B
:1029500041F480411FE000BFD1F804E0C968DCF811
:102960002030DCF8202022F00102CCF82020DCF816
:10297000182022F0F00242EA011123F00A0242EA92
:102980000E02CCF81810CCF82020DCF8081041F02A
:10299000570121F02001CCF808100022012180F815
:1029A0003D10002180F83C10104680BD0122F5E763
:1029B0007047000010B5016804460869800744BFED
:1029C000C8685FEA807039D40869400744BFC868A6
:1029D0005FEA40703ED40869000744BFC8685FEAF8
:1029E000007045D40869C00644BFC8685FEAC0608B
:1029F0004AD40869C0071CBFC8685FEAC07051D1DB
:102A00000869000644BFC8685FEA006052D40869DC
:102A1000400644BFC8685FEA406053D40869800636
:102A200046BFC8685FEA806010BD6FF02002204694
:102A30000A61BDE81040FFF7CDBD00BF6FF0020096
:102A40000861012020778869800743D02046FFF77E
:102A5000AFFF45E06FF0040008610220207788692D
:102A600010F4407F40D02046FFF7A2FF42E000BFB5
:102A70006FF00800086104202077C86980073DD006
:102A80002046FFF795FF3FE06FF010000861082037
:102A90002077C86910F4407F3AD02046FFF788FFBE
:102AA0003CE000BF6FF001000861204600F050FAE2
:102AB0002168A5E76FF0800008612046FFF788FDD8
:102AC0002168A4E76FF040000861204600F042FA58
:102AD0002168A3E7204600F04DF8204600F0C6F933
:102AE0002168002020776FE7204600F043F8204659
:102AF00000F0BCF92168002020776CE7204600F048
:102B000039F8204600F0B2F921680020207769E703
:102B1000204600F02FF8204600F0A8F92168002098
:102B2000207766E780B586B040F200410068C4F2C5
:102B3000000100228842049202D006B080BD00BF8E
:102B400041F21800C4F20200026842F0040202607E
:102B5000006800F0040001900198C020029002205B
:102B60000390059001F5823002A9FEF7C5FB06B07F
:102B700080BD0000704700002DE9F04390F83C3024
:102B8000012B04BF0220BDE8F0834FEAB202032A02
:102B90003CD8DFE802F003437FB900BF036842F688
:102BA00000461D6A1A6AC4F2010622F001021A6286
:102BB0001A465C6852F818CFB3428E68D1F800E02C
:102BC00025F0020545EA06050CD1CE68D1E9057865
:102BD00024F4407425F00C0526F004063C433543EC
:102BE00044EA08042CF0730747EA0E075C609F6113
:102BF0004F6809695F631D629F6947F008079F611D
:102C00009F6927F004079F61AEE000BF0121002209
:102C100080F83C200846BDE8F08300BF036842F618
:102C200000461D6A1A6AC4F2010622F010021A62F6
:102C30001A46D3F804C052F8184FB3428E68D1F840
:102C400000E025F0200545EA06150FD1CE68D1E950
:102C500005986FF0400707EA06162CF4406725F048
:102C6000C00547EA8907354347EA880C24F4E6445F
:102C700044EA0E27C3F804C09F614F6809699F6347
:102C80001D629F6947F400679F619F6927F4806711
:102C90009F6168E0036842F600461D6A1A6AC4F242
:102CA000010622F480721A621A46D3F804C052F860
:102CB0001CEFB3428E680C6825F4007545EA0625C2
:102CC0000FD1CE68D1E90598360240F2FF47BE43E6
:102CD0002CF4405725F4406547EA0917354347EA85
:102CE000081C2EF073072743C3F804C0DF614F6848
:102CF0000969DF631D62DF6947F00807DF61DF698B
:102D000027F00407DF612FE0036842F60047D3F89D
:102D100020C01A6AC4F2010722F480521A621A46CD
:102D20005C6852F81C5FD1F800E08E68BB4204D1A9
:102D30004F6924F4804444EA87142CF4005747EA8E
:102D4000063725F4E64646EA0E265C60DE614E68EC
:102D500009691E641F62DF6947F40067DF61DF698C
:102D600027F48067DF6109021368194311600021AD
:102D7000002280F83C200846BDE8F083002804BF0C
:102D80000120704710B5044690F83D0028B9002096
:102D900084F83C00204600F067F8022084F83D00EB
:102DA000206840F2FF730268C4F2000342F6004C50
:102DB0009842C4F2010C15DCB0F1804F1AD040F2F9
:102DC0000041C4F20001884214D0984218DCB0F1EE
:102DD000804F1DD040F20041C4F20001884217D05C
:102DE0001AE000BF604505D040F60001C4F20001C2
:102DF0008842EAD1A16822F070020A439842E6DDD7
:102E0000604505D040F60001C4F20001884203D1BC
:102E1000216922F440720A43A36922F08001D4F8A8
:102E200004E0E268194360450160C262C0F828E02E
:102E300002D16169CCF8301001214161002084F891
:102E4000461084F83E1084F83F1084F8401084F84F
:102E5000411084F8421084F8431084F8441084F838
:102E6000451084F83D1010BD704700007047000009
:102E700041B1082910D0042914BF00F1410200F12A
:102E80003F020BE090F83E20012A1CBF0120704752
:102E9000022280F83E2013E000F140021278012A5D
:102EA0001CBF012070470222082907D0042914BF43
:102EB00080F8412080F83F2002E000BF80F84020E9
:102EC000006801F01F010122036A8A4023EA02011F
:102ED0000162036A42F64441C4F201011A43A1F1BE
:102EE0004403984202620FD040F2FF71C4F2000125
:102EF000884213DCB0F1804F1CD040F20041C4F294
:102F00000001884216D01CE00A6842F400420A60C0
:102F100040F2FF71C4F200018842EBDD42F600414D
:102F2000C4F20101884205D040F60001C4F200015C
:102F3000884206D1816801F00701062904BF0020FC
:102F40007047016841F001010160002070470000F6
:102F50007047000070470000FEE700002DE9F047D1
:102F600082B0044600680E460168DDF828A041F4EE
:102F7000806101600168DDF82C9041F480711D468C
:102F80001746016020464FF0011100225346CDF84C
:102F9000009000F033F958B120680068C00544BFC4
:102FA0004FF400702064032002B0BDE8F08700BF3A
:102FB00040F202082068C0F2010806F0FE06066131
:102FC0002046414652464B4600F002FA20B101200D
:102FD00002B0BDE8F08700BF0020019020684A469B
:102FE000416901918069514601900198204600F0A5
:102FF000A7FA98B9012D08D02068390A0161204646
:1030000051464A4600F09CFA40B92068F9B2016185
:10301000204651464A4600F093FA58B1206C0428E5
:10302000D5D12068016841F400710160012002B02F
:10303000BDE8F087206800220168534641F48071A2
:10304000016020464FF00111CDF8009000F0D6F855
:103050000028A1D1206846F00101016120464146C7
:1030600052464B4600F0B4F9002818BF012002B0C8
:10307000BDE8F0872DE9F04383B0044600680D46B3
:1030800001680A9F0B9E41F4807199469046016049
:1030900020464FF0011100223B46009600F0AEF8AA
:1030A00050B120680068C00544BF4FF40070206430
:1030B000032003B0BDE8F083206805F0FE01016144
:1030C0000221C0F2010120463A46334600F080F961
:1030D00020B1012003B0BDE8F08300BF00200290C2
:1030E000206832464169029180693946029002980F
:1030F000204600F025FA58B1206C0428E9D1206858
:10310000016841F400710160012003B0BDE8F08363
:10311000B9F1010F0AD020684FEA18210161204659
:103120003946324600F00CFA0028E5D120685FFAF3
:1031300088F10161002003B0BDE8F08370B5036839
:10314000044653F8140F400711D40E46481C29D0EA
:1031500086BB00BF1868400527D4FEF7EBF923684B
:1031600053F8140F400739D518684007F2D50020EE
:1031700070BD00BF18684007F9D41868400514D422
:1031800018684007F3D4186840050ED41868400743
:10319000EDD41868400508D4186840074FF00000C7
:1031A00048BF70BD18684005E4D56FF480601860B2
:1031B000042014E0154603E053F8140F4007D6D45A
:1031C00018684005F1D4FEF7B5F9401B2368B042FA
:1031D000F2D958694007EFD4202000E020200021D8
:1031E0002022216384F83D2084F83E10226C104395
:1031F0002064012084F83C1070BD00002DE9F041EE
:10320000054600681E46144601F47F0201338FB262
:1032100042D0DDF81880B2F5803F40F087804069E9
:103220003840C01BB0FA80F04009A04240F0C8808E
:103230004EB924E040693840C01BB0FA80F0400924
:10324000A04240F0BD80FEF775F9A0EB08012868A8
:10325000B142EFD941693940C91BB1FA81F149093D
:10326000A142E7D19BE000BF40693840C01BB0FAE3
:1032700080F04009A0424FF0000040F0A680FEF729
:1032800059F9286841693940C91BB1FA81F14909E6
:10329000A142E9D183E000BFB2F5803F24D100BF55
:1032A00041693940C91BB1FA81F14909A14240F095
:1032B000878041693940C91BB1FA81F14909A142AE
:1032C00040F07E8041693940C91BB1FA81F149095A
:1032D000A14275D141693940C91BB1FA81F149094F
:1032E000A142DDD06CE000BF81693940C91BB1FA51
:1032F00081F14909A14263D181693940C91BB1FA01
:1033000081F14909A1425BD181693940C91BB1FAF8
:1033100081F14909A14253D181693940C91BB1FAF0
:1033200081F14909A142DFD04AE000BF80693840FD
:10333000C01BB0FA80F04009A04241D146B923E059
:1033400080693840C01BB0FA80F04009A0423BD1F0
:10335000FEF7F0F8A0EB08012868B142F0D98169C6
:103360003940C91BB1FA81F14909A142E8D116E0FF
:1033700080693840C01BB0FA80F04009A0424FF08D
:10338000000018BFBDE8F081FEF7D4F82868816915
:103390003940C91BB1FA81F14909A142E8D10020A5
:1033A0002021286385F83D1085F83E00296C41F006
:1033B0002001296485F83C000120BDE8F08100BFB0
:1033C0000020BDE8F08100BF0020BDE8F0810000D2
:1033D000F0B581B0044600681D4643698FB203EA28
:1033E0000701B94202D1002001B0F0BD4169164683
:1033F000013201F4806125D0002940D1CEB100BF57
:10340000FEF798F8411B2068B14203D94169394061
:10341000B9424BD141693940B942E4D041694905CB
:10342000EED52CE041693940B942DCD0416949050B
:1034300025D4FEF77FF8206841693940B942F1D0C0
:10344000202024E0D9B941693940B942CBD0416943
:10345000490514D441693940B942C4D0416949058C
:103460000DD441693940B942BDD04169490506D4FE
:1034700041693940B942B6D041694905E3D501688F
:1034800041F4007101606FF480614161042000210A
:103490002022216384F83D2084F83E10226C1043E2
:1034A000206484F83C10012001B0F0BD2020EEE73C
:1034B00070B504460068154650F8143F5A063DD4CE
:1034C0000E4629B926E000BF50F8141F490635D42E
:1034D0000168C90621D4FEF72DF8411B2068B142CE
:1034E000F2D941694906EFD400202021206384F8F5
:1034F0003D1084F83E00206C40F0200018E000BF32
:10350000FEF718F8206850F8141F4906ECD501683A
:10351000490613D40168C906F2D56FF010010160A5
:1035200000202021206384F83D1084F83E00206CA8
:103530002064002084F83C00012070BD002070BD94
:1035400070B50368044653F8140F000611D40E46F4
:10355000481C29D086BB00BF1868400527D4FDF75A
:10356000E9FF236853F8140F000639D518680006E0
:10357000F2D5002070BD00BF18680006F9D41868A5
:10358000400514D418680006F3D4186840050ED41A
:1035900018680006EDD41868400508D418680006BD
:1035A0004FF0000048BF70BD18684005E4D56FF4C7
:1035B00080601860042014E0154603E053F8140FEF
:1035C0000006D6D418684005F1D4FDF7B3FF401BC0
:1035D0002368B042F2D958690006EFD4202000E0F9
:1035E000202000212022216384F83D2084F83E1011
:1035F000226C10432064012084F83C1070BD000050
:103600002DE9F04184B0044601250DF10F00642638
:10361000CDE900052046D021752201230296FEF750
:1036200035F99DF80F00682848D14FF000080DF1DA
:103630000E072046D0216B2201238DF80E80CDE9A4
:1036400000750296FEF7C8FA04208DF80E00204699
:10365000D02119220123CDE900750296FEF7BCFAAC
:1036600002208DF80E002046D0211A220123CDE938
:1036700000750296FEF7B0FA2046D0211C220123E5
:103680008DF80E80CDE900750296FEF7A5FA20466A
:10369000D0211B2201238DF80E80CDE90075029602
:1036A000FEF79AFA2046D021382201238DF80E50D9
:1036B000CDE900750296FEF78FFA0025284604B082
:1036C000BDE8F0812DE9F04F9BB089460E210DF148
:1036D0005E026427CDE90021D0213B22012302971D
:1036E000FEF7D4F8BDF85E00BDF8605001BA090CD1
:1036F000A9F8001029BABDF86270090CA9F80210E7
:1037000039BABDF86660090CA9F8041031BABDF8E1
:103710006880090CA9F8201098FA88F1BDF86AA011
:10372000090CA9F822109AFA8AF1BDF864B0090CC4
:10373000C0BAA9F8241001F016FC0024C3F61074D6
:103740000022234601F0B2FCC9E90201E8BA01F007
:103750000AFC0022234601F0A9FCFDBAC9E90401D4
:1037600028464F4601F0FFFB42F60013C4F2CC039B
:10377000002201F033FAC7E906019BFABBF002F020
:10378000DDF80021C4F2AA3101F0FAFF41F6B86178
:10379000C4F2122101F068FFC9F84000F0BA01F04C
:1037A000E2FB46F20004C4F260040022234601F06A
:1037B00015FAC7E90A0198FAB8F001F0D4FB002223
:1037C000234601F00BFAC7E90C019AFABAF001F0AE
:1037D000CAFB0022234601F001FA40F20018C2F2AF
:1037E0000008B8F80020C7E90E0142F62440A8F806
:1037F0000220C4F2010000684FF6FF71A8F8000033
:1038000080B25140904288BF5142084401F0ABFB66
:1038100048F28043C4F22E13002201F0DFF9B9F917
:10382000002005FB05F302FB0232C8E90201104645
:1038300001F099FB01F0BEF80022002304460E4679
:1038400001F074FFA0B9B7F9020001F08CFB224629
:10385000334601F0C3F900F0CFFE4CF2F8124AF201
:10386000DC53C1F66322C4F24C0301F01FFC01E0FB
:1038700000210020C8E90401B7F90000B7F90440AD
:10388000404201F070FB054620460E4601F06BFBFE
:1038900002460B462846314600F0BEFF4CF2F812B5
:1038A0004AF2DC53C1F66322C4F24C0301F0FEFB82
:1038B00048F200038B46CCF256030022C8E9060BFF
:1038C000169001F048FF149748B9D7E9140148F25F
:1038D0000003C4F25603002201F036FF98B948F203
:1038E00000031698C4F256035946002201F03AFF2D
:1038F00090B9D7E9140148F20003CCF25603002234
:1039000001F029FF40B940F250001699C2F20000C0
:10391000C0E9061B06E100BF40F25005C2F20005F7
:10392000D7E90C01D5E90823D8F80C90D8F808801D
:10393000CDE9102301F0AAFD0246D5E906470B4662
:103940004046494601F0B2FB22463B4601F08AF868
:10395000D5E90C64D5E910230E90CDE90C61404601
:10396000494613930F94174601F0A0FB32462346B5
:1039700001F08CFDD5E90E2633460A9201F086FD52
:1039800095E81C000894EC68079401F06BF8024677
:10399000D5E90A4A0B4640464946CDF8189001F051
:1039A00085FB2246534601F05DF8139B129015915A
:1039B00089F0004140463A463D4601F077FB0C9ABB
:1039C0000F9B04460F4601F04DF80A9ACDE90B1003
:1039D00020463946334601F045F881460A908A462A
:1039E0000991DDE90710069B424601F05FFB139B3E
:1039F0002A4601F037F8139040F25000C2F200005E
:103A0000129E159CD0E904230F9130462146CDF833
:103A100014B001F027F807460D46304621463A46D5
:103A20002B4601F0DBF804908B4606914846514640
:103A30003A462B4601F0D2F80E9E0D9C8246089025
:103A400088460791169805993246234601F01EFDD7
:103A5000049D81460F46284659464A463B4601F09A
:103A600025FB3246234600F0FDFF40F250048B4612
:103A7000C2F200041690C4E9060B504641464A467D
:103A80003B46149F01F012FBDDE9102300F0EAFF32
:103A9000C4E90801A04628462E46069DDDF848A048
:103AA000159C29465246234601F000FB02460B4670
:103AB0005046214601F0EAFCC8E90A01DDF83080F1
:103AC000DDF82C903046294642464B4601F0EEFA8E
:103AD00002460B464046494601F0D8FC40F25006EB
:103AE000089C079DC2F20006159BC6E90C01204602
:103AF0002946524601F0DAFA02460B46DDE9091082
:103B000001F0C4FCC6E90E012046294642464B4658
:103B100001F0CCFA02460B4613980F9901F0B6FC5F
:103B2000C6E91001169848F200032BF00041C4F2D8
:103B300056030022C7E9140B01F014FE0246D7E930
:103B40000A01002A40F2001204BF81F00041C7E9D7
:103B50000A01C2F20002D2E902A91369526940F2D5
:103B60000806C2F2000611931092D6E90823CDE9A7
:103B7000122301F08BFC0246D6E906450B4650465F
:103B8000494601F093FA22462B4600F06BFFD6E936
:103B90001023D6E90C750D900C91504649460792BA
:103BA000CDE90E751C4601F081FA3A462B4601F02C
:103BB0006DFCD6E90EB85A46434601F067FC96E81C
:103BC0008C000697F768059700F04CFF0246D6E98F
:103BD0000A570B465046494601F068FA2A463B46CA
:103BE00000F040FF079DCDE9150189F000415046E6
:103BF0002A462346274601F059FADDE90E230446FA
:103C00000E4600F02FFFCDE90A10204631465A46F5
:103C1000434600F027FF804609908B460891DDE976
:103C2000051052464B4601F041FA2A463B4600F049
:103C300019FF0F9040F20800C2F20000159F169D78
:103C4000D0E904230E913846294600F00BFF0446C4
:103C50000E46384629462246334600F0BFFF054649
:103C60000F46404659462246334600F0B7FF0D9CAA
:103C70000C9E80468B46DDE910102246334601F04B
:103C800005FC81468A46284639464A46534601F095
:103C90000DFA2246334600F0E5FE40F20804C2F277
:103CA0000004CDE91001C4E90601404659464A46E0
:103CB000534601F0FBF9DDE9122300F0D3FEA146E3
:103CC000C9E908012C4628463E463946159F169DEF
:103CD0003A462B4601F0EAF902460B463846294699
:103CE00001F0D4FBC9E90A01204631460B9C0A9E2B
:103CF0002246334601F0DAF902460B4620463146A9
:103D000001F0C4FBC9E90C01404659463A462B462E
:103D100001F0CCF902460B46DDE9081001F0B6FBD4
:103D2000C9E90E01404659462246334601F0BEF924
:103D300002460B46DDE90E1001F0A8FBC9E91001AF
:103D40001498DDE91021C0E912211BB0BDE8F08F05
:103D5000FEE70000FEE7000070470000704700002B
:103D6000FEF718B87047000040F2DC20C2F20000F5
:103D7000FEF720BE40F28C10C2F20000FDF714B82E
:103D8000FEE7000098B0FEF713F800240120CDE90B
:103D90001344CDE911440E9012904FF4E0104FF40B
:103DA0008031022517900EA80794CDE90544CDE98E
:103DB0000F14CDE91551FEF71BFA28B1EFF310806F
:103DC00072B600BFFEE700BF0F20CDE908054FF433
:103DD00080600B904FF4A0600C9008A802210A9418
:103DE000FEF712F920B1EFF3108072B6FEE700BFC4
:103DF0004FF00208002404A8CDF810800694FEF7C6
:103E00007DF828B1EFF3108072B600BFFEE700BF67
:103E100041F21800C4F20200016840F6004741F088
:103E2000100101600168C4F2010701F010010E9158
:103E30000E99016807F5806541F020010160016875
:103E4000002201F020010E910E9901684FF40056F6
:103E500041F004010160016801F004010E910E9926
:103E6000016841F00801016000684FF4005100F062
:103E700008000E900E982846FDF756FB38460321A1
:103E80000022FDF751FB0E9601200FA90EAE81E82E
:103E900011012846314603950125FDF72DFA40F220
:103EA00000090620C1F211090E9009F58010A7F54E
:103EB000806ACDE90F0450463146FDF71DFA4FF0F8
:103EC000180B50463146CDE90EB41094FDF714FAA4
:103ED0002020CDE90E09504631461094FDF70CFA2A
:103EE0000320CDE90E0538463146CDE91058FDF7DF
:103EF00003FA38463146CDE90EB41095FDF7FCF9CA
:103F0000072000210022FDF7BDFF0720FDF7AAFFD3
:103F1000082000210022FDF7B5FF0820FDF7A2FFD1
:103F2000172000210022FDF7ADFF1720FDF79AFFB3
:103F300040F28C16C2F2000607F5C051304640F838
:103F4000281F4FF4602105730475C161C0E9014465
:103F50000561FCF7AFFC28B1EFF3108072B600BF2B
:103F6000FEE700BFDDF80C80002406F128000EA952
:103F7000CDE90E451094FCF755FB28B1EFF3108006
:103F800072B600BFFEE700BF40F24020A7F53841FF
:103F9000C2F2000048F2A0624FF48043C0F2010276
:103FA00080E81600C0E90343C0E90544C0E90744BE
:103FB000FDF7C6FA20B1EFF3108072B6FEE700BF3E
:103FC00040F2DC200021A7F58432C2F200004FF657
:103FD000FF730B91CDE90911CDE90411CDE913115E
:103FE000CDE91111C0E90021C0E90213016181612D
:103FF000FEF730FB20B1EFF3108072B6FEE700BF92
:104000004FF48050089040F2DC20C2F2000008A972
:10401000FEF700FC20B1EFF3108072B6FEE700BFA0
:1040200040F2DC20C2F20000FEF7A8FE20B1EFF360
:10403000108072B6FEE700BF40F2DC20C2F2000042
:1040400004A9FEF7C9FA28B1EFF3108072B600BFD9
:10405000FEE700BF60200E900020CDE90F00129017
:1040600040F2DC20C2F200000EA90022FEF784FD1F
:1040700020B1EFF3108072B6FEE700BF40F2DC2003
:10408000C2F200000EA90422FEF776FD20B1EFF384
:10409000108072B6FEE700BF40F2DC20C2F20000E2
:1040A000FEF740FD40F60040C4F20100A0F52840B4
:1040B000122100244FF4803286E813003046C6E90E
:1040C0000342C6E90544B483FCF79EFF20B1EFF339
:1040D000108072B6FEE700BF012040F28C161690E9
:1040E0000A21CDE914400D20C2F20006CDE91241AB
:1040F00017900EA93046CDE90E44CDE91044FCF7E7
:1041000041FD40F60040C4F2010000F5005140F2CC
:104110009420C2F200004FF6FF731194CDE90F44D2
:10412000CDE90844482280E81600C0E90334C0E91C
:104130000544FEF78FFA18B1EFF3108072B6FEE770
:104140004FF480500E9040F29420C2F200000EA96D
:10415000FEF760FB20B1EFF3108072B6FEE700BF00
:1041600040F29420C2F2000008A9FEF735FA18B117
:10417000EFF3108072B6FEE706F128000290FCF71C
:1041800083FC40464FF400510122FDF7CDF940F287
:104190009420C2F20000FEF709FB40F2DC25C2F2D7
:1041A0000005284600214FF00008FEF761FE284672
:1041B0000421FEF75DFE40F60047C4F201073846D1
:1041C00001210122FDF7B0F93846022101224FF00A
:1041D0000209FDF7A9F940F2201B40F24024C2F287
:1041E000000BC2F200040BF12C0021464E221023DA
:1041F000CDF80090FCF79EF83046FCF7F3FF304610
:104200000221FCF7A7FC0820CBE911802046CBE96E
:104210000F888BF84C80FFF7F3F906E02868CBF89D
:104220000680C0F83480C0F8388040F29C0640F226
:104230000009C2F20006C3F2333943F23334307856
:10424000052833D00428FAD19BF80200042808D0AE
:104250004FF4FA60CBF80C80FDF700F830788BF85B
:1042600002009BF823009BF8221000284CD0532911
:1042700068D05229E3D100F08DFE41F27B4247F62F
:10428000E123C4F2AE72C3F6847300F00FFF48F668
:1042900000030022C4F2D30300F008FF00F034FE54
:1042A0002968ABF804004863C9E700BF9BF8020027
:1042B000052806D005208BF802004FF4FA60FCF7C1
:1042C000CDFF0298FCF77AFA00F064FE4FF6006327
:1042D0000022C4F2AF0300F081FC00F091FB9BF8D8
:1042E0000110CBF81000012918D00029A7D13846B9
:1042F0001021FDF70BF9012818D12868CBF806909A
:10430000C0F834808463F2E7472957D040F29C0616
:104310005229C2F2000600F0818090E75046082141
:10432000FDF7F4F800287FF48AAF8FE02868CBF817
:104330000680C0F83480C0F8388001208BF8010076
:104340007DE700BF40F2E810C2F20000D0E912673A
:104350000023304639460022C4F2180301F0FBF96D
:10436000002840F0AD800023304639460022CCF2D0
:10437000180301F0F7F9002840F0A28040F600474A
:10438000C4F2010738461021FDF7C0F840F2DC25E1
:10439000012848F2E804C2F200057FF43FAF286824
:1043A000ABF80680ABF80840C0F834808463384628
:1043B0001021FDF7ABF80128F1D02FE740F2E8100B
:1043C000C2F20000D0E912670023304639460022CD
:1043D000C4F2140301F0BFF900287BD140F6004776
:1043E000C4F2010738461021FDF790F840F2DC25B1
:1043F000012848F2E804C2F200057FF40FAF2868F4
:10440000ABF80680ABF80840C0F8348084633846C7
:104410001021FDF77BF80128F1D0FFE63846102186
:10442000FDF774F8012848F2E8047FF4F7AE286835
:10443000ABF80680ABF80840C0F834808463384697
:104440001021FDF763F80128F1D0E7E65046082176
:104450005646FDF75BF8029F4FF600694FF6007471
:10446000C4F2AF09C4F27F74F8B93846FCF7A6F974
:1044700000F090FD00224B4600F0B0FB00F0C0FAC7
:104480002146CBF8100001F071FA01F03BFA2968DF
:10449000ABF80600ABF808804863C1F838803046B6
:1044A0000821FDF733F80028DFD02868CBF8068014
:1044B000C0F83480C0F838808BF8018021E000BF5C
:1044C00040F2DC25C2F20005286845F6D8114163A8
:1044D00017E000BF0023304639460022C4F214031F
:1044E00000F07CFB44F200030022C4F27F0300F0E2
:1044F000DDFD00F009FD40F2DC25C2F2000529686F
:10450000486340F60047C4F201078EE6490050EACE
:10451000C12018BF04204A0D18BF40F0010040F22E
:10452000FF72B2EB515F08BF40F00200012808BFE4
:10453000052070472DE9F0414F1E00EBC7010446EE
:10454000D1E9000115461E4637F006020DD02A4675
:10455000334600F0ABFD7F1E04EBC703D3E9002315
:1045600000F080FA37F00602F1D1022F25D0042F97
:1045700013D0062F18BFBDE8F0812A46334600F05D
:1045800095FDD4E90A2300F06DFA2A46334600F07F
:104590008DFDD4E9082300F065FA2A46334600F081
:1045A00085FDD4E9062300F05DFA2A46334600F083
:1045B0007DFDD4E9042300F055FA2A46334600F085
:1045C00075FDD4E9022300F04DFA2A46334600F087
:1045D0006DFDD4E90023BDE8F04100F043BA0122AB
:1045E00001F037BB00F03EBA024A0020110701F08B
:1045F00030BB000001FDFFFF2DE9F84F04460D46DA
:1046000021F0004000917349814211DC72498842D7
:1046100001DC06D12CB120462946BDE8F84FFFF752
:10462000DEBF6E48002DCCBF6D496E49BDE8F88FE6
:104630006D49814211DD6D498142D8BF4FF0FF368F
:104640006DDD20462946FFF761FF042808BFFFF70C
:10465000CBFF20462946BDE8F88F6549654F25F018
:104660000045814233DD6449814219DD002632462E
:104670004FF080432046294600F0F4F980468A46F0
:1046800001222046294601F0E4FA00223B4600F0D0
:10469000FDFE4246534600F0A1FA04460D463EE0B8
:1046A00001260022BA463B462046294600F0DAF9A8
:1046B00080460F46002253462046294600F0E6FE7B
:1046C00042463B4600F08AFA04460D4627E04B4935
:1046D00081421BDDDFF828A1022600225346204636
:1046E000294600F0E3FC00223B4600F0BBF980467F
:1046F0000F46002253462046294600F0C7FE424698
:104700003B4600F06BFA04460D4608E003262246BD
:104710002B4600203B4900F061FA04460D46224634
:104720002B461046194600F0C1FC8B4682460246D5
:104730000B4600F0BBFC07460246334888460B4652
:1047400006217844FFF7F6FE52465B4600F0AEFCC9
:1047500082462E488B463A46434605217844FFF769
:10476000E9FE3A46434600F0A1FC02460B46002E05
:10477000504659460CDA00F075F922462B4600F0F7
:1047800095FC01B022462B46BDE8F04F00F08CBDF1
:1047900000F068F922462B4600F088FC1C4A7A4457
:1047A00002EBC603D3E9002300F070FE22462B463D
:1047B00000F06CFE174A7A4402EBC603D3E90023EB
:1047C00000F072FD009A002AB8BF81F00041BDE8F8
:1047D000F88F0000000010440000F07F182D4454B2
:1047E000FB21F93FFB21F9BF0000DC3F0000203E28
:1047F0000000F33F0000F03F0000E63F0080034070
:104800000000F83F0000F0BF02160000C0150000D5
:104810005E150000261500002DE9F04D9446CCF100
:10482000000423F000464CEA0404594F46EAD474CD
:104830009A46884621F00042BC4206D8454240EAEA
:10484000050442EAD474BC4204D9BDE8F04D624686
:10485000FFF7C8BEAAF14055A5F17F6555EA0C04E3
:104860000BD0022404EAAA744A4DDFF82CE144EA92
:10487000D87452EA000B04D00CE0BDE8F04DFFF70D
:10488000BBBE002C14BF012CBDE8F08D022C30D033
:10489000032C32D056EA0C0B0AD0BE4220D1BA42C9
:1048A00009D126F0804622F080423346114617E0B7
:1048B00000291ADB25E0DFF8E4B0FB44002C04BF3C
:1048C000DBE90001BDE8F08D012C02BFDBE900014E
:1048D00081F00041BDE8F08D022C0AD0032C0CD0F1
:1048E000BA4212D1B8F1000F0BDA2A482C49BDE8C0
:1048F000F08D28462B49BDE8F08D28467146BDE86D
:10490000F08D24482849BDE8F08D921B12153C2AF1
:10491000C4BF204F244E10DCBAF1000FBEBF12F10D
:104920003C0F00273E4608DB624600F057F921F0B5
:104930000041FFF761FE07460E4694B1012C08BF07
:1049400086F000460DD0194A194B022C38463146E4
:1049500015D000F09BFD2A46BDE8F04D114B00F04C
:1049600095BD002213463846314600F091FA04BF47
:104970000220FBF731FC38463146BDE8F08D00F0EF
:1049800085FD2A46BDE8F04D064B00F08DBC0000C9
:104990000000F07F182D4454FB2109C0BA14000018
:1049A000FB21F9BFFB210940FB21F93F075C1433D0
:1049B00026A6A13C2DE9F04106460F4600F080FCFA
:1049C000041E0D4618BF0120284320F00040C0F10E
:1049D0007F6000F1E040C00F0ED0301C18BF0120F6
:1049E000384320F00040C0F17F6000F1E040C00F8C
:1049F00004BF0120FBF7F0FB20462946BDE8F0810B
:104A000021F0004201F00043A2F16052B2F5801F94
:104A100028BFD2F17F6C0BD95FEA001C43EAC202C7
:104A200042EB507018BF704728BF20F0010070475C
:104A3000B2F5801FBCBF184670474FEA410C1CF509
:104A4000001F02D2084601F058B870B500F0D8FB3C
:104A500000000089FFF7F6BF4FF00040A0F580008E
:104A60007047000010B591EA030F48BF83F0004380
:104A700000F11485841A71EB030C05D2121943EB73
:104A80000C03001B61EB0C014FEA1154A4EB135C07
:104A9000DFF81CE11EEA430F18BF9EEA445F00F0F6
:104AA000748021EA045123EA0E0343F48013DCF1FD
:104AB000200E32D322FA0CFE10EB0E0023FA0CFE6D
:104AC00041EB0E01CCF1200E03FA0EFE10EB0E00AE
:104AD000CCF1200E51F10001B1F5801F32D201EB73
:104AE000045112FA0EF2BDE8104058BF7047401C46
:104AF00038BF5FEA420218BF7047002814BF20F099
:104B0000010041F100014FEA410313F5001F38BFD6
:104B10007047A1F1C04100F0C1BB012A43EB030281
:104B2000ACF1200CDCF11F0E32BF4FF0000E23FA67
:104B30000CF310EB030041EB0451B4EB115FD0D048
:104B4000A1EB045101F58011490801EB04515FEA22
:104B500030000ED350F1000038BF12FA0EFE08D11B
:104B6000BDE81040C9E7401C38BF5FEA4202CAD125
:104B7000C3E7BDE810404FEA410313F5001F38BFFB
:104B80007047A1F1C04100F089BB9EEA445F08D0A4
:104B900011EA5E0FBDE8104004BF01F000410020A3
:104BA0007047BDE8104070B500F02AFB64FBBE3EC4
:104BB0000000E0FF02494FF0000001F018B800BF0C
:104BC0000000F87F491058BFC1F140415B1058BF49
:104BD000C3F140438B42EFF3008070472DE9C041A1
:104BE00030B4DFF8A4C23CEA111418BF3CEA131435
:104BF00000F0ED801CEA111481EA030544EAD57443
:104C000018BF1CEA131500F0C880A4EB050404F1DA
:104C10007F7404F500344FF0004545EAC12145EAB0
:104C2000C32341EA505143EA52534FEAC0204FEAAE
:104C3000C222994208BF904200F09D804FEA13655E
:104C40000FF24416765D4FEA134506FB05F7C7F1F0
:104C5000807706FB07F74FEAD737A7FB0368764252
:104C6000A7FB06CEC8F5803838BFA8F1010807FBBE
:104C700008E6A6FB028C4FF0000EE6FB03CEDCF14B
:104C8000000CCEF1004E38BFAEF1010EA6FB0C5861
:104C90004FF00007E6FB0E87A1FB08C6A0FB07CE7E
:104CA00016EB0E064FF0000545F10005E1FB076528
:104CB00015F1E04E7EBFA4F580345FEA46066D41F3
:104CC00016F1800745F100054FEA172747EA056707
:104CD0004FEA15254FEA0666A6F1DE46B6F1805F7B
:104CE00020D9384605EBC47124F0010C01EB0C11FE
:104CF000BCF1FE6F02D8F0BCBDE8008124425CBF6D
:104D000001F5801E9EEAC47F02D4F0BCBDE800819C
:104D1000244200F13980A1F1C041F0BCBDE800415E
:104D200000F0BCBA4FEAD02040EA41504FEAD1210E
:104D30004FEAD22242EA43524FEAD323A7FB02862C
:104D400007FB036605FB02661EEA0E0F58BFA6EBC3
:104D50000056B6EB00564FEA520E4EEAC37E18EBF1
:104D60000E0E56EB530EBCD518EB02085E417F1CAD
:104D700055F10005B5E74FF480154FF000074FF0EF
:104D800000064FF00008ACE701F1C04101F000411E
:104D90004FF00000F0BCBDE800810CEA131511EAE9
:104DA0000C1F00D00CE013EA0C1F00F026804FF01F
:104DB000000081EA030101F00041F0BCBDE8008180
:104DC000F0BCBDE8004181EA030100F067BAF0BC25
:104DD000BDE8004170B500F013FA00BF097EFC3E4B
:104DE00000F007B84FF0000081EA030101F0004134
:104DF000704781EA030100F051BAF0BCBDE8004100
:104E000022494FF000007047FFFDFBF9F7F5F4F27F
:104E1000F0EEEDEBE9E8E6E4E3E1E0DEDDDBDAD855
:104E2000D7D5D4D3D1D0CFCDCCCBCAC8C7C6C5C4B3
:104E3000C2C1C0BFBEBDBCBBBAB9B8B7B6B5B4B3CA
:104E4000B2B1B0AFAEADACABAAA9A8A8A7A6A5A4B5
:104E5000A3A3A2A1A09F9F9E9D9C9C9B9A99999879
:104E60009797969595949393929191908F8F8E8E1C
:104E70008D8C8C8B8B8A89898888878786858584A9
:104E800084838382828181800000FF070000F87F95
:104E900051EA030C17D41CF5801F58BFBCF5801FC6
:104EA00000F10680994218BF704708BF90427047D2
:104EB00007D711F5801F58BF13F5801F19D49942E9
:104EC0007047894270471CF5801F08D5BCF5801FCC
:104ED000F7D58B4218BF704708BF824270474FF426
:104EE000001C1CEB410F38BF1CEB430F01D28B425F
:104EF000704770B500F084F9922449004FF00051DA
:104F00004FF08053FFF75EBE4FEA41034FEA535321
:104F1000A3F58063D3F11E03C8BFD3F1210C0CDDD0
:104F20004FF0004242EAC12242EA505232FA03FCF8
:104F30008CEAE17CACEBE1707047102BC4BF002021
:104F4000704703F5787CBCF1FF3F04D06FF000425E
:104F500082EA2100704770B500F052F9499224802E
:104F600000207047F2E710F0004248BF4042B0FA1C
:104F700080F310FA03F10AD0C3F11D0303F5806337
:104F800002EB03524FEA415002EBD12170474FF040
:104F900000007047B0FA80F310FA03F10AD0C3F1B1
:104FA0001D0303F580634FEA03524FEA415002EBC1
:104FB000D12170474FF000007047000051EA030C08
:104FC00017D41CF5801F58BFBCF5801F00F1068068
:104FD000994218BF704708BF9042704707D711F534
:104FE000801F58BF13F5801F19D49942704789421A
:104FF00070471CF5801F08D5BCF5801FF7D58B4284
:1050000018BF704708BF824270474FF4001C1CEB6A
:10501000410F38BF1CEB430F01D28B42704770B574
:1050200000F0EEF8922449004FF080514FF0005309
:10503000FFF7C8BD51EA030C17D41CF5801F58BFF9
:10504000BCF5801F00F10680994218BF704708BF69
:105050009042704707D711F5801F58BF13F5801F86
:1050600019D499427047894270471CF5801F08D5B2
:10507000BCF5801FF7D58B4218BF704708BF82422E
:1050800070474FF4001C1CEB410F38BF1CEB430F63
:1050900001D28B42704770B500F0B2F892244900FB
:1050A0004FF000514FF08053FFF78CBD70B5DFF823
:1050B00048C11CEA111E1EBF1CEA13159EEA0C0F04
:1050C00095EA0C0F00F06F8081EA03044EEAD47E6B
:1050D000AE4421EA4C1123EA4C1341F4801143F40D
:1050E0008013AEF17F7EA1FB024CA0FB0365361955
:1050F00055EB0C05A1FB034C4CF10003A0FB021C7B
:1051000016EB0C06654153F10003094218BF46F047
:10511000010613F4007F0BD14FEA03314FEA05304B
:1051200041EA155140EA165034036FF003020AE0D9
:105130004FEAC3214FEAC52041EA555140EA565093
:10514000F4026FF0020202EB2E4201EB025585EAF7
:10515000CE710AD05FEA440C18BF24F0004450F12D
:10516000000041F1000120EAD47040F2FE7C62456B
:1051700000D270BDA84214BF4FF080444FF04044AD
:10518000002E08BF0024BEF1806FA8BFA1F1C0416E
:10519000BDE8704080F2828001F1C04101F0004121
:1051A0004FF0000070470CEA13159EEA0C0F18BF71
:1051B00095EA0C0F06D081EA030E4FF000000EF0C6
:1051C000004170BD00F01CF88900013E00F007B8F6
:1051D00000F009B84FEA430C5FEA5C5C08D081EA52
:1051E000030100F05BB84FEA410C5FEA5C5CF6D16A
:1051F00002494FF0000070470000FF070000F87FF1
:105200000EF1020E2EF0030E5EF8046B364205D44A
:10521000012A43EB030515F5001F12D8012841EBC5
:10522000010C1CF5001F0CD80ED14FEAD17C0CEB01
:105230004C0C0CF1020C15F5001F08BF4CEBD37C95
:1052400004E04FF0080C01E04FEAD37C0CEB4C0576
:1052500026FA05F606F00706B6F1040C06D20EEBA8
:10526000860CBDE870404CF0010C6047DFE80CF0A4
:10527000090B02024FF00041A1F500214FF00000A0
:1052800070BD19461046012851EB010418BFD4F532
:10529000001484BF002001F0004170BD0808A0F593
:1052A00000114FEA3101704710B591EA030F81F008
:1052B00000413FF5DFAB83F0004300F0EFB80000A2
:1052C0002DE9F04101F5801CBCF5001FC0F2C38040
:1052D0004FEA115C21EA0C5141F480110CF1FD0CF4
:1052E0005FEA5C0C0CF5C07C01D3400049418902A7
:1052F00041EA905187023BA48E0EA45D0A0C04FB88
:1053000004F602FB06F6C6F14046A4FB0662F60D63
:1053100046EA422606FB06F4A4FB01235242C3F1EF
:10532000404338BF5B1EA6FB02420024E6FB032479
:10533000D20B42EA4446A6FB0623A1FB02E2A3FBF2
:1053400007E4A4184FF0000252F10002E3FB01420F
:105350006442C2F1404E38BFAEF1010EA6FB0423F9
:105360004FF00002E6FB0E32A2FB0346B6194FF0E7
:10537000000454F10004E2FB0264A1FB06E6A4FB76
:1053800007E816EB08064FF0000858F10008E4FBA8
:1053900001687642C8F1405838BFA8F10108A2FB65
:1053A00006E4A3FB08E52D194FF0000454F10004B6
:1053B000E2FB0854A1FB05E6A7FB04E818EB06088E
:1053C0004FF0000656F10006E1FB048618F12005B7
:1053D00056F10006A80940EA8660B109A8F11B0849
:1053E00008F03F08B8F10A0F1CD901EB0C51BDE8D9
:1053F000F08100BFFCF5EEE8E2DDD8D3CFCBC7C328
:10540000C0BDB9B6B4B1AEACA9A7A5A3A19F9D9BE1
:105410009A9896959392908F8D8C8B8988878685A4
:1054200084838281A0FB006800FB01F208EB420844
:10543000B8EB872807D5341858EB0104D5D5401CA4
:1054400051F10001D1E7341A78EB0104CDD4401EAC
:1054500071F10001C9E75FEA4C0C5FEA9C5C0DD179
:1054600005D301F000414FF00000BDE8F081BDE838
:10547000F04170B5FFF7C4FE6DDBFFBEBDE8F04143
:1054800001494FF0000070470000F87F10B591EA25
:10549000030F48BF83F000433FF5ECAA841A71EB79
:1054A000030C07D28CF0004C121943EB0C03001BC9
:1054B00061EB0C014FEA1154A4EB135CDFF8A4E19B
:1054C0001EEA430F18BF9EEA445F00F0B48021EA51
:1054D000045123EA6E035242C3EB6E0338BF5B1ED6
:1054E000DCF1200E25D322FA0CFE10EB0E0043FA5D
:1054F0000CFE41EB0E01CCF1200E03FA0EFE10EB78
:105500000E00CCF1200E51F1000129D401EB045121
:1055100012FA0EF2BDE8104058BF7047401C1CBF85
:10552000B2F1004F704700280CBF491C20F0010069
:10553000704712EB020E43EB030218BF4FF0010E4F
:105540004EEA4202ACF1200CDCF11E0E56D943FAB1
:105550000CFE10EB0E00CCF11E0E51F1FF31D5D533
:105560000EF1010E12FA0EFE404141EB010101EB7A
:10557000445C5FEA5C5C10D901EB045110EBDE7017
:1055800038BFBEF1004FBDE8104018BF704700287B
:105590000CBF491C20F00100704734D24FEAD42CD4
:1055A00024F4006411F500111BD0B1FA81F20B3A1A
:1055B000A41AA41ED2F12003914030FA03F3194338
:1055C000904001EBCC7101EB0451002CBDE8104080
:1055D000A8BF704701F1C04101F000414FF0000049
:1055E0007047B0FA80F310FA03F102D1BDE8104021
:1055F0007047E41A173C4805C90AE2E701EB045179
:10560000BDE81040704749104FEA300001EB0451EB
:10561000BDE8104002E04FF0000170474A0008BFAB
:105620000042F8D0B2F5001F28BF704701F00041DA
:105630004FF0000070479EEA445F07D011EA5E0F0A
:10564000BDE8104004BF002100207047BDE81040B5
:1056500070B5FFF7D5FD00BF40DFF63E104683F082
:10566000004170470000E0FF90EA010F48BF81F061
:10567000004100F14E82421A3CBF801A89184FEA5D
:10568000D052A2EBD1534FF07F4C1CEA410F18BF10
:105690009CEA026F00F03B804FF0004C4CEA002087
:1056A0004CEA012121FA03FC10EB0C0C1ED202F192
:1056B000FF325FEA1C2040EBC25038BF70471CF03D
:1056C0007F0F4FEA400C18BFBCF17F4F38BF7047C7
:1056D000C3F12003994008BF20F00100BCF17F4FC7
:1056E00038BF7047A0F1C04000F007BA4FEA3C0055
:1056F000000A40EBC25028BF1CF0FF0F4FEA400CDD
:10570000E6D018BFBCF17F4F38BF7047EAE79CEA8C
:10571000026F05D010EA5C0F08BF00F00040704730
:1057200010B500F0A4F900BF64FBBE3E10B5FFF752
:10573000AFFB0CBF0120002010BD10B5FFF7A8FB88
:1057400014BF0120002010BD10B5FFF737FC8CBF3F
:105750000120002010BD10B5FFF730FC2CBF012048
:10576000002010BD10B5FFF765FC94BF012000209C
:1057700010BD10B5FFF75EFC34BF0120002010BD46
:105780004FF47F0C1CEAD0121EBF1CEAD11392EA20
:105790000C0F93EA0C0F00F0858090EA010F48BFD0
:1057A00042F4807240F4000C41F400002CF07F4180
:1057B00020F07F4000B5A2EB030281420FF2081CEB
:1057C000ACEB504E9EF800E0C0F100004FEA4E0EE8
:1057D00000FB0EFC38BF49004FEA2C1C0CFB0EF3FB
:1057E0004FEACE1E0EEB635E4FEA112C0EFB0CFC53
:1057F0004FEAC1214FEA1C5300FB031102F5FA02E4
:105800004FEA112C0EFB0CFC4FEA01314FEADC4C45
:1058100000FB0C1142EB2242C14228BF09184CEB9D
:1058200003335DF804EB10EB410143EBC250B2F5DA
:105830007C0F38BF704729D512F0F00F1CBF00F164
:10584000C04000F0004070470081828384858687D5
:1058500088898B8C8D8E8F919293959697999A9C2F
:105860009D9FA0A2A3A5A7A8AAACAEB0B2B3B5B79E
:10587000B9BCBEC0C2C5C7C9CCCED1D4D7D9DCDF74
:10588000E2E6E9ECF0F3F7FAFE0000004FEA400C24
:105890000CF1807CBCF17E4F28BF7047B0F1C04056
:1058A00000F02BB90CEAD11390EA010F48BF42F483
:1058B0008072624538BF634507D213F47F0F16D05C
:1058C00080EA010000F00040704710B500F0CFF80A
:1058D000097EFC3E00F005B880EA010000F00040BF
:1058E000704780EA010000F0004000F006B912F4B1
:1058F0007F0F04BF0248704780EA010000F0FDB846
:105900000000C07F41000B0ED3F19E0208D950F475
:1059100000034FEA032323FA02F048BF40427047D6
:1059200010B500F0A4F800BF499224800020704711
:105930006FF0004282EA20007047000010F0004142
:1059400048BF4042B0FA80F310FA03F2C3F19D035E
:105950000BD051EAC35101EB1220530638BF7047F8
:1059600000F1010008BF20F0010070474FF47F0CE8
:105970001CEAD0121EBF1CEAD11392EA0C0F93EA64
:105980000C0F00F0478090EA010F48BF42F480728C
:105990004FF0004C4CEA00204CEA012102EB0302DC
:1059A000A0FB0113A2F50002002918BF43F0010378
:1059B0005B0028BF4FEA330342EB22425FEA132C1D
:1059C0004CEBC2502EBFBCEB436FB2F57C0F70475F
:1059D0004FEA036CBCF1004F08BF20F00100B2F5A4
:1059E0007C0F38BF70470BD582F0FF0212F5803F65
:1059F000C8BF704700F1C040D8BF00F000407047FA
:105A000000F5000C5FEA4C0C48BF7047B0F1C04095
:105A100000F073B80CEAD11390EA010F48BF42F4CA
:105A20008072624538BF634504D280EA010000F00D
:105A30000040704710B500F01AF800BF8900013E21
:105A400000F007B800F009B85FEA410C5FEA1C6C8F
:105A500008D080EA010000F050B85FEA400C5FEA2D
:105A60001C6CF6D14FF00040A0F5800070470EF19D
:105A7000020E2EF0030E5EF8044B244204D44FEACB
:105A80004102B2F17F4F11D84FEA4003B3F17F4F8B
:105A90000CD80ED14FEAD07C0CEB4C0C0CF1020C64
:105AA000B2F17F4F08BF4CEBD17C04E04FF0080C03
:105AB00001E04FEAD17C0CEB4C0324FA03F404F030
:105AC0000704B4F1040C06D20EEB840CBDE81040C0
:105AD0004CF0010C6047DFE80CF0070802024FF0C1
