:020000040800F2
:1000000038090020A9010008014800080D3A00083D
:10001000FD470008750C00082D480008000000008E
:100020000000000000000000000000000948000877
:10003000AD10000800000000054800080D48000849
:10004000C3010008C3010008C3010008C301000880
:10005000C3010008C3010008C3010008B110000873
:10006000B9100008C3010008C3010008C30100085B
:10007000C3010008C3010008C3010008C301000850
:10008000C3010008C3010008B10B0008C301000848
:1000900021480008790C0008C3010008C1100008BD
:1000A000C3010008C3010008C3010008C301000820
:1000B000C301000815480008C3010008C301000877
:1000C000C3010008C3010008C3010008C301000800
:1000D000C3010008C3010008C3010008C3010008F0
:1000E000C3010008C3010008C301000800F002F8C2
:1000F00000F04AF80AA090E8000C82448344AAF178
:100100000107DA4501D100F03FF8AFF2090EBAE875
:100110000F0013F0010F18BFFB1A43F0010318473B
:10012000E070000000710000103A24BF78C878C168
:10013000FAD8520724BF30C830C144BF04680C60ED
:10014000704700000023002400250026103A28BF35
:1001500078C1FBD8520728BF30C148BF0B60704739
:10016000662906F01A87642900F052800020704743
:100170001FB500F0A3FB04000020002105F0D4FD12
:10018000E0601FBD10B510BD00F09CFC1146FFF7EC
:10019000EFFF04F04DFB00F0BAFC03B4FFF7F2FFF1
:1001A00003BC00F0FDFC00000948804709480047F7
:1001B000FEE7FEE7FEE7FEE7FEE7FEE7FEE7FEE717
:1001C000FEE7FEE704480549054A064B7047000074
:1001D00011480008ED00000838030020380900200D
:1001E00038050020380500200FB41CB5074B06AABF
:1001F0007B4469460090059800F047FB0020694663
:1002000000F056FB1CBC5DF814FB0000BD060000AE
:100210002DE9F0410646002410687529314616A5DF
:1002200010D0AFF30080002802DA404213A507E0A7
:1002300031688A0701D512A502E0490704D511A546
:10024000012401E0AFF3008000210A2206F1240717
:1002500009E0B0FBF2FCB0FBF2F302FB1C00303013
:1002600078541846491C0028F3D123462A463046C4
:10027000BDE8F04100F09DB8000000002D00000036
:100280002B000000200000002DE9F0474FF0000A8D
:1002900089460446C0F820A02046E1688847002827
:1002A00076D0252806D0D4E901219047206A401C49
:1002B0002062F1E7E168204600258847C4F81CA0C9
:1002C00006460027C4F818A02A2E09D0304605F0AB
:1002D0001FFB38B304EB8708303EC8F8186019E0FC
:1002E00059F8041B204604EB87029161E1688847B6
:1002F000012F064618D1E069002820DA25F02005F4
:100300001DE0D8F8180000EB800006EB4000303804
:10031000C8F818002046E1688847064605F0F8FA54
:100320000028EED1012F0AD02E2E08D12046E168F8
:1003300088477F1C0646022F45F02005C4DBA069D4
:10034000002803DA404245F00105A061E80701D02A
:1003500025F01005B6B1A6F14100192802D82036C3
:1003600045F400654A463146204625604D46FFF774
:10037000F7FE58B1012806D0ED1D25F0070000F169
:10038000080989E704E005F1040985E730468AE7B2
:10039000206ABDE8F08770477047704710B500F0DD
:1003A00091FA006810BD10B5044600F08BFA0460A5
:1003B00010BD2DE9F0470D4699469246044600F1DE
:1003C00024080168880604D5E06921F01001216045
:1003D00000E00120A84201DD471B00E00027A169E1
:1003E0007A1902EB0900081AA0612078C00602D42D
:1003F0002046AFF30080002608E0D4E901211AF876
:1004000006009047206A401C761C20624E45F4DBB3
:100410002078C0060AD52046AFF3008006E0D4E974
:10042000012130209047206A401C2062381EA7F12D
:100430000107F4DC07E0D4E9012118F80500904732
:10044000206A401C2062281EA5F10105F3DC20462D
:10045000AFF300802078000602D50220BDE8F087C7
:100460000120FBE72DE9FF4F0C461E464FF0FF37FA
:100470008BB0D2E90001DDF860800A908A46C1F3B2
:100480000A5505B93D46002108464FF00000BAF173
:10049000000F00F4400005DA00EB80004FF440014B
:1004A00001EA50004FEA9059B9F1010F00DDB94659
:1004B0000A9850EA4A000ED044F61050A5F2FF35D3
:1004C00045432F14B8F1000F1ED07542291E1EDDC2
:1004D000C9F100021CE0B8F1010F4FF0000001D09B
:1004E000302103E0F24305E02154401CB042FBDB25
:1004F00030460022002121540B99C1F80880C1E93F
:1005000000200FB0BDE8F08FBD1B6D1CDEE74A4632
:1005100000DA694206A800F05FFA06AB93E807002C
:1005200003AB83E8070050460A9904F0B3FD8DE859
:100530000700A0F500501F3800900398002D0ADD39
:1005400042F21F014A460844002303A9039068466B
:1005500005F01CF809E0A0F500504A461F380023BA
:1005600003A90390684605F026F88DE8070000040B
:10057000000C03D04FF0FF30410800E01046B8F106
:10058000000F03D00022009215461EE0751E05D410
:1005900000F09CF9303262556D1EF9D5B346012248
:1005A000084302D000227F1C04E02078302801D1CB
:1005B00000227F1E002A099784D01DE0112D07DA42
:1005C00000F084F9303262556D1C50EA0102F5D119
:1005D000084302D00098C8B10EE00021681E05E073
:1005E000235C625C63542254401E491C8142F7DB49
:1005F000AB46A81B401E0990002004F80B000B9886
:10060000099AC0F80880C0E9002B7AE711264FF05C
:10061000000857E72DE9F04F88460446D21D22F026
:10062000070191B0D1E90001CDE90A0105F0FAF81E
:1006300002460B98C00F01D02D2007E020688107EB
:1006400001D52B2002E0202101EAC000032A0990F5
:1006500001D0072A05DB03464146204600F07CF91D
:100660000BE12078800601D5E06900E00620B8F1B2
:10067000650F814606D0B8F1660F18D0B8F1670F44
:1006800070D131E00020B9F1110F009001DB11238E
:1006900001E009F101030AAA01A90CA8FFF7E2FE93
:1006A000DDE90C70002609F10105834647E00120D1
:1006B0004B4600904FF000470AAA01A90CA8FFF78B
:1006C000D1FEDDE90DB00C995D46002610B909F1A7
:1006D00001000D18B9EB050003D4C0F1FF3609F194
:1006E0000105A5EB09002BE0B9F1010F01DA4FF08C
:1006F00001090020B9F1110F0090484601DD1123D6
:1007000000E003460AAA01A90CA8FFF7ABFEDDE949
:100710000C704D4600268346207800070AD4AB456E
:1007200000DA5D4601A8012D04DD411911F8011C14
:10073000302907D04F4502DA17F1040F04DA0120FF
:1007400082460FE06D1EEEE7002F02DCED1B3E44FB
:1007500003E0781CA84200DD7D1CB81B00F1010AF3
:100760004FF000472078000703D4AA4501DB4FF083
:10077000FF3A0021B7F1004F0DF143088DF8431007
:1007800024D002202B23002F01DA7F422D230A21BF
:10079000021EA0F1010000DC5FB197FBF1FC97FBAA
:1007A000F1F201FB1C7C17460CF1300C08F801CD6E
:1007B000EEE7A8F1010003702188090501D5452164
:1007C00000E06521A0F1010800F8011C09980FA9BB
:1007D000A1EB0807FF1D00B10120411901EBEA70F0
:1007E000A1693844081A401EA0612078C00602D4CE
:1007F0002046AFF30080099828B1D4E90121904741
:10080000206A401C20622078C00622D52046AFF323
:1008100000801EE0002E04DBB34502DD01A8805DF0
:1008200000E03020D4E901219047206A401C20627A
:10083000761CAAF101005FEA000A0AD100F03EF836
:10084000C0680168405CD4E901219047206A401CDF
:100850002062281EA5F10105DCDC07E0D4E90121B6
:1008600018F8010B9047206A401C2062381EA7F13F
:100870000107F3DC2046AFF30080032011B041E60E
:1008800001694A1C02610878704700B58FB0CDE954
:1008900001310021059105497944CDE90310114644
:1008A0006846FFF7F1FC0FB000BD0000E5FFFFFF59
:1008B0000A6802F8010B0A607047000000487047A0
:1008C000C000002000487047A000002030B5B0F103
:1008D0000A0271F100034FEA900E4EEA817EB0EBFE
:1008E0000E0061EB91014FEA101E4EEA017E10EB03
:1008F0000E0041EB11114FEA102E4EEA016E10EB83
:100900000E0041EB11214FEA104E4EEA014E10EB62
:100910000E0041EB1141401841F100014FEAD000B7
:1009200040EA41704FEAD1014FEA810444EA9074F1
:1009300010EB800544EB01046D1944EB0404521BD9
:10094000A3414FF0000348BF0A3200D530BD401C20
:1009500041F1000130BD00002DE9F0411F46044681
:1009600003260168072A01F4006004DB08B116A51C
:1009700005E016A503E008B115A500E015A521F0D6
:1009800010002060A069C01EA0610FB1401EA061D0
:100990002046AFF300804FB1D4E90121384690479B
:1009A000206A401C2062C01C206206E0206AFAE730
:1009B000D4E9012115F8010B9047761EF8D22046A4
:1009C000AFF30080BDE8F0814E414E006E616E00D5
:1009D000494E4600696E66002DE9F047814616468D
:1009E0008AB0354878440DC88DE80D003248784407
:1009F000801C03AC0DC884E80D0041F69B30084410
:100A0000372190FBF1F290FBF1F5A5F1800501FB98
:100A100012041B3C02D56442012000E00020DFF8F4
:100A200098A080460027FA44AAF1BE0A0EE0E0072B
:100A30000AD03246684607EB470101230AEB8101E1
:100A400004F0B9FD8DE8070064107F1C002CEED186
:100A5000194F7F44AE3F19E0E80715D007EB0410AB
:100A60000DF1180A90E80E008AE80E00C068F04206
:100A700001D1981908903246012306A903A804F071
:100A80009AFD03AB83E807006D10641C002DE3D1D1
:100A90004FF0010332466946B8F1000F03A802D0B7
:100AA00004F074FD01E004F086FDC9E90001C9F815
:100AB00008200AB0BDE8F087C4670000004870470E
:100AC000A00000207546FFF7F9FFAE460500694615
:100AD000534620F00700854618B020B5FFF772FB9B
:100AE000BDE820404FF000064FF000074FF000082F
:100AF0004FF0000BAC46ACE8C009ACE8C009ACE86C
:100B0000C009ACE8C00921F007018D46704710B557
:100B10000446AFF300802046BDE81040FFF73DBB20
:100B20004FF0013C50F8042B51F8043B9A4221D17C
:100B3000A2EB0C03934313EACC1317D150F8042B08
:100B400051F8043B9A4215D1A2EB0C03934313EAEC
:100B5000CC130BD150F8042B51F8043B9A4209D125
:100B6000A2EB0C03934313EACC13DBD04FF000004D
:100B7000704700BFD01A01BAB1FA81F101F0180133
:100B800022FA01F0CB40DBB2C0B2C01AC1F12001A1
:100B90002CFA01F3D11A914311EAC311E6D170473F
:100BA00001491820ABBEFEE7260002007047000096
:100BB00040F2C410C2F2000000F058BBB0B582B0E1
:100BC00004460020019021688A68D2074FD18868C6
:100BD00040F00100886040F29800C2F20000006816
:100BE0004DF68361C4F21B31A0FB0101880C01901A
:100BF0000198A0B1019801380190019878B101984D
:100C000001380190019850B1019801380190019884
:100C100028B101980138019001980028EAD101F02B
:100C2000E3F921688968C9071CD1054603E000BFC4
:100C30008068C0071AD101F0D7F9411B2068032949
:100C4000F6D38168C907F3D1A06A40F01000A06212
:100C5000E06A40F00100E062002084F824000120F6
:100C600002B0B0BD002002B0B0BD00BF002002B095
:100C7000B0BD0000FEE7000040F29C10C2F2000090
:100C800000F0E6BD70B582B00446C07A1826002890
:100C900018BF01204FEAC00505F1040008BF102667
:100CA0008DF80400012001F033F8301D8DF80600A6
:100CB00001208DF8055001F02BF8206821798DF87E
:100CC00007604FF47A7601AA0423009601F04EFAE9
:100CD000052001F01DF802B070BD00002DE9F041C3
:100CE00082B0044608982160A07140F60640C2F622
:100CF0001400C4F807000820E072322022716371EA
:100D000001F006F8E07A3825002808BF30252E1DAE
:100D1000012038278DF8046000F0FAFF01208DF8DB
:100D200005508DF8066000F0F3FF206821794FF43C
:100D30007A7801AA04238DF80750CDF8008001F0DD
:100D400015FAE07A3826002808BF3026351D012024
:100D50008DF8045000F0DCFF01208DF805608DF85F
:100D6000065000F0D5FF2068217901AA04238DF8F0
:100D70000760CDF8008001F0F9F9052000F0C8FF08
:100D8000E07A2825002808BF302707F1040008BFB3
:100D900020258DF804000120282600F0B9FF281D29
:100DA0008DF8060001208DF8057000F0B1FF206875
:100DB000217901AA04238DF80750CDF8008001F0B5
:100DC000D5F9052000F0A4FFE07A2825002818BFF7
:100DD000012008BF2025C700281D8DF80400012030
:100DE00000F096FF381D8DF8060001208DF80550A3
:100DF00000F08EFF2068217901AA04238DF8077086
:100E0000CDF8008001F0B2F9052000F081FFE07913
:100E1000E27A010120F00F0501F10807002A14BF52
:100E200008350701281D8DF80400012000F070FF2F
:100E3000381D8DF8060001208DF8055000F068FF80
:100E40002068217901AA04238DF80770CDF800806D
:100E500001F08CF9207AE27A010120F00F0501F10E
:100E60000807002A14BF08350701281D8DF8040063
:100E7000012000F04DFF381D8DF8060001208DF88F
:100E8000055000F045FF2068217901AA04238DF860
:100E90000770CDF8008001F069F9607AE27A01010B
:100EA00020F00F0501F10807002A14BF08350701DB
:100EB000281D8DF80400012000F02AFF381D8DF850
:100EC000060001208DF8055000F022FF20682179EE
:100ED00001AA04238DF80770CDF8008001F046F9CF
:100EE000A07AE27A010120F00F0501F10807002A3B
:100EF00014BF08350701281D8DF80400012000F0FB
:100F000007FF381D8DF8060001208DF8055000F010
:100F1000FFFE2068217901AA04238DF80770CDF81F
:100F2000008001F023F9E07A1827002818BF01207B
:100F30004FEAC00505F1040008BF10278DF8040032
:100F4000012000F0E5FE381D8DF8060001208DF827
:100F5000055000F0DDFE2068217901AA04238DF8F8
:100F60000770CDF8008001F001F9E07A00280CBF8D
:100F700020260120C500281D8DF80400012000F066
:100F8000C7FE301D8DF8060001208DF8055000F0D9
:100F9000BFFE2068217901AA04238DF80760CDF8EF
:100FA000008001F0E3F802B0BDE8F08170B582B0D6
:100FB00004464079A379884298BF411E934298BF66
:100FC0005A1ED0B2032805D8DFE800F0090206084F
:100FD000403104E0002102E0143100E054310A0104
:100FE000E37A01F0700002F108056FF07702002B40
:100FF00008BF6FF07F0202EB000606F1040008BF95
:101000000D018DF80400012000F082FE281D8DF8EE
:10101000060001208DF8056000F07AFE2068217935
:101020004FF47A7601AA04238DF80750009601F058
:101030009DF802B070BD00002DE9F04782B00A783B
:101040008AB382464E1E4FF47A780DF1040900BF30
:1010500011019AF80B3022F00F0001F10807002B64
:1010600014BF08301701451C05308DF8040001201D
:101070007C1C00F04DFE781D8DF8060001208DF8D7
:10108000055000F045FEDAF800009AF804104A46D0
:1010900004238DF80740CDF8008001F067F8B2789E
:1010A0000136002AD4D102B0BDE8F08770470000B5
:1010B000022000F06FBE0000042000F06BBE0000B4
:1010C000202000F067BE00007047000010B581B01E
:1010D0000022009290F82420012A03D10221084620
:1010E00001B010BD4B680122062B80F8242015D8D2
:1010F000026803EB8303A3F1050E1F23D2F834C06B
:1011000003FA0EF40B682CEA040C03FA0EF444EA1A
:101110000C045463092B17D937E000BF02680C2B6D
:1011200020D803EB8303A3F123041F23D2F830C09C
:1011300003FA04FE0B682CEA0E0C03FA04F444EAEA
:101140000C041463092B20D8D2F810C003EB43031E
:10115000072489689C402CEA0404994021431161CA
:10116000002136E003EB8303A3F141041F23D2F8EF
:101170002CC003FA04FE0B682CEA0E0C03FA04F4EC
:1011800044EA0C04D462092BDED903EB4304D2F801
:101190000CC0A4F11E0E0724896804FA0EF42CEA90
:1011A000040401FA0EF1214323F00104102CD16054
:1011B0000ED142F20841C4F20101A1F10804A24299
:1011C0000ED0816A41F020018162012101E000BF5F
:1011D0000021002280F82420084601B010BD00BF85
:1011E0000A68120230D40A68102B42F400020A6026
:1011F0002CD140F29801C2F2000109684DF68362D9
:10120000C4F21B32A1FB0212910C01EB81014900D7
:1012100000910099E1B10099013900910099C9B19B
:101220000099013900910099B1B1009901390091FB
:10123000009999B1009901390091009900294FF066
:101240000001E8D1C5E700BF0021C2E70021C0E7E7
:101250000021BEE70021BCE70021BAE70021B8E782
:10126000704700000068C06C7047000070B504460D
:10127000006805684668B10627D515F0020124D03C
:10128000A16AC90603D4A16A41F40071A162816810
:1012900001F46021B1F5602F10D1217B71B9416853
:1012A00021F020014160A06A20F48070A062A06A51
:1012B000C00403D4A06A40F00100A0622046FFF7FA
:1012C000CFFF20686FF012010160310633D515F0B1
:1012D000040130D0A16AC90603D4A16A41F40051C7
:1012E000A162816801F4E041B1F5E04F10D141689D
:1012F00021F080014160A06A20F48050A062A06AC1
:10130000C00511D4A06A40F00100A0620CE000BF4B
:101310004168490508D4816801F46021B1F5602F66
:1013200002D1217B0029E2D02046FFF7CDFE2068C4
:101330006FF00C01016070060ED515F0010008BFBA
:1013400070BDA06A40F48030A062204600F0B4F87E
:1013500020686FF00101016070BD0000B0B5002889
:1013600000F0A8800446806A20B121688868C00720
:101370000BD114E00020E06284F82400204600F045
:101380009DF821688868C00709D0886820F00100AE
:10139000886000F029FE21688A68D20726D1A06AF9
:1013A000C0063AD4A06A41F2021290430230A06211
:1013B000E069D4E9013240EA030C531EB3FA83F327
:1013C0005D091346B2F5807F18BF2B02207D257B77
:1013D00001284CEA450030D135B3A56A45F0200517
:1013E000A562E56A45F00105E56226E0054602E0F2
:1013F0008868C007D3D000F0F7FD401B21680328A0
:10140000F6D38868C007F3D0A06A40F01000A0624D
:10141000E06A40F00100E062A06AA06A40F01000BB
:10142000A0620120B0BD00BFD4F818C04EF6000580
:10143000CFF6FF7505EB4C352B434D68B2F5807F39
:1014400025F4694543EA05034B608B684FF2FD754F
:10145000CFF6E17503EA050343EA00038B6001D090
:10146000012A07D122690023CFF6F07303EB025261
:1014700001E000BF0022CB6A23F470031A43CA6262
:10148000896840F6FE62CFF61F721140814207D193
:101490000020E062A16A012262F30101A162B0BDF5
:1014A000A06A40F0100020F00200A062E06A40F064
:1014B0000100E0620120B0BD7047000080B586B039
:1014C000014640F60000C4F20100096800F5E05250
:1014D00091424FF00001CDE9041101D006B080BD6A
:1014E00041F21801C4F202010A6842F400720A6073
:1014F0000A6802F400720192019A0A6842F004023A
:101500000A60096801F00401019101990121029129
:101510000321039102A900F049FC122004210022BA
:1015200001F00AFA122001F0F7F906B080BD0000C0
:1015300010B5044690F82400012804BF022010BD15
:10154000012084F824002046FFF738FB20B1002159
:1015500084F8241010BD00BF42F2044C2068A16A38
:10156000C4F2010C40F2013291430CF57F7201F597
:1015700080719042A16233D0A16A21F48011A162EE
:101580004168490504D5A16A012363F30D31A162C5
:10159000A16A0023C9044FF0000144BFE16A21F0B1
:1015A0000601E1626FF0020184F824300160816875
:1015B00001F46021B1F5602F06D190420AD1DCF828
:1015C000001011F4702F05D0816841F48011816002
:1015D000002010BD816841F4A0018160002010BD91
:1015E000DCF8001011F4702FC6D0A16A41F480110C
:1015F000A162DCF800104905C5D4C9E790F82020A5
:10160000013A012A08D8006800F11402002013688A
:1016100019431160704700BF00F1240201204FF40C
:10162000802113681943116070470000B0B502684B
:1016300090F82030013B012B28D8D2F8000201237A
:1016400040F00100C2F80002D1F814E0CC690EF0BD
:101650001F0003FA00F0D2F81C326FEA000C83433B
:10166000012CC2F81C3217D06CBBD2F80C3203EA42
:101670000C03C2F80C32CB688C8844EA034302EBBB
:10168000CE04C4F840320B4615E000BF416A41F475
:10169000802141620120B0BDD2F80C320343C2F870
:1016A0000C320B688C8844EA034302EBCE04C4F886
:1016B000403201F10C038C681B8843EA044302EBBF
:1016C000CE04C4F84432D2F804328D6943EA0004EF
:1016D000D1F810E0096A002D08BF03EA0C04C2F833
:1016E0000442D2F81432BEF1000F43EA000408BFEE
:1016F00003EA0C040129C2F8144204D1D2F81C12E6
:101700000843C2F81C02D2F8000220F00100C2F81F
:1017100000020020B0BD00007047000010B590F836
:101720002040013C012C7BD8D0F800C0002900F0FB
:101730008180DCF81040A40700F081800CEB011CD4
:10174000DCF8B0410CF5D87E14F004049460DCF8A9
:10175000B04119BFE4085460640D1460DEF8004025
:101760000CF5DA7E04F00204D460DCF8B4412407FE
:101770005ABFDEF8004004F00F0408241461DEF8BC
:1017800000400029C4F307249461DEF800404FEACA
:1017900014445461DCF8B8211A70026802EB01129B
:1017A000D2F8B8214FEA12225A70026802EB0112F5
:1017B000D2F8B8214FEA12429A70026802EB011285
:1017C000D2F8B8214FEA1262DA70026802EB011215
:1017D000D2F8BC211A71026802EB0112D2F8BC21C6
:1017E0004FEA12225A71026802EB0112D2F8BC21B0
:1017F0004FEA12429A71026802EB0112D2F8BC2140
:101800004FEA1262DA71006814BF00F1100100F1B2
:101810000C01002020220B681A430A6010BD00BF93
:1018200000F1240101204FF480220B681A430A6062
:1018300010BD00BFDCF80C40A4077FF47FAF00F1BF
:10184000240101204FF400120B681A430A6010BDF6
:101850002DE9F04F81B0044600684669D0F8049045
:101860008768D0F80CB0D0F810A0D0F81880F10735
:1018700004D1002530071DD424E000BFF90710D0A3
:101880000121BA07816009D4780700F1AF803807D9
:1018900000F1B680204600F02DFA02E0204600F06C
:1018A0002BFA0025F80500F18780F80300F1B180DC
:1018B000300707D51BF0100004D0206845F40075F0
:1018C0001021C160700708D51BF0080005D0206802
:1018D0000821C160204600F0B3F9B00706D52068A2
:1018E000C068800702D0204600F0ACF9700607D52A
:1018F0001AF0100004D0206845F4806510210161C1
:10190000B00608D51AF0080005D02068082101614A
:10191000204600F0BBF9F00606D520680069800774
:1019200002D0204600F0B4F9B00308D519F0100039
:1019300005D0206810214160204600F0ABF9F0038B
:1019400008D519F0080005D020680821416020461C
:1019500000F0DCF9300440F19B805FEA497040F10F
:10196000948006F4807008EA102028435FEA8871AA
:10197000014648BF41F00201B20558BF01465FEA87
:1019800048700D4648BF45F00405700558BF0D4628
:10199000300540F17A8018F0700000F07680103841
:1019A000000905286CD8DFE800F003595D6165691E
:1019B00045F0080564E000BF20684FF48071BA0567
:1019C00081600BD4780515D438051DD4204600F06D
:1019D00095F9F8037FF56CAF1BE000BF204600F0DF
:1019E0008FF9F8037FF564AF13E000BF4FF4006593
:1019F00058E700BF05F50055F8037FF559AF08E03B
:101A00004FF480554EE700BF05F58045F8037FF59C
:101A10004FAF20684FF48031BA0381600AD4780355
:101A200010D4380314D4204600F06CF930073FF589
:101A300041AF47E7204600F067F930073FF53AAF7E
:101A400040E700BF05F5004530073FF533AF39E704
:101A500005F5803530073FF52DAF33E745F010052C
:101A60000EE000BF45F020050AE000BF45F040054C
:101A700006E000BF45F0800502E000BF45F4807538
:101A80002068816921F07001816120680421416032
:101A900055B1606A40EA05012046616201B0BDE8C7
:101AA000F04FFFF739BE00BF01B0BDE8F08F000076
:101AB000B0B5C8B1044690F8200010B9204600F037
:101AC00071F82068016841F00101016000F08CFAB2
:101AD000054600BF20684168C90707D100F084FAB5
:101AE000401B0B28F6D312E00120B0BD016821F0A5
:101AF0000201016000F078FA054600BF20684168E5
:101B000089070DD500F070FA401B0B28F6D3606AE8
:101B1000052140F400306062012084F82010B0BD3F
:101B2000217E0268012922F0800208BF8032026013
:101B3000617E0268012922F0400208BF4032026043
:101B4000A17E0268012922F0200208BF2032026033
:101B5000E17E0268012922F0100218BF10320260F3
:101B6000217F0268012922F0080208BF08320260C2
:101B7000617F0268012922F0040208BF043202607A
:101B8000D4E901C2D4E9033561691A432A431143F8
:101B9000ACF101021143C16100200121606284F8AF
:101BA0002010B0BDB0B586B040F60004C4F2010408
:101BB0000068A4F5244200219042059102D006B0AD
:101BC000B0BD00BF41F21800C4F20200426802AD8D
:101BD00042F000724260426802F000720192019A83
:101BE000026842F004020260006800F00400019004
:101BF00001984FF40060CDE9020104912046294686
:101C000000F0D4F84FF4805002900220039003209B
:101C100005902046294600F0C9F814200021002232
:101C200000F08AFE142000F077FE1520002100222B
:101C300000F082FE152000F06FFE06B0B0BD00007F
:101C400070470000B0B540F2101540F28014C2F2A7
:101C50000005C2F2000405F1240300212246FFF72B
:101C60005DFD88B9206840F22221884218BFB0BDCE
:101C700041F20000C4F201004FF4005100F0A6F957
:101C800095F82B0085F82300B0BD000070470000D8
:101C90007047000070470000B0B5044690F820007F
:101CA00001281DD1022084F820002068016821F05D
:101CB0000101016000F098F9054600BF2068406806
:101CC000C00713D000F090F9401B0B28F6D3606AD0
:101CD00040F400306062052084F820000120B0BD8F
:101CE000606A40F4002060620120B0BD00206062A4
:101CF000B0BD000070470000704700007047000052
:101D000070470000704700007047000070470000F7
:101D1000B0B5044600F068F9054640F20000C2F292
:101D200000000078611C18BF044400BF00F05CF99B
:101D3000401BA042FAD3B0BD202819D0042821D0DE
:101D4000022818BF704740F21010C2F2000001785C
:101D500004230131CAB2017040F29C01C2F20001B9
:101D6000032A0B7022BF002101707047704700BF2B
:101D700040F2502040F2F811C2F20000C2F200011D
:101D800002F0FAB940F29C00C2F200000521017095
:101D90007047000040F21441C4F201010A68024297
:101DA00014BF08607047FFF7C7BF00002DE9F04F70
:101DB00082B041F20042C4F201020E680423904254
:101DC00008BF0323002E009300F0F68040F2004C81
:101DD0004FF6FF7E0022C4F2010C0124C1F2100E66
:101DE0004FF0000A4FF0000947E000BF012502F064
:101DF0000C040F27A7402BEA070705FA04F43C431D
:101E000043F82640D1F804B040F20C455FEACB23FA
:101E1000DCF8083054BF23EA080343EA0803C4F29D
:101E20000105CCF808302B685FEA8B2454BF23EA05
:101E3000080343EA08032B605FEA8B34DCF80430C4
:101E400054BF23EA080343EA08035FEACB34CCF823
:101E50000430DCF800304FF0010454BF23EA0803DB
:101E600043EA0803CCF800300E680AF1010A36FA9A
:101E70000AF302F1040200F09F8004FA0AF816EA5D
:101E8000080FF1D04B68734512DC122B56D8DFE8EF
:101E900003F0350B4549555555555555555555552F
:101EA0005555554D510000BFD1F80C9046E000BF8C
:101EB0004FF6FF75C1F22105AB420FDC0025C1F2E0
:101EC0001105AB421AD00025C1F21205AB4215D064
:101ED0000025C1F22105AB4210D02FE00025C1F250
:101EE0002205AB420AD00025C1F23105AB4205D034
:101EF0000025C1F23205AB4220D100BF8B684BB147
:101F0000012B14BFC0F81480C0F810804FF00809EE
:101F100014E000BF4FF0040910E000BFCB6803F1EC
:101F200008090BE04FF0000908E000BFCB6803F19F
:101F3000040903E0CB6803F10C0900BF1346054612
:101F4000BAF1080F24BF203B04352E680F279F40AD
:101F5000BE4309FA03F333432B60CB79DB067FF5ED
:101F600083AF41F21804C4F2020423684FEA9A06D0
:101F700043F001032360236840F6000403F00103EB
:101F80000193019BACF57E7353F826B0C4F20104B3
:101F9000A0420FD040F60044C4F20104A0423FF436
:101FA00025AF41F20004C4F20104009DA04208BF25
:101FB00002251CE700251AE702B0BDE8F08F0000FB
:101FC0008068084018BF012070470000C26802EA1C
:101FD0000103914341EA034101617047002A08BFB0
:101FE000090401617047000040F23430C2F2000081
:101FF0000068704770B5B8B3044690F83D0028B942
:10200000002084F83C00204600F0ECFB242084F8FB
:102010003D002068016821F001010160016841F480
:1020200000410160016821F40041016000F026FEDA
:1020300048F28041C0F21E0140F60013D4F804E0DB
:1020400088424FF00001C0F23D0348F2A16C4FF00E
:10205000000238BF01219842C0F2010C38BF0122B2
:10206000E64538BF0A460AB1012070BD4DF68361CE
:10207000C4F21B31A0FB01122168950C4B684FF490
:10208000967623F03F0343EA9243754344F6D356D2
:102090004B60C1F262060B6AA5FB0656B50923F038
:1020A0003F03E64538BF950C6A1C1A430A62CA69A9
:1020B00048F2A0664CF6FF73C0F20106B64522EA6C
:1020C00003020BD801384FEA4E03B0FBF3F00130A6
:1020D0006FF31F30042898BF04201EE0A368013866
:1020E00063B119230EFB03F3B0FBF3F001306FF380
:1020F0001F3078B100F5804008E000BF0EEB4E03C2
:10210000B0FBF3F001306FF31F3028B100F5004051
:1021100003E000BF012000E001201043C86108680F
:10212000D4E9072320F0C0001043184308608868F2
:1021300048F2FF3204F10C0690434CCE1843104392
:10214000A5698860C86820F0FF0030432843C86054
:10215000086840F00100086000202021206484F815
:102160003D10206384F83E0070BD00002DE9F0436F
:1021700083B01E46174689460446FFF735FF94F89C
:102180003D10202920D10546206800BF81698907BC
:1021900016D5FFF729FF411B20681A29F6D381695C
:1021A0008907F3D500202021206384F83D1084F8AE
:1021B0003E00216C41F02001216484F83C0003E0E2
:1021C00094F83C10012903D1022003B0BDE8F0834C
:1021D000012184F83C100168C90703D1016841F06E
:1021E00001010160016840F2020821F40061016010
:1021F000212184F83D10102184F83E100021216433
:1022000067626685618DC0F201082185A8F102111F
:10221000E162E16A0A9E11F5803F18BF01291DD1D4
:10222000016841F48071016020464FF001110022E5
:102230003346009501F03CFD50B120680068C005B0
:1022400044BF4FF400702064012003B0BDE8F08368
:102250002069B0F5804F07D1FE2015E00829DFD0B6
:10226000216B1229DCD0DFE7062000EAD9102168B3
:10227000F030086108F10601204632462B4601F095
:1022800001FE0028E0D1FF20216800EA0900086172
:102290002046414632462B4601F0F4FD0028D3D1BA
:1022A00000200290206841690291806902900298A2
:1022B00006E000BF204631462A4601F099FC18BBD3
:1022C000208D68B3204631462A4601F093FED8B9E6
:1022D000606A2168024612F8013B0B616262628DFE
:1022E000013A6285228D531E23854F697F07E1D510
:1022F0001B04DFD0437802300B616062608D0138CF
:102300006085901E2085D5E7206C04289CD120682C
:10231000016841F400710160012003B0BDE8F08361
:102320002068016841F400710160202084F83D00BC
:10233000002084F83E0084F83C0003B0BDE8F08340
:102340002DE9F04F85B004460020994616460F4609
:102350000490FFF749FE94F83D10202927D1054647
:10236000206800BF816989071CD5FFF73DFE411B2E
:1023700020681A29F6D381698907F3D50020202126
:10238000206384F83D1084F83E00206C04F13C0A80
:1023900040F020002064022000218AF8001005B0DF
:1023A000BDE8F08FA2461AF83C1F012904D1022093
:1023B00005B0BDE8F08F00BF01228AF80020036855
:1023C000DDE90F180E9ADB0703D1036843F0010320
:1023D0000360036823F400630360222084F83D0057
:1023E000402084F83E000020206462626185608D98
:1023F000394620850020CFF6FF70E0622046324645
:102400004B46CDF80080019501F002FB20B1012080
:1024100005B0BDE8F08F00BF208D022810D0012844
:1024200024D0002838D1002003902068416903910E
:10243000816903910399016841F40071016037E0FB
:102440002068016841F400610160EFF3108072B60A
:1024500000200390206841690391816903910399E9
:10246000016821F48061016062B621E020680168A2
:1024700021F480610160EFF3108072B600200390B8
:10248000206841690391816903910399016841F4CE
:102490000071016062B60BE02068016841F4806160
:1024A00001600021039141690391806903900398C1
:1024B000208D002800F0CA80042740F298094BF2D2
:1024C000895BC0F20107C2F20009C1F2F84B232672
:1024D00017E000BF204641462A4601F043FD002890
:1024E00095D12068616A00690870606A218D0130A9
:1024F0006062481E2085618D01396185010400F00C
:10250000A58080B2032865D8022800F07F800128CA
:10251000E0D02046394600224346009501F0C8FB32
:1025200000287FF474AF2068016821F480610160A5
:10253000EFF3108072B62068616A00690870606A03
:10254000218D0130013960622185618D01396185FC
:10255000D9F80010C908A1FB0B12110A71430491AC
:102560000499013904910499002900F07B802168C5
:102570004A6952071DD4049901390491049900292C
:1025800070D021684A69520713D404990139049123
:102590000499002966D021684A69520709D4049930
:1025A00001390491049900295CD021684A695207D5
:1025B000D6D50A6842F400720A6009690170606A3F
:1025C000218D01306062481E2085608D0138608554
:1025D00062B686E7204641462A4601F0C3FC002841
:1025E0007FF415AF2068616A00690870606A22682C
:1025F000411C208D616201382085638D013B63851C
:1026000053695B077FF57AAF10696DE7204639465D
:1026100000224346009501F04BFB00287FF4F7AE03
:10262000EFF3108072B62068616A026842F40072AB
:10263000026000690870606A218D01306062481E86
:102640002085608D0138608562B64AE7202084F8D5
:102650003D00002084F83E0000218AF8001005B0FB
:10266000BDE8F08F00202021206384F83D1084F81D
:102670003E00206C40F02000206462B60120002162
:102680008AF8001005B0BDE8F08F00002DE9F04396
:1026900083B0994616460F460446FFF7A5FC94F80A
:1026A0003D10202920D10546206800BF8169890797
:1026B00016D5FFF799FC411B20681A29F6D38169CA
:1026C0008907F3D500202021206384F83D1084F889
:1026D0003E00216C41F02001216484F83C0003E0BD
:1026E00094F83C10012903D1022003B0BDE8F08327
:1026F000012284F83C200368DDE90B180A9ADB0705
:1027000003D1036843F001030360036823F400630B
:102710000360212084F83D00402084F83E00002022
:10272000206462626185608D394620850020CFF685
:10273000FF70E062204632464B46CDF8008001959E
:1027400001F0F2F920B1012003B0BDE8F08300BF31
:10275000208D98B9204641462A4601F049FA88B3AF
:10276000206C0428EFD12068016841F400710160F9
:10277000012003B0BDE8F0830004EBD020464146C1
:102780002A4601F037FC0028EAD1616A226808462F
:1027900010F8013B1361238D6062581E2085678D00
:1027A000013F678557697F07E6D50704E4D048787D
:1027B0001061881C6062981E2085618D01396185D9
:1027C000DAE700BF2068016841F400710160202051
:1027D00084F83D00002084F83E0084F83C0003B0FB
:1027E000BDE8F08310B586B045F200410068C4F240
:1027F000000100228842049202D006B010BD00BF42
:1028000041F21804C4F20204206840F0080020607D
:10281000206800F0080001900198C020029012206A
:1028200003900320059001F5384002A9FFF7BEFA96
:10283000606840F400106060606800F4001001906F
:10284000019806B010BD000040F2000040F23431A3
:10285000C2F20000C2F2000100780A681044086069
:102860007047000080B542F20000C4F20200016827
:1028700041F010010160032000F08AF80F2000F001
:1028800005F800F027F8002080BD000070B540F288
:102890000006C2F2000640F298013278C2F200014E
:1028A0004FF47A730968B3FBF2F20446B1FBF2F11C
:1028B000084600F0D1FB0F2C4FF0010508D838B9BD
:1028C0004FF0FF3021460022002500F035F87460FB
:1028D000284670BD82B041F21800C4F202000168BF
:1028E000022241F001010160016801F00101019142
:1028F0000199416841F080514160406800F080508A
:10290000009000980420C4F20100016862F31A618B
:10291000016002B070470000002848BF704700F017
:102920001F01012202FA01F14EF200124009CEF21B
:10293000000242F82010704710B54EF60C5CCEF243
:10294000000CDCF80030C3F3022E8EF00704042CD8
:1029500028BF0424BEF103034FF0FF3E0EFA04F437
:1029600038BF0023A14399400EFA03F39A43114361
:1029700000F00F02043A624409010C3200F1604396
:10298000B0F1FF3FC8BF03F56442117010BD0000F5
:102990004EF60C51CEF200010A684FF6FF031A40C2
:1029A00060F30A2242F0806040F0FD7008607047DA
:1029B0002DE9F04182B00446007841F21C06C007C0
:1029C000C4F202064AD0306810F0805808D130684E
:1029D00040F080503060306800F0805001900198E5
:1029E00047F20007C4F200073868C00512D43868FF
:1029F00040F480703860FFF7F7FA05463868C00584
:102A000008D4FFF7F1FA401B6428F7D9032002B07D
:102A1000BDE8F081706810F4407012D0616801F474
:102A2000407188420DD0706840F24042C4F24222A8
:102A3000012320F4407113600023C007136071600C
:102A40002AD17068616820F440700843B8F1000F23
:102A5000706003D1306820F08050306020688107BA
:102A600007D556F8181CA26821F44041114346F8D6
:102A7000181CC00604D4002002B0BDE8F08100BFDD
:102A800056F8180CE16820F48000084346F8180C4A
:102A9000002002B0BDE8F081FFF7A6FA054641F23A
:102AA000883700BF70688007CBD4FFF79DFA401BC2
:102AB000B8424FF00300F5D9EBE700002DE9F043F1
:102AC00081B0002800F0858042F20008C4F20208BC
:102AD0000446D8F800000D4600F0070088420CD2EA
:102AE000D8F8000020F007002843C8F80000D8F804
:102AF000000000F00700A8426BD1206841F20409F1
:102B00008107C4F2020917D5410705D5D9F800108D
:102B100041F4E061C9F80010010705D5D9F80010AB
:102B200041F46051C9F80010D9F80010A26821F0F2
:102B3000F0011143C9F80010C00741D1D8F80000D6
:102B400000F00700A8420CD9D8F8000020F00700D8
:102B50002843C8F80000D8F8000000F00700A84299
:102B600037D12068410707D5D9F80010E26821F471
:102B7000E0611143C9F80010000708D5D9F800003A
:102B8000216920F4605040EAC100C9F80000D9F87A
:102B9000002002F00C00082841F20020C0F27A0068
:102BA00050D147F2DE13C2F38341C0F60003595CF3
:102BB000D2033BD440F60010C0F23D00484341E050
:102BC000606802280AD001282AD159F8041C890318
:102BD00008D4012001B0BDE8F08300BF59F8041CFF
:102BE0008901F6D5D9F8001021F003010843C9F88E
:102BF0000000FFF7F9F9064641F28837D9F80000DE
:102C0000616800F00C00B0EB810F97D0FFF7ECF992
:102C1000801BB842F2D9032001B0BDE8F08300BFA9
:102C200059F8041C8907D4D5DCE700BFD9F8002087
:102C300047F2DC13C2F34042C0F600039A5C4843FB
:102C4000B0FBF2F0D9F8001047F2C412C1F303113F
:102C5000C0F60002515C40F2980220FA01F140F205
:102C60000400C2F200000068C2F200021160FFF727
:102C70000DFE002001B0BDE8F083000040F2980096
:102C800041F20401C2F20000C4F2020100680968C6
:102C900047F2D412C1F30221C0F60002515CC840D1
:102CA000704700002DE9F04182B0002868D004464A
:102CB000007841F20006C007C4F2020625D0706811
:102CC00000F00C0004281BD0706800F00C000828ED
:102CD00002D17068C00313D46068002800F06881D6
:102CE000B0F5A02F00F07C81B0F5803F00F07C8132
:102CF000306820F480303060306820F4802076E145
:102D00003068800301D56068D0B32078800718D57B
:102D1000706810F00C0F07D0706800F00C000828E5
:102D20006ED17068C0036BD43068800702D520690B
:102D3000012825D13068616920F0F80040EAC1001F
:102D40003060207800071FD42078400732D4E5692E
:102D500095B1706800F00C00082840F08F80012DBC
:102D60000ED07068216A00F480328A4208D1616A0C
:102D700000F47010884203D1002002B0BDE8F08159
:102D8000012002B0BDE8F081A069002862D00020D7
:102D9000C4F242200121C0F88014FFF725F905464E
:102DA000706A800700F18C80FFF71EF9401B022833
:102DB000F6D92AE1F06910F0805808D1F06940F0A6
:102DC0008050F061F06900F080500090009847F268
:102DD0000007C4F200073868C00529D4386840F4F9
:102DE00080703860FFF700F9054600BF3868C005FD
:102DF0001ED4FFF7F9F8401B6428F7D905E100BF9E
:102E00002069002840F20000C4F2422000F08280D5
:102E100001210160FFF7E8F8054600BF3068800730
:102E20003FF588AFFFF7E0F8401B0228F6D9ECE049
:102E3000E068002800F08080052800F097800128D5
:102E400000F09880306A20F001003062306A20F093
:102E5000040092E00020C4F242200021C0F8801457
:102E6000FFF7C2F8054600BF706A80077FF56CAFB8
:102E7000FFF7BAF8401B0228F6D9C6E00027C4F2D3
:102E8000422700203866FFF7AFF8022D05460BD128
:102E90003068800140F1BE80FFF7A6F8401B022891
:102EA0004FF00300F4D968E7306880017FF564AF24
:102EB000FFF79AF8401B02284FF00300F4D95CE7B3
:102EC00040F29800C2F20000006844F6D351C1F20B
:102ED0006201A0FB0101480A019000BF00BF0198F8
:102EE000411E002801913FF42FAF00BF0198411E01
:102EF000002801913FF428AF00BF0198411E00282F
:102F000001913FF421AF00BF0198411E00280191BB
:102F1000E4D119E700210160FFF766F8054600BF1C
:102F2000306880077FF50DAFFFF75EF8401B022881
:102F30004FF00300F4D920E7306A20F0010030623E
:102F4000306A20F004003062FFF74EF8054641F287
:102F5000883700BF306A800720D5FFF745F8401B4F
:102F6000B8424FF00300F5D907E700BF306A40F0E0
:102F700004003062306A40F001003062FFF734F83C
:102F8000054641F2883700BF306A800706D4FFF754
:102F90002BF8401BB842F7D937E000BFB8F1000F5B
:102FA0007FF4D5AEF06920F08050F061CFE600BF2D
:102FB000306820F480303060306820F48020306049
:102FC000FFF712F8054600BF306880037FF59DAE1D
:102FD000FFF70AF8401B64284FF00300F4D9CCE651
:102FE000306840F480203060306840F480303060D9
:102FF000FEF7FAFF054600BF306880033FF585AE57
:10300000FEF7F2FF401B6428F6D9032002B0BDE8AA
:10301000F08100BF206AB0F5803F05D17168A268D9
:1030200021F40031114371607168626A21F47411F6
:1030300010430843706001203866FEF7D5FF044650
:10304000306880013FF598AEFEF7CEFF001B0228E6
:103050004FF00300F4D990E6411E0020B0EB116F51
:103060001CBF012070474EF21002CEF200025160E8
:103070004EF62351CEF20001F0230B700721906031
:1030800011607047704700007047000010B590F85D
:103090003C20012A4FF0020233D080F83D20026824
:1030A000D2F804E0D2F808C00C682EF07003234375
:1030B00040F2FF74C4F20004A24253600ADCB2F191
:1030C000804F13D040F20043C4F200039A420DD067
:1030D00011E000BF42F60043C4F201039A4205D05A
:1030E00040F60003C4F200039A4204D149682CF070
:1030F0008003194391600121002280F83D1080F87F
:103100003C20104610BD0000002804BF012070477D
:1031100010B5044690F83D0028B9002084F83C0022
:10312000204600F067F8022084F83D00206840F255
:10313000FF730268C4F2000342F6004C9842C4F2E6
:10314000010C15DCB0F1804F1AD040F20041C4F2FE
:103150000001884214D0984218DCB0F1804F1DD095
:1031600040F20041C4F20001884217D01AE000BFCB
:10317000604505D040F60001C4F200018842EAD162
:10318000A16822F070020A439842E6DD604505D04E
:1031900040F60001C4F20001884203D1216922F403
:1031A00040720A43A36922F08001D4F804E0E26887
:1031B000194360450160C262C0F828E002D161692C
:1031C000CCF8301001214161002084F8461084F8C9
:1031D0003E1084F83F1084F8401084F8411084F8C1
:1031E000421084F8431084F8441084F8451084F8A1
:1031F0003D1010BD80B582B0006840F20041C4F2BD
:103200000001884214D042F60041C4F20101884214
:103210000CD141F21800C4F20200016841F40061CF
:103220000160006800F400600190019802B080BD68
:1032300041F21800C4F202004168002241F002018C
:1032400041604068012100F00200009000981D20BC
:10325000FFF772FB1D2002B0BDE88040FFF75CBBAA
:1032600090F83D1001291CBF01207047022180F811
:103270003D10006840F2FF71C4F20001884209DC91
:10328000B0F1804F12D040F20041C4F200018842F8
:103290000CD012E042F60041C4F20101884205D090
:1032A00040F60001C4F20001884206D1816801F0B5
:1032B0000701062904BF00207047016841F00101A1
:1032C000016000207047000080B590F83C20012A82
:1032D0004FF0020200F0C28080F83D20D0F800C01C
:1032E0004FF67772DCF8083023EA0202CCF80820A7
:1032F0000B684F2B28DC1F2B44DD202B45D0302BB7
:1033000043D0402B40F0AC80D1F804E0C968DCF831
:103310002030DCF8202022F00102CCF82020DCF85C
:10332000182022F0F00242EA011123F00A0242EAD8
:103330000E02CCF81810CCF82020DCF8081041F070
:10334000470121F0300180E06F2B27DDB3F5005FEE
:1033500048D0B3F5805F7AD0702B40F08180D1E9FE
:1033600001E3C968DCF8082043EA0E0322F47F4237
:1033700043EA01211143CCF80810DCF8081041F0B1
:10338000770162E00BB1102B6AD1DCF8081021F054
:103390007001194341F0070157E000BF502B35D0B1
:1033A000602B5DD1D1F804E0C968DCF82030DCF88E
:1033B000202022F01002CCF82020DCF8182022F483
:1033C000704242EA013123F0A00242EA0E12CCF828
:1033D0001810CCF82020DCF8081041F0670121F02B
:1033E000100132E0D1E901E3C968DCF8082043EAC2
:1033F0000E0322F47F4243EA01211143CCF8081066
:10340000DCF8081041F480411FE000BFD1F804E06F
:10341000C968DCF82030DCF8202022F00102CCF86A
:103420002020DCF8182022F0F00242EA011123F0FB
:103430000A0242EA0E02CCF81810CCF82020DCF880
:10344000081041F0570121F02001CCF808100022AB
:10345000012180F83D10002180F83C10104680BD0D
:103460000122F5E77047000010B5016804460869BD
:10347000800744BFC8685FEA807039D40869400794
:1034800044BFC8685FEA40703ED40869000744BF83
:10349000C8685FEA007045D40869C00644BFC868C0
:1034A0005FEAC0604AD40869C0071CBFC8685FEA09
:1034B000C07051D10869000644BFC8685FEA006067
:1034C00052D40869400644BFC8685FEA406053D4DC
:1034D0000869800646BFC8685FEA806010BD6FF06B
:1034E000200220460A61BDE81040FFF7CDBD00BFB5
:1034F0006FF002000861012020778869800743D0BF
:103500002046FFF7AFFF45E06FF00400086102209E
:103510002077886910F4407F40D02046FFF7A2FF53
:1035200042E000BF6FF00800086104202077C869FE
:1035300080073DD02046FFF795FF3FE06FF0100079
:10354000086108202077C86910F4407F3AD02046EF
:10355000FFF788FF3CE000BF6FF0010008612046E4
:1035600000F050FA2168A5E76FF08000086120465E
:10357000FFF788FD2168A4E76FF04000086120464E
:1035800000F042FA2168A3E7204600F04DF82046FB
:1035900000F0C6F92168002020776FE7204600F090
:1035A00043F8204600F0BCF92168002020776CE742
:1035B000204600F039F8204600F0B2F921680020DA
:1035C000207769E7204600F02FF8204600F0A8F9A0
:1035D00021680020207766E780B586B040F2004180
:1035E0000068C4F2000100228842049202D006B0B2
:1035F00080BD00BF41F21800C4F20200026842F030
:1036000004020260006800F0040001900198C020EC
:10361000029002200390059001F5823002A9FEF786
:10362000C5FB06B080BD0000704700002DE9F043E7
:1036300090F83C30012B04BF0220BDE8F0834FEA34
:10364000B202032A3CD8DFE802F003437FB900BF8F
:10365000036842F600461D6A1A6AC4F2010622F0A7
:1036600001021A621A465C6852F818CFB3428E689B
:10367000D1F800E025F0020545EA06050CD1CE6838
:10368000D1E9057824F4407425F00C0526F00406F1
:103690003C43354344EA08042CF0730747EA0E071D
:1036A0005C609F614F6809695F631D629F6947F0B5
:1036B00008079F619F6927F004079F61AEE000BF84
:1036C0000121002280F83C200846BDE8F08300BFBD
:1036D000036842F600461D6A1A6AC4F2010622F027
:1036E00010021A621A46D3F804C052F8184FB342B7
:1036F0008E68D1F800E025F0200545EA06150FD1C7
:10370000CE68D1E905986FF0400707EA06162CF459
:10371000406725F0C00547EA8907354347EA880C2A
:1037200024F4E64444EA0E27C3F804C09F614F68BE
:1037300009699F631D629F6947F400679F619F69E4
:1037400027F480679F6168E0036842F600461D6ABF
:103750001A6AC4F2010622F480721A621A46D3F879
:1037600004C052F81CEFB3428E680C6825F4007553
:1037700045EA06250FD1CE68D1E90598360240F218
:10378000FF47BE432CF4405725F4406547EA09172C
:10379000354347EA081C2EF073072743C3F804C0DB
:1037A000DF614F680969DF631D62DF6947F0080761
:1037B000DF61DF6927F00407DF612FE0036842F66D
:1037C0000047D3F820C01A6AC4F2010722F48052DD
:1037D0001A621A465C6852F81C5FD1F800E08E68E5
:1037E000BB4204D14F6924F4804444EA87142CF48A
:1037F000005747EA063725F4E64646EA0E265C609F
:10380000DE614E6809691E641F62DF6947F4006764
:10381000DF61DF6927F48067DF61090213681943FC
:1038200011600021002280F83C200846BDE8F083AA
:10383000002804BF0120704710B5044690F83D00F1
:1038400028B9002084F83C00204600F067F80220E8
:1038500084F83D00206840F2FF730268C4F2000360
:1038600042F6004C9842C4F2010C15DCB0F1804FD6
:103870001AD040F20041C4F20001884214D09842AC
:1038800018DCB0F1804F1DD040F20041C4F20001BD
:10389000884217D01AE000BF604505D040F600010D
:1038A000C4F200018842EAD1A16822F070020A4302
:1038B0009842E6DD604505D040F60001C4F2000103
:1038C000884203D1216922F440720A43A36922F09D
:1038D0008001D4F804E0E268194360450160C262E7
:1038E000C0F828E002D16169CCF8301001214161B3
:1038F000002084F8461084F83E1084F83F1084F8C5
:10390000401084F8411084F8421084F8431084F881
:10391000441084F8451084F83D1010BD7047000035
:103920007047000041B1082910D0042914BF00F1EC
:10393000410200F13F020BE090F83E20012A1CBF3B
:1039400001207047022280F83E2013E000F140027F
:103950001278012A1CBF012070470222082907D0D3
:10396000042914BF80F8412080F83F2002E000BF06
:1039700080F84020006801F01F010122036A8A409C
:1039800023EA02010162036A42F64441C4F20101E2
:103990001A43A1F14403984202620FD040F2FF7132
:1039A000C4F20001884213DCB0F1804F1CD040F219
:1039B0000041C4F20001884216D01CE00A6842F4BB
:1039C00000420A6040F2FF71C4F200018842EBDD60
:1039D00042F60041C4F20101884205D040F60001E0
:1039E000C4F20001884206D1816801F0070106296E
:1039F00004BF00207047016841F001010160002010
:103A0000704700007047000070470000FEE70000AC
:103A10002DE9F04782B0044600680E460168DDF8E3
:103A200028A041F4806101600168DDF82C9041F428
:103A300080711D461746016020464FF0011100229B
:103A40005346CDF8009000F033F958B12068006873
:103A5000C00544BF4FF400702064032002B0BDE8ED
:103A6000F08700BF40F202082068C0F2010806F0AB
:103A7000FE0606612046414652464B4600F002FAD9
:103A800020B1012002B0BDE8F08700BF0020019006
:103A900020684A4641690191806951460190019828
:103AA000204600F0A7FA98B9012D08D02068390AFD
:103AB0000161204651464A4600F09CFA40B9206810
:103AC000F9B20161204651464A4600F093FA58B1D6
:103AD000206C0428D5D12068016841F40071016090
:103AE000012002B0BDE8F08720680022016853463B
:103AF00041F48071016020464FF00111CDF8009033
:103B000000F0D6F80028A1D1206846F0010101613B
:103B10002046414652464B4600F0B4F9002818BFF3
:103B2000012002B0BDE8F0872DE9F04383B00446E0
:103B300000680D4601680A9F0B9E41F4807199460A
:103B40009046016020464FF0011100223B4600964E
:103B500000F0AEF850B120680068C00544BF4FF4D3
:103B600000702064032003B0BDE8F083206805F0F6
:103B7000FE0101610221C0F2010120463A463346AE
:103B800000F080F920B1012003B0BDE8F08300BF50
:103B900000200290206832464169029180693946CE
:103BA00002900298204600F025FA58B1206C0428B3
:103BB000E9D12068016841F400710160012003B07F
:103BC000BDE8F083B9F1010F0AD020684FEA18214F
:103BD000016120463946324600F00CFA0028E5D152
:103BE00020685FFA88F10161002003B0BDE8F0832E
:103BF00070B50368044653F8140F400711D40E46FD
:103C0000481C29D086BB00BF1868400527D4FEF7A2
:103C1000EBF9236853F8140F400739D518684007AB
:103C2000F2D5002070BD00BF18684007F9D41868AD
:103C3000400514D418684007F3D4186840050ED422
:103C400018684007EDD41868400508D41868400784
:103C50004FF0000048BF70BD18684005E4D56FF410
:103C600080601860042014E0154603E053F8140F38
:103C70004007D6D418684005F1D4FEF7B5F9401BCB
:103C80002368B042F2D958694007EFD4202000E001
:103C9000202000212022216384F83D2084F83E105A
:103CA000226C10432064012084F83C1070BD000099
:103CB0002DE9F041054600681E46144601F47F02D6
:103CC00001338FB242D0DDF81880B2F5803F40F06A
:103CD000878040693840C01BB0FA80F04009A0429C
:103CE00040F0C8804EB924E040693840C01BB0FAAB
:103CF00080F04009A04240F0BD80FEF775F9A0EBCE
:103D000008012868B142EFD941693940C91BB1FAAD
:103D100081F14909A142E7D19BE000BF40693840E9
:103D2000C01BB0FA80F04009A0424FF0000040F004
:103D3000A680FEF759F9286841693940C91BB1FAD4
:103D400081F14909A142E9D183E000BFB2F5803F8A
:103D500024D100BF41693940C91BB1FA81F1490939
:103D6000A14240F0878041693940C91BB1FA81F115
:103D70004909A14240F07E8041693940C91BB1FA2E
:103D800081F14909A14275D141693940C91BB1FA94
:103D900081F14909A142DDD06CE000BF8169394061
:103DA000C91BB1FA81F14909A14263D18169394046
:103DB000C91BB1FA81F14909A1425BD1816939403E
:103DC000C91BB1FA81F14909A14253D18169394036
:103DD000C91BB1FA81F14909A142DFD04AE000BF15
:103DE00080693840C01BB0FA80F04009A04241D140
:103DF00046B923E080693840C01BB0FA80F0400922
:103E0000A0423BD1FEF7F0F8A0EB08012868B142D0
:103E1000F0D981693940C91BB1FA81F14909A14240
:103E2000E8D116E080693840C01BB0FA80F0400944
:103E3000A0424FF0000018BFBDE8F081FEF7D4F8B3
:103E4000286881693940C91BB1FA81F14909A14249
:103E5000E8D100202021286385F83D1085F83E0038
:103E6000296C41F02001296485F83C000120BDE85F
:103E7000F08100BF0020BDE8F08100BF0020BDE858
:103E8000F0810000F0B581B0044600681D4643692A
:103E90008FB203EA0701B94202D1002001B0F0BDA0
:103EA00041691646013201F4806125D0002940D1D4
:103EB000CEB100BFFEF798F8411B2068B14203D98C
:103EC00041693940B9424BD141693940B942E4D0E6
:103ED00041694905EED52CE041693940B942DCD051
:103EE0004169490525D4FEF77FF8206841693940CA
:103EF000B942F1D0202024E0D9B941693940B94212
:103F0000CBD04169490514D441693940B942C4D084
:103F1000416949050DD441693940B942BDD0416973
:103F2000490506D441693940B942B6D041694905CD
:103F3000E3D5016841F4007101606FF48061416173
:103F4000042000212022216384F83D2084F83E10C3
:103F5000226C1043206484F83C10012001B0F0BDB5
:103F60002020EEE770B504460068154650F8143F6F
:103F70005A063DD40E4629B926E000BF50F8141F5A
:103F8000490635D40168C90621D4FEF72DF8411B36
:103F90002068B142F2D941694906EFD400202021BE
:103FA000206384F83D1084F83E00206C40F020002F
:103FB00018E000BFFEF718F8206850F8141F4906F3
:103FC000ECD50168490613D40168C906F2D56FF033
:103FD0001001016000202021206384F83D1084F846
:103FE0003E00206C2064002084F83C00012070BD5D
:103FF000002070BD70B50368044653F8140F000626
:1040000011D40E46481C29D086BB00BF1868400555
:1040100027D4FDF7E9FF236853F8140F000639D5BC
:1040200018680006F2D5002070BD00BF18680006B1
:10403000F9D41868400514D418680006F3D4186839
:1040400040050ED418680006EDD41868400508D461
:10405000186800064FF0000048BF70BD18684005A2
:10406000E4D56FF480601860042014E0154603E086
:1040700053F8140F0006D6D418684005F1D4FDF7A4
:10408000B3FF401B2368B042F2D958690006EFD451
:10409000202000E0202000212022216384F83D2000
:1040A00084F83E10226C10432064012084F83C10F8
:1040B00070BD00002DE9F04184B0044601250DF1EA
:1040C0000F006426CDE900052046D021752201238A
:1040D0000296FEF735F99DF80F00682848D14FF099
:1040E00000080DF10E072046D0216B2201238DF828
:1040F0000E80CDE900750296FEF7C8FA04208DF80F
:104100000E002046D02119220123CDE90075029628
:10411000FEF7BCFA02208DF80E002046D0211A22AC
:104120000123CDE900750296FEF7B0FA2046D021B2
:104130001C2201238DF80E80CDE900750296FEF752
:10414000A5FA2046D0211B2201238DF80E80CDE94F
:1041500000750296FEF79AFA2046D02138220123F4
:104160008DF80E50CDE900750296FEF78FFA002506
:10417000284604B0BDE8F0812DE9F04F9DB08A4695
:104180000E210DF166026427CDE90021D0213B22EA
:1041900001230297FEF7D4F8BDF86600BDF86870F9
:1041A00001BA090CAAF8001039BABDF86A60090C06
:1041B000AAF8021031BABDF86E80090CAAF80410F2
:1041C00098FA88F1BDF870B0090CAAF820109BFA93
:1041D0008BF1BDF87220090CAAF8221011BABDF8B3
:1041E0006C90090CC0BA1892AAF8241002F065F875
:1041F0000024C3F610740022234602F001F9CAE934
:104200000201F8BA02F059F80022234602F0F8F849
:10421000F5BACAE90401284602F04FF842F6001345
:10422000C4F2CC03002201F083FECAE9060199FA28
:10423000B9F002F059FD0021C4F2AA3102F076FC77
:1042400041F6B861C4F2122102F0E4FBCAF8400062
:1042500098FAB8F002F031F846F20004C4F26004B3
:104260000022234601F064FECAE90A019BFABBF072
:1042700002F023F80022234601F05AFECAE90C019D
:104280001898C0BA02F019F80022234601F050FE37
:1042900040F20018C2F20008B8F80020CAE90E0186
:1042A00042F62440A8F80220C4F2010000684FF64C
:1042B000FF71A8F8000080B25140904288BF51427F
:1042C000084401F0FAFF48F28043C4F22E130022A2
:1042D00001F02EFEBAF9002005FB05F302FB0232C5
:1042E000C8E90201104601F0E8FF01F0F7FC0022E6
:1042F000002304460D4602F0EFFBA8B9BAF902000C
:1043000001F0DBFF22462B4601F012FE01F008FB14
:104310004CF2F8124AF2DC53C1F66322C4F24C03A9
:1043200002F06EF8149102E0002014900020159025
:10433000BAF90000BAF90440404201F0BEFF054658
:1043400020460E4601F0B9FF02460B46284631468C
:1043500001F0F6FB4CF2F8124AF2DC53C1F663228C
:10436000C4F24C0302F04CF848F20003CCF25603BE
:1043700000228946189002F0C4FBCDF858A048B935
:10438000DAE9140148F20003C4F25603002202F0F5
:10439000B1FB98B948F200031898C4F25603494695
:1043A000002202F0B5FB88B9DAE9140148F20003F3
:1043B000CCF25603002202F0A4FB38B940F25000C0
:1043C0001899C2F20000C0E9061905E1D8E90276A1
:1043D00040F25008C2F20008DAE90C01D8E90823DB
:1043E000CDE9102302F0FCF90246D8E9064B0B4652
:1043F000384631460397049602F002F822465B469F
:1044000001F0DAFCD8E91023D8E90C540D900C9196
:104410003846314607920E930F95139401F0F0FF42
:104420002A46234602F0DCF9D8E90EB3CDF82490F1
:104430005A46089302F0D4F998E84C000696D8F84A
:104440000C60059601F0B8FC039DDDF81090024663
:10445000D8E90A480B462846494601F0D1FF2246D2
:10446000434601F0A9FCDDF81C800E9E12901791C6
:1044700089F0004128464246334601F0C1FF0F9AB9
:10448000139B04460F4601F097FC089BCDE90A10E8
:10449000204639465A4601F08FFC83460890139116
:1044A000DDE905102A464B4601F0AAFF4246334695
:1044B00001F082FC0F9040F25000C2F20000129E08
:1044C000179CD0E904230E913046214601F074FC7C
:1044D00005460F46304621462A463B4601F028FD58
:1044E0008A46049113998146059058462A463B46D0
:1044F00001F01EFD0D9E0C9C834607908846069198
:10450000189809993246234602F06AF905460F4683
:10451000484651462A463B4601F072FF3246234642
:1045200001F04AFC40F250048946C2F2000418909F
:10453000C4E90609584641462A463B46DDF858A0DC
:1045400001F05EFFDDE9102301F036FCC4E908014B
:10455000A046059D049EDDF848B0179C28463146CC
:104560005A46234601F04CFF02460B465846214668
:1045700002F036F9C8E90A0147463146DDF82C80D9
:104580000A9E28464246334601F03AFF02460B4651
:104590004046314602F024F9079C069D179BC7E967
:1045A0000C01204629465A4601F02AFF02460B46D6
:1045B0000898139902F014F9C7E90E01204629461C
:1045C0004246334601F01CFF02460B46DDE90E1061
:1045D00002F006F9C7E91001189848F2000329F023
:1045E0000041C4F256030022CAE9140902F090FA0D
:1045F0000246DAE90A01002A40F2001240F20806F7
:1046000004BF81F00041CAE90A01C2F20002C2F20D
:104610000006D2E90298D6E90823CDE9122302F078
:10462000DFF80246D6E906450B464846414601F00A
:10463000E7FE22462B4601F0BFFBD6E91023D6E960
:104640000C750F900E91484641460992CDE91075C0
:104650001C4601F0D5FE3A462B4602F0C1F8D6E9D9
:104660000EBA5A46534602F0BBF896E88C000897FB
:10467000F768079701F0A0FB0246D6E90A570B46F8
:104680004846414601F0BCFE2A463B4601F094FBF9
:10469000099DCDE9170188F0004148462A46234686
:1046A000274601F0ADFEDDE9102304460E4601F079
:1046B00083FBCDE90C10204631465A46534601F0A3
:1046C0007BFB82460B908B460A91DDE907104A4638
:1046D000434601F095FE2A463B4601F06DFB1190E2
:1046E00040F20800C2F20000179F189DD0E9042391
:1046F00010913846294601F05FFB04460E463846C5
:1047000029462246334601F013FC05460F46504623
:1047100059462246334601F00BFC0F9C0E9E824602
:104720008B46DDE914102246334602F059F88046E4
:1047300089462846394642464B4601F061FE2246EC
:10474000334601F039FB40F20804C2F20004CDE91F
:104750001401C4E906015046594642464B4601F051
:104760004FFEDDE9122301F027FBA046C8E908014E
:104770002C4628463E463946179F189D3A462B46FA
:1047800001F03EFE02460B463846294602F028F864
:10479000C8E90A01204631460D9C0C9E224633464C
:1047A00001F02EFE02460B462046314602F018F874
:1047B000C8E90C01504659463A462B4601F020FE06
:1047C00002460B46DDE90A1002F00AF8C8E90E01BC
:1047D000504659462246334601F012FE02460B4629
:1047E000DDE9101001F0FCFFC8E910011698DDE9C1
:1047F0001421C0E912211DB0BDE8F08FFEE70000D2
:10480000FEE700007047000070470000FEF71CB88C
:104810007047000040F2EC20C2F20000FEF724BE18
:1048200040F29C10C2F20000FDF712B8FEE7000053
:104830009AB0FEF717F800240120CDE91544CDE920
:104840001344109014904FF4E0104FF4803102257F
:10485000199010A80994CDE90744CDE91114CDE9C8
:104860001751FEF71FFA28B1EFF3108072B600BFA0
:10487000FEE700BF0F20CDE90A054FF480600D90E0
:104880004FF4A0600E900AA802210C94FEF716F9CE
:1048900020B1EFF3108072B6FEE700BF02260024BD
:1048A00006A806960894FEF783F828B1EFF3108067
:1048B00072B600BFFEE700BF41F21800C4F202006A
:1048C000016840F6004B41F0100101600168C4F23C
:1048D000010B01F010011091109901680BF5806730
:1048E00041F0200101600168002201F020011091D7
:1048F000109901684FF4005541F00401016001680E
:1049000001F0040110911099016841F00801016063
:1049100000684FF4005100F00800109010983846DD
:10492000FDF75CFB584603210022FDF757FB139669
:1049300010AE1095012538463146CDE91154059742
:10494000FDF734FA40F200090620C1F21109109077
:1049500009F58010ABF5806ACDE911045046314667
:10496000FDF724FA4FF0180850463146CDE910847F
:104970001294FDF71BFA2020CDE91009504631466C
:104980001294FDF713FA0320CDE9100502201390CD
:10499000584631461295FDF709FA58463146CDE999
:1049A00010841295FDF702FA072000210022FDF77E
:1049B000C3FF0720FDF7B0FF082000210022FDF70C
:1049C000BBFF0820FDF7A8FF172000210022FDF7FC
:1049D000B3FF1720FDF7A0FF40F28016C2F20006D9
:1049E0000BF5C051304640F8441F4FF46021057369
:1049F0000475C161C0E901440561FCF7AFFC28B151
:104A0000EFF3108072B600BFFEE700BF06F1440866
:104A1000059F002410A94046CDE910451294FCF7EB
:104A200055FB28B1EFF3108072B600BFFEE700BF60
:104A300040F25020ABF53841C2F2000048F2A062CB
:104A40004FF48043C0F2010280E81600C0E903433E
:104A5000C0E90544C0E90744FDF7CCFA20B1EFF303
:104A6000108072B6FEE700BF40F2EC200021ABF5EB
:104A70008432C2F200004FF6FF730D91CDE90B11A5
:104A8000CDE90611CDE91511CDE91311C0E90021D9
:104A9000C0E9021301618161FEF736FB20B1EFF33B
:104AA000108072B6FEE700BF4FF480500A9040F2CB
:104AB000EC20C2F200000AA9FEF706FC20B1EFF3D9
:104AC000108072B6FEE700BF40F2EC20C2F2000098
:104AD000FEF7AEFE20B1EFF3108072B6FEE700BF26
:104AE00040F2EC20C2F2000006A9FEF7CFFA28B18E
:104AF000EFF3108072B600BFFEE700BF6020109099
:104B00000020CDE91100149040F2EC20C2F2000028
:104B100010A90022FEF78AFD20B1EFF3108072B6D3
:104B2000FEE700BF40F2EC20C2F2000010A9042210
:104B3000FEF77CFD20B1EFF3108072B6FEE700BFF8
:104B400040F2EC20C2F20000FEF746FD40F60040C5
:104B5000C4F20100A0F52841304640F81C1F122184
:104B600000254FF48032C0E90115C0E90352C0E9C5
:104B700005558583FCF79CFF20B1EFF3108072B6DA
:104B8000FEE700BF012018900A21CDE916500D2044
:104B900006F11C04CDE91451199010A92046CDE965
:104BA0001055CDE91255FCF741FD40F60040C4F226
:104BB000010000F5005140F2A420C2F200004FF6BF
:104BC000FF731395CDE91155CDE90A55482280E8C8
:104BD0002600C0E90335C0E90555FEF795FA18B17E
:104BE000EFF3108072B6FEE74FF48050109040F261
:104BF000A420C2F2000010A9FEF766FB20B1EFF37B
:104C0000108072B6FEE700BF40F2A420C2F200009E
:104C10000AA9FEF73BFA18B1EFF3108072B6FEE76F
:104C20004046FCF785FC38464FF400510122FDF761
:104C3000D5F940F2A420C2F20000FEF711FB40F2C9
:104C4000EC25C2F20005284600210027FEF76AFE87
:104C500028460421FEF766FE40F60045C4F2010531
:104C6000284601210122FDF7B9F928460221012237
:104C70004FF0020BFDF7B2F940F21019C2F2000931
:104C800040F2502609F12C05C2F2000628463146B2
:104C90004E221023CDF800B0FCF720F82046FCF798
:104CA000FBFF20460221FCF7A9FC0820C9E9197086
:104CB0003046C9E9177789F86C70FFF7FBF909F1FD
:104CC0003800059009F14800CDE903504DE000BFE0
:104CD00040F2F811C2F20001D1E91407059CD1E9B4
:104CE000122347F2EE1100902046C0F60001019712
:104CF000FBF77AFA049F99F823203846DCA1FBF7EA
:104D000073FA284600210022FCF750F92846214674
:104D1000FCF792F9284600210122FCF747F92846C2
:104D20003946FCF789F999F82300002800F0F08053
:104D300001F0DAFA41F27B4247F6E123C4F2AE72A7
:104D4000C3F6847301F05CFB48F600030022C4F252
:104D5000D30301F055FB01F081FA40F2EC21C2F2DD
:104D600000010968A9F80400486340F29C00C2F2FF
:104D70000000007805280FD0042800F0A98003283F
:104D8000F3D1284600210022FCF710F92846BCA1E7
:104D9000FCF752F9E9E700BF99F80200052819D09D
:104DA0002846FBF76FFF284600210022FCF7FEF89B
:104DB0002846A1A1FCF740F940F29C00C2F2000095
:104DC000007889F802004FF4FA60FCF7A1FF28464A
:104DD000FBF758FF4046FCF745FA01F085FA4FF61D
:104DE00000630022C4F2AF0301F0A2F800F0B2FFAA
:104DF00040F2F814C2F20004D4E91417C9F8100004
:104E0000DDF81490D4E91223009147F2EE114846E0
:104E1000C0F600010197FBF7E7F940F21010C2F26B
:104E20000000006901F0CAFDD4E90423049C0F4688
:104E30000090204685A10197FBF7D6F9284600216E
:104E40000022FCF7B3F82846494640F21019C2F296
:104E50000009FCF7F1F8284600210122FCF7A6F82A
:104E600028462146FCF7E8F899F80100012800F0EF
:104E7000938040F2EC2B0028C2F2000B7FF475AF58
:104E800040F60044C4F2010420461021FDF798F8D2
:104E9000002501284FF00007C3F2333543F23336C3
:104EA0000BD1DBF80000C9F8065047638663204643
:104EB0001021FDF785F80128F3D0DBF80000C9F8D0
:104EC0000670476387630120039D89F801004CE762
:104ED00099F8020004283FF4FBAE2846FBF7D2FE07
:104EE000284600210022FCF761F828465BA1FCF768
:104EF000A3F80020C9F80C004FF4FA60FCF708FF93
:104F000040F29C00C2F20000007889F80200DFE65F
:104F100040F2F810C2F20000D0E9125400222846F4
:104F200021464FF0804301F0ECFD002876D1284661
:104F3000214600224FF0404301F0EAFD00286DD1E8
:104F400040F6004BC4F2010B58461021FDF738F82B
:104F500040F2EC2440F2101900250128C2F20004AE
:104F60004FF00007C2F20009C8F2E80548F2E8066F
:104F70000AD12068C9F80650476386635846102155
:104F8000FDF71EF80128F4D02068C9F806704763C1
:104F90008763039DE9E600BF50460821FDF710F83E
:104FA00040F2EC270028C2F200077FF4DEAE504644
:104FB00008215446FDF704F84E464FF6006B4FF6B5
:104FC00000794FF00005C4F2AF0BC4F27F79D8B975
:104FD0004046FCF747F901F087F900225B4600F0F4
:104FE000A7FF00F0B7FE4946306101F095FE01F0E1
:104FF0005FFE3968F080358148638D632046082163
:10500000FCF7DEFF0028E3D03868C6F80650456399
:1050100085637570039DB146A7E600BF40F2EC20A2
:10502000C2F20000006845F6D811416340F2101941
:10503000039DC2F2000998E62020204D414E5541C3
:105040004C204D4F4445202000000000593A252EA9
:10505000326620413A252E32662000002020202092
:105060004155544F204D4F44452020200000000062
:10507000593A2564202020202020202020200000D4
:1050800020204155544F202F204D414E55414C205A
:10509000000000005FEA400C08BF91F0000F4FEAEB
:1050A0008C234FEAC12243EA51514FEA1C5018BFEA
:1050B00000F5F0404FEA300018BF41F000415FEAD0
:1050C0006C5C00F02980BCF1FF3F08BF40F08040DD
:1050D0007047130C06BF12044FF0100C4FF0000C79
:1050E000130E04BF12020CF1080C130F04BF1201BF
:1050F0000CF1040C930F04BF92000CF1020CD30FBF
:1051000004BF52000CF1010C11464FF00002A0F157
:105110001F00A0EB0C00704711F0004F08BF704754
:1051200031F000413FF4D5AF0B0C06BF09044FF03E
:10513000100C4FF0000C0B0E04BF09020CF1080C10
:105140000B0F04BF09010CF1040C8B0F04BF890085
:105150000CF1020CCB0F04BF49000CF1010CCCF197
:10516000200322FA03F341EA030102FA0CF2A0EB56
:105170000C0000F10100704723F07F4720F07F4CC6
:1051800080EA030000F00040ACEB070303F57C531A
:1051900003F1FF032DE9804909B44FEA144324EADF
:1051A00003484FEA154B25EA0B4E0FF2042606EB97
:1051B00013273E7803FB0667C7F5000707FB06F6D3
:1051C0004FEAD64606F102064FEA543707FB066C53
:1051D000CCF1005C4FEA1C472CEA074C0CFB06F5AF
:1051E00007FB06F404EB15464FEA961649085FEAFA
:1051F000320234BF00204FF000404FEAD13706FBA7
:1052000007FC4FEA1C4C0CFB0BF7D21B03FB0CF703
:1052100061EB07010CFB0EF7B0EB074072EB174296
:105220000CFB08F734BFA2EB0742B2EB074261EB7D
:1052300017414FEA0C444FEA910706FB07FC4FEA7F
:105240001C4C0CFB0BF7B0EBC74072EB573203FB67
:105250000CF734BFA2EBC742B2EBC74261EB573148
:105260000CFB0EF7B0EBC70072EB57720CFB08F7A4
:1052700034BFA2EBC702B2EBC70261EB57714FEA32
:10528000816141EA92114FEA826242EA90124FEA4A
:10529000806004EBCC04039F4FEAD13706FB07FC88
:1052A0004FEA1C4C0CFB0BF7D21B03FB0CF761EB1A
:1052B00007010CFB0EF7B0EB074072EB17420CFB3B
:1052C00008F734BFA2EB0742B2EB074261EB17418C
:1052D0004FEA8C5504EB9C244FEA910706FB07FC30
:1052E0004FEA1C4C0CFB0BF7B0EBC74072EB57328C
:1052F00003FB0CF734BFA2EBC742B2EBC74261EB32
:1053000057310CFB0EF7B0EBC70072EB57720CFB7A
:1053100008F734BFA2EBC702B2EBC70261EB5771CB
:105320004FEA816141EA92114FEA826242EA9012A9
:105330004FEA806015EB4C2544F100044FEAD13769
:1053400006FB07FC4FEA1C4C0CFB0BF7D21B03FBC4
:105350000CF761EB07010CFB0EF7B0EB074072EBAB
:1053600017420CFB08F734BFA2EB0742B2EB07422F
:1053700061EB17414FEA813141EA92414FEA8232B3
:1053800042EA90424FEA80304FEA0C7615EB1C154A
:1053900044F1000448EA03434EEA0B484FF0000E84
:1053A000B2EB080C71EB030724BF624639464EEBA3
:1053B0000E0E4FF0000B0018524149414BEB0B0B06
:1053C000B2EB080C71EB03077BF1000B24BF6246C4
:1053D00039464EEB0E0E4FF0000B0018524149417A
:1053E0004BEB0B0BB2EB080C71EB03077BF1000BE3
:1053F00024BF624639464EEB0E0E51EA020718BF33
:1054000046F0010616EB0E7655F1000254F100014C
:1054100003D5BDE88901BDE80088BDE88901BDE884
:105420000048B619524141EB0101A3F10103704755
:1054300080807F7E7D7C7B7A7978777676757473D1
:10544000727171706F6E6E6D6C6C6B6A6A69686890
:10545000676666656464636362616160605F5F5E26
:105460005E5D5D5C5C5B5B5A5A595958585757569C
:105470005655555554545353525252515150505001
:105480004F4F4F4E4E4D4D4D4C4C4C4B4B4B4A4A53
:105490004A49494948484847474747464646454597
:1054A00045444444444343434342424242414141D0
:1054B0009C46002B30D477002BD04FEA37071CB521
:1054C00003B44FF010004FF01001BAF1000F06D0F6
:1054D000BCF1000FDCBF40F0080040F008014FF0C5
:1054E00000000FBCBDE810400BF1010BBBF1010F38
:1054F00008BF5FEA170722BF12F1010211F1010193
:105500004FF0004143F1000300F0004043EA000087
:105510007047F9D35708D0E746EA06464FEA1646E1
:1055200013F1400F1FDD13F1200FDFBF16430A46B2
:10553000002120335B42BED0C3F1200746EA064675
:105540004FEA164602FA07F746EA070622FA03F27E
:10555000C3F1200701FA07F742EA070221FA03F133
:105560004FF00003A7E746EA020646EA06464FEA7E
:10557000164646EA0106BCBF46EA0646360C4FF020
:1055800000034FF000024FF0000194E72DE9804C3A
:1055900070B49A46934691E8380007C831EA400C47
:1055A00048BF34EA430C03D5FFF7E6FDFFF780FF61
:1055B000F0BCBDE8008C2DE9804C70B49A4693464F
:1055C00091E8380007C810F0804F08BF13F0804FF3
:1055D00003D100F005F8FFF76BFFF0BCBDE8008CCD
:1055E00020F07F4723F07F4C80EA030000F000406A
:1055F00007EB0C03A3F57C53A3F1FE0392F0000F1D
:1056000000F0B38095F0000F00F077802DE901499C
:105610004FEA114021EA00484FEA144624EA0647BF
:1056200000FB06FC08FB06F607FB08F818EB06482B
:105630004CEB164C00FB07F718EB07484CEB1740F8
:105640004FEA124B22EA0B4E4FEA154625EA06476F
:105650000BFB06FC0EFB06F607FB0EFE1EEB064ED2
:105660004CEB164C0BFB07F71EEB074E4CEB174BA6
:1056700018EB0B0840F1000018EB0E0B58EB00087C
:1056800040F100008F1A4FF000014FF000063CBFC0
:10569000C943661B14BFB5EB040C00213CBFC943D2
:1056A000F61B4FEA174427EA04454FEA1C472CEA49
:1056B000074C04FB076205FB07F70CFB05F616EB2E
:1056C000074642EB174204FB0CFC16EB0C4642EB80
:1056D0001C421BEB060658EB020241414EEA8E0EBD
:1056E00046EA9E0601D5BDE80189B619524141EB53
:1056F0000101A3F10103BDE801894FEA144524EA41
:1057000005464FEA114721EA074C05FB07F406FB63
:1057100007F70CFB06F111EB074144EB174405FBBF
:105720000CFC11EB0C4144EB1C444FEA124722EAFB
:10573000074C05FB07F206FB07F70CFB06F616EB1A
:10574000074642EB174205FB0CFC16EB0C4642EBFE
:105750001C456A1854F1000148BF7047B619524100
:1057600041EB0101A3F10103704795F0000F37D021
:105770004FEA114221EA02464FEA144724EA074C55
:1057800002FB07F106FB07F70CFB06F414EB0744DA
:1057900041EB174102FB0CFC14EB0C4441EB1C41A8
:1057A0004FEA154725EA074C02FB07F506FB07F70A
:1057B0000CFB06F616EB074645EB174502FB0CFC07
:1057C00016EB0C4645EB1C42121951F1000148BF83
:1057D0007047B619524141EB0101A3F10103704733
:1057E0004FEA144524EA05464FEA114721EA074CDF
:1057F00005FB07F106FB07F70CFB06F212EB07426D
:1058000041EB174105FB0CFC12EB0C4251EB1C4128
:105810004FF0000648BF7047921841EB0101A3F119
:1058200001037047490050EAC12018BF04204A0D07
:1058300018BF40F0010040F2FF72B2EB515F08BFA9
:1058400040F00200012808BF052070472DE9F04113
:105850004F1E00EBC7010446D1E9000115461E4664
:1058600037F006020DD02A46334600F0C9FD7F1EF0
:1058700004EBC703D3E9002300F09EFA37F00602D9
:10588000F1D1022F25D0042F13D0062F18BFBDE869
:10589000F0812A46334600F0B3FDD4E90A2300F034
:1058A0008BFA2A46334600F0ABFDD4E9082300F01A
:1058B00083FA2A46334600F0A3FDD4E9062300F01C
:1058C0007BFA2A46334600F09BFDD4E9042300F01E
:1058D00073FA2A46334600F093FDD4E9022300F020
:1058E0006BFA2A46334600F08BFDD4E90023BDE86D
:1058F000F04100F061BA012201F083BB00F05CBA14
:10590000024A0020110701F07CBB000001FDFFFFEF
:1059100030380A2801D2012070470020704700006B
:105920002DE9F84F04460D4621F0004000917349DF
:10593000814211DC7249884201DC06D12CB120463B
:105940002946BDE8F84FFFF7D6BF6E48002DCCBF03
:105950006D496E49BDE8F88F6D49814211DD6D4991
:105960008142D8BF4FF0FF366DDD20462946FFF754
:1059700059FF042808BFFFF7C3FF20462946BDE8AA
:10598000F88F6549654F25F00045814233DD644954
:10599000814219DD002632464FF0804320462946D9
:1059A00000F00AFA80468A4601222046294601F084
:1059B00028FB00223B4600F013FF4246534600F00E
:1059C000B7FA04460D463EE001260022BA463B46A1
:1059D0002046294600F0F0F980460F460022534643
:1059E0002046294600F0FCFE42463B4600F0A0FA65
:1059F00004460D4627E04B4981421BDDDFF828A114
:105A00000226002253462046294600F0F9FC0022D7
:105A10003B4600F0D1F980460F460022534620460F
:105A2000294600F0DDFE42463B4600F081FA04467E
:105A30000D4608E0032622462B4600203B4900F095
:105A400077FA04460D4622462B461046194600F0CA
:105A5000D7FC8B46824602460B4600F0D1FC074637
:105A60000246334888460B4606217844FFF7EEFE8F
:105A700052465B4600F0C4FC82462E488B463A46AE
:105A8000434605217844FFF7E1FE3A46434600F0DD
:105A9000B7FC02460B46002E504659460CDA00F081
:105AA0008BF922462B4600F0ABFC01B022462B4678
:105AB000BDE8F04F00F0A2BD00F07EF922462B4673
:105AC00000F09EFC1C4A7A4402EBC603D3E9002393
:105AD00000F086FE22462B4600F082FE174A7A44EA
