:020000040800F2
:10000000E8060020890100084D1300084513000888
:1000100049130008450200086D13000800000000A5
:100020000000000000000000000000005513000860
:100030005502000800000000511300085913000881
:10004000A3010008A3010008A3010008A301000800
:10005000A3010008A3010008A3010008A3010008F0
:10006000A3010008A3010008A3010008A3010008E0
:10007000A3010008A3010008A3010008A3010008D0
:10008000A3010008A3010008A3010008A3010008C0
:100090006113000849020008A3010008A301000839
:1000A000A3010008A3010008A3010008A3010008A0
:1000B000A3010008A3010008A3010008A301000890
:1000C000A3010008A3010008A3010008A301000880
:1000D000A3010008A3010008A3010008A301000870
:1000E000A3010008A3010008A301000800F002F822
:1000F00000F03AF80AA090E8000C82448344AAF188
:100100000107DA4501D100F02FF8AFF2090EBAE885
:100110000F0013F0010F18BFFB1A43F0010318473B
:100120000014000020140000103A24BF78C878C1E1
:10013000FAD8520724BF30C830C144BF04680C60ED
:10014000704700000023002400250026103A28BF35
:1001500078C1FBD8520728BF30C148BF0B60704739
:100160001FB51FBD10B510BD00F031F81146FFF7E7
:10017000F7FF01F0FDF800F04FF803B4FFF7F2FFCE
:1001800003BC00F057F800000948804709480047C1
:10019000FEE7FEE7FEE7FEE7FEE7FEE7FEE7FEE737
:1001A000FEE7FEE704480549054A064B7047000094
:1001B0005D130008ED000008E8000020E8060020BC
:1001C000E8020020E802002070477047704775463B
:1001D00000F02CF8AE4605006946534620F00700B3
:1001E000854618B020B5FFF7DDFFBDE820404FF091
:1001F00000064FF000074FF000084FF0000BAC4630
:10020000ACE8C009ACE8C009ACE8C009ACE8C0097A
:1002100021F007018D46704710B50446AFF300800A
:100220002046BDE81040FFF7A8BF00000048704717
:100230001000002001491820ABBEFEE72600020096
:1002400070470000FEE7000040F2BC00C2F2000070
:1002500000F080B97047000090F82020013A012A90
:1002600008D8006800F114020020136819431160D7
:10027000704700BF00F1240201204FF48021136871
:10028000194311607047000010B590F820E0D0F8D5
:1002900000C0AEF1010EBEF1010FDCF808E011D88C
:1002A0001EF0E05F18D0CEF3016EBEF1030F1DD13A
:1002B00000F1240101204FF400020B681A430A6088
:1002C00010BD00BF00F1240101204FF480220B6813
:1002D0001A430A6010BD00BF00F1240101204FF451
:1002E00000120B681A430A6010BD00BF012000FA1B
:1002F0000EF01860886818B14B6840EAC30001E04E
:1003000008684005D1E9033403430CEB0E10C0F834
:100310008031C0F88441097D012905D100F5C27101
:100320000B6843F480730B605168C0F88C1112683D
:1003300000F5C071C0F88821002001220B681A4323
:100340000A6010BDB0B5026890F82030013B012B67
:1003500028D8D2F80002012340F00100C2F80002C0
:10036000D1F814E0CC690EF01F0003FA00F0D2F8C7
:100370001C326FEA000C8343012CC2F81C3217D0E8
:100380006CBBD2F80C3203EA0C03C2F80C32CB6817
:100390008C8844EA034302EBCE04C4F840320B4697
:1003A00015E000BF416A41F4802141620120B0BDE7
:1003B000D2F80C320343C2F80C320B688C8844EA42
:1003C000034302EBCE04C4F8403201F10C038C6805
:1003D0001B8843EA044302EBCE04C4F84432D2F84B
:1003E00004328D6943EA0004D1F810E0096A002D57
:1003F00008BF03EA0C04C2F80442D2F81432BEF17A
:10040000000F43EA000408BF03EA0C040129C2F804
:10041000144204D1D2F81C120843C2F81C02D2F8CC
:10042000000220F00100C2F800020020B0BD000070
:100430007047000010B590F82040013C012C71D8A5
:10044000D0F800C0002977D0DCF81040A40777D09E
:100450000CEB011CDCF8B0410CF5D87E14F0040460
:100460009460DCF8B04119BFE4085460640D146076
:10047000DEF80040002904F00204D460DCF8B44146
:1004800004F00F041461DCF8B441C4F30724946150
:10049000DCF8B4414FEA14445461DCF8B8211A7016
:1004A000026802EB0112D2F8B8214FEA12225A7008
:1004B000026802EB0112D2F8B8214FEA12429A7098
:1004C000026802EB0112D2F8B8214FEA1262DA7028
:1004D000026802EB0112D2F8BC211A71026802EB29
:1004E0000112D2F8BC214FEA12225A71026802EBC3
:1004F0000112D2F8BC214FEA12429A71026802EB53
:100500000112D2F8BC214FEA1262DA71006814BFFE
:1005100000F1100100F10C01002020220B681A43A9
:100520000A6010BD00F1240101204FF480220B6805
:100530001A430A6010BD00BFDCF80C40A40787D145
:1005400000F1240101204FF400120B681A430A60E5
:1005500010BD00002DE9F04F81B0044600684669E7
:10056000D0F804908768D0F80CB0D0F810A0D0F87C
:100570001880F10704D1002530071DD424E000BF06
:10058000F90710D00121BA07816009D4780700F17A
:10059000AF80380700F1B680204600F017FA02E07D
:1005A000204600F015FA0025F80500F18780F803D1
:1005B00000F1B180300707D51BF0100004D020688F
:1005C00045F400751021C160700708D51BF00800C4
:1005D00005D020680821C160204600F0B3F9B007BB
:1005E00006D52068C068800702D0204600F0ACF92C
:1005F000700607D51AF0100004D0206845F4806515
:1006000010210161B00608D51AF0080005D0206855
:1006100008210161204600F0A5F9F00606D5206802
:100620000069800702D0204600F09EF9B00308D58B
:1006300019F0100005D0206810214160204600F01C
:1006400095F9F00308D519F0080005D020680821B5
:100650004160204600F0C6F9300440F19B805FEA1B
:10066000497040F1948006F4807008EA1020284315
:100670005FEA8871014648BF41F00201B20558BFE8
:1006800001465FEA48700D4648BF45F00405700515
:1006900058BF0D46300540F17A8018F0700000F028
:1006A00076801038000905286CD8DFE800F003597F
:1006B0005D61656945F0080564E000BF20684FF49E
:1006C0008071BA0581600BD4780515D438051DD426
:1006D000204600F07FF9F8037FF56CAF1BE000BF08
:1006E000204600F079F9F8037FF564AF13E000BF0E
:1006F0004FF4006558E700BF05F50055F8037FF596
:1007000059AF08E04FF480554EE700BF05F580452E
:10071000F8037FF54FAF20684FF48031BA03816052
:100720000AD4780310D4380314D4204600F056F9C4
:1007300030073FF541AF47E7204600F051F9300759
:100740003FF53AAF40E700BF05F5004530073FF5FC
:1007500033AF39E705F5803530073FF52DAF33E787
:1007600045F010050EE000BF45F020050AE000BF8F
:1007700045F0400506E000BF45F0800502E000BFFF
:1007800045F480752068816921F0700181612068DD
:100790000421416055B1606A40EA0501204661626A
:1007A00001B0BDE8F04FFFF743BE00BF01B0BDE8A8
:1007B000F08F0000B0B5C8B1044690F8200010B921
:1007C000204600F071F82068016821F00201016004
:1007D00000F02EFA054600BF20684168890707D55A
:1007E00000F026FA401B0B28F6D312E00120B0BD22
:1007F000016841F00101016000F01AFA054600BFEE
:1008000020684168C9070DD100F012FA401B0B287F
:10081000F6D3606A052140F400306062012084F85C
:100820002010B0BD217E0268012922F0800208BF9D
:1008300080320260617E0268012922F0400208BF16
:1008400040320260A17E0268012922F0200208BF26
:1008500020320260E17E0268012922F0100218BFF6
:1008600010320260217F0268012922F0080208BFCD
:1008700008320260617F0268012922F0040208BF89
:1008800004320260D4E901C2D4E9033561691A4334
:100890002A431143ACF101021143C161002001213F
:1008A000606284F82010B0BDB0B586B040F6000498
:1008B000C4F201040068A4F524420021904205918D
:1008C00002D006B0B0BD00BF41F21800C4F2020071
:1008D000426802AD42F000724260426802F000726B
:1008E0000192019A026842F004020260006800F07E
:1008F0000400019001984FF40060CDE902010491D9
:100900002046294600F084F84FF4805002900220DF
:100910000390032005902046294600F079F8142022
:100920000021002200F002FA142000F0EFF9152057
:100930000021002200F0FAF9152000F0E7F906B0D6
:10094000B0BD00007047000040F27002C2F2000229
:1009500011784B1C114402F8303B01F110030021C7
:10096000FFF768BD70470000704700007047000047
:10097000B0B5044690F8200001281DD1022084F86B
:1009800020002068016821F00101016000F050F9A9
:10099000054600BF20684068C00713D000F048F942
:1009A000401B0B28F6D3606A40F4003060620520DB
:1009B00084F820000120B0BD606A40F4002060622D
:1009C0000120B0BD00206062B0BD00007047000093
:1009D000704700007047000070470000704700003B
:1009E0007047000070470000B0B5044600F020F9E1
:1009F000054640F20000C2F200000078611C18BFFA
:100A0000044400BF00F014F9401BA042FAD3B0BD6B
:100A10002DE9F04F82B041F20042C4F201020E68AB
:100A20000423904208BF0323002E009300F0F680B9
:100A300040F20C4E4FF6FF7CC4F2010E002201245E
:100A4000C1F2100C4FF0000A4FF0000943E000BF64
:100A5000012502F00C040F27A7402BEA070705FA2F
:100A600004F43C4343F82640D1F804B040F200457A
:100A7000C4F201055FEACB332B6854BF23EA0803B5
:100A800043EA08032B606B685FEA8B3454BF23EAA8
:100A9000080343EA08036B605FEACB24AB6854BFEA
:100AA00023EA080343EA08035FEA8B24AB60DEF81D
:100AB00000304FF0010454BF23EA080343EA08035F
:100AC000CEF800300E680AF1010A36FA0AF302F194
:100AD000040200F0A38004FA0AF816EA080FF1D025
:100AE0004B68634512DC122B56D8DFE803F0350B58
:100AF0004549555555555555555555555555554DCA
:100B0000510000BFD1F80C9046E000BF4FF6FF77D0
:100B1000C1F22107BB420FDC0027C1F21107BB4223
:100B20001AD00027C1F21207BB4215D00027C1F22C
:100B30002107BB4210D02FE00027C1F22207BB42A1
:100B40000AD00027C1F23107BB4205D00027C1F20D
:100B50003207BB4220D100BF8B684BB1012B14BFC1
:100B6000C0F81480C0F810804FF0080914E000BFEE
:100B70004FF0040910E000BFCB6803F108090BE057
:100B80004FF0000908E000BFCB6803F1040903E05F
:100B9000CB6803F10C0900BF13460546BAF1080FF4
:100BA00024BF203B04352E680F279F40BE4309FA1F
:100BB00003F333432B60CB79DB067FF583AF41F240
:100BC0001804C4F2020423684FEA9A0643F00103B2
:100BD0002360236840F6000403F001030193019BA6
:100BE00040F20043C4F20103A3F57E7353F826B02C
:100BF000C4F20104A0420FD040F60044C4F2010444
:100C0000A0423FF425AF41F20004C4F20104009D6C
:100C1000A04208BF02251CE700251AE702B0BDE884
:100C2000F08F0000002A08BF09040161704700002E
:100C300040F2E400C2F200000068704740F2000099
:100C400040F2E401C2F20000C2F2000100780A683A
:100C5000104408607047000080B542F20000C4F202
:100C60000200016841F010010160032000F08AF8E1
:100C7000002000F005F800F027F8002080BD0000FB
:100C800070B540F20006C2F2000640F20801327868
:100C9000C2F200014FF47A730968B3FBF2F2044622
:100CA000B1FBF2F1084600F037FB0F2C4FF00105C5
:100CB00008D838B94FF0FF3021460022002500F057
:100CC00035F87460284670BD82B041F21800C4F255
:100CD00002000168022241F001010160016801F097
:100CE000010101910199416841F0805141604068E2
:100CF00000F08050009000980420C4F201000168C8
:100D000062F31A61016002B070470000002848BF1A
:100D1000704700F01F01012202FA01F14EF20012A9
:100D20004009CEF2000242F82010704710B54EF68E
:100D30000C5CCEF2000CDCF80030C3F3022E8EF017
:100D40000704042C28BF0424BEF103034FF0FF3E28
:100D50000EFA04F438BF0023A14399400EFA03F3BE
:100D60009A43114300F00F02043A624409010C3225
:100D700000F16043B0F1FF3FC8BF03F5644211705A
:100D800010BD00004EF60C51CEF200010A684FF67D
:100D9000FF031A4060F30A2242F0806040F0FD70C9
:100DA000086070472DE9F04381B0002800F085808D
:100DB00042F20008C4F202080446D8F800000D46CA
:100DC00000F0070088420CD2D8F8000020F007009D
:100DD0002843C8F80000D8F8000000F00700A84237
:100DE0006BD1206841F204098107C4F2020917D5CA
:100DF000410705D5D9F8001041F4E061C9F80010A9
:100E0000010705D5D9F8001041F46051C9F8001068
:100E1000D9F80010A26821F0F0011143C9F80010C0
:100E2000C00741D1D8F8000000F00700A8420CD953
:100E3000D8F8000020F007002843C8F80000D8F8D0
:100E4000000000F00700A84237D12068410707D50D
:100E5000D9F80010E26821F4E0611143C9F80010EC
:100E6000000708D5D9F80000216920F4605040EA55
:100E7000C100C9F80000D9F8002002F00C000828D1
:100E800041F20020C0F27A0050D141F21053C2F377
:100E90008341C0F60003595CD2033BD440F60010F6
:100EA000C0F23D00484341E0606802280AD00128B2
:100EB0002AD159F8041C890308D4012001B0BDE8E7
:100EC000F08300BF59F8041C8901F6D5D9F8001049
:100ED00021F003010843C9F80000FFF7A9FE064608
:100EE00041F28837D9F80000616800F00C00B0EBDF
:100EF000810F97D0FFF79CFE801BB842F2D90320E8
:100F000001B0BDE8F08300BF59F8041C8907D4D5AF
:100F1000DCE700BFD9F8002041F2FE43C2F34042B3
:100F2000C0F600039A5C4843B0FBF2F0D9F8001019
:100F300041F20052C1F30311C0F60002515C40F2CD
:100F4000080220FA01F140F20400C2F20000006839
:100F5000C2F200021160FFF793FE002001B0BDE86D
:100F6000F08300002DE9F04182B0002868D00446EB
:100F7000007841F20006C007C4F2020625D070686E
:100F800000F00C0004281BD0706800F00C0008284A
:100F900002D17068C00313D46068002800F0688133
:100FA000B0F5A02F00F07C81B0F5803F00F07C818F
:100FB000306820F480303060306820F4802076E1A2
:100FC0003068800301D56068D0B32078800718D5D9
:100FD000706810F00C0F07D0706800F00C00082843
:100FE0006ED17068C0036BD43068800702D5206969
:100FF000012825D13068616920F0F80040EAC1007D
:101000003060207800071FD42078400732D4E5698B
:1010100095B1706800F00C00082840F08F80012D19
:101020000ED07068216A00F480328A4208D1616A69
:1010300000F47010884203D1002002B0BDE8F081B6
:10104000012002B0BDE8F081A069002862D0002034
:10105000C4F242200121C0F88014FFF7E9FD0546E3
:10106000706A800700F18C80FFF7E2FD401B0228C8
:10107000F6D92AE1F06910F0805808D1F06940F003
:101080008050F061F06900F080500090009847F2C5
:101090000007C4F200073868C00529D4386840F456
:1010A00080703860FFF7C4FD054600BF3868C00592
:1010B0001ED4FFF7BDFD401B6428F7D905E100BF32
:1010C0002069002840F20000C4F2422000F0828033
:1010D00001210160FFF7ACFD054600BF30688007C5
:1010E0003FF588AFFFF7A4FD401B0228F6D9ECE0DE
:1010F000E068002800F08080052800F09780012833
:1011000000F09880306A20F001003062306A20F0F0
:10111000040092E00020C4F242200021C0F88014B4
:10112000FFF786FD054600BF706A80077FF56CAF4C
:10113000FFF77EFD401B0228F6D9C6E00027C4F267
:10114000422700203866FFF773FD022D05460BD1BC
:101150003068800140F1BE80FFF76AFD401B022825
:101160004FF00300F4D968E7306880017FF564AF81
:10117000FFF75EFD401B02284FF00300F4D95CE747
:1011800040F20800C2F20000006844F6D351C1F2F8
:101190006201A0FB0101480A019000BF00BF019855
:1011A000411E002801913FF42FAF00BF0198411E5E
:1011B000002801913FF428AF00BF0198411E00288C
:1011C00001913FF421AF00BF0198411E0028019119
:1011D000E4D119E700210160FFF72AFD054600BFB1
:1011E000306880077FF50DAFFFF722FD401B022816
:1011F0004FF00300F4D920E7306A20F0010030629C
:10120000306A20F004003062FFF712FD054641F21B
:10121000883700BF306A800720D5FFF709FD401BE3
:10122000B8424FF00300F5D907E700BF306A40F03D
:1012300004003062306A40F001003062FFF7F8FCD1
:10124000054641F2883700BF306A800706D4FFF7B1
:10125000EFFC401BB842F7D937E000BFB8F1000FF0
:101260007FF4D5AEF06920F08050F061CFE600BF8A
:10127000306820F480303060306820F480203060A6
:10128000FFF7D6FC054600BF306880037FF59DAEB2
:10129000FFF7CEFC401B64284FF00300F4D9CCE6E6
:1012A000306840F480203060306840F48030306036
:1012B000FFF7BEFC054600BF306880033FF585AEF2
:1012C000FFF7B6FC401B6428F6D9032002B0BDE846
:1012D000F08100BF206AB0F5803F05D17168A26837
:1012E00021F40031114371607168626A21F4741154
:1012F00010430843706001203866FFF799FC0446EC
:10130000306880013FF598AEFFF792FC001B022881
:101310004FF00300F4D990E6411E0020B0EB116FAE
:101320001CBF012070474EF21002CEF20002516045
:101330004EF62351CEF20001F0230B70072190608E
:1013400011607047FEE70000FEE70000FEE70000C6
:101350007047000070470000FFF770BC7047000046
:1013600040F2BC00C2F20000FFF7F4B8FEE7000054
:1013700090B0FFF771FC00240120CDE90B44CDE9CA
:10138000094406900A904FF4E0104FF48031022592
:101390000F9006A8CDE90714CDE90D51FFF7E2FD46
:1013A00020B1EFF3108072B6FEE700BF0F20CDE949
:1013B00001054FF48060CDE9040401A802210394E3
:1013C000FFF7F0FC20B1EFF3108072B6FEE700BF2C
:1013D00041F21800C4F20200016841F2000441F039
:1013E000100101600168C4F2010401F010010691CE
:1013F00006990168002241F02001016001684FF464
:10140000005601F02001069106990168002541F07F
:101410000401016000684FF4005100F004000690E0
:1014200006982046FFF7FEFB02200696012609904B
:1014300006A92046CDE90765FFF7EAFA40F27008F1
:10144000C2F20008A4F52C41404640F84C1F12217E
:101450004FF4803300F1040C4FF080428CE82600FA
:10146000C0E9043585618583FFF7A4F920B1EFF366
:10147000108072B6FEE700BF0A2008F14C04CDE9E7
:101480000E6006A920460B95CDE90655CDE9085515
:101490000A95CDE90C56FEF755FF2046FFF768FA8E
:1014A00020460221FEF7D8FE40F21110C8E90605D9
:1014B00040F20120C8E90855C8F8286088F82C5087
:1014C000C0F2034088F8015008F1180508F1080639
:1014D00008F10407C8F808002046294632463B4672
:1014E000FEF7D2FE40F6B830FFF77EFA98F801001A
:1014F0000130C1B2082988F80100EDD3FEE70102EE
:1015000000000000000000000102030406070809B3
:1015100002030405060708090A0B0C0D0E0F101034
:1015200040150008000000201000000028010008FD
:101530005015000810000020D806000044010008E3
:1015400001000000100000000024F4000000000072
:04000005080000ED02
:00000001FF
